{
  "contractName": "ERC1155BaseURI",
  "abi": [
    {
      "anonymous": false,
      "inputs": [
        {
          "indexed": true,
          "internalType": "address",
          "name": "account",
          "type": "address"
        },
        {
          "indexed": true,
          "internalType": "address",
          "name": "operator",
          "type": "address"
        },
        {
          "indexed": false,
          "internalType": "bool",
          "name": "approved",
          "type": "bool"
        }
      ],
      "name": "ApprovalForAll",
      "type": "event"
    },
    {
      "anonymous": false,
      "inputs": [
        {
          "indexed": true,
          "internalType": "address",
          "name": "operator",
          "type": "address"
        },
        {
          "indexed": true,
          "internalType": "address",
          "name": "from",
          "type": "address"
        },
        {
          "indexed": true,
          "internalType": "address",
          "name": "to",
          "type": "address"
        },
        {
          "indexed": false,
          "internalType": "uint256[]",
          "name": "ids",
          "type": "uint256[]"
        },
        {
          "indexed": false,
          "internalType": "uint256[]",
          "name": "values",
          "type": "uint256[]"
        }
      ],
      "name": "TransferBatch",
      "type": "event"
    },
    {
      "anonymous": false,
      "inputs": [
        {
          "indexed": true,
          "internalType": "address",
          "name": "operator",
          "type": "address"
        },
        {
          "indexed": true,
          "internalType": "address",
          "name": "from",
          "type": "address"
        },
        {
          "indexed": true,
          "internalType": "address",
          "name": "to",
          "type": "address"
        },
        {
          "indexed": false,
          "internalType": "uint256",
          "name": "id",
          "type": "uint256"
        },
        {
          "indexed": false,
          "internalType": "uint256",
          "name": "value",
          "type": "uint256"
        }
      ],
      "name": "TransferSingle",
      "type": "event"
    },
    {
      "anonymous": false,
      "inputs": [
        {
          "indexed": false,
          "internalType": "string",
          "name": "value",
          "type": "string"
        },
        {
          "indexed": true,
          "internalType": "uint256",
          "name": "id",
          "type": "uint256"
        }
      ],
      "name": "URI",
      "type": "event"
    },
    {
      "inputs": [
        {
          "internalType": "address",
          "name": "account",
          "type": "address"
        },
        {
          "internalType": "uint256",
          "name": "id",
          "type": "uint256"
        }
      ],
      "name": "balanceOf",
      "outputs": [
        {
          "internalType": "uint256",
          "name": "",
          "type": "uint256"
        }
      ],
      "stateMutability": "view",
      "type": "function"
    },
    {
      "inputs": [
        {
          "internalType": "address[]",
          "name": "accounts",
          "type": "address[]"
        },
        {
          "internalType": "uint256[]",
          "name": "ids",
          "type": "uint256[]"
        }
      ],
      "name": "balanceOfBatch",
      "outputs": [
        {
          "internalType": "uint256[]",
          "name": "",
          "type": "uint256[]"
        }
      ],
      "stateMutability": "view",
      "type": "function"
    },
    {
      "inputs": [
        {
          "internalType": "address",
          "name": "account",
          "type": "address"
        },
        {
          "internalType": "address",
          "name": "operator",
          "type": "address"
        }
      ],
      "name": "isApprovedForAll",
      "outputs": [
        {
          "internalType": "bool",
          "name": "",
          "type": "bool"
        }
      ],
      "stateMutability": "view",
      "type": "function"
    },
    {
      "inputs": [
        {
          "internalType": "address",
          "name": "from",
          "type": "address"
        },
        {
          "internalType": "address",
          "name": "to",
          "type": "address"
        },
        {
          "internalType": "uint256[]",
          "name": "ids",
          "type": "uint256[]"
        },
        {
          "internalType": "uint256[]",
          "name": "amounts",
          "type": "uint256[]"
        },
        {
          "internalType": "bytes",
          "name": "data",
          "type": "bytes"
        }
      ],
      "name": "safeBatchTransferFrom",
      "outputs": [],
      "stateMutability": "nonpayable",
      "type": "function"
    },
    {
      "inputs": [
        {
          "internalType": "address",
          "name": "from",
          "type": "address"
        },
        {
          "internalType": "address",
          "name": "to",
          "type": "address"
        },
        {
          "internalType": "uint256",
          "name": "id",
          "type": "uint256"
        },
        {
          "internalType": "uint256",
          "name": "amount",
          "type": "uint256"
        },
        {
          "internalType": "bytes",
          "name": "data",
          "type": "bytes"
        }
      ],
      "name": "safeTransferFrom",
      "outputs": [],
      "stateMutability": "nonpayable",
      "type": "function"
    },
    {
      "inputs": [
        {
          "internalType": "address",
          "name": "operator",
          "type": "address"
        },
        {
          "internalType": "bool",
          "name": "approved",
          "type": "bool"
        }
      ],
      "name": "setApprovalForAll",
      "outputs": [],
      "stateMutability": "nonpayable",
      "type": "function"
    },
    {
      "inputs": [
        {
          "internalType": "bytes4",
          "name": "interfaceId",
          "type": "bytes4"
        }
      ],
      "name": "supportsInterface",
      "outputs": [
        {
          "internalType": "bool",
          "name": "",
          "type": "bool"
        }
      ],
      "stateMutability": "view",
      "type": "function"
    },
    {
      "inputs": [],
      "name": "baseURI",
      "outputs": [
        {
          "internalType": "string",
          "name": "",
          "type": "string"
        }
      ],
      "stateMutability": "view",
      "type": "function"
    },
    {
      "inputs": [
        {
          "internalType": "uint256",
          "name": "id",
          "type": "uint256"
        }
      ],
      "name": "uri",
      "outputs": [
        {
          "internalType": "string",
          "name": "",
          "type": "string"
        }
      ],
      "stateMutability": "view",
      "type": "function"
    }
  ],
  "bytecode": "0x608060405234801561001057600080fd5b50611972806100206000396000f3fe608060405234801561001057600080fd5b50600436106100a25760003560e01c80634e1273f411610076578063a22cb4651161005b578063a22cb465146104fa578063e985e9c514610528578063f242432a14610556576100a2565b80634e1273f41461037b5780636c0360eb146104f2576100a2565b8062fdd58e146100a757806301ffc9a7146100e55780630e89341c146101205780632eb2c2d6146101b2575b600080fd5b6100d3600480360360408110156100bd57600080fd5b506001600160a01b038135169060200135610621565b60408051918252519081900360200190f35b61010c600480360360208110156100fb57600080fd5b50356001600160e01b031916610690565b604080519115158252519081900360200190f35b61013d6004803603602081101561013657600080fd5b50356106b3565b6040805160208082528351818301528351919283929083019185019080838360005b8381101561017757818101518382015260200161015f565b50505050905090810190601f1680156101a45780820380516001836020036101000a031916815260200191505b509250505060405180910390f35b610379600480360360a08110156101c857600080fd5b6001600160a01b0382358116926020810135909116918101906060810160408201356401000000008111156101fc57600080fd5b82018360208201111561020e57600080fd5b8035906020019184602083028401116401000000008311171561023057600080fd5b919080806020026020016040519081016040528093929190818152602001838360200280828437600092019190915250929594936020810193503591505064010000000081111561028057600080fd5b82018360208201111561029257600080fd5b803590602001918460208302840111640100000000831117156102b457600080fd5b919080806020026020016040519081016040528093929190818152602001838360200280828437600092019190915250929594936020810193503591505064010000000081111561030457600080fd5b82018360208201111561031657600080fd5b8035906020019184600183028401116401000000008311171561033857600080fd5b91908080601f0160208091040260200160405190810160405280939291908181526020018383808284376000920191909152509295506106c4945050505050565b005b6104a26004803603604081101561039157600080fd5b8101906020810181356401000000008111156103ac57600080fd5b8201836020820111156103be57600080fd5b803590602001918460208302840111640100000000831117156103e057600080fd5b919080806020026020016040519081016040528093929190818152602001838360200280828437600092019190915250929594936020810193503591505064010000000081111561043057600080fd5b82018360208201111561044257600080fd5b8035906020019184602083028401116401000000008311171561046457600080fd5b9190808060200260200160405190810160405280939291908181526020018383602002808284376000920191909152509295506109c7945050505050565b60408051602080825283518183015283519192839290830191858101910280838360005b838110156104de5781810151838201526020016104c6565b505050509050019250505060405180910390f35b61013d610ab3565b6103796004803603604081101561051057600080fd5b506001600160a01b0381351690602001351515610b4a565b61010c6004803603604081101561053e57600080fd5b506001600160a01b0381358116916020013516610c39565b610379600480360360a081101561056c57600080fd5b6001600160a01b03823581169260208101359091169160408201359160608101359181019060a0810160808201356401000000008111156105ac57600080fd5b8201836020820111156105be57600080fd5b803590602001918460018302840111640100000000831117156105e057600080fd5b91908080601f016020809104026020016040519081016040528093929190818152602001838380828437600092019190915250929550610c67945050505050565b60006001600160a01b0383166106685760405162461bcd60e51b815260040180806020018281038252602b8152602001806117ee602b913960400191505060405180910390fd5b5060009081526065602090815260408083206001600160a01b03949094168352929052205490565b6001600160e01b0319811660009081526033602052604090205460ff165b919050565b60606106be82610e32565b92915050565b81518351146107045760405162461bcd60e51b81526004018080602001828103825260288152602001806119156028913960400191505060405180910390fd5b6001600160a01b0384166107495760405162461bcd60e51b81526004018080602001828103825260258152602001806118426025913960400191505060405180910390fd5b61075161106e565b6001600160a01b0316856001600160a01b0316148061077c575061077c8561077761106e565b610c39565b6107b75760405162461bcd60e51b81526004018080602001828103825260328152602001806118676032913960400191505060405180910390fd5b60006107c161106e565b90506107d18187878787876109bf565b60005b84518110156108d75760008582815181106107eb57fe5b60200260200101519050600085838151811061080357fe5b60200260200101519050610870816040518060600160405280602a8152602001611899602a91396065600086815260200190815260200160002060008d6001600160a01b03166001600160a01b03168152602001908152602001600020546110729092919063ffffffff16565b60008381526065602090815260408083206001600160a01b038e811685529252808320939093558a16815220546108a79082611109565b60009283526065602090815260408085206001600160a01b038c16865290915290922091909155506001016107d4565b50846001600160a01b0316866001600160a01b0316826001600160a01b03167f4a39dc06d4c0dbc64b70af90fd698a233a518aa5d07e595d983b8c0526c8f7fb8787604051808060200180602001838103835285818151815260200191508051906020019060200280838360005b8381101561095d578181015183820152602001610945565b50505050905001838103825284818151815260200191508051906020019060200280838360005b8381101561099c578181015183820152602001610984565b5050505090500194505050505060405180910390a46109bf81878787878761116a565b505050505050565b60608151835114610a095760405162461bcd60e51b81526004018080602001828103825260298152602001806118ec6029913960400191505060405180910390fd5b6000835167ffffffffffffffff81118015610a2357600080fd5b50604051908082528060200260200182016040528015610a4d578160200160208202803683370190505b50905060005b8451811015610aab57610a8c858281518110610a6b57fe5b6020026020010151858381518110610a7f57fe5b6020026020010151610621565b828281518110610a9857fe5b6020908102919091010152600101610a53565b509392505050565b60988054604080516020601f6002600019610100600188161502019095169490940493840181900481028201810190925282815260609390929091830182828015610b3f5780601f10610b1457610100808354040283529160200191610b3f565b820191906000526020600020905b815481529060010190602001808311610b2257829003601f168201915b505050505090505b90565b816001600160a01b0316610b5c61106e565b6001600160a01b03161415610ba25760405162461bcd60e51b81526004018080602001828103825260298152602001806118c36029913960400191505060405180910390fd5b8060666000610baf61106e565b6001600160a01b03908116825260208083019390935260409182016000908120918716808252919093529120805460ff191692151592909217909155610bf361106e565b6001600160a01b03167f17307eab39ab6107e8899845ad3d59bd9653f200f220920489ca2b5937696c318360405180821515815260200191505060405180910390a35050565b6001600160a01b03918216600090815260666020908152604080832093909416825291909152205460ff1690565b6001600160a01b038416610cac5760405162461bcd60e51b81526004018080602001828103825260258152602001806118426025913960400191505060405180910390fd5b610cb461106e565b6001600160a01b0316856001600160a01b03161480610cda5750610cda8561077761106e565b610d155760405162461bcd60e51b81526004018080602001828103825260298152602001806118196029913960400191505060405180910390fd5b6000610d1f61106e565b9050610d3f818787610d3088611402565b610d3988611402565b876109bf565b610d86836040518060600160405280602a8152602001611899602a913960008781526065602090815260408083206001600160a01b038d1684529091529020549190611072565b60008581526065602090815260408083206001600160a01b038b81168552925280832093909355871681522054610dbd9084611109565b60008581526065602090815260408083206001600160a01b03808b168086529184529382902094909455805188815291820187905280518a8416938616927fc3d58168c5ae7397731d063d5bbf3d657854427343f4c083240f7aacaa2d0f6292908290030190a46109bf818787878787611447565b600081815260976020908152604080832080548251601f6002600019610100600186161502019093169290920491820185900485028101850190935280835260609493830182828015610ec65780601f10610e9b57610100808354040283529160200191610ec6565b820191906000526020600020905b815481529060010190602001808311610ea957829003601f168201915b505050505090506000610ed7610ab3565b9050805160001415610eeb575090506106ae565b815115610fac5780826040516020018083805190602001908083835b60208310610f265780518252601f199092019160209182019101610f07565b51815160209384036101000a600019018019909216911617905285519190930192850191508083835b60208310610f6e5780518252601f199092019160209182019101610f4f565b6001836020036101000a03801982511681845116808217855250505050505090500192505050604051602081830303815290604052925050506106ae565b80610fb6856115d1565b6040516020018083805190602001908083835b60208310610fe85780518252601f199092019160209182019101610fc9565b51815160209384036101000a600019018019909216911617905285519190930192850191508083835b602083106110305780518252601f199092019160209182019101611011565b6001836020036101000a0380198251168184511680821785525050505050509050019250505060405160208183030381529060405292505050919050565b3390565b600081848411156111015760405162461bcd60e51b81526004018080602001828103825283818151815260200191508051906020019080838360005b838110156110c65781810151838201526020016110ae565b50505050905090810190601f1680156110f35780820380516001836020036101000a031916815260200191505b509250505060405180910390fd5b505050900390565b600082820183811015611163576040805162461bcd60e51b815260206004820152601b60248201527f536166654d6174683a206164646974696f6e206f766572666c6f770000000000604482015290519081900360640190fd5b9392505050565b61117c846001600160a01b03166116e0565b156109bf57836001600160a01b031663bc197c8187878686866040518663ffffffff1660e01b815260040180866001600160a01b03168152602001856001600160a01b03168152602001806020018060200180602001848103845287818151815260200191508051906020019060200280838360005b8381101561120a5781810151838201526020016111f2565b50505050905001848103835286818151815260200191508051906020019060200280838360005b83811015611249578181015183820152602001611231565b50505050905001848103825285818151815260200191508051906020019080838360005b8381101561128557818101518382015260200161126d565b50505050905090810190601f1680156112b25780820380516001836020036101000a031916815260200191505b5098505050505050505050602060405180830381600087803b1580156112d757600080fd5b505af19250505080156112fc57506040513d60208110156112f757600080fd5b505160015b611391576113086116ec565b80611313575061135a565b60405162461bcd60e51b81526020600482018181528351602484015283518493919283926044019190850190808383600083156110c65781810151838201526020016110ae565b60405162461bcd60e51b81526004018080602001828103825260348152602001806117926034913960400191505060405180910390fd5b6001600160e01b031981167fbc197c8100000000000000000000000000000000000000000000000000000000146113f95760405162461bcd60e51b81526004018080602001828103825260288152602001806117c66028913960400191505060405180910390fd5b50505050505050565b6040805160018082528183019092526060916000919060208083019080368337019050509050828160008151811061143657fe5b602090810291909101015292915050565b611459846001600160a01b03166116e0565b156109bf57836001600160a01b031663f23a6e6187878686866040518663ffffffff1660e01b815260040180866001600160a01b03168152602001856001600160a01b0316815260200184815260200183815260200180602001828103825283818151815260200191508051906020019080838360005b838110156114e85781810151838201526020016114d0565b50505050905090810190601f1680156115155780820380516001836020036101000a031916815260200191505b509650505050505050602060405180830381600087803b15801561153857600080fd5b505af192505050801561155d57506040513d602081101561155857600080fd5b505160015b611569576113086116ec565b6001600160e01b031981167ff23a6e6100000000000000000000000000000000000000000000000000000000146113f95760405162461bcd60e51b81526004018080602001828103825260288152602001806117c66028913960400191505060405180910390fd5b606081611612575060408051808201909152600181527f300000000000000000000000000000000000000000000000000000000000000060208201526106ae565b8160005b811561162a57600101600a82049150611616565b60008167ffffffffffffffff8111801561164357600080fd5b506040519080825280601f01601f19166020018201604052801561166e576020820181803683370190505b50859350905060001982015b83156116d757600a840660300160f81b8282806001900393508151811061169d57fe5b60200101907effffffffffffffffffffffffffffffffffffffffffffffffffffffffffffff1916908160001a905350600a8404935061167a565b50949350505050565b3b151590565b60e01c90565b600060443d10156116fc57610b47565b600481823e6308c379a061171082516116e6565b1461171a57610b47565b6040513d600319016004823e80513d67ffffffffffffffff816024840111818411171561174a5750505050610b47565b828401925082519150808211156117645750505050610b47565b503d8301602082840101111561177c57505050610b47565b601f01601f191681016020016040529150509056fe455243313135353a207472616e7366657220746f206e6f6e2045524331313535526563656976657220696d706c656d656e746572455243313135353a204552433131353552656365697665722072656a656374656420746f6b656e73455243313135353a2062616c616e636520717565727920666f7220746865207a65726f2061646472657373455243313135353a2063616c6c6572206973206e6f74206f776e6572206e6f7220617070726f766564455243313135353a207472616e7366657220746f20746865207a65726f2061646472657373455243313135353a207472616e736665722063616c6c6572206973206e6f74206f776e6572206e6f7220617070726f766564455243313135353a20696e73756666696369656e742062616c616e636520666f72207472616e73666572455243313135353a2073657474696e6720617070726f76616c2073746174757320666f722073656c66455243313135353a206163636f756e747320616e6420696473206c656e677468206d69736d61746368455243313135353a2069647320616e6420616d6f756e7473206c656e677468206d69736d61746368a264697066735822122043c76358d450d80c270fd930cbb40d782233b0248c4d5da119e1a2e432bb8c7264736f6c63430007060033",
  "immutableReferences": {},
  "source": "// SPDX-License-Identifier: MIT\n\npragma solidity 0.7.6;\n\nimport \"@openzeppelin/contracts-upgradeable/utils/StringsUpgradeable.sol\";\nimport \"@openzeppelin/contracts-upgradeable/token/ERC1155/ERC1155Upgradeable.sol\";\n\ncontract ERC1155BaseURI is ERC1155Upgradeable {\n    using StringsUpgradeable for uint;\n\n    // Optional mapping for token URIs\n    mapping (uint256 => string) private _tokenURIs;\n\n    // Base URI\n    string private _baseURI;\n\n    /**\n    * @dev Returns the base URI set via {_setBaseURI}. This will be\n    * automatically added as a prefix in {tokenURI} to each token's URI, or\n    * to the token ID if no specific URI is set for that token ID.\n    */\n    function baseURI() public view virtual returns (string memory) {\n        return _baseURI;\n    }\n\n    function uri(uint id) external view override virtual returns (string memory) {\n        return _tokenURI(id);\n    }\n\n    function _tokenURI(uint256 tokenId) internal view virtual returns (string memory) {\n        string memory tokenURI = _tokenURIs[tokenId];\n        string memory base = baseURI();\n\n        // If there is no base URI, return the token URI.\n        if (bytes(base).length == 0) {\n            return tokenURI;\n        }\n        // If both are set, concatenate the baseURI and tokenURI (via abi.encodePacked).\n        if (bytes(tokenURI).length > 0) {\n            return string(abi.encodePacked(base, tokenURI));\n        }\n        // If there is a baseURI but no tokenURI, concatenate the tokenID to the baseURI.\n        return string(abi.encodePacked(base, tokenId.toString()));\n    }\n\n    /**\n     * @dev Sets `_tokenURI` as the tokenURI of `tokenId`.\n     *\n     * Requirements:\n     *\n     * - `tokenId` must exist.\n     */\n    function _setTokenURI(uint256 tokenId, string memory _uri) internal virtual {\n        _tokenURIs[tokenId] = _uri;\n        emit URI(_tokenURI(tokenId), tokenId);\n    }\n\n    /**\n     * @dev Internal function to set the base URI for all token IDs. It is\n     * automatically added as a prefix to the value returned in {tokenURI},\n     * or to the token ID if {tokenURI} is empty.\n     */\n    function _setBaseURI(string memory baseURI_) internal virtual {\n        _baseURI = baseURI_;\n    }\n\n    uint256[50] private __gap;\n}\n",
  "sourcePath": "protocol-contracts/tokens/contracts/erc-1155/ERC1155BaseURI.sol",
  "compiler": {
    "name": "solc",
    "version": "0.7.6+commit.7338295f.Emscripten.clang"
  },
  "schemaVersion": "3.4.1",
  "updatedAt": "2021-09-21T12:35:17.303Z",
  "devdoc": {
    "kind": "dev",
    "methods": {
      "balanceOf(address,uint256)": {
        "details": "See {IERC1155-balanceOf}. Requirements: - `account` cannot be the zero address."
      },
      "balanceOfBatch(address[],uint256[])": {
        "details": "See {IERC1155-balanceOfBatch}. Requirements: - `accounts` and `ids` must have the same length."
      },
      "baseURI()": {
        "details": "Returns the base URI set via {_setBaseURI}. This will be automatically added as a prefix in {tokenURI} to each token's URI, or to the token ID if no specific URI is set for that token ID."
      },
      "isApprovedForAll(address,address)": {
        "details": "See {IERC1155-isApprovedForAll}."
      },
      "safeBatchTransferFrom(address,address,uint256[],uint256[],bytes)": {
        "details": "See {IERC1155-safeBatchTransferFrom}."
      },
      "safeTransferFrom(address,address,uint256,uint256,bytes)": {
        "details": "See {IERC1155-safeTransferFrom}."
      },
      "setApprovalForAll(address,bool)": {
        "details": "See {IERC1155-setApprovalForAll}."
      },
      "supportsInterface(bytes4)": {
        "details": "See {IERC165-supportsInterface}. Time complexity O(1), guaranteed to always use less than 30 000 gas."
      }
    },
    "version": 1
  },
  "userdoc": {
    "kind": "user",
    "methods": {},
    "version": 1
  }
}