{
  "contractName": "NftTransferProxy",
  "abi": [
    {
      "anonymous": false,
      "inputs": [
        {
          "indexed": true,
          "internalType": "address",
          "name": "previousOwner",
          "type": "address"
        },
        {
          "indexed": true,
          "internalType": "address",
          "name": "newOwner",
          "type": "address"
        }
      ],
      "name": "OwnershipTransferred",
      "type": "event"
    },
    {
      "inputs": [],
      "name": "__OperatorRole_init",
      "outputs": [],
      "stateMutability": "nonpayable",
      "type": "function"
    },
    {
      "inputs": [
        {
          "internalType": "address",
          "name": "operator",
          "type": "address"
        }
      ],
      "name": "addOperator",
      "outputs": [],
      "stateMutability": "nonpayable",
      "type": "function"
    },
    {
      "inputs": [],
      "name": "owner",
      "outputs": [
        {
          "internalType": "address",
          "name": "",
          "type": "address"
        }
      ],
      "stateMutability": "view",
      "type": "function"
    },
    {
      "inputs": [
        {
          "internalType": "address",
          "name": "operator",
          "type": "address"
        }
      ],
      "name": "removeOperator",
      "outputs": [],
      "stateMutability": "nonpayable",
      "type": "function"
    },
    {
      "inputs": [],
      "name": "renounceOwnership",
      "outputs": [],
      "stateMutability": "nonpayable",
      "type": "function"
    },
    {
      "inputs": [
        {
          "internalType": "address",
          "name": "newOwner",
          "type": "address"
        }
      ],
      "name": "transferOwnership",
      "outputs": [],
      "stateMutability": "nonpayable",
      "type": "function"
    },
    {
      "inputs": [],
      "name": "__NftTransferProxy_init",
      "outputs": [],
      "stateMutability": "nonpayable",
      "type": "function"
    },
    {
      "inputs": [
        {
          "internalType": "contract IERC721Upgradeable",
          "name": "token",
          "type": "address"
        },
        {
          "internalType": "address",
          "name": "from",
          "type": "address"
        },
        {
          "internalType": "address",
          "name": "to",
          "type": "address"
        },
        {
          "internalType": "uint256",
          "name": "tokenId",
          "type": "uint256"
        }
      ],
      "name": "erc721safeTransferFrom",
      "outputs": [],
      "stateMutability": "nonpayable",
      "type": "function"
    },
    {
      "inputs": [
        {
          "internalType": "contract IERC1155Upgradeable",
          "name": "token",
          "type": "address"
        },
        {
          "internalType": "address",
          "name": "from",
          "type": "address"
        },
        {
          "internalType": "address",
          "name": "to",
          "type": "address"
        },
        {
          "internalType": "uint256",
          "name": "id",
          "type": "uint256"
        },
        {
          "internalType": "uint256",
          "name": "value",
          "type": "uint256"
        },
        {
          "internalType": "bytes",
          "name": "data",
          "type": "bytes"
        }
      ],
      "name": "erc1155safeTransferFrom",
      "outputs": [],
      "stateMutability": "nonpayable",
      "type": "function"
    }
  ],
  "bytecode": "0x608060405234801561001057600080fd5b50610b27806100206000396000f3fe608060405234801561001057600080fd5b50600436106100a35760003560e01c80639c1c2ee911610076578063ca0967ae1161005b578063ca0967ae146101c7578063f2fde38b146101cf578063f709b906146101f5576100a3565b80639c1c2ee914610104578063ac8a584a146101a1576100a3565b80632ff26a0a146100a8578063715018a6146100b25780638da5cb5b146100ba5780639870d7fe146100de575b600080fd5b6100b0610231565b005b6100b06102e3565b6100c26103ae565b604080516001600160a01b039092168252519081900360200190f35b6100b0600480360360208110156100f457600080fd5b50356001600160a01b03166103bd565b6100b0600480360360c081101561011a57600080fd5b6001600160a01b038235811692602081013582169260408201359092169160608201359160808101359181019060c0810160a082013564010000000081111561016257600080fd5b82018360208201111561017457600080fd5b8035906020019184600183028401116401000000008311171561019657600080fd5b509092509050610455565b6100b0600480360360208110156101b757600080fd5b50356001600160a01b031661057e565b6100b0610613565b6100b0600480360360208110156101e557600080fd5b50356001600160a01b03166106a8565b6100b06004803603608081101561020b57600080fd5b506001600160a01b038135811691602081013582169160408201351690606001356107ca565b600054610100900460ff168061024a575061024a6108b4565b80610258575060005460ff16155b6102935760405162461bcd60e51b815260040180806020018281038252602e815260200180610a9c602e913960400191505060405180910390fd5b600054610100900460ff161580156102be576000805460ff1961ff0019909116610100171660011790555b6102c66108c5565b6102ce610965565b80156102e0576000805461ff00191690555b50565b6102eb610a6b565b6001600160a01b03166102fc6103ae565b6001600160a01b031614610357576040805162461bcd60e51b815260206004820181905260248201527f4f776e61626c653a2063616c6c6572206973206e6f7420746865206f776e6572604482015290519081900360640190fd5b6033546040516000916001600160a01b0316907f8be0079c531659141344cd1fd0a4f28419497f9722a3daafe3b4186f6b6457e0908390a36033805473ffffffffffffffffffffffffffffffffffffffff19169055565b6033546001600160a01b031690565b6103c5610a6b565b6001600160a01b03166103d66103ae565b6001600160a01b031614610431576040805162461bcd60e51b815260206004820181905260248201527f4f776e61626c653a2063616c6c6572206973206e6f7420746865206f776e6572604482015290519081900360640190fd5b6001600160a01b03166000908152606560205260409020805460ff19166001179055565b60656000610461610a6b565b6001600160a01b0316815260208101919091526040016000205460ff166104b95760405162461bcd60e51b8152600401808060200182810382526028815260200180610aca6028913960400191505060405180910390fd5b866001600160a01b031663f242432a8787878787876040518763ffffffff1660e01b815260040180876001600160a01b03168152602001866001600160a01b03168152602001858152602001848152602001806020018281038252848482818152602001925080828437600081840152601f19601f820116905080830192505050975050505050505050600060405180830381600087803b15801561055d57600080fd5b505af1158015610571573d6000803e3d6000fd5b5050505050505050505050565b610586610a6b565b6001600160a01b03166105976103ae565b6001600160a01b0316146105f2576040805162461bcd60e51b815260206004820181905260248201527f4f776e61626c653a2063616c6c6572206973206e6f7420746865206f776e6572604482015290519081900360640190fd5b6001600160a01b03166000908152606560205260409020805460ff19169055565b600054610100900460ff168061062c575061062c6108b4565b8061063a575060005460ff16155b6106755760405162461bcd60e51b815260040180806020018281038252602e815260200180610a9c602e913960400191505060405180910390fd5b600054610100900460ff161580156106a0576000805460ff1961ff0019909116610100171660011790555b6102ce610231565b6106b0610a6b565b6001600160a01b03166106c16103ae565b6001600160a01b03161461071c576040805162461bcd60e51b815260206004820181905260248201527f4f776e61626c653a2063616c6c6572206973206e6f7420746865206f776e6572604482015290519081900360640190fd5b6001600160a01b0381166107615760405162461bcd60e51b8152600401808060200182810382526026815260200180610a766026913960400191505060405180910390fd5b6033546040516001600160a01b038084169216907f8be0079c531659141344cd1fd0a4f28419497f9722a3daafe3b4186f6b6457e090600090a36033805473ffffffffffffffffffffffffffffffffffffffff19166001600160a01b0392909216919091179055565b606560006107d6610a6b565b6001600160a01b0316815260208101919091526040016000205460ff1661082e5760405162461bcd60e51b8152600401808060200182810382526028815260200180610aca6028913960400191505060405180910390fd5b836001600160a01b03166342842e0e8484846040518463ffffffff1660e01b815260040180846001600160a01b03168152602001836001600160a01b031681526020018281526020019350505050600060405180830381600087803b15801561089657600080fd5b505af11580156108aa573d6000803e3d6000fd5b5050505050505050565b60006108bf30610a6f565b15905090565b600054610100900460ff16806108de57506108de6108b4565b806108ec575060005460ff16155b6109275760405162461bcd60e51b815260040180806020018281038252602e815260200180610a9c602e913960400191505060405180910390fd5b600054610100900460ff161580156102ce576000805460ff1961ff00199091166101001716600117905580156102e0576000805461ff001916905550565b600054610100900460ff168061097e575061097e6108b4565b8061098c575060005460ff16155b6109c75760405162461bcd60e51b815260040180806020018281038252602e815260200180610a9c602e913960400191505060405180910390fd5b600054610100900460ff161580156109f2576000805460ff1961ff0019909116610100171660011790555b60006109fc610a6b565b6033805473ffffffffffffffffffffffffffffffffffffffff19166001600160a01b038316908117909155604051919250906000907f8be0079c531659141344cd1fd0a4f28419497f9722a3daafe3b4186f6b6457e0908290a35080156102e0576000805461ff001916905550565b3390565b3b15159056fe4f776e61626c653a206e6577206f776e657220697320746865207a65726f2061646472657373496e697469616c697a61626c653a20636f6e747261637420697320616c726561647920696e697469616c697a65644f70657261746f72526f6c653a2063616c6c6572206973206e6f7420746865206f70657261746f72a2646970667358221220f4e45ee30985db5bd9cad62584a0a12c990968d50d7ac0b3ced8bf24f0c1339f64736f6c63430007060033",
  "immutableReferences": {},
  "source": "// SPDX-License-Identifier: MIT\n\npragma solidity >=0.6.9 <0.8.0;\n\nimport \"protocol-contracts/transfer-proxy/contracts/roles/OperatorRole.sol\";\nimport \"@rarible/exchange-interfaces/contracts/INftTransferProxy.sol\";\n\ncontract NftTransferProxy is INftTransferProxy, Initializable, OperatorRole {\n\n    function __NftTransferProxy_init() external initializer {\n        __Ownable_init();\n    }\n\n    function erc721safeTransferFrom(IERC721Upgradeable token, address from, address to, uint256 tokenId) override external onlyOperator {\n        token.safeTransferFrom(from, to, tokenId);\n    }\n\n    function erc1155safeTransferFrom(IERC1155Upgradeable token, address from, address to, uint256 id, uint256 value, bytes calldata data) override external onlyOperator {\n        token.safeTransferFrom(from, to, id, value, data);\n    }\n}\n",
  "sourcePath": "/Users/sreckosmodis/Documents/Projects/Ecofi/ecofi-contracts/contracts/NftTransferProxy.sol",
  "compiler": {
    "name": "solc",
    "version": "0.7.6+commit.7338295f.Emscripten.clang"
  },
  "schemaVersion": "3.4.1",
  "updatedAt": "2021-09-21T12:35:17.185Z",
  "devdoc": {
    "kind": "dev",
    "methods": {
      "owner()": {
        "details": "Returns the address of the current owner."
      },
      "renounceOwnership()": {
        "details": "Leaves the contract without owner. It will not be possible to call `onlyOwner` functions anymore. Can only be called by the current owner. NOTE: Renouncing ownership will leave the contract without an owner, thereby removing any functionality that is only available to the owner."
      },
      "transferOwnership(address)": {
        "details": "Transfers ownership of the contract to a new account (`newOwner`). Can only be called by the current owner."
      }
    },
    "version": 1
  },
  "userdoc": {
    "kind": "user",
    "methods": {},
    "version": 1
  }
}