{
  "contractName": "OperatorRole",
  "abi": [
    {
      "anonymous": false,
      "inputs": [
        {
          "indexed": true,
          "internalType": "address",
          "name": "previousOwner",
          "type": "address"
        },
        {
          "indexed": true,
          "internalType": "address",
          "name": "newOwner",
          "type": "address"
        }
      ],
      "name": "OwnershipTransferred",
      "type": "event"
    },
    {
      "inputs": [],
      "name": "owner",
      "outputs": [
        {
          "internalType": "address",
          "name": "",
          "type": "address"
        }
      ],
      "stateMutability": "view",
      "type": "function"
    },
    {
      "inputs": [],
      "name": "renounceOwnership",
      "outputs": [],
      "stateMutability": "nonpayable",
      "type": "function"
    },
    {
      "inputs": [
        {
          "internalType": "address",
          "name": "newOwner",
          "type": "address"
        }
      ],
      "name": "transferOwnership",
      "outputs": [],
      "stateMutability": "nonpayable",
      "type": "function"
    },
    {
      "inputs": [],
      "name": "__OperatorRole_init",
      "outputs": [],
      "stateMutability": "nonpayable",
      "type": "function"
    },
    {
      "inputs": [
        {
          "internalType": "address",
          "name": "operator",
          "type": "address"
        }
      ],
      "name": "addOperator",
      "outputs": [],
      "stateMutability": "nonpayable",
      "type": "function"
    },
    {
      "inputs": [
        {
          "internalType": "address",
          "name": "operator",
          "type": "address"
        }
      ],
      "name": "removeOperator",
      "outputs": [],
      "stateMutability": "nonpayable",
      "type": "function"
    }
  ],
  "bytecode": "0x608060405234801561001057600080fd5b50610745806100206000396000f3fe608060405234801561001057600080fd5b50600436106100725760003560e01c80639870d7fe116100505780639870d7fe146100ad578063ac8a584a146100d3578063f2fde38b146100f957610072565b80632ff26a0a14610077578063715018a6146100815780638da5cb5b14610089575b600080fd5b61007f61011f565b005b61007f6101d1565b61009161029c565b604080516001600160a01b039092168252519081900360200190f35b61007f600480360360208110156100c357600080fd5b50356001600160a01b03166102ab565b61007f600480360360208110156100e957600080fd5b50356001600160a01b0316610343565b61007f6004803603602081101561010f57600080fd5b50356001600160a01b03166103d8565b600054610100900460ff168061013857506101386104fa565b80610146575060005460ff16155b6101815760405162461bcd60e51b815260040180806020018281038252602e8152602001806106e2602e913960400191505060405180910390fd5b600054610100900460ff161580156101ac576000805460ff1961ff0019909116610100171660011790555b6101b461050b565b6101bc6105ab565b80156101ce576000805461ff00191690555b50565b6101d96106b1565b6001600160a01b03166101ea61029c565b6001600160a01b031614610245576040805162461bcd60e51b815260206004820181905260248201527f4f776e61626c653a2063616c6c6572206973206e6f7420746865206f776e6572604482015290519081900360640190fd5b6033546040516000916001600160a01b0316907f8be0079c531659141344cd1fd0a4f28419497f9722a3daafe3b4186f6b6457e0908390a36033805473ffffffffffffffffffffffffffffffffffffffff19169055565b6033546001600160a01b031690565b6102b36106b1565b6001600160a01b03166102c461029c565b6001600160a01b03161461031f576040805162461bcd60e51b815260206004820181905260248201527f4f776e61626c653a2063616c6c6572206973206e6f7420746865206f776e6572604482015290519081900360640190fd5b6001600160a01b03166000908152606560205260409020805460ff19166001179055565b61034b6106b1565b6001600160a01b031661035c61029c565b6001600160a01b0316146103b7576040805162461bcd60e51b815260206004820181905260248201527f4f776e61626c653a2063616c6c6572206973206e6f7420746865206f776e6572604482015290519081900360640190fd5b6001600160a01b03166000908152606560205260409020805460ff19169055565b6103e06106b1565b6001600160a01b03166103f161029c565b6001600160a01b03161461044c576040805162461bcd60e51b815260206004820181905260248201527f4f776e61626c653a2063616c6c6572206973206e6f7420746865206f776e6572604482015290519081900360640190fd5b6001600160a01b0381166104915760405162461bcd60e51b81526004018080602001828103825260268152602001806106bc6026913960400191505060405180910390fd5b6033546040516001600160a01b038084169216907f8be0079c531659141344cd1fd0a4f28419497f9722a3daafe3b4186f6b6457e090600090a36033805473ffffffffffffffffffffffffffffffffffffffff19166001600160a01b0392909216919091179055565b6000610505306106b5565b15905090565b600054610100900460ff168061052457506105246104fa565b80610532575060005460ff16155b61056d5760405162461bcd60e51b815260040180806020018281038252602e8152602001806106e2602e913960400191505060405180910390fd5b600054610100900460ff161580156101bc576000805460ff1961ff00199091166101001716600117905580156101ce576000805461ff001916905550565b600054610100900460ff16806105c457506105c46104fa565b806105d2575060005460ff16155b61060d5760405162461bcd60e51b815260040180806020018281038252602e8152602001806106e2602e913960400191505060405180910390fd5b600054610100900460ff16158015610638576000805460ff1961ff0019909116610100171660011790555b60006106426106b1565b6033805473ffffffffffffffffffffffffffffffffffffffff19166001600160a01b038316908117909155604051919250906000907f8be0079c531659141344cd1fd0a4f28419497f9722a3daafe3b4186f6b6457e0908290a35080156101ce576000805461ff001916905550565b3390565b3b15159056fe4f776e61626c653a206e6577206f776e657220697320746865207a65726f2061646472657373496e697469616c697a61626c653a20636f6e747261637420697320616c726561647920696e697469616c697a6564a26469706673582212200d1f031033453f2f3e0912c2a57eafb5a0d5ae69e56501574a18f9540f4dd85364736f6c63430007060033",
  "immutableReferences": {},
  "source": "// SPDX-License-Identifier: MIT\n\npragma solidity >=0.6.9 <0.8.0;\n\nimport \"@openzeppelin/contracts-upgradeable/access/OwnableUpgradeable.sol\";\n\ncontract OperatorRole is OwnableUpgradeable {\n    mapping (address => bool) operators;\n\n    function __OperatorRole_init() external initializer {\n        __Context_init_unchained();\n        __Ownable_init_unchained();\n    }\n\n    function addOperator(address operator) external onlyOwner {\n        operators[operator] = true;\n    }\n\n    function removeOperator(address operator) external onlyOwner {\n        operators[operator] = false;\n    }\n\n    modifier onlyOperator() {\n        require(operators[_msgSender()], \"OperatorRole: caller is not the operator\");\n        _;\n    }\n}\n",
  "sourcePath": "protocol-contracts/transfer-proxy/contracts/roles/OperatorRole.sol",
  "compiler": {
    "name": "solc",
    "version": "0.7.6+commit.7338295f.Emscripten.clang"
  },
  "schemaVersion": "3.4.1",
  "updatedAt": "2021-09-21T12:35:17.309Z",
  "devdoc": {
    "kind": "dev",
    "methods": {
      "owner()": {
        "details": "Returns the address of the current owner."
      },
      "renounceOwnership()": {
        "details": "Leaves the contract without owner. It will not be possible to call `onlyOwner` functions anymore. Can only be called by the current owner. NOTE: Renouncing ownership will leave the contract without an owner, thereby removing any functionality that is only available to the owner."
      },
      "transferOwnership(address)": {
        "details": "Transfers ownership of the contract to a new account (`newOwner`). Can only be called by the current owner."
      }
    },
    "version": 1
  },
  "userdoc": {
    "kind": "user",
    "methods": {},
    "version": 1
  }
}