{
  "contractName": "RoyaltiesRegistry",
  "abi": [
    {
      "anonymous": false,
      "inputs": [
        {
          "indexed": true,
          "internalType": "address",
          "name": "previousOwner",
          "type": "address"
        },
        {
          "indexed": true,
          "internalType": "address",
          "name": "newOwner",
          "type": "address"
        }
      ],
      "name": "OwnershipTransferred",
      "type": "event"
    },
    {
      "anonymous": false,
      "inputs": [
        {
          "indexed": true,
          "internalType": "address",
          "name": "token",
          "type": "address"
        },
        {
          "components": [
            {
              "internalType": "address payable",
              "name": "account",
              "type": "address"
            },
            {
              "internalType": "uint96",
              "name": "value",
              "type": "uint96"
            }
          ],
          "indexed": false,
          "internalType": "struct LibPart.Part[]",
          "name": "royalties",
          "type": "tuple[]"
        }
      ],
      "name": "RoyaltiesSetForContract",
      "type": "event"
    },
    {
      "anonymous": false,
      "inputs": [
        {
          "indexed": true,
          "internalType": "address",
          "name": "token",
          "type": "address"
        },
        {
          "indexed": true,
          "internalType": "uint256",
          "name": "tokenId",
          "type": "uint256"
        },
        {
          "components": [
            {
              "internalType": "address payable",
              "name": "account",
              "type": "address"
            },
            {
              "internalType": "uint96",
              "name": "value",
              "type": "uint96"
            }
          ],
          "indexed": false,
          "internalType": "struct LibPart.Part[]",
          "name": "royalties",
          "type": "tuple[]"
        }
      ],
      "name": "RoyaltiesSetForToken",
      "type": "event"
    },
    {
      "inputs": [],
      "name": "owner",
      "outputs": [
        {
          "internalType": "address",
          "name": "",
          "type": "address"
        }
      ],
      "stateMutability": "view",
      "type": "function"
    },
    {
      "inputs": [],
      "name": "renounceOwnership",
      "outputs": [],
      "stateMutability": "nonpayable",
      "type": "function"
    },
    {
      "inputs": [
        {
          "internalType": "address",
          "name": "",
          "type": "address"
        }
      ],
      "name": "royaltiesByToken",
      "outputs": [
        {
          "internalType": "bool",
          "name": "initialized",
          "type": "bool"
        }
      ],
      "stateMutability": "view",
      "type": "function"
    },
    {
      "inputs": [
        {
          "internalType": "bytes32",
          "name": "",
          "type": "bytes32"
        }
      ],
      "name": "royaltiesByTokenAndTokenId",
      "outputs": [
        {
          "internalType": "bool",
          "name": "initialized",
          "type": "bool"
        }
      ],
      "stateMutability": "view",
      "type": "function"
    },
    {
      "inputs": [
        {
          "internalType": "address",
          "name": "",
          "type": "address"
        }
      ],
      "name": "royaltiesProviders",
      "outputs": [
        {
          "internalType": "address",
          "name": "",
          "type": "address"
        }
      ],
      "stateMutability": "view",
      "type": "function"
    },
    {
      "inputs": [
        {
          "internalType": "address",
          "name": "newOwner",
          "type": "address"
        }
      ],
      "name": "transferOwnership",
      "outputs": [],
      "stateMutability": "nonpayable",
      "type": "function"
    },
    {
      "inputs": [],
      "name": "__RoyaltiesRegistry_init",
      "outputs": [],
      "stateMutability": "nonpayable",
      "type": "function"
    },
    {
      "inputs": [
        {
          "internalType": "address",
          "name": "token",
          "type": "address"
        },
        {
          "internalType": "address",
          "name": "provider",
          "type": "address"
        }
      ],
      "name": "setProviderByToken",
      "outputs": [],
      "stateMutability": "nonpayable",
      "type": "function"
    },
    {
      "inputs": [
        {
          "internalType": "address",
          "name": "token",
          "type": "address"
        },
        {
          "components": [
            {
              "internalType": "address payable",
              "name": "account",
              "type": "address"
            },
            {
              "internalType": "uint96",
              "name": "value",
              "type": "uint96"
            }
          ],
          "internalType": "struct LibPart.Part[]",
          "name": "royalties",
          "type": "tuple[]"
        }
      ],
      "name": "setRoyaltiesByToken",
      "outputs": [],
      "stateMutability": "nonpayable",
      "type": "function"
    },
    {
      "inputs": [
        {
          "internalType": "address",
          "name": "token",
          "type": "address"
        },
        {
          "internalType": "uint256",
          "name": "tokenId",
          "type": "uint256"
        },
        {
          "components": [
            {
              "internalType": "address payable",
              "name": "account",
              "type": "address"
            },
            {
              "internalType": "uint96",
              "name": "value",
              "type": "uint96"
            }
          ],
          "internalType": "struct LibPart.Part[]",
          "name": "royalties",
          "type": "tuple[]"
        }
      ],
      "name": "setRoyaltiesByTokenAndTokenId",
      "outputs": [],
      "stateMutability": "nonpayable",
      "type": "function"
    },
    {
      "inputs": [
        {
          "internalType": "address",
          "name": "token",
          "type": "address"
        },
        {
          "internalType": "uint256",
          "name": "tokenId",
          "type": "uint256"
        }
      ],
      "name": "getRoyalties",
      "outputs": [
        {
          "components": [
            {
              "internalType": "address payable",
              "name": "account",
              "type": "address"
            },
            {
              "internalType": "uint96",
              "name": "value",
              "type": "uint96"
            }
          ],
          "internalType": "struct LibPart.Part[]",
          "name": "",
          "type": "tuple[]"
        }
      ],
      "stateMutability": "nonpayable",
      "type": "function"
    }
  ],
  "bytecode": "0x608060405234801561001057600080fd5b50611b98806100206000396000f3fe608060405234801561001057600080fd5b50600436106100c95760003560e01c8063acf14efb11610081578063d836f0131161005b578063d836f01314610177578063f2fde38b1461018a578063f39cc7061461019d576100c9565b8063acf14efb1461013e578063c652885f14610151578063d1da3cce14610164576100c9565b8063715018a6116100b2578063715018a6146101015780638da5cb5b146101095780639ca7dc7a1461011e576100c9565b806305df952f146100ce57806327fff8ab146100f7575b600080fd5b6100e16100dc3660046113ee565b6101b0565b6040516100ee91906117f7565b60405180910390f35b6100ff6101c5565b005b6100ff61026f565b61011161032d565b6040516100ee9190611764565b61013161012c3660046114b3565b61033c565b6040516100ee9190611791565b6100ff61014c366004611465565b61051e565b6100ff61015f3660046114de565b61074b565b6100e161017236600461174c565b610764565b6100ff61018536600461142d565b610779565b6100ff6101983660046113ee565b6107b0565b6101116101ab3660046113ee565b6108c5565b60666020526000908152604090205460ff1681565b600054610100900460ff16806101de57506101de6108e0565b806101ec575060005460ff16155b6102275760405162461bcd60e51b815260040180806020018281038252602e815260200180611b35602e913960400191505060405180910390fd5b600054610100900460ff16158015610252576000805460ff1961ff0019909116610100171660011790555b61025a6108f1565b801561026c576000805461ff00191690555b50565b6102776109ea565b6001600160a01b031661028861032d565b6001600160a01b0316146102e3576040805162461bcd60e51b815260206004820181905260248201527f4f776e61626c653a2063616c6c6572206973206e6f7420746865206f776e6572604482015290519081900360640190fd5b6033546040516000916001600160a01b0316907f8be0079c531659141344cd1fd0a4f28419497f9722a3daafe3b4186f6b6457e0908390a3603380546001600160a01b0319169055565b6033546001600160a01b031690565b60606000606560008585604051602001610357929190611778565b60408051601f198184030181529181528151602092830120835282820193909352908201600090812083518085018552815460ff161515815260018201805486518187028101870190975280875291959294868101949192919084015b8282101561040857600084815260209081902060408051808201909152908401546001600160a01b0381168252600160a01b90046bffffffffffffffffffffffff16818301528252600190920191016103b4565b5050509152505080519091501561042457602001519050610518565b6001600160a01b038416600090815260666020908152604080832081518083018352815460ff16151581526001820180548451818702810187019095528085529195929486810194939192919084015b828210156104c857600084815260209081902060408051808201909152908401546001600160a01b0381168252600160a01b90046bffffffffffffffffffffffff1681830152825260019092019101610474565b505050915250508051909150156104e457602001519050610518565b6000806104f186866109ee565b909250905081610508576105058686610ac6565b90505b610513868683610fe0565b925050505b92915050565b6105278261120e565b6001600160a01b0382166000908152606660205260408120805460ff191681558161055560018301826112ea565b505060005b82518110156106c95760006001600160a01b031683828151811061057a57fe5b6020026020010151600001516001600160a01b031614156105b65760405162461bcd60e51b81526004016105ad9061182f565b60405180910390fd5b8281815181106105c257fe5b6020026020010151602001516bffffffffffffffffffffffff16600014156105fc5760405162461bcd60e51b81526004016105ad906119da565b60666000856001600160a01b03166001600160a01b0316815260200190815260200160002060010183828151811061063057fe5b602090810291909101810151825460018101845560009384529282902081519301805491909201516bffffffffffffffffffffffff16600160a01b026001600160a01b039384166001600160a01b031990921691909117909216919091179055825183908290811061069e57fe5b6020026020010151602001516bffffffffffffffffffffffff1682019150808060010191505061055a565b5061271081106106eb5760405162461bcd60e51b81526004016105ad9061188c565b6001600160a01b03831660008181526066602052604090819020805460ff19166001179055517fc026171b9a7c9009d6a748a19a0a3cb877978a585e1647a87a786d724bbde1279061073e908590611791565b60405180910390a2505050565b6107548361120e565b61075f838383610fe0565b505050565b60656020526000908152604090205460ff1681565b6107828261120e565b6001600160a01b03918216600090815260676020526040902080546001600160a01b03191691909216179055565b6107b86109ea565b6001600160a01b03166107c961032d565b6001600160a01b031614610824576040805162461bcd60e51b815260206004820181905260248201527f4f776e61626c653a2063616c6c6572206973206e6f7420746865206f776e6572604482015290519081900360640190fd5b6001600160a01b0381166108695760405162461bcd60e51b8152600401808060200182810382526026815260200180611b0f6026913960400191505060405180910390fd5b6033546040516001600160a01b038084169216907f8be0079c531659141344cd1fd0a4f28419497f9722a3daafe3b4186f6b6457e090600090a3603380546001600160a01b0319166001600160a01b0392909216919091179055565b6067602052600090815260409020546001600160a01b031681565b60006108eb306112e4565b15905090565b600054610100900460ff168061090a575061090a6108e0565b80610918575060005460ff16155b6109535760405162461bcd60e51b815260040180806020018281038252602e815260200180611b35602e913960400191505060405180910390fd5b600054610100900460ff1615801561097e576000805460ff1961ff0019909116610100171660011790555b60006109886109ea565b603380546001600160a01b0319166001600160a01b038316908117909155604051919250906000907f8be0079c531659141344cd1fd0a4f28419497f9722a3daafe3b4186f6b6457e0908290a350801561026c576000805461ff001916905550565b3390565b6001600160a01b038083166000908152606760205260408120549091606091168015610abe576040517f9ca7dc7a00000000000000000000000000000000000000000000000000000000815281906001600160a01b03821690639ca7dc7a90610a5d9089908990600401611778565b600060405180830381600087803b158015610a7757600080fd5b505af1925050508015610aac57506040513d6000823e601f3d908101601f19168201604052610aa991908101906115ce565b60015b610ab557610abc565b6001945092505b505b509250929050565b6040516301ffc9a760e01b81526060906001600160a01b038416906301ffc9a790610b15907f44c74bcc0000000000000000000000000000000000000000000000000000000090600401611802565b60206040518083038186803b158015610b2d57600080fd5b505afa158015610b41573d6000803e3d6000fd5b505050506040513d601f19601f82011682018060405250810190610b65919061172c565b15610c16576040517fbb3bafd600000000000000000000000000000000000000000000000000000000815283906001600160a01b0382169063bb3bafd690610bb1908690600401611a94565b60006040518083038186803b158015610bc957600080fd5b505afa925050508015610bfe57506040513d6000823e601f3d908101601f19168201604052610bfb91908101906115ce565b60015b610c0757610c10565b91506105189050565b50610fa7565b6040516301ffc9a760e01b81526001600160a01b038416906301ffc9a790610c62907fb77995840000000000000000000000000000000000000000000000000000000090600401611802565b60206040518083038186803b158015610c7a57600080fd5b505afa158015610c8e573d6000803e3d6000fd5b505050506040513d601f19601f82011682018060405250810190610cb2919061172c565b15610fa7576040517fb9c4d9fb00000000000000000000000000000000000000000000000000000000815283906060906001600160a01b0383169063b9c4d9fb90610d01908790600401611a94565b60006040518083038186803b158015610d1957600080fd5b505afa925050508015610d4e57506040513d6000823e601f3d908101601f19168201604052610d4b9190810190611535565b60015b610d8d576040805160008082526020820190925290610d83565b610d70611308565b815260200190600190039081610d685790505b5092505050610518565b90506040517f0ebd4c7f0000000000000000000000000000000000000000000000000000000081526060906001600160a01b03841690630ebd4c7f90610dd7908890600401611a94565b60006040518083038186803b158015610def57600080fd5b505afa925050508015610e2457506040513d6000823e601f3d908101601f19168201604052610e2191908101906116a8565b60015b610e64576040805160008082526020820190925290610e59565b610e46611308565b815260200190600190039081610e3e5790505b509350505050610518565b90508151815114610eaa576040805160008082526020820190925290610e59565b610e8d611308565b815260200190600190039081610e85579050509350505050610518565b6000815167ffffffffffffffff81118015610ec457600080fd5b50604051908082528060200260200182016040528015610efe57816020015b610eeb611308565b815260200190600190039081610ee35790505b50905060005b8251811015610f9b57828181518110610f1957fe5b6020026020010151828281518110610f2d57fe5b6020026020010151602001906bffffffffffffffffffffffff1690816bffffffffffffffffffffffff1681525050838181518110610f6757fe5b6020026020010151828281518110610f7b57fe5b60209081029190910101516001600160a01b039091169052600101610f04565b50935061051892505050565b6040805160008082526020820190925290610fd8565b610fc5611308565b815260200190600190039081610fbd5790505b509392505050565b6000808484604051602001610ff6929190611778565b60405160208183030381529060405280519060200120905060656000828152602001908152602001600020600101600061103091906112ea565b60005b83518110156111875760006001600160a01b031684828151811061105357fe5b6020026020010151600001516001600160a01b031614156110865760405162461bcd60e51b81526004016105ad90611a37565b83818151811061109257fe5b6020026020010151602001516bffffffffffffffffffffffff16600014156110cc5760405162461bcd60e51b81526004016105ad9061197d565b606560008381526020019081526020016000206001018482815181106110ee57fe5b602090810291909101810151825460018101845560009384529282902081519301805491909201516bffffffffffffffffffffffff16600160a01b026001600160a01b039384166001600160a01b031990921691909117909216919091179055835184908290811061115c57fe5b6020026020010151602001516bffffffffffffffffffffffff16830192508080600101915050611033565b5061271082106111a95760405162461bcd60e51b81526004016105ad906118e9565b60008181526065602052604090819020805460ff191660011790555184906001600160a01b038716907feb39ff9fa01427567623bcdf507c38c3661f0febd78123a35951895dc9ec7315906111ff908790611791565b60405180910390a35050505050565b6112166109ea565b6001600160a01b031661122761032d565b6001600160a01b0316141580156112c757506112416109ea565b6001600160a01b0316816001600160a01b0316638da5cb5b6040518163ffffffff1660e01b815260040160206040518083038186803b15801561128357600080fd5b505afa158015611297573d6000803e3d6000fd5b505050506040513d601f19601f820116820180604052508101906112bb9190611411565b6001600160a01b031614155b1561026c5760405162461bcd60e51b81526004016105ad90611946565b3b151590565b508054600082559060005260206000209081019061026c919061131f565b604080518082019091526000808252602082015290565b5b808211156113345760008155600101611320565b5090565b600082601f830112611348578081fd5b8135602061135d61135883611ac1565b611a9d565b8281528181019085830160408086028801850189101561137b578687fd5b865b868110156113e05781838b031215611393578788fd5b815182810181811067ffffffffffffffff821117156113ae57fe5b835283356113bb81611adf565b8152838701356113ca81611af4565b818801528552938501939181019160010161137d565b509198975050505050505050565b6000602082840312156113ff578081fd5b813561140a81611adf565b9392505050565b600060208284031215611422578081fd5b815161140a81611adf565b6000806040838503121561143f578081fd5b823561144a81611adf565b9150602083013561145a81611adf565b809150509250929050565b60008060408385031215611477578182fd5b823561148281611adf565b9150602083013567ffffffffffffffff81111561149d578182fd5b6114a985828601611338565b9150509250929050565b600080604083850312156114c5578182fd5b82356114d081611adf565b946020939093013593505050565b6000806000606084860312156114f2578081fd5b83356114fd81611adf565b925060208401359150604084013567ffffffffffffffff81111561151f578182fd5b61152b86828701611338565b9150509250925092565b60006020808385031215611547578182fd5b825167ffffffffffffffff81111561155d578283fd5b8301601f8101851361156d578283fd5b805161157b61135882611ac1565b8181528381019083850185840285018601891015611597578687fd5b8694505b838510156115c25780516115ae81611adf565b83526001949094019391850191850161159b565b50979650505050505050565b600060208083850312156115e0578182fd5b825167ffffffffffffffff808211156115f7578384fd5b818501915085601f83011261160a578384fd5b815161161861135882611ac1565b818152848101908486016040808502870188018b1015611636578889fd5b8896505b848710156116995780828c031215611650578889fd5b8051818101818110888211171561166357fe5b8252825161167081611adf565b81528289015161167f81611af4565b818a0152845260019690960195928701929081019061163a565b50909998505050505050505050565b600060208083850312156116ba578182fd5b825167ffffffffffffffff8111156116d0578283fd5b8301601f810185136116e0578283fd5b80516116ee61135882611ac1565b818152838101908385018584028501860189101561170a578687fd5b8694505b838510156115c257805183526001949094019391850191850161170e565b60006020828403121561173d578081fd5b8151801515811461140a578182fd5b60006020828403121561175d578081fd5b5035919050565b6001600160a01b0391909116815260200190565b6001600160a01b03929092168252602082015260400190565b602080825282518282018190526000919060409081850190868401855b828110156117ea57815180516001600160a01b031685528601516bffffffffffffffffffffffff168685015292840192908501906001016117ae565b5091979650505050505050565b901515815260200190565b7fffffffff0000000000000000000000000000000000000000000000000000000091909116815260200190565b6020808252602c908201527f526f79616c746965734279546f6b656e20726563697069656e742073686f756c60408201527f642062652070726573656e740000000000000000000000000000000000000000606082015260800190565b6020808252602a908201527f53657420627920746f6b656e20726f79616c746965732073756d206d6f72652c60408201527f207468616e203130302500000000000000000000000000000000000000000000606082015260800190565b60208082526036908201527f53657420627920746f6b656e20616e6420746f6b656e496420726f79616c746960408201527f65732073756d206d6f72652c207468616e203130302500000000000000000000606082015260800190565b60208082526018908201527f546f6b656e206f776e6572206e6f742064657465637465640000000000000000604082015260600190565b6020808252603a908201527f526f79616c74792076616c756520666f7220526f79616c746965734279546f6b60408201527f656e416e64546f6b656e49642073686f756c64206265203e2030000000000000606082015260800190565b60208082526030908201527f526f79616c74792076616c756520666f7220526f79616c746965734279546f6b60408201527f656e2073686f756c64206265203e203000000000000000000000000000000000606082015260800190565b60208082526036908201527f526f79616c746965734279546f6b656e416e64546f6b656e496420726563697060408201527f69656e742073686f756c642062652070726573656e7400000000000000000000606082015260800190565b90815260200190565b60405181810167ffffffffffffffff81118282101715611ab957fe5b604052919050565b600067ffffffffffffffff821115611ad557fe5b5060209081020190565b6001600160a01b038116811461026c57600080fd5b6bffffffffffffffffffffffff8116811461026c57600080fdfe4f776e61626c653a206e6577206f776e657220697320746865207a65726f2061646472657373496e697469616c697a61626c653a20636f6e747261637420697320616c726561647920696e697469616c697a6564a26469706673582212203da6691a7e6df457441e8d5dcfc7c0fe66d0df4ecf8ae55756ae148d314e61de64736f6c63430007060033",
  "immutableReferences": {},
  "source": "// SPDX-License-Identifier: MIT\n\npragma solidity >=0.6.2 <0.8.0;\npragma abicoder v2;\n\nimport \"@rarible/royalties/contracts/IRoyaltiesProvider.sol\";\nimport \"@rarible/royalties/contracts/LibRoyaltiesV2.sol\";\nimport \"@rarible/royalties/contracts/LibRoyaltiesV1.sol\";\nimport \"@rarible/royalties/contracts/RoyaltiesV1.sol\";\nimport \"@rarible/royalties/contracts/RoyaltiesV2.sol\";\nimport \"@openzeppelin/contracts-upgradeable/token/ERC721/IERC721Upgradeable.sol\";\nimport \"@openzeppelin/contracts-upgradeable/access/OwnableUpgradeable.sol\";\n\ncontract RoyaltiesRegistry is IRoyaltiesProvider, OwnableUpgradeable {\n\n    event RoyaltiesSetForToken(address indexed token, uint indexed tokenId, LibPart.Part[] royalties);\n    event RoyaltiesSetForContract(address indexed token, LibPart.Part[] royalties);\n\n    struct RoyaltiesSet {\n        bool initialized;\n        LibPart.Part[] royalties;\n    }\n\n    mapping(bytes32 => RoyaltiesSet) public royaltiesByTokenAndTokenId;\n    mapping(address => RoyaltiesSet) public royaltiesByToken;\n    mapping(address => address) public royaltiesProviders;\n\n    function __RoyaltiesRegistry_init() external initializer {\n        __Ownable_init_unchained();\n    }\n\n    function setProviderByToken(address token, address provider) external {\n        checkOwner(token);\n        royaltiesProviders[token] = provider;\n    }\n\n    function setRoyaltiesByToken(address token, LibPart.Part[] memory royalties) external {\n        checkOwner(token);\n        uint sumRoyalties = 0;\n        delete royaltiesByToken[token];\n        for (uint i = 0; i < royalties.length; i++) {\n            require(royalties[i].account != address(0x0), \"RoyaltiesByToken recipient should be present\");\n            require(royalties[i].value != 0, \"Royalty value for RoyaltiesByToken should be > 0\");\n            royaltiesByToken[token].royalties.push(royalties[i]);\n            sumRoyalties += royalties[i].value;\n        }\n        require(sumRoyalties < 10000, \"Set by token royalties sum more, than 100%\");\n        royaltiesByToken[token].initialized = true;\n        emit RoyaltiesSetForContract(token, royalties);\n    }\n\n    function setRoyaltiesByTokenAndTokenId(address token, uint tokenId, LibPart.Part[] memory royalties) external {\n        checkOwner(token);\n        setRoyaltiesCacheByTokenAndTokenId(token, tokenId, royalties);\n    }\n\n    function checkOwner(address token) internal view {\n        if ((owner() != _msgSender()) && (OwnableUpgradeable(token).owner() != _msgSender())) {\n            revert(\"Token owner not detected\");\n        }\n    }\n\n    function getRoyalties(address token, uint tokenId) override external returns (LibPart.Part[] memory) {\n        RoyaltiesSet memory royaltiesSet = royaltiesByTokenAndTokenId[keccak256(abi.encode(token, tokenId))];\n        if (royaltiesSet.initialized) {\n            return royaltiesSet.royalties;\n        }\n        royaltiesSet = royaltiesByToken[token];\n        if (royaltiesSet.initialized) {\n            return royaltiesSet.royalties;\n        }\n        (bool result, LibPart.Part[] memory resultRoyalties) = providerExtractor(token, tokenId);\n        if (result == false) {\n            resultRoyalties = royaltiesFromContract(token, tokenId);\n        }\n        setRoyaltiesCacheByTokenAndTokenId(token, tokenId, resultRoyalties);\n        return resultRoyalties;\n    }\n\n    function setRoyaltiesCacheByTokenAndTokenId(address token, uint tokenId, LibPart.Part[] memory royalties) internal {\n        uint sumRoyalties = 0;\n        bytes32 key = keccak256(abi.encode(token, tokenId));\n        delete royaltiesByTokenAndTokenId[key].royalties;\n        for (uint i = 0; i < royalties.length; i++) {\n            require(royalties[i].account != address(0x0), \"RoyaltiesByTokenAndTokenId recipient should be present\");\n            require(royalties[i].value != 0, \"Royalty value for RoyaltiesByTokenAndTokenId should be > 0\");\n            royaltiesByTokenAndTokenId[key].royalties.push(royalties[i]);\n            sumRoyalties += royalties[i].value;\n        }\n        require(sumRoyalties < 10000, \"Set by token and tokenId royalties sum more, than 100%\");\n        royaltiesByTokenAndTokenId[key].initialized = true;\n        emit RoyaltiesSetForToken(token, tokenId, royalties);\n    }\n\n    function royaltiesFromContract(address token, uint tokenId) internal view returns (LibPart.Part[] memory) {\n        if (IERC165Upgradeable(token).supportsInterface(LibRoyaltiesV2._INTERFACE_ID_ROYALTIES)) {\n            RoyaltiesV2 v2 = RoyaltiesV2(token);\n            try v2.getRoyalties(tokenId) returns (LibPart.Part[] memory result) {\n                return result;\n            } catch {}\n        } else if (IERC165Upgradeable(token).supportsInterface(LibRoyaltiesV1._INTERFACE_ID_FEES)) {\n            RoyaltiesV1 v1 = RoyaltiesV1(token);\n            address payable[] memory recipients;\n            try v1.getFeeRecipients(tokenId) returns (address payable[] memory resultFee) {\n                recipients = resultFee;\n            } catch {\n                return new LibPart.Part[](0);\n            }\n            uint[] memory values;\n            try v1.getFeeBps(tokenId) returns (uint[] memory resultBps) {\n                values = resultBps;\n            } catch {\n                return new LibPart.Part[](0);\n            }\n            if (values.length != recipients.length) {\n                return new LibPart.Part[](0);\n            }\n            LibPart.Part[] memory resultPart = new LibPart.Part[](values.length);\n            for (uint256 i = 0; i < values.length; i++) {\n                resultPart[i].value = uint96(values[i]);\n                resultPart[i].account = recipients[i];\n            }\n            return resultPart;\n        }\n        return new LibPart.Part[](0);\n    }\n\n    function providerExtractor(address token, uint tokenId) internal returns (bool result, LibPart.Part[] memory royalties) {\n        result = false;\n        address providerAddress = royaltiesProviders[token];\n        if (providerAddress != address(0x0)) {\n            IRoyaltiesProvider provider = IRoyaltiesProvider(providerAddress);\n            try provider.getRoyalties(token, tokenId) returns (LibPart.Part[] memory royaltiesByProvider) {\n                royalties = royaltiesByProvider;\n                result = true;\n            } catch {}\n        }\n    }\n\n    uint256[46] private __gap;\n}\n",
  "sourcePath": "protocol-contracts/royalties-registry/contracts/RoyaltiesRegistry.sol",
  "compiler": {
    "name": "solc",
    "version": "0.7.6+commit.7338295f.Emscripten.clang"
  },
  "schemaVersion": "3.4.1",
  "updatedAt": "2021-09-21T12:35:17.296Z",
  "devdoc": {
    "kind": "dev",
    "methods": {
      "owner()": {
        "details": "Returns the address of the current owner."
      },
      "renounceOwnership()": {
        "details": "Leaves the contract without owner. It will not be possible to call `onlyOwner` functions anymore. Can only be called by the current owner. NOTE: Renouncing ownership will leave the contract without an owner, thereby removing any functionality that is only available to the owner."
      },
      "transferOwnership(address)": {
        "details": "Transfers ownership of the contract to a new account (`newOwner`). Can only be called by the current owner."
      }
    },
    "version": 1
  },
  "userdoc": {
    "kind": "user",
    "methods": {},
    "version": 1
  }
}