{
  "_format": "hh-sol-artifact-1",
  "contractName": "EcoFiERC1155",
  "sourceName": "contracts/EcoFiERC1155.sol",
  "abi": [
    {
      "anonymous": false,
      "inputs": [
        {
          "indexed": true,
          "internalType": "address",
          "name": "account",
          "type": "address"
        },
        {
          "indexed": true,
          "internalType": "address",
          "name": "operator",
          "type": "address"
        },
        {
          "indexed": false,
          "internalType": "bool",
          "name": "approved",
          "type": "bool"
        }
      ],
      "name": "ApprovalForAll",
      "type": "event"
    },
    {
      "anonymous": false,
      "inputs": [
        {
          "indexed": false,
          "internalType": "address",
          "name": "owner",
          "type": "address"
        },
        {
          "indexed": false,
          "internalType": "string",
          "name": "name",
          "type": "string"
        },
        {
          "indexed": false,
          "internalType": "string",
          "name": "symbol",
          "type": "string"
        }
      ],
      "name": "CreateEcoFiERC1155",
      "type": "event"
    },
    {
      "anonymous": false,
      "inputs": [
        {
          "indexed": false,
          "internalType": "uint256",
          "name": "tokenId",
          "type": "uint256"
        },
        {
          "components": [
            {
              "internalType": "address payable",
              "name": "account",
              "type": "address"
            },
            {
              "internalType": "uint96",
              "name": "value",
              "type": "uint96"
            }
          ],
          "indexed": false,
          "internalType": "struct LibPart.Part[]",
          "name": "creators",
          "type": "tuple[]"
        }
      ],
      "name": "Creators",
      "type": "event"
    },
    {
      "anonymous": false,
      "inputs": [
        {
          "indexed": true,
          "internalType": "address",
          "name": "operator",
          "type": "address"
        },
        {
          "indexed": false,
          "internalType": "bool",
          "name": "hasApproval",
          "type": "bool"
        }
      ],
      "name": "DefaultApproval",
      "type": "event"
    },
    {
      "anonymous": false,
      "inputs": [
        {
          "indexed": false,
          "internalType": "string",
          "name": "value",
          "type": "string"
        },
        {
          "indexed": true,
          "internalType": "uint256",
          "name": "id",
          "type": "uint256"
        }
      ],
      "name": "Image",
      "type": "event"
    },
    {
      "anonymous": false,
      "inputs": [
        {
          "indexed": true,
          "internalType": "address",
          "name": "previousOwner",
          "type": "address"
        },
        {
          "indexed": true,
          "internalType": "address",
          "name": "newOwner",
          "type": "address"
        }
      ],
      "name": "OwnershipTransferred",
      "type": "event"
    },
    {
      "anonymous": false,
      "inputs": [
        {
          "indexed": false,
          "internalType": "uint256",
          "name": "tokenId",
          "type": "uint256"
        },
        {
          "components": [
            {
              "internalType": "address payable",
              "name": "account",
              "type": "address"
            },
            {
              "internalType": "uint96",
              "name": "value",
              "type": "uint96"
            }
          ],
          "indexed": false,
          "internalType": "struct LibPart.Part[]",
          "name": "royalties",
          "type": "tuple[]"
        }
      ],
      "name": "RoyaltiesSet",
      "type": "event"
    },
    {
      "anonymous": false,
      "inputs": [
        {
          "indexed": false,
          "internalType": "uint256",
          "name": "tokenId",
          "type": "uint256"
        },
        {
          "indexed": false,
          "internalType": "uint256",
          "name": "value",
          "type": "uint256"
        }
      ],
      "name": "Supply",
      "type": "event"
    },
    {
      "anonymous": false,
      "inputs": [
        {
          "indexed": true,
          "internalType": "address",
          "name": "operator",
          "type": "address"
        },
        {
          "indexed": true,
          "internalType": "address",
          "name": "from",
          "type": "address"
        },
        {
          "indexed": true,
          "internalType": "address",
          "name": "to",
          "type": "address"
        },
        {
          "indexed": false,
          "internalType": "uint256[]",
          "name": "ids",
          "type": "uint256[]"
        },
        {
          "indexed": false,
          "internalType": "uint256[]",
          "name": "values",
          "type": "uint256[]"
        }
      ],
      "name": "TransferBatch",
      "type": "event"
    },
    {
      "anonymous": false,
      "inputs": [
        {
          "indexed": true,
          "internalType": "address",
          "name": "operator",
          "type": "address"
        },
        {
          "indexed": true,
          "internalType": "address",
          "name": "from",
          "type": "address"
        },
        {
          "indexed": true,
          "internalType": "address",
          "name": "to",
          "type": "address"
        },
        {
          "indexed": false,
          "internalType": "uint256",
          "name": "id",
          "type": "uint256"
        },
        {
          "indexed": false,
          "internalType": "uint256",
          "name": "value",
          "type": "uint256"
        }
      ],
      "name": "TransferSingle",
      "type": "event"
    },
    {
      "anonymous": false,
      "inputs": [
        {
          "indexed": false,
          "internalType": "string",
          "name": "value",
          "type": "string"
        },
        {
          "indexed": true,
          "internalType": "uint256",
          "name": "id",
          "type": "uint256"
        }
      ],
      "name": "URI",
      "type": "event"
    },
    {
      "inputs": [
        {
          "internalType": "string",
          "name": "_name",
          "type": "string"
        },
        {
          "internalType": "string",
          "name": "_symbol",
          "type": "string"
        },
        {
          "internalType": "string",
          "name": "baseURI",
          "type": "string"
        },
        {
          "internalType": "string",
          "name": "contractURI",
          "type": "string"
        }
      ],
      "name": "__EcoFiERC1155_init",
      "outputs": [],
      "stateMutability": "nonpayable",
      "type": "function"
    },
    {
      "inputs": [
        {
          "internalType": "address",
          "name": "account",
          "type": "address"
        },
        {
          "internalType": "uint256",
          "name": "id",
          "type": "uint256"
        }
      ],
      "name": "balanceOf",
      "outputs": [
        {
          "internalType": "uint256",
          "name": "",
          "type": "uint256"
        }
      ],
      "stateMutability": "view",
      "type": "function"
    },
    {
      "inputs": [
        {
          "internalType": "address[]",
          "name": "accounts",
          "type": "address[]"
        },
        {
          "internalType": "uint256[]",
          "name": "ids",
          "type": "uint256[]"
        }
      ],
      "name": "balanceOfBatch",
      "outputs": [
        {
          "internalType": "uint256[]",
          "name": "",
          "type": "uint256[]"
        }
      ],
      "stateMutability": "view",
      "type": "function"
    },
    {
      "inputs": [],
      "name": "baseURI",
      "outputs": [
        {
          "internalType": "string",
          "name": "",
          "type": "string"
        }
      ],
      "stateMutability": "view",
      "type": "function"
    },
    {
      "inputs": [
        {
          "internalType": "address",
          "name": "account",
          "type": "address"
        },
        {
          "internalType": "uint256",
          "name": "id",
          "type": "uint256"
        },
        {
          "internalType": "uint256",
          "name": "value",
          "type": "uint256"
        }
      ],
      "name": "burn",
      "outputs": [],
      "stateMutability": "nonpayable",
      "type": "function"
    },
    {
      "inputs": [
        {
          "internalType": "address",
          "name": "account",
          "type": "address"
        },
        {
          "internalType": "uint256[]",
          "name": "ids",
          "type": "uint256[]"
        },
        {
          "internalType": "uint256[]",
          "name": "values",
          "type": "uint256[]"
        }
      ],
      "name": "burnBatch",
      "outputs": [],
      "stateMutability": "nonpayable",
      "type": "function"
    },
    {
      "inputs": [],
      "name": "contractURI",
      "outputs": [
        {
          "internalType": "string",
          "name": "",
          "type": "string"
        }
      ],
      "stateMutability": "view",
      "type": "function"
    },
    {
      "inputs": [
        {
          "internalType": "uint256",
          "name": "",
          "type": "uint256"
        },
        {
          "internalType": "uint256",
          "name": "",
          "type": "uint256"
        }
      ],
      "name": "creators",
      "outputs": [
        {
          "internalType": "address payable",
          "name": "account",
          "type": "address"
        },
        {
          "internalType": "uint96",
          "name": "value",
          "type": "uint96"
        }
      ],
      "stateMutability": "view",
      "type": "function"
    },
    {
      "inputs": [
        {
          "internalType": "uint256",
          "name": "_id",
          "type": "uint256"
        }
      ],
      "name": "getCreators",
      "outputs": [
        {
          "components": [
            {
              "internalType": "address payable",
              "name": "account",
              "type": "address"
            },
            {
              "internalType": "uint96",
              "name": "value",
              "type": "uint96"
            }
          ],
          "internalType": "struct LibPart.Part[]",
          "name": "",
          "type": "tuple[]"
        }
      ],
      "stateMutability": "view",
      "type": "function"
    },
    {
      "inputs": [
        {
          "internalType": "address",
          "name": "token",
          "type": "address"
        },
        {
          "internalType": "uint256",
          "name": "id",
          "type": "uint256"
        }
      ],
      "name": "getRoyalties",
      "outputs": [
        {
          "components": [
            {
              "internalType": "address payable",
              "name": "account",
              "type": "address"
            },
            {
              "internalType": "uint96",
              "name": "value",
              "type": "uint96"
            }
          ],
          "internalType": "struct LibPart.Part[]",
          "name": "",
          "type": "tuple[]"
        }
      ],
      "stateMutability": "view",
      "type": "function"
    },
    {
      "inputs": [
        {
          "internalType": "uint256",
          "name": "id",
          "type": "uint256"
        }
      ],
      "name": "getRoyalties",
      "outputs": [
        {
          "components": [
            {
              "internalType": "address payable",
              "name": "account",
              "type": "address"
            },
            {
              "internalType": "uint96",
              "name": "value",
              "type": "uint96"
            }
          ],
          "internalType": "struct LibPart.Part[]",
          "name": "",
          "type": "tuple[]"
        }
      ],
      "stateMutability": "view",
      "type": "function"
    },
    {
      "inputs": [
        {
          "internalType": "uint256",
          "name": "id",
          "type": "uint256"
        }
      ],
      "name": "image",
      "outputs": [
        {
          "internalType": "string",
          "name": "",
          "type": "string"
        }
      ],
      "stateMutability": "view",
      "type": "function"
    },
    {
      "inputs": [
        {
          "internalType": "address",
          "name": "_owner",
          "type": "address"
        },
        {
          "internalType": "address",
          "name": "_operator",
          "type": "address"
        }
      ],
      "name": "isApprovedForAll",
      "outputs": [
        {
          "internalType": "bool",
          "name": "",
          "type": "bool"
        }
      ],
      "stateMutability": "view",
      "type": "function"
    },
    {
      "inputs": [
        {
          "components": [
            {
              "internalType": "uint256",
              "name": "tokenId",
              "type": "uint256"
            },
            {
              "internalType": "string",
              "name": "uri",
              "type": "string"
            },
            {
              "internalType": "uint256",
              "name": "supply",
              "type": "uint256"
            },
            {
              "components": [
                {
                  "internalType": "address payable",
                  "name": "account",
                  "type": "address"
                },
                {
                  "internalType": "uint96",
                  "name": "value",
                  "type": "uint96"
                }
              ],
              "internalType": "struct LibPart.Part[]",
              "name": "creators",
              "type": "tuple[]"
            },
            {
              "components": [
                {
                  "internalType": "address payable",
                  "name": "account",
                  "type": "address"
                },
                {
                  "internalType": "uint96",
                  "name": "value",
                  "type": "uint96"
                }
              ],
              "internalType": "struct LibPart.Part[]",
              "name": "royalties",
              "type": "tuple[]"
            },
            {
              "internalType": "bytes[]",
              "name": "signatures",
              "type": "bytes[]"
            }
          ],
          "internalType": "struct LibERC1155LazyMint.Mint1155Data",
          "name": "data",
          "type": "tuple"
        },
        {
          "internalType": "address",
          "name": "to",
          "type": "address"
        },
        {
          "internalType": "uint256",
          "name": "_amount",
          "type": "uint256"
        }
      ],
      "name": "mintAndTransfer",
      "outputs": [],
      "stateMutability": "nonpayable",
      "type": "function"
    },
    {
      "inputs": [
        {
          "components": [
            {
              "internalType": "uint256",
              "name": "tokenId",
              "type": "uint256"
            },
            {
              "internalType": "string",
              "name": "uri",
              "type": "string"
            },
            {
              "internalType": "uint256",
              "name": "supply",
              "type": "uint256"
            },
            {
              "components": [
                {
                  "internalType": "address payable",
                  "name": "account",
                  "type": "address"
                },
                {
                  "internalType": "uint96",
                  "name": "value",
                  "type": "uint96"
                }
              ],
              "internalType": "struct LibPart.Part[]",
              "name": "creators",
              "type": "tuple[]"
            },
            {
              "components": [
                {
                  "internalType": "address payable",
                  "name": "account",
                  "type": "address"
                },
                {
                  "internalType": "uint96",
                  "name": "value",
                  "type": "uint96"
                }
              ],
              "internalType": "struct LibPart.Part[]",
              "name": "royalties",
              "type": "tuple[]"
            },
            {
              "internalType": "bytes[]",
              "name": "signatures",
              "type": "bytes[]"
            }
          ],
          "internalType": "struct LibERC1155LazyMint.Mint1155Data",
          "name": "data",
          "type": "tuple"
        },
        {
          "internalType": "string",
          "name": "image",
          "type": "string"
        },
        {
          "internalType": "address",
          "name": "to",
          "type": "address"
        },
        {
          "internalType": "uint256",
          "name": "_amount",
          "type": "uint256"
        }
      ],
      "name": "mintWithImage",
      "outputs": [],
      "stateMutability": "nonpayable",
      "type": "function"
    },
    {
      "inputs": [],
      "name": "name",
      "outputs": [
        {
          "internalType": "string",
          "name": "",
          "type": "string"
        }
      ],
      "stateMutability": "view",
      "type": "function"
    },
    {
      "inputs": [],
      "name": "owner",
      "outputs": [
        {
          "internalType": "address",
          "name": "",
          "type": "address"
        }
      ],
      "stateMutability": "view",
      "type": "function"
    },
    {
      "inputs": [],
      "name": "renounceOwnership",
      "outputs": [],
      "stateMutability": "nonpayable",
      "type": "function"
    },
    {
      "inputs": [
        {
          "internalType": "uint256",
          "name": "",
          "type": "uint256"
        },
        {
          "internalType": "uint256",
          "name": "",
          "type": "uint256"
        }
      ],
      "name": "royalties",
      "outputs": [
        {
          "internalType": "address payable",
          "name": "account",
          "type": "address"
        },
        {
          "internalType": "uint96",
          "name": "value",
          "type": "uint96"
        }
      ],
      "stateMutability": "view",
      "type": "function"
    },
    {
      "inputs": [
        {
          "internalType": "address",
          "name": "from",
          "type": "address"
        },
        {
          "internalType": "address",
          "name": "to",
          "type": "address"
        },
        {
          "internalType": "uint256[]",
          "name": "ids",
          "type": "uint256[]"
        },
        {
          "internalType": "uint256[]",
          "name": "amounts",
          "type": "uint256[]"
        },
        {
          "internalType": "bytes",
          "name": "data",
          "type": "bytes"
        }
      ],
      "name": "safeBatchTransferFrom",
      "outputs": [],
      "stateMutability": "nonpayable",
      "type": "function"
    },
    {
      "inputs": [
        {
          "internalType": "address",
          "name": "from",
          "type": "address"
        },
        {
          "internalType": "address",
          "name": "to",
          "type": "address"
        },
        {
          "internalType": "uint256",
          "name": "id",
          "type": "uint256"
        },
        {
          "internalType": "uint256",
          "name": "amount",
          "type": "uint256"
        },
        {
          "internalType": "bytes",
          "name": "data",
          "type": "bytes"
        }
      ],
      "name": "safeTransferFrom",
      "outputs": [],
      "stateMutability": "nonpayable",
      "type": "function"
    },
    {
      "inputs": [
        {
          "internalType": "address",
          "name": "operator",
          "type": "address"
        },
        {
          "internalType": "bool",
          "name": "approved",
          "type": "bool"
        }
      ],
      "name": "setApprovalForAll",
      "outputs": [],
      "stateMutability": "nonpayable",
      "type": "function"
    },
    {
      "inputs": [
        {
          "internalType": "address",
          "name": "operator",
          "type": "address"
        },
        {
          "internalType": "bool",
          "name": "hasApproval",
          "type": "bool"
        }
      ],
      "name": "setDefaultApproval",
      "outputs": [],
      "stateMutability": "nonpayable",
      "type": "function"
    },
    {
      "inputs": [
        {
          "internalType": "bytes4",
          "name": "interfaceId",
          "type": "bytes4"
        }
      ],
      "name": "supportsInterface",
      "outputs": [
        {
          "internalType": "bool",
          "name": "",
          "type": "bool"
        }
      ],
      "stateMutability": "view",
      "type": "function"
    },
    {
      "inputs": [],
      "name": "symbol",
      "outputs": [
        {
          "internalType": "string",
          "name": "",
          "type": "string"
        }
      ],
      "stateMutability": "view",
      "type": "function"
    },
    {
      "inputs": [
        {
          "components": [
            {
              "internalType": "uint256",
              "name": "tokenId",
              "type": "uint256"
            },
            {
              "internalType": "string",
              "name": "uri",
              "type": "string"
            },
            {
              "internalType": "uint256",
              "name": "supply",
              "type": "uint256"
            },
            {
              "components": [
                {
                  "internalType": "address payable",
                  "name": "account",
                  "type": "address"
                },
                {
                  "internalType": "uint96",
                  "name": "value",
                  "type": "uint96"
                }
              ],
              "internalType": "struct LibPart.Part[]",
              "name": "creators",
              "type": "tuple[]"
            },
            {
              "components": [
                {
                  "internalType": "address payable",
                  "name": "account",
                  "type": "address"
                },
                {
                  "internalType": "uint96",
                  "name": "value",
                  "type": "uint96"
                }
              ],
              "internalType": "struct LibPart.Part[]",
              "name": "royalties",
              "type": "tuple[]"
            },
            {
              "internalType": "bytes[]",
              "name": "signatures",
              "type": "bytes[]"
            }
          ],
          "internalType": "struct LibERC1155LazyMint.Mint1155Data",
          "name": "data",
          "type": "tuple"
        },
        {
          "internalType": "address",
          "name": "from",
          "type": "address"
        },
        {
          "internalType": "address",
          "name": "to",
          "type": "address"
        },
        {
          "internalType": "uint256",
          "name": "amount",
          "type": "uint256"
        }
      ],
      "name": "transferFromOrMint",
      "outputs": [],
      "stateMutability": "nonpayable",
      "type": "function"
    },
    {
      "inputs": [
        {
          "internalType": "address",
          "name": "newOwner",
          "type": "address"
        }
      ],
      "name": "transferOwnership",
      "outputs": [],
      "stateMutability": "nonpayable",
      "type": "function"
    },
    {
      "inputs": [
        {
          "internalType": "uint256",
          "name": "id",
          "type": "uint256"
        }
      ],
      "name": "uri",
      "outputs": [
        {
          "internalType": "string",
          "name": "",
          "type": "string"
        }
      ],
      "stateMutability": "view",
      "type": "function"
    }
  ],
  "bytecode": "0x608060405234801561001057600080fd5b506176c180620000216000396000f3fe608060405234801561001057600080fd5b50600436106101c35760003560e01c80638924af74116100f9578063c79178c611610097578063f242432a11610071578063f242432a1461053e578063f2fde38b1461055a578063f5298aca14610576578063ffc4e0a714610592576101c3565b8063c79178c6146104c0578063e8a3d485146104f0578063e985e9c51461050e576101c3565b806398d0b4fb116100d357806398d0b4fb146104135780639ca7dc7a14610444578063a22cb46514610474578063bb3bafd614610490576101c3565b80638924af74146103a65780638da5cb5b146103d757806395d89b41146103f5576101c3565b80632eb2c2d6116101665780636c0360eb116101405780636c0360eb14610332578063715018a61461035057806383ca29ed1461035a578063891be97414610376576101c3565b80632eb2c2d6146102ca5780634e1273f4146102e65780636b20c45414610316576101c3565b80630e89341c116101a25780630e89341c146102465780630eaead671461027657806318054c37146102925780631e014a4b146102ae576101c3565b8062fdd58e146101c857806301ffc9a7146101f857806306fdde0314610228575b600080fd5b6101e260048036038101906101dd9190616599565b6105ae565b6040516101ef9190616f27565b60405180910390f35b610212600480360381019061020d9190616690565b61068e565b60405161021f9190616e0a565b60405180910390f35b6102306106f6565b60405161023d9190616e25565b60405180910390f35b610260600480360381019061025b91906168f1565b610795565b60405161026d9190616e25565b60405180910390f35b610290600480360381019061028b91906167f7565b6107a7565b005b6102ac60048036038101906102a7919061655d565b610a6a565b005b6102c860048036038101906102c3919061685e565b610b27565b005b6102e460048036038101906102df9190616390565b610ded565b005b61030060048036038101906102fb9190616624565b611278565b60405161030d9190616de8565b60405180910390f35b610330600480360381019061032b91906164de565b61138a565b005b61033a61143d565b6040516103479190616e25565b60405180910390f35b6103586114e0565b005b610374600480360381019061036f91906166b9565b611650565b005b610390600480360381019061038b91906168f1565b611812565b60405161039d9190616dc6565b60405180910390f35b6103c060048036038101906103bb919061691a565b611915565b6040516103ce929190616d9d565b60405180910390f35b6103df61198b565b6040516103ec9190616d3d565b60405180910390f35b6103fd6119b5565b60405161040a9190616e25565b60405180910390f35b61042d6004803603810190610428919061691a565b611a54565b60405161043b929190616d9d565b60405180910390f35b61045e60048036038101906104599190616599565b611aca565b60405161046b9190616dc6565b60405180910390f35b61048e6004803603810190610489919061655d565b611bce565b005b6104aa60048036038101906104a591906168f1565b611d67565b6040516104b79190616dc6565b60405180910390f35b6104da60048036038101906104d591906168f1565b611e6a565b6040516104e79190616e25565b60405180910390f35b6104f8611e7c565b6040516105059190616e25565b60405180910390f35b61052860048036038101906105239190616354565b611f1b565b6040516105359190616e0a565b60405180910390f35b6105586004803603810190610553919061644f565b611f2f565b005b610574600480360381019061056f919061632b565b612368565b005b610590600480360381019061058b91906165d5565b61255d565b005b6105ac60048036038101906105a7919061677c565b612610565b005b60008073ffffffffffffffffffffffffffffffffffffffff168373ffffffffffffffffffffffffffffffffffffffff161415610635576040517f08c379a000000000000000000000000000000000000000000000000000000000815260040180806020018281038252602b81526020018061743d602b913960400191505060405180910390fd5b6097600083815260200190815260200160002060008473ffffffffffffffffffffffffffffffffffffffff1673ffffffffffffffffffffffffffffffffffffffff16815260200190815260200160002054905092915050565b600060656000837bffffffffffffffffffffffffffffffffffffffffffffffffffffffff19167bffffffffffffffffffffffffffffffffffffffffffffffffffffffff1916815260200190815260200160002060009054906101000a900460ff169050919050565b6102628054600181600116156101000203166002900480601f01602080910402602001604051908101604052809291908181526020018280546001816001161561010002031660029004801561078d5780601f106107625761010080835404028352916020019161078d565b820191906000526020600020905b81548152906001019060200180831161077057829003601f168201915b505050505081565b60606107a082612684565b9050919050565b600060608460000151901c905060006107be6128f7565b905084606001516000815181106107d157fe5b60200260200101516000015173ffffffffffffffffffffffffffffffffffffffff168273ffffffffffffffffffffffffffffffffffffffff161461084a576040517f08c379a000000000000000000000000000000000000000000000000000000000815260040161084190616e67565b60405180910390fd5b8460a00151518560600151511461086057600080fd5b8073ffffffffffffffffffffffffffffffffffffffff168273ffffffffffffffffffffffffffffffffffffffff1614806108a0575061089f8282611f1b565b5b6108df576040517f08c379a00000000000000000000000000000000000000000000000000000000081526004016108d690616ea7565b60405180910390fd5b6000856040015111610926576040517f08c379a000000000000000000000000000000000000000000000000000000000815260040161091d90616e47565b60405180910390fd5b60008311610969576040517f08c379a000000000000000000000000000000000000000000000000000000000815260040161096090616e87565b60405180910390fd5b6000856020015151116109b1576040517f08c379a00000000000000000000000000000000000000000000000000000000081526004016109a890616f07565b60405180910390fd5b60006101fc600087600001518152602001908152602001600020541415610a445760005b8560600151518110156109fa576109ed8287836128ff565b80806001019150506109d5565b50610a0d8560000151866040015161299e565b610a1f85600001518660800151612a15565b610a3185600001518660600151612c60565b610a4385600001518660200151612e0a565b5b610a638486600001518560405180602001604052806000815250612edc565b5050505050565b610a726128f7565b73ffffffffffffffffffffffffffffffffffffffff16610a9061198b565b73ffffffffffffffffffffffffffffffffffffffff1614610b19576040517f08c379a00000000000000000000000000000000000000000000000000000000081526004018080602001828103825260208152602001807f4f776e61626c653a2063616c6c6572206973206e6f7420746865206f776e657281525060200191505060405180910390fd5b610b238282612eee565b5050565b600060608560000151901c90506000610b3e6128f7565b90508560600151600081518110610b5157fe5b60200260200101516000015173ffffffffffffffffffffffffffffffffffffffff168273ffffffffffffffffffffffffffffffffffffffff1614610bca576040517f08c379a0000000000000000000000000000000000000000000000000000000008152600401610bc190616e67565b60405180910390fd5b8560a001515186606001515114610be057600080fd5b8073ffffffffffffffffffffffffffffffffffffffff168273ffffffffffffffffffffffffffffffffffffffff161480610c205750610c1f8282611f1b565b5b610c5f576040517f08c379a0000000000000000000000000000000000000000000000000000000008152600401610c5690616ea7565b60405180910390fd5b6000866040015111610ca6576040517f08c379a0000000000000000000000000000000000000000000000000000000008152600401610c9d90616e47565b60405180910390fd5b60008311610ce9576040517f08c379a0000000000000000000000000000000000000000000000000000000008152600401610ce090616e87565b60405180910390fd5b600086602001515111610d31576040517f08c379a0000000000000000000000000000000000000000000000000000000008152600401610d2890616f07565b60405180910390fd5b6000610d408760000151612f99565b1415610dc65760005b866060015151811015610d6e57610d618288836128ff565b8080600101915050610d49565b50610d818660000151876040015161299e565b610d9386600001518760800151612a15565b610da586600001518760600151612c60565b610db786600001518760200151612e0a565b610dc5866000015186612fb7565b5b610de58487600001518560405180602001604052806000815250612edc565b505050505050565b8151835114610e47576040517f08c379a00000000000000000000000000000000000000000000000000000000081526004018080602001828103825260288152602001806176436028913960400191505060405180910390fd5b600073ffffffffffffffffffffffffffffffffffffffff168473ffffffffffffffffffffffffffffffffffffffff161415610ecd576040517f08c379a00000000000000000000000000000000000000000000000000000000081526004018080602001828103825260258152602001806174fd6025913960400191505060405180910390fd5b610ed56128f7565b73ffffffffffffffffffffffffffffffffffffffff168573ffffffffffffffffffffffffffffffffffffffff161480610f1b5750610f1a85610f156128f7565b611f1b565b5b610f70576040517f08c379a00000000000000000000000000000000000000000000000000000000081526004018080602001828103825260328152602001806175226032913960400191505060405180910390fd5b6000610f7a6128f7565b9050610f8a818787878787613089565b60005b845181101561115b576000858281518110610fa457fe5b602002602001015190506000858381518110610fbc57fe5b60200260200101519050611043816040518060600160405280602a81526020016175c7602a91396097600086815260200190815260200160002060008d73ffffffffffffffffffffffffffffffffffffffff1673ffffffffffffffffffffffffffffffffffffffff168152602001908152602001600020546130919092919063ffffffff16565b6097600084815260200190815260200160002060008b73ffffffffffffffffffffffffffffffffffffffff1673ffffffffffffffffffffffffffffffffffffffff168152602001908152602001600020819055506110fa816097600085815260200190815260200160002060008b73ffffffffffffffffffffffffffffffffffffffff1673ffffffffffffffffffffffffffffffffffffffff1681526020019081526020016000205461314b90919063ffffffff16565b6097600084815260200190815260200160002060008a73ffffffffffffffffffffffffffffffffffffffff1673ffffffffffffffffffffffffffffffffffffffff168152602001908152602001600020819055505050806001019050610f8d565b508473ffffffffffffffffffffffffffffffffffffffff168673ffffffffffffffffffffffffffffffffffffffff168273ffffffffffffffffffffffffffffffffffffffff167f4a39dc06d4c0dbc64b70af90fd698a233a518aa5d07e595d983b8c0526c8f7fb8787604051808060200180602001838103835285818151815260200191508051906020019060200280838360005b8381101561120b5780820151818401526020810190506111f0565b50505050905001838103825284818151815260200191508051906020019060200280838360005b8381101561124d578082015181840152602081019050611232565b5050505090500194505050505060405180910390a46112708187878787876131d3565b505050505050565b606081518351146112d4576040517f08c379a000000000000000000000000000000000000000000000000000000000815260040180806020018281038252602981526020018061761a6029913960400191505060405180910390fd5b6060835167ffffffffffffffff811180156112ee57600080fd5b5060405190808252806020026020018201604052801561131d5781602001602082028036833780820191505090505b50905060005b845181101561137f5761135c85828151811061133b57fe5b602002602001015185838151811061134f57fe5b60200260200101516105ae565b82828151811061136857fe5b602002602001018181525050806001019050611323565b508091505092915050565b6113926128f7565b73ffffffffffffffffffffffffffffffffffffffff168373ffffffffffffffffffffffffffffffffffffffff1614806113d857506113d7836113d26128f7565b611f1b565b5b61142d576040517f08c379a00000000000000000000000000000000000000000000000000000000081526004018080602001828103825260298152602001806174b26029913960400191505060405180910390fd5b611438838383613562565b505050565b606061012f8054600181600116156101000203166002900480601f0160208091040260200160405190810160405280929190818152602001828054600181600116156101000203166002900480156114d65780601f106114ab576101008083540402835291602001916114d6565b820191906000526020600020905b8154815290600101906020018083116114b957829003601f168201915b5050505050905090565b6114e86128f7565b73ffffffffffffffffffffffffffffffffffffffff1661150661198b565b73ffffffffffffffffffffffffffffffffffffffff161461158f576040517f08c379a00000000000000000000000000000000000000000000000000000000081526004018080602001828103825260208152602001807f4f776e61626c653a2063616c6c6572206973206e6f7420746865206f776e657281525060200191505060405180910390fd5b600073ffffffffffffffffffffffffffffffffffffffff16603360009054906101000a900473ffffffffffffffffffffffffffffffffffffffff1673ffffffffffffffffffffffffffffffffffffffff167f8be0079c531659141344cd1fd0a4f28419497f9722a3daafe3b4186f6b6457e060405160405180910390a36000603360006101000a81548173ffffffffffffffffffffffffffffffffffffffff021916908373ffffffffffffffffffffffffffffffffffffffff160217905550565b600060019054906101000a900460ff168061166f575061166e61389d565b5b80611685575060008054906101000a900460ff16155b6116da576040517f08c379a000000000000000000000000000000000000000000000000000000000815260040180806020018281038252602e815260200180617554602e913960400191505060405180910390fd5b60008060019054906101000a900460ff16159050801561172a576001600060016101000a81548160ff02191690831515021790555060016000806101000a81548160ff0219169083151502179055505b6117326138ae565b61173a613a55565b611742613b63565b61174a613c71565b611752613d6f565b61176a60405180602001604052806000815250613ee1565b61177382614009565b61177b614130565b61178361422e565b61178d858561433c565b6117968361446c565b6117a86117a16128f7565b6001612eee565b7f630c3520bebe920390fcfcb48ef2e0bde326ef10f85761c5f708d1ccebf6ba736117d16128f7565b86866040516117e293929190616d58565b60405180910390a1801561180b5760008060016101000a81548160ff0219169083151502179055505b5050505050565b60606101fb6000838152602001908152602001600020805480602002602001604051908101604052809291908181526020016000905b8282101561190a578382906000526020600020016040518060400160405290816000820160009054906101000a900473ffffffffffffffffffffffffffffffffffffffff1673ffffffffffffffffffffffffffffffffffffffff1673ffffffffffffffffffffffffffffffffffffffff1681526020016000820160149054906101000a90046bffffffffffffffffffffffff166bffffffffffffffffffffffff166bffffffffffffffffffffffff168152505081526020019060010190611848565b505050509050919050565b6101fa602052816000526040600020818154811061193257600080fd5b90600052602060002001600091509150508060000160009054906101000a900473ffffffffffffffffffffffffffffffffffffffff16908060000160149054906101000a90046bffffffffffffffffffffffff16905082565b6000603360009054906101000a900473ffffffffffffffffffffffffffffffffffffffff16905090565b6102638054600181600116156101000203166002900480601f016020809104026020016040519081016040528092919081815260200182805460018160011615610100020316600290048015611a4c5780601f10611a2157610100808354040283529160200191611a4c565b820191906000526020600020905b815481529060010190602001808311611a2f57829003601f168201915b505050505081565b6101fb6020528160005260406000208181548110611a7157600080fd5b90600052602060002001600091509150508060000160009054906101000a900473ffffffffffffffffffffffffffffffffffffffff16908060000160149054906101000a90046bffffffffffffffffffffffff16905082565b60606101fa6000838152602001908152602001600020805480602002602001604051908101604052809291908181526020016000905b82821015611bc2578382906000526020600020016040518060400160405290816000820160009054906101000a900473ffffffffffffffffffffffffffffffffffffffff1673ffffffffffffffffffffffffffffffffffffffff1673ffffffffffffffffffffffffffffffffffffffff1681526020016000820160149054906101000a90046bffffffffffffffffffffffff166bffffffffffffffffffffffff166bffffffffffffffffffffffff168152505081526020019060010190611b00565b50505050905092915050565b8173ffffffffffffffffffffffffffffffffffffffff16611bed6128f7565b73ffffffffffffffffffffffffffffffffffffffff161415611c5a576040517f08c379a00000000000000000000000000000000000000000000000000000000081526004018080602001828103825260298152602001806175f16029913960400191505060405180910390fd5b8060986000611c676128f7565b73ffffffffffffffffffffffffffffffffffffffff1673ffffffffffffffffffffffffffffffffffffffff16815260200190815260200160002060008473ffffffffffffffffffffffffffffffffffffffff1673ffffffffffffffffffffffffffffffffffffffff16815260200190815260200160002060006101000a81548160ff0219169083151502179055508173ffffffffffffffffffffffffffffffffffffffff16611d146128f7565b73ffffffffffffffffffffffffffffffffffffffff167f17307eab39ab6107e8899845ad3d59bd9653f200f220920489ca2b5937696c318360405180821515815260200191505060405180910390a35050565b60606101fa6000838152602001908152602001600020805480602002602001604051908101604052809291908181526020016000905b82821015611e5f578382906000526020600020016040518060400160405290816000820160009054906101000a900473ffffffffffffffffffffffffffffffffffffffff1673ffffffffffffffffffffffffffffffffffffffff1673ffffffffffffffffffffffffffffffffffffffff1681526020016000820160149054906101000a90046bffffffffffffffffffffffff166bffffffffffffffffffffffff166bffffffffffffffffffffffff168152505081526020019060010190611d9d565b505050509050919050565b6060611e7582614487565b9050919050565b6102308054600181600116156101000203166002900480601f016020809104026020016040519081016040528092919081815260200182805460018160011615610100020316600290048015611f135780601f10611ee857610100808354040283529160200191611f13565b820191906000526020600020905b815481529060010190602001808311611ef657829003601f168201915b505050505081565b6000611f278383614542565b905092915050565b611f6e6040518060400160405280600481526020017f66726f6d00000000000000000000000000000000000000000000000000000000815250866145aa565b611fad6040518060400160405280600281526020017f746f000000000000000000000000000000000000000000000000000000000000815250856145aa565b611ff36040518060400160405280600681526020017f73656e6465720000000000000000000000000000000000000000000000000000815250611fee6128f7565b6145aa565b600073ffffffffffffffffffffffffffffffffffffffff168473ffffffffffffffffffffffffffffffffffffffff161415612079576040517f08c379a00000000000000000000000000000000000000000000000000000000081526004018080602001828103825260258152602001806174fd6025913960400191505060405180910390fd5b6120816128f7565b73ffffffffffffffffffffffffffffffffffffffff168573ffffffffffffffffffffffffffffffffffffffff1614806120c757506120c6856120c16128f7565b611f1b565b5b61211c576040517f08c379a00000000000000000000000000000000000000000000000000000000081526004018080602001828103825260298152602001806174b26029913960400191505060405180910390fd5b60006121266128f7565b9050612146818787612137886146c7565b612140886146c7565b87613089565b6121c3836040518060600160405280602a81526020016175c7602a91396097600088815260200190815260200160002060008a73ffffffffffffffffffffffffffffffffffffffff1673ffffffffffffffffffffffffffffffffffffffff168152602001908152602001600020546130919092919063ffffffff16565b6097600086815260200190815260200160002060008873ffffffffffffffffffffffffffffffffffffffff1673ffffffffffffffffffffffffffffffffffffffff1681526020019081526020016000208190555061227a836097600087815260200190815260200160002060008873ffffffffffffffffffffffffffffffffffffffff1673ffffffffffffffffffffffffffffffffffffffff1681526020019081526020016000205461314b90919063ffffffff16565b6097600086815260200190815260200160002060008773ffffffffffffffffffffffffffffffffffffffff1673ffffffffffffffffffffffffffffffffffffffff168152602001908152602001600020819055508473ffffffffffffffffffffffffffffffffffffffff168673ffffffffffffffffffffffffffffffffffffffff168273ffffffffffffffffffffffffffffffffffffffff167fc3d58168c5ae7397731d063d5bbf3d657854427343f4c083240f7aacaa2d0f628787604051808381526020018281526020019250505060405180910390a4612360818787878787614737565b505050505050565b6123706128f7565b73ffffffffffffffffffffffffffffffffffffffff1661238e61198b565b73ffffffffffffffffffffffffffffffffffffffff1614612417576040517f08c379a00000000000000000000000000000000000000000000000000000000081526004018080602001828103825260208152602001807f4f776e61626c653a2063616c6c6572206973206e6f7420746865206f776e657281525060200191505060405180910390fd5b600073ffffffffffffffffffffffffffffffffffffffff168173ffffffffffffffffffffffffffffffffffffffff16141561249d576040517f08c379a00000000000000000000000000000000000000000000000000000000081526004018080602001828103825260268152602001806174686026913960400191505060405180910390fd5b8073ffffffffffffffffffffffffffffffffffffffff16603360009054906101000a900473ffffffffffffffffffffffffffffffffffffffff1673ffffffffffffffffffffffffffffffffffffffff167f8be0079c531659141344cd1fd0a4f28419497f9722a3daafe3b4186f6b6457e060405160405180910390a380603360006101000a81548173ffffffffffffffffffffffffffffffffffffffff021916908373ffffffffffffffffffffffffffffffffffffffff16021790555050565b6125656128f7565b73ffffffffffffffffffffffffffffffffffffffff168373ffffffffffffffffffffffffffffffffffffffff1614806125ab57506125aa836125a56128f7565b611f1b565b5b612600576040517f08c379a00000000000000000000000000000000000000000000000000000000081526004018080602001828103825260298152602001806174b26029913960400191505060405180910390fd5b61260b838383614a44565b505050565b60006126208486600001516105ae565b905060008290506000821461266757600083905083831015612640578290505b612660868689600001518460405180602001604052806000815250611f2f565b8084039150505b600081111561267c5761267b8685836107a7565b5b505050505050565b60608061012e60008481526020019081526020016000208054600181600116156101000203166002900480601f01602080910402602001604051908101604052809291908181526020018280546001816001161561010002031660029004801561272f5780601f106127045761010080835404028352916020019161272f565b820191906000526020600020905b81548152906001019060200180831161271257829003601f168201915b50505050509050606061274061143d565b90506000815114156127565781925050506128f2565b6000825111156128275780826040516020018083805190602001908083835b602083106127985780518252602082019150602081019050602083039250612775565b6001836020036101000a03801982511681845116808217855250505050505090500182805190602001908083835b602083106127e957805182526020820191506020810190506020830392506127c6565b6001836020036101000a03801982511681845116808217855250505050505090500192505050604051602081830303815290604052925050506128f2565b8061283185614c60565b6040516020018083805190602001908083835b602083106128675780518252602082019150602081019050602083039250612844565b6001836020036101000a03801982511681845116808217855250505050505090500182805190602001908083835b602083106128b85780518252602082019150602081019050602083039250612895565b6001836020036101000a03801982511681845116808217855250505050505090500192505050604051602081830303815290604052925050505b919050565b600033905090565b60008260600151828151811061291157fe5b60200260200101516000015190508073ffffffffffffffffffffffffffffffffffffffff168473ffffffffffffffffffffffffffffffffffffffff1614612998576129978360600151838151811061296557fe5b60200260200101516000015161297a85614da7565b8560a00151858151811061298a57fe5b6020026020010151615026565b5b50505050565b60006101fc600084815260200190815260200160002054146129bf57600080fd5b806101fc6000848152602001908152602001600020819055507f5e2aa66efd74cce82b21852e317e5490d9ecc9e6bb953ae24d90851258cc2f5c8282604051612a09929190616f72565b60405180910390a15050565b60005b8151811015612c5157600073ffffffffffffffffffffffffffffffffffffffff16828281518110612a4557fe5b60200260200101516000015173ffffffffffffffffffffffffffffffffffffffff161415612adb576040517f08c379a000000000000000000000000000000000000000000000000000000000815260040180806020018281038252601b8152602001807f526563697069656e742073686f756c642062652070726573656e74000000000081525060200191505060405180910390fd5b6000828281518110612ae957fe5b6020026020010151602001516bffffffffffffffffffffffff161415612b77576040517f08c379a00000000000000000000000000000000000000000000000000000000081526004018080602001828103825260208152602001807f526f79616c74792076616c75652073686f756c6420626520706f73697469766581525060200191505060405180910390fd5b6101fa6000848152602001908152602001600020828281518110612b9757fe5b60200260200101519080600181540180825580915050600190039060005260206000200160009091909190915060008201518160000160006101000a81548173ffffffffffffffffffffffffffffffffffffffff021916908373ffffffffffffffffffffffffffffffffffffffff16021790555060208201518160000160146101000a8154816bffffffffffffffffffffffff02191690836bffffffffffffffffffffffff16021790555050508080600101915050612a18565b50612c5c828261539e565b5050565b60006101fb600084815260200190815260200160002090506000805b8351811015612d865782848281518110612c9257fe5b60200260200101519080600181540180825580915050600190039060005260206000200160009091909190915060008201518160000160006101000a81548173ffffffffffffffffffffffffffffffffffffffff021916908373ffffffffffffffffffffffffffffffffffffffff16021790555060208201518160000160146101000a8154816bffffffffffffffffffffffff02191690836bffffffffffffffffffffffff1602179055505050612d77848281518110612d4e57fe5b6020026020010151602001516bffffffffffffffffffffffff168361314b90919063ffffffff16565b91508080600101915050612c7c565b506127108114612dcb576040517f08c379a0000000000000000000000000000000000000000000000000000000008152600401612dc290616ee7565b60405180910390fd5b7f841ffb90d4cabdd1f16034f3fa831d79060febbb8167bdd54a49269365bdf78f8484604051612dfc929190616f42565b60405180910390a150505050565b8061012e60008481526020019081526020016000209080519060200190612e32929190615e15565b50817f6bb7ff708619ba0610cba295a58592e0451dee2622938c8755667688daf3529b612e5e84612684565b6040518080602001828103825283818151815260200191508051906020019080838360005b83811015612e9e578082015181840152602081019050612e83565b50505050905090810190601f168015612ecb5780820380516001836020036101000a031916815260200191505b509250505060405180910390a25050565b612ee8848484846153db565b50505050565b8060c960008473ffffffffffffffffffffffffffffffffffffffff1673ffffffffffffffffffffffffffffffffffffffff16815260200190815260200160002060006101000a81548160ff0219169083151502179055508173ffffffffffffffffffffffffffffffffffffffff167f270dbb8ba4292910ae92862466486be25c355c837270a3d8824b36a8bc7c653b8260405180821515815260200191505060405180910390a25050565b60006101fc6000838152602001908152602001600020549050919050565b8061029660008481526020019081526020016000209080519060200190612fdf929190615e15565b50817fa595484f343d9669f13f28cff734012d5ea0924a2ec5440aa2c2833751c9a28861300b84614487565b6040518080602001828103825283818151815260200191508051906020019080838360005b8381101561304b578082015181840152602081019050613030565b50505050905090810190601f1680156130785780820380516001836020036101000a031916815260200191505b509250505060405180910390a25050565b505050505050565b600083831115829061313e576040517f08c379a00000000000000000000000000000000000000000000000000000000081526004018080602001828103825283818151815260200191508051906020019080838360005b838110156131035780820151818401526020810190506130e8565b50505050905090810190601f1680156131305780820380516001836020036101000a031916815260200191505b509250505060405180910390fd5b5082840390509392505050565b6000808284019050838110156131c9576040517f08c379a000000000000000000000000000000000000000000000000000000000815260040180806020018281038252601b8152602001807f536166654d6174683a206164646974696f6e206f766572666c6f77000000000081525060200191505060405180910390fd5b8091505092915050565b6131f28473ffffffffffffffffffffffffffffffffffffffff16615489565b1561355a578373ffffffffffffffffffffffffffffffffffffffff1663bc197c8187878686866040518663ffffffff1660e01b8152600401808673ffffffffffffffffffffffffffffffffffffffff1681526020018573ffffffffffffffffffffffffffffffffffffffff168152602001806020018060200180602001848103845287818151815260200191508051906020019060200280838360005b838110156132aa57808201518184015260208101905061328f565b50505050905001848103835286818151815260200191508051906020019060200280838360005b838110156132ec5780820151818401526020810190506132d1565b50505050905001848103825285818151815260200191508051906020019080838360005b8381101561332b578082015181840152602081019050613310565b50505050905090810190601f1680156133585780820380516001836020036101000a031916815260200191505b5098505050505050505050602060405180830381600087803b15801561337d57600080fd5b505af19250505080156133b157506040513d602081101561339d57600080fd5b810190808051906020019092919050505060015b6134bb576133bd6172a0565b806133c8575061346a565b806040517f08c379a00000000000000000000000000000000000000000000000000000000081526004018080602001828103825283818151815260200191508051906020019080838360005b8381101561342f578082015181840152602081019050613414565b50505050905090810190601f16801561345c5780820380516001836020036101000a031916815260200191505b509250505060405180910390fd5b6040517f08c379a00000000000000000000000000000000000000000000000000000000081526004018080602001828103825260348152602001806173e16034913960400191505060405180910390fd5b63bc197c8160e01b7bffffffffffffffffffffffffffffffffffffffffffffffffffffffff1916817bffffffffffffffffffffffffffffffffffffffffffffffffffffffff191614613558576040517f08c379a00000000000000000000000000000000000000000000000000000000081526004018080602001828103825260288152602001806174156028913960400191505060405180910390fd5b505b505050505050565b600073ffffffffffffffffffffffffffffffffffffffff168373ffffffffffffffffffffffffffffffffffffffff1614156135e8576040517f08c379a00000000000000000000000000000000000000000000000000000000081526004018080602001828103825260238152602001806175a46023913960400191505060405180910390fd5b8051825114613642576040517f08c379a00000000000000000000000000000000000000000000000000000000081526004018080602001828103825260288152602001806176436028913960400191505060405180910390fd5b600061364c6128f7565b905061366c81856000868660405180602001604052806000815250613089565b60005b835181101561378f5761371b83828151811061368757fe5b602002602001015160405180606001604052806024815260200161748e60249139609760008886815181106136b857fe5b6020026020010151815260200190815260200160002060008973ffffffffffffffffffffffffffffffffffffffff1673ffffffffffffffffffffffffffffffffffffffff168152602001908152602001600020546130919092919063ffffffff16565b6097600086848151811061372b57fe5b6020026020010151815260200190815260200160002060008773ffffffffffffffffffffffffffffffffffffffff1673ffffffffffffffffffffffffffffffffffffffff16815260200190815260200160002081905550808060010191505061366f565b50600073ffffffffffffffffffffffffffffffffffffffff168473ffffffffffffffffffffffffffffffffffffffff168273ffffffffffffffffffffffffffffffffffffffff167f4a39dc06d4c0dbc64b70af90fd698a233a518aa5d07e595d983b8c0526c8f7fb8686604051808060200180602001838103835285818151815260200191508051906020019060200280838360005b83811015613840578082015181840152602081019050613825565b50505050905001838103825284818151815260200191508051906020019060200280838360005b83811015613882578082015181840152602081019050613867565b5050505090500194505050505060405180910390a450505050565b60006138a830615489565b15905090565b600060019054906101000a900460ff16806138cd57506138cc61389d565b5b806138e3575060008054906101000a900460ff16155b613938576040517f08c379a000000000000000000000000000000000000000000000000000000000815260040180806020018281038252602e815260200180617554602e913960400191505060405180910390fd5b60008060019054906101000a900460ff161590508015613988576001600060016101000a81548160ff02191690831515021790555060016000806101000a81548160ff0219169083151502179055505b60006139926128f7565b905080603360006101000a81548173ffffffffffffffffffffffffffffffffffffffff021916908373ffffffffffffffffffffffffffffffffffffffff1602179055508073ffffffffffffffffffffffffffffffffffffffff16600073ffffffffffffffffffffffffffffffffffffffff167f8be0079c531659141344cd1fd0a4f28419497f9722a3daafe3b4186f6b6457e060405160405180910390a3508015613a525760008060016101000a81548160ff0219169083151502179055505b50565b600060019054906101000a900460ff1680613a745750613a7361389d565b5b80613a8a575060008054906101000a900460ff16155b613adf576040517f08c379a000000000000000000000000000000000000000000000000000000000815260040180806020018281038252602e815260200180617554602e913960400191505060405180910390fd5b60008060019054906101000a900460ff161590508015613b2f576001600060016101000a81548160ff02191690831515021790555060016000806101000a81548160ff0219169083151502179055505b613b3f636db15a0f60e01b61549c565b8015613b605760008060016101000a81548160ff0219169083151502179055505b50565b600060019054906101000a900460ff1680613b825750613b8161389d565b5b80613b98575060008054906101000a900460ff16155b613bed576040517f08c379a000000000000000000000000000000000000000000000000000000000815260040180806020018281038252602e815260200180617554602e913960400191505060405180910390fd5b60008060019054906101000a900460ff161590508015613c3d576001600060016101000a81548160ff02191690831515021790555060016000806101000a81548160ff0219169083151502179055505b613c4d6301ffc9a760e01b61549c565b8015613c6e5760008060016101000a81548160ff0219169083151502179055505b50565b600060019054906101000a900460ff1680613c905750613c8f61389d565b5b80613ca6575060008054906101000a900460ff16155b613cfb576040517f08c379a000000000000000000000000000000000000000000000000000000000815260040180806020018281038252602e815260200180617554602e913960400191505060405180910390fd5b60008060019054906101000a900460ff161590508015613d4b576001600060016101000a81548160ff02191690831515021790555060016000806101000a81548160ff0219169083151502179055505b8015613d6c5760008060016101000a81548160ff0219169083151502179055505b50565b600060019054906101000a900460ff1680613d8e5750613d8d61389d565b5b80613da4575060008054906101000a900460ff16155b613df9576040517f08c379a000000000000000000000000000000000000000000000000000000000815260040180806020018281038252602e815260200180617554602e913960400191505060405180910390fd5b60008060019054906101000a900460ff161590508015613e49576001600060016101000a81548160ff02191690831515021790555060016000806101000a81548160ff0219169083151502179055505b613ebd6040518060400160405280600881526020017f4d696e74313135350000000000000000000000000000000000000000000000008152506040518060400160405280600181526020017f31000000000000000000000000000000000000000000000000000000000000008152506155a5565b8015613ede5760008060016101000a81548160ff0219169083151502179055505b50565b600060019054906101000a900460ff1680613f005750613eff61389d565b5b80613f16575060008054906101000a900460ff16155b613f6b576040517f08c379a000000000000000000000000000000000000000000000000000000000815260040180806020018281038252602e815260200180617554602e913960400191505060405180910390fd5b60008060019054906101000a900460ff161590508015613fbb576001600060016101000a81548160ff02191690831515021790555060016000806101000a81548160ff0219169083151502179055505b613fc4826156cf565b613fd463d9b67a2660e01b61549c565b613fe4630e89341c60e01b61549c565b80156140055760008060016101000a81548160ff0219169083151502179055505b5050565b600060019054906101000a900460ff1680614028575061402761389d565b5b8061403e575060008054906101000a900460ff16155b614093576040517f08c379a000000000000000000000000000000000000000000000000000000000815260040180806020018281038252602e815260200180617554602e913960400191505060405180910390fd5b60008060019054906101000a900460ff1615905080156140e3576001600060016101000a81548160ff02191690831515021790555060016000806101000a81548160ff0219169083151502179055505b8161023090805190602001906140fa929190615e15565b5061410b63e8a3d48560e01b61549c565b801561412c5760008060016101000a81548160ff0219169083151502179055505b5050565b600060019054906101000a900460ff168061414f575061414e61389d565b5b80614165575060008054906101000a900460ff16155b6141ba576040517f08c379a000000000000000000000000000000000000000000000000000000000815260040180806020018281038252602e815260200180617554602e913960400191505060405180910390fd5b60008060019054906101000a900460ff16159050801561420a576001600060016101000a81548160ff02191690831515021790555060016000806101000a81548160ff0219169083151502179055505b801561422b5760008060016101000a81548160ff0219169083151502179055505b50565b600060019054906101000a900460ff168061424d575061424c61389d565b5b80614263575060008054906101000a900460ff16155b6142b8576040517f08c379a000000000000000000000000000000000000000000000000000000000815260040180806020018281038252602e815260200180617554602e913960400191505060405180910390fd5b60008060019054906101000a900460ff161590508015614308576001600060016101000a81548160ff02191690831515021790555060016000806101000a81548160ff0219169083151502179055505b6143186344c74bcc60e01b61549c565b80156143395760008060016101000a81548160ff0219169083151502179055505b50565b600060019054906101000a900460ff168061435b575061435a61389d565b5b80614371575060008054906101000a900460ff16155b6143c6576040517f08c379a000000000000000000000000000000000000000000000000000000000815260040180806020018281038252602e815260200180617554602e913960400191505060405180910390fd5b60008060019054906101000a900460ff161590508015614416576001600060016101000a81548160ff02191690831515021790555060016000806101000a81548160ff0219169083151502179055505b82610262908051906020019061442d929190615e15565b50816102639080519060200190614445929190615e15565b5080156144675760008060016101000a81548160ff0219169083151502179055505b505050565b8061012f9080519060200190614483929190615e15565b5050565b60608061029660008481526020019081526020016000208054600181600116156101000203166002900480601f0160208091040260200160405190810160405280929190818152602001828054600181600116156101000203166002900480156145325780601f1061450757610100808354040283529160200191614532565b820191906000526020600020905b81548152906001019060200180831161451557829003601f168201915b5050505050905080915050919050565b600060c960008373ffffffffffffffffffffffffffffffffffffffff1673ffffffffffffffffffffffffffffffffffffffff16815260200190815260200160002060009054906101000a900460ff16806145a257506145a183836156e9565b5b905092915050565b6146c3828260405160240180806020018373ffffffffffffffffffffffffffffffffffffffff168152602001828103825284818151815260200191508051906020019080838360005b8381101561460e5780820151818401526020810190506145f3565b50505050905090810190601f16801561463b5780820380516001836020036101000a031916815260200191505b5093505050506040516020818303038152906040527f319af333000000000000000000000000000000000000000000000000000000007bffffffffffffffffffffffffffffffffffffffffffffffffffffffff19166020820180517bffffffffffffffffffffffffffffffffffffffffffffffffffffffff838183161783525050505061577d565b5050565b606080600167ffffffffffffffff811180156146e257600080fd5b506040519080825280602002602001820160405280156147115781602001602082028036833780820191505090505b509050828160008151811061472257fe5b60200260200101818152505080915050919050565b6147568473ffffffffffffffffffffffffffffffffffffffff16615489565b15614a3c578373ffffffffffffffffffffffffffffffffffffffff1663f23a6e6187878686866040518663ffffffff1660e01b8152600401808673ffffffffffffffffffffffffffffffffffffffff1681526020018573ffffffffffffffffffffffffffffffffffffffff16815260200184815260200183815260200180602001828103825283818151815260200191508051906020019080838360005b8381101561480f5780820151818401526020810190506147f4565b50505050905090810190601f16801561483c5780820380516001836020036101000a031916815260200191505b509650505050505050602060405180830381600087803b15801561485f57600080fd5b505af192505050801561489357506040513d602081101561487f57600080fd5b810190808051906020019092919050505060015b61499d5761489f6172a0565b806148aa575061494c565b806040517f08c379a00000000000000000000000000000000000000000000000000000000081526004018080602001828103825283818151815260200191508051906020019080838360005b838110156149115780820151818401526020810190506148f6565b50505050905090810190601f16801561493e5780820380516001836020036101000a031916815260200191505b509250505060405180910390fd5b6040517f08c379a00000000000000000000000000000000000000000000000000000000081526004018080602001828103825260348152602001806173e16034913960400191505060405180910390fd5b63f23a6e6160e01b7bffffffffffffffffffffffffffffffffffffffffffffffffffffffff1916817bffffffffffffffffffffffffffffffffffffffffffffffffffffffff191614614a3a576040517f08c379a00000000000000000000000000000000000000000000000000000000081526004018080602001828103825260288152602001806174156028913960400191505060405180910390fd5b505b505050505050565b600073ffffffffffffffffffffffffffffffffffffffff168373ffffffffffffffffffffffffffffffffffffffff161415614aca576040517f08c379a00000000000000000000000000000000000000000000000000000000081526004018080602001828103825260238152602001806175a46023913960400191505060405180910390fd5b6000614ad46128f7565b9050614b0481856000614ae6876146c7565b614aef876146c7565b60405180602001604052806000815250613089565b614b818260405180606001604052806024815260200161748e602491396097600087815260200190815260200160002060008873ffffffffffffffffffffffffffffffffffffffff1673ffffffffffffffffffffffffffffffffffffffff168152602001908152602001600020546130919092919063ffffffff16565b6097600085815260200190815260200160002060008673ffffffffffffffffffffffffffffffffffffffff1673ffffffffffffffffffffffffffffffffffffffff16815260200190815260200160002081905550600073ffffffffffffffffffffffffffffffffffffffff168473ffffffffffffffffffffffffffffffffffffffff168273ffffffffffffffffffffffffffffffffffffffff167fc3d58168c5ae7397731d063d5bbf3d657854427343f4c083240f7aacaa2d0f628686604051808381526020018281526020019250505060405180910390a450505050565b60606000821415614ca8576040518060400160405280600181526020017f30000000000000000000000000000000000000000000000000000000000000008152509050614da2565b600082905060005b60008214614cd2578080600101915050600a8281614cca57fe5b049150614cb0565b60608167ffffffffffffffff81118015614ceb57600080fd5b506040519080825280601f01601f191660200182016040528015614d1e5781602001600182028036833780820191505090505b50905060006001830390508593505b60008414614d9a57600a8481614d3f57fe5b0660300160f81b82828060019003935081518110614d5957fe5b60200101907effffffffffffffffffffffffffffffffffffffffffffffffffffffffffffff1916908160001a905350600a8481614d9257fe5b049350614d2d565b819450505050505b919050565b6000606082608001515167ffffffffffffffff81118015614dc757600080fd5b50604051908082528060200260200182016040528015614df65781602001602082028036833780820191505090505b50905060005b836080015151811015614e4e57614e2984608001518281518110614e1c57fe5b60200260200101516157a6565b828281518110614e3557fe5b6020026020010181815250508080600101915050614dfc565b50606083606001515167ffffffffffffffff81118015614e6d57600080fd5b50604051908082528060200260200182016040528015614e9c5781602001602082028036833780820191505090505b50905060005b846060015151811015614ef457614ecf85606001518281518110614ec257fe5b60200260200101516157a6565b828281518110614edb57fe5b6020026020010181815250508080600101915050614ea2565b507ffb988707ebb338694f318760b0fd5cfe756d00a2ade251fda110b80c336a3c7f846000015185604001518660200151805190602001208460405160200180828051906020019060200280838360005b83811015614f60578082015181840152602081019050614f45565b50505050905001915050604051602081830303815290604052805190602001208660405160200180828051906020019060200280838360005b83811015614fb4578082015181840152602081019050614f99565b50505050905001915050604051602081830303815290604052805190602001206040516020018087815260200186815260200185815260200184815260200183815260200182815260200196505050505050506040516020818303038152906040528051906020012092505050919050565b600061503183615832565b90506150528473ffffffffffffffffffffffffffffffffffffffff16615489565b1561527957631626ba7e60e01b7bffffffffffffffffffffffffffffffffffffffffffffffffffffffff19168473ffffffffffffffffffffffffffffffffffffffff16631626ba7e83856040518363ffffffff1660e01b81526004018083815260200180602001828103825283818151815260200191508051906020019080838360005b838110156150f15780820151818401526020810190506150d6565b50505050905090810190601f16801561511e5780820380516001836020036101000a031916815260200191505b50935050505060206040518083038186803b15801561513c57600080fd5b505afa158015615150573d6000803e3d6000fd5b505050506040513d602081101561516657600080fd5b81019080805190602001909291905050507bffffffffffffffffffffffffffffffffffffffffffffffffffffffff1916146040518060400160405280601c81526020017f7369676e617475726520766572696669636174696f6e206572726f720000000081525090615273576040517f08c379a00000000000000000000000000000000000000000000000000000000081526004018080602001828103825283818151815260200191508051906020019080838360005b8381101561523857808201518184015260208101905061521d565b50505050905090810190601f1680156152655780820380516001836020036101000a031916815260200191505b509250505060405180910390fd5b50615398565b8373ffffffffffffffffffffffffffffffffffffffff166152a3838361589990919063ffffffff16565b73ffffffffffffffffffffffffffffffffffffffff16146040518060400160405280601c81526020017f7369676e617475726520766572696669636174696f6e206572726f720000000081525090615396576040517f08c379a00000000000000000000000000000000000000000000000000000000081526004018080602001828103825283818151815260200191508051906020019080838360005b8381101561535b578082015181840152602081019050615340565b50505050905090810190601f1680156153885780820380516001836020036101000a031916815260200191505b509250505060405180910390fd5b505b50505050565b7f3fa96d7b6bcbfe71ef171666d84db3cf52fa2d1c8afdb1cc8e486177f208b7df82826040516153cf929190616f42565b60405180910390a15050565b60006154046101fd6000868152602001908152602001600020548461314b90919063ffffffff16565b90506101fc60008581526020019081526020016000205481111561545d576040517f08c379a000000000000000000000000000000000000000000000000000000000815260040161545490616ec7565b60405180910390fd5b806101fd60008681526020019081526020016000208190555061548285858585615946565b5050505050565b600080823b905060008111915050919050565b63ffffffff60e01b817bffffffffffffffffffffffffffffffffffffffffffffffffffffffff19161415615538576040517f08c379a000000000000000000000000000000000000000000000000000000000815260040180806020018281038252601c8152602001807f4552433136353a20696e76616c696420696e746572666163652069640000000081525060200191505060405180910390fd5b600160656000837bffffffffffffffffffffffffffffffffffffffffffffffffffffffff19167bffffffffffffffffffffffffffffffffffffffffffffffffffffffff1916815260200190815260200160002060006101000a81548160ff02191690831515021790555050565b600060019054906101000a900460ff16806155c457506155c361389d565b5b806155da575060008054906101000a900460ff16155b61562f576040517f08c379a000000000000000000000000000000000000000000000000000000000815260040180806020018281038252602e815260200180617554602e913960400191505060405180910390fd5b60008060019054906101000a900460ff16159050801561567f576001600060016101000a81548160ff02191690831515021790555060016000806101000a81548160ff0219169083151502179055505b60008380519060200120905060008380519060200120905081610162819055508061016381905550505080156156ca5760008060016101000a81548160ff0219169083151502179055505b505050565b80609990805190602001906156e5929190615e15565b5050565b6000609860008473ffffffffffffffffffffffffffffffffffffffff1673ffffffffffffffffffffffffffffffffffffffff16815260200190815260200160002060008373ffffffffffffffffffffffffffffffffffffffff1673ffffffffffffffffffffffffffffffffffffffff16815260200190815260200160002060009054906101000a900460ff16905092915050565b60008151905060006a636f6e736f6c652e6c6f679050602083016000808483855afa5050505050565b60007f397e04204c1e1a60ee8724b71f8244e10ab5f2e9009854d80f602bda21b59ebb82600001518360200151604051602001808481526020018373ffffffffffffffffffffffffffffffffffffffff168152602001826bffffffffffffffffffffffff1681526020019350505050604051602081830303815290604052805190602001209050919050565b600061583c615b49565b8260405160200180807f190100000000000000000000000000000000000000000000000000000000000081525060020183815260200182815260200192505050604051602081830303815290604052805190602001209050919050565b60006041825114615912576040517f08c379a000000000000000000000000000000000000000000000000000000000815260040180806020018281038252601f8152602001807f45434453413a20696e76616c6964207369676e6174757265206c656e6774680081525060200191505060405180910390fd5b60008060006020850151925060408501519150606085015160001a905061593b86828585615b89565b935050505092915050565b600073ffffffffffffffffffffffffffffffffffffffff168473ffffffffffffffffffffffffffffffffffffffff1614156159cc576040517f08c379a000000000000000000000000000000000000000000000000000000000815260040180806020018281038252602181526020018061766b6021913960400191505060405180910390fd5b60006159d66128f7565b90506159f7816000876159e8886146c7565b6159f1886146c7565b87613089565b615a5a836097600087815260200190815260200160002060008873ffffffffffffffffffffffffffffffffffffffff1673ffffffffffffffffffffffffffffffffffffffff1681526020019081526020016000205461314b90919063ffffffff16565b6097600086815260200190815260200160002060008773ffffffffffffffffffffffffffffffffffffffff1673ffffffffffffffffffffffffffffffffffffffff168152602001908152602001600020819055508473ffffffffffffffffffffffffffffffffffffffff16600073ffffffffffffffffffffffffffffffffffffffff168273ffffffffffffffffffffffffffffffffffffffff167fc3d58168c5ae7397731d063d5bbf3d657854427343f4c083240f7aacaa2d0f628787604051808381526020018281526020019250505060405180910390a4615b4281600087878787614737565b5050505050565b6000615b847f8b73c3c69bb8fe3d512ecc4cf759cc79239f7b179b0ffacaa9a75d522b39400f615b77615d88565b615b7f615d93565b615d9e565b905090565b60007f7fffffffffffffffffffffffffffffff5d576e7357a4501ddfe92f46681b20a08260001c1115615c07576040517f08c379a00000000000000000000000000000000000000000000000000000000081526004018080602001828103825260228152602001806174db6022913960400191505060405180910390fd5b601b8460ff161480615c1c5750601c8460ff16145b615c71576040517f08c379a00000000000000000000000000000000000000000000000000000000081526004018080602001828103825260228152602001806175826022913960400191505060405180910390fd5b600060018686868660405160008152602001604052604051808581526020018460ff1681526020018381526020018281526020019450505050506020604051602081039080840390855afa158015615ccd573d6000803e3d6000fd5b505050602060405103519050600073ffffffffffffffffffffffffffffffffffffffff168173ffffffffffffffffffffffffffffffffffffffff161415615d7c576040517f08c379a00000000000000000000000000000000000000000000000000000000081526004018080602001828103825260188152602001807f45434453413a20696e76616c6964207369676e6174757265000000000000000081525060200191505060405180910390fd5b80915050949350505050565b600061016254905090565b600061016354905090565b6000838383615dab615e0d565b30604051602001808681526020018581526020018481526020018381526020018273ffffffffffffffffffffffffffffffffffffffff168152602001955050505050506040516020818303038152906040528051906020012090509392505050565b600046905090565b828054600181600116156101000203166002900490600052602060002090601f016020900481019282615e4b5760008555615e92565b82601f10615e6457805160ff1916838001178555615e92565b82800160010185558215615e92579182015b82811115615e91578251825591602001919060010190615e76565b5b509050615e9f9190615ea3565b5090565b5b80821115615ebc576000816000905550600101615ea4565b5090565b600081359050615ecf81617356565b92915050565b600081359050615ee48161736d565b92915050565b600082601f830112615efb57600080fd5b8135615f0e615f0982616fcc565b616f9b565b91508181835260208401935060208101905083856020840282011115615f3357600080fd5b60005b83811015615f635781615f498882615ec0565b845260208401935060208301925050600181019050615f36565b5050505092915050565b600082601f830112615f7e57600080fd5b8135615f91615f8c82616ff8565b616f9b565b9150818183526020840193506020810190508360005b83811015615fd75781358601615fbd8882616111565b845260208401935060208301925050600181019050615fa7565b5050505092915050565b600082601f830112615ff257600080fd5b813561600561600082617024565b616f9b565b9150818183526020840193506020810190508385604084028201111561602a57600080fd5b60005b8381101561605a578161604088826162b5565b84526020840193506040830192505060018101905061602d565b5050505092915050565b600082601f83011261607557600080fd5b813561608861608382617050565b616f9b565b915081818352602084019350602081019050838560208402820111156160ad57600080fd5b60005b838110156160dd57816160c38882616301565b8452602084019350602083019250506001810190506160b0565b5050505092915050565b6000813590506160f681617384565b92915050565b60008135905061610b8161739b565b92915050565b600082601f83011261612257600080fd5b81356161356161308261707c565b616f9b565b9150808252602083016020830185838301111561615157600080fd5b61615c83828461723e565b50505092915050565b600082601f83011261617657600080fd5b8135616189616184826170ac565b616f9b565b915080825260208301602083018583830111156161a557600080fd5b6161b083828461723e565b50505092915050565b600060c082840312156161cb57600080fd5b6161d560c0616f9b565b905060006161e584828501616301565b600083015250602082013567ffffffffffffffff81111561620557600080fd5b61621184828501616165565b602083015250604061622584828501616301565b604083015250606082013567ffffffffffffffff81111561624557600080fd5b61625184828501615fe1565b606083015250608082013567ffffffffffffffff81111561627157600080fd5b61627d84828501615fe1565b60808301525060a082013567ffffffffffffffff81111561629d57600080fd5b6162a984828501615f6d565b60a08301525092915050565b6000604082840312156162c757600080fd5b6162d16040616f9b565b905060006162e184828501615ed5565b60008301525060206162f584828501616316565b60208301525092915050565b600081359050616310816173b2565b92915050565b600081359050616325816173c9565b92915050565b60006020828403121561633d57600080fd5b600061634b84828501615ec0565b91505092915050565b6000806040838503121561636757600080fd5b600061637585828601615ec0565b925050602061638685828601615ec0565b9150509250929050565b600080600080600060a086880312156163a857600080fd5b60006163b688828901615ec0565b95505060206163c788828901615ec0565b945050604086013567ffffffffffffffff8111156163e457600080fd5b6163f088828901616064565b935050606086013567ffffffffffffffff81111561640d57600080fd5b61641988828901616064565b925050608086013567ffffffffffffffff81111561643657600080fd5b61644288828901616111565b9150509295509295909350565b600080600080600060a0868803121561646757600080fd5b600061647588828901615ec0565b955050602061648688828901615ec0565b945050604061649788828901616301565b93505060606164a888828901616301565b925050608086013567ffffffffffffffff8111156164c557600080fd5b6164d188828901616111565b9150509295509295909350565b6000806000606084860312156164f357600080fd5b600061650186828701615ec0565b935050602084013567ffffffffffffffff81111561651e57600080fd5b61652a86828701616064565b925050604084013567ffffffffffffffff81111561654757600080fd5b61655386828701616064565b9150509250925092565b6000806040838503121561657057600080fd5b600061657e85828601615ec0565b925050602061658f858286016160e7565b9150509250929050565b600080604083850312156165ac57600080fd5b60006165ba85828601615ec0565b92505060206165cb85828601616301565b9150509250929050565b6000806000606084860312156165ea57600080fd5b60006165f886828701615ec0565b935050602061660986828701616301565b925050604061661a86828701616301565b9150509250925092565b6000806040838503121561663757600080fd5b600083013567ffffffffffffffff81111561665157600080fd5b61665d85828601615eea565b925050602083013567ffffffffffffffff81111561667a57600080fd5b61668685828601616064565b9150509250929050565b6000602082840312156166a257600080fd5b60006166b0848285016160fc565b91505092915050565b600080600080608085870312156166cf57600080fd5b600085013567ffffffffffffffff8111156166e957600080fd5b6166f587828801616165565b945050602085013567ffffffffffffffff81111561671257600080fd5b61671e87828801616165565b935050604085013567ffffffffffffffff81111561673b57600080fd5b61674787828801616165565b925050606085013567ffffffffffffffff81111561676457600080fd5b61677087828801616165565b91505092959194509250565b6000806000806080858703121561679257600080fd5b600085013567ffffffffffffffff8111156167ac57600080fd5b6167b8878288016161b9565b94505060206167c987828801615ec0565b93505060406167da87828801615ec0565b92505060606167eb87828801616301565b91505092959194509250565b60008060006060848603121561680c57600080fd5b600084013567ffffffffffffffff81111561682657600080fd5b616832868287016161b9565b935050602061684386828701615ec0565b925050604061685486828701616301565b9150509250925092565b6000806000806080858703121561687457600080fd5b600085013567ffffffffffffffff81111561688e57600080fd5b61689a878288016161b9565b945050602085013567ffffffffffffffff8111156168b757600080fd5b6168c387828801616165565b93505060406168d487828801615ec0565b92505060606168e587828801616301565b91505092959194509250565b60006020828403121561690357600080fd5b600061691184828501616301565b91505092915050565b6000806040838503121561692d57600080fd5b600061693b85828601616301565b925050602061694c85828601616301565b9150509250929050565b60006169628383616cd2565b60408301905092915050565b600061697a8383616d01565b60208301905092915050565b61698f81617208565b82525050565b61699e8161717c565b82525050565b6169ad8161717c565b82525050565b6169bc8161716a565b82525050565b60006169cd826170fc565b6169d78185617137565b93506169e2836170dc565b8060005b83811015616a135781516169fa8882616956565b9750616a058361711d565b9250506001810190506169e6565b5085935050505092915050565b6000616a2b82617107565b616a358185617148565b9350616a40836170ec565b8060005b83811015616a71578151616a58888261696e565b9750616a638361712a565b925050600181019050616a44565b5085935050505092915050565b616a878161718e565b82525050565b6000616a9882617112565b616aa28185617159565b9350616ab281856020860161724d565b616abb81617282565b840191505092915050565b6000616ad3601083617159565b91507f737570706c7920696e636f7272656374000000000000000000000000000000006000830152602082019050919050565b6000616b13601183617159565b91507f746f6b656e496420696e636f72726563740000000000000000000000000000006000830152602082019050919050565b6000616b53601083617159565b91507f616d6f756e7420696e636f7272656374000000000000000000000000000000006000830152602082019050919050565b6000616b93602883617159565b91507f455243313135353a207472616e736665722063616c6c6572206973206e6f742060008301527f617070726f7665640000000000000000000000000000000000000000000000006020830152604082019050919050565b6000616bf9601083617159565b91507f6d6f7265207468616e20737570706c79000000000000000000000000000000006000830152602082019050919050565b6000616c39602e83617159565b91507f746f74616c20616d6f756e74206f662063726561746f7273207368617265207360008301527f686f756c642062652031303030300000000000000000000000000000000000006020830152604082019050919050565b6000616c9f601183617159565b91507f7572692073686f756c64206265207365740000000000000000000000000000006000830152602082019050919050565b604082016000820151616ce86000850182616995565b506020820151616cfb6020850182616d1f565b50505050565b616d0a816171e6565b82525050565b616d19816171e6565b82525050565b616d28816171f0565b82525050565b616d37816171f0565b82525050565b6000602082019050616d5260008301846169b3565b92915050565b6000606082019050616d6d6000830186616986565b8181036020830152616d7f8185616a8d565b90508181036040830152616d938184616a8d565b9050949350505050565b6000604082019050616db260008301856169a4565b616dbf6020830184616d2e565b9392505050565b60006020820190508181036000830152616de081846169c2565b905092915050565b60006020820190508181036000830152616e028184616a20565b905092915050565b6000602082019050616e1f6000830184616a7e565b92915050565b60006020820190508181036000830152616e3f8184616a8d565b905092915050565b60006020820190508181036000830152616e6081616ac6565b9050919050565b60006020820190508181036000830152616e8081616b06565b9050919050565b60006020820190508181036000830152616ea081616b46565b9050919050565b60006020820190508181036000830152616ec081616b86565b9050919050565b60006020820190508181036000830152616ee081616bec565b9050919050565b60006020820190508181036000830152616f0081616c2c565b9050919050565b60006020820190508181036000830152616f2081616c92565b9050919050565b6000602082019050616f3c6000830184616d10565b92915050565b6000604082019050616f576000830185616d10565b8181036020830152616f6981846169c2565b90509392505050565b6000604082019050616f876000830185616d10565b616f946020830184616d10565b9392505050565b6000604051905081810181811067ffffffffffffffff82111715616fc257616fc1617280565b5b8060405250919050565b600067ffffffffffffffff821115616fe757616fe6617280565b5b602082029050602081019050919050565b600067ffffffffffffffff82111561701357617012617280565b5b602082029050602081019050919050565b600067ffffffffffffffff82111561703f5761703e617280565b5b602082029050602081019050919050565b600067ffffffffffffffff82111561706b5761706a617280565b5b602082029050602081019050919050565b600067ffffffffffffffff82111561709757617096617280565b5b601f19601f8301169050602081019050919050565b600067ffffffffffffffff8211156170c7576170c6617280565b5b601f19601f8301169050602081019050919050565b6000819050602082019050919050565b6000819050602082019050919050565b600081519050919050565b600081519050919050565b600081519050919050565b6000602082019050919050565b6000602082019050919050565b600082825260208201905092915050565b600082825260208201905092915050565b600082825260208201905092915050565b6000617175826171c6565b9050919050565b6000617187826171c6565b9050919050565b60008115159050919050565b60007fffffffff0000000000000000000000000000000000000000000000000000000082169050919050565b600073ffffffffffffffffffffffffffffffffffffffff82169050919050565b6000819050919050565b60006bffffffffffffffffffffffff82169050919050565b60006172138261721a565b9050919050565b60006172258261722c565b9050919050565b6000617237826171c6565b9050919050565b82818337600083830152505050565b60005b8381101561726b578082015181840152602081019050617250565b8381111561727a576000848401525b50505050565bfe5b6000601f19601f8301169050919050565b60008160e01c9050919050565b600060443d10156172b057617353565b60046000803e6172c1600051617293565b6308c379a081146172d25750617353565b60405160043d036004823e80513d602482011167ffffffffffffffff821117156172fe57505050617353565b808201805167ffffffffffffffff81111561731d575050505050617353565b8060208301013d850181111561733857505050505050617353565b61734182617282565b60208401016040528296505050505050505b90565b61735f8161716a565b811461736a57600080fd5b50565b6173768161717c565b811461738157600080fd5b50565b61738d8161718e565b811461739857600080fd5b50565b6173a48161719a565b81146173af57600080fd5b50565b6173bb816171e6565b81146173c657600080fd5b50565b6173d2816171f0565b81146173dd57600080fd5b5056fe455243313135353a207472616e7366657220746f206e6f6e2045524331313535526563656976657220696d706c656d656e746572455243313135353a204552433131353552656365697665722072656a656374656420746f6b656e73455243313135353a2062616c616e636520717565727920666f7220746865207a65726f20616464726573734f776e61626c653a206e6577206f776e657220697320746865207a65726f2061646472657373455243313135353a206275726e20616d6f756e7420657863656564732062616c616e6365455243313135353a2063616c6c6572206973206e6f74206f776e6572206e6f7220617070726f76656445434453413a20696e76616c6964207369676e6174757265202773272076616c7565455243313135353a207472616e7366657220746f20746865207a65726f2061646472657373455243313135353a207472616e736665722063616c6c6572206973206e6f74206f776e6572206e6f7220617070726f766564496e697469616c697a61626c653a20636f6e747261637420697320616c726561647920696e697469616c697a656445434453413a20696e76616c6964207369676e6174757265202776272076616c7565455243313135353a206275726e2066726f6d20746865207a65726f2061646472657373455243313135353a20696e73756666696369656e742062616c616e636520666f72207472616e73666572455243313135353a2073657474696e6720617070726f76616c2073746174757320666f722073656c66455243313135353a206163636f756e747320616e6420696473206c656e677468206d69736d61746368455243313135353a2069647320616e6420616d6f756e7473206c656e677468206d69736d61746368455243313135353a206d696e7420746f20746865207a65726f2061646472657373a264697066735822122081745f8388e05efec86e7e73e3a4fec342b348217cb862b955fb384a34c3669864736f6c63430007050033",
  "linkReferences": {},
  "deployedLinkReferences": {}
}