{
  "_format": "hh-sol-artifact-1",
  "contractName": "EcoFiERC1155",
  "sourceName": "contracts/EcoFiERC1155.sol",
  "abi": [
    {
      "anonymous": false,
      "inputs": [
        {
          "indexed": true,
          "internalType": "address",
          "name": "account",
          "type": "address"
        },
        {
          "indexed": true,
          "internalType": "address",
          "name": "operator",
          "type": "address"
        },
        {
          "indexed": false,
          "internalType": "bool",
          "name": "approved",
          "type": "bool"
        }
      ],
      "name": "ApprovalForAll",
      "type": "event"
    },
    {
      "anonymous": false,
      "inputs": [
        {
          "indexed": false,
          "internalType": "address",
          "name": "owner",
          "type": "address"
        },
        {
          "indexed": false,
          "internalType": "string",
          "name": "name",
          "type": "string"
        },
        {
          "indexed": false,
          "internalType": "string",
          "name": "symbol",
          "type": "string"
        }
      ],
      "name": "CreateEcoFiERC1155",
      "type": "event"
    },
    {
      "anonymous": false,
      "inputs": [
        {
          "indexed": false,
          "internalType": "uint256",
          "name": "tokenId",
          "type": "uint256"
        },
        {
          "components": [
            {
              "internalType": "address payable",
              "name": "account",
              "type": "address"
            },
            {
              "internalType": "uint96",
              "name": "value",
              "type": "uint96"
            }
          ],
          "indexed": false,
          "internalType": "struct LibPart.Part[]",
          "name": "creators",
          "type": "tuple[]"
        }
      ],
      "name": "Creators",
      "type": "event"
    },
    {
      "anonymous": false,
      "inputs": [
        {
          "indexed": true,
          "internalType": "address",
          "name": "operator",
          "type": "address"
        },
        {
          "indexed": false,
          "internalType": "bool",
          "name": "hasApproval",
          "type": "bool"
        }
      ],
      "name": "DefaultApproval",
      "type": "event"
    },
    {
      "anonymous": false,
      "inputs": [
        {
          "indexed": false,
          "internalType": "string",
          "name": "value",
          "type": "string"
        },
        {
          "indexed": true,
          "internalType": "uint256",
          "name": "id",
          "type": "uint256"
        }
      ],
      "name": "Image",
      "type": "event"
    },
    {
      "anonymous": false,
      "inputs": [
        {
          "indexed": true,
          "internalType": "address",
          "name": "previousOwner",
          "type": "address"
        },
        {
          "indexed": true,
          "internalType": "address",
          "name": "newOwner",
          "type": "address"
        }
      ],
      "name": "OwnershipTransferred",
      "type": "event"
    },
    {
      "anonymous": false,
      "inputs": [
        {
          "indexed": false,
          "internalType": "uint256",
          "name": "tokenId",
          "type": "uint256"
        },
        {
          "components": [
            {
              "internalType": "address payable",
              "name": "account",
              "type": "address"
            },
            {
              "internalType": "uint96",
              "name": "value",
              "type": "uint96"
            }
          ],
          "indexed": false,
          "internalType": "struct LibPart.Part[]",
          "name": "royalties",
          "type": "tuple[]"
        }
      ],
      "name": "RoyaltiesSet",
      "type": "event"
    },
    {
      "anonymous": false,
      "inputs": [
        {
          "indexed": false,
          "internalType": "uint256",
          "name": "tokenId",
          "type": "uint256"
        },
        {
          "indexed": false,
          "internalType": "uint256",
          "name": "value",
          "type": "uint256"
        }
      ],
      "name": "Supply",
      "type": "event"
    },
    {
      "anonymous": false,
      "inputs": [
        {
          "indexed": true,
          "internalType": "address",
          "name": "operator",
          "type": "address"
        },
        {
          "indexed": true,
          "internalType": "address",
          "name": "from",
          "type": "address"
        },
        {
          "indexed": true,
          "internalType": "address",
          "name": "to",
          "type": "address"
        },
        {
          "indexed": false,
          "internalType": "uint256[]",
          "name": "ids",
          "type": "uint256[]"
        },
        {
          "indexed": false,
          "internalType": "uint256[]",
          "name": "values",
          "type": "uint256[]"
        }
      ],
      "name": "TransferBatch",
      "type": "event"
    },
    {
      "anonymous": false,
      "inputs": [
        {
          "indexed": true,
          "internalType": "address",
          "name": "operator",
          "type": "address"
        },
        {
          "indexed": true,
          "internalType": "address",
          "name": "from",
          "type": "address"
        },
        {
          "indexed": true,
          "internalType": "address",
          "name": "to",
          "type": "address"
        },
        {
          "indexed": false,
          "internalType": "uint256",
          "name": "id",
          "type": "uint256"
        },
        {
          "indexed": false,
          "internalType": "uint256",
          "name": "value",
          "type": "uint256"
        }
      ],
      "name": "TransferSingle",
      "type": "event"
    },
    {
      "anonymous": false,
      "inputs": [
        {
          "indexed": false,
          "internalType": "string",
          "name": "value",
          "type": "string"
        },
        {
          "indexed": true,
          "internalType": "uint256",
          "name": "id",
          "type": "uint256"
        }
      ],
      "name": "URI",
      "type": "event"
    },
    {
      "inputs": [
        {
          "internalType": "string",
          "name": "_name",
          "type": "string"
        },
        {
          "internalType": "string",
          "name": "_symbol",
          "type": "string"
        },
        {
          "internalType": "string",
          "name": "baseURI",
          "type": "string"
        },
        {
          "internalType": "string",
          "name": "contractURI",
          "type": "string"
        }
      ],
      "name": "__EcoFiERC1155_init",
      "outputs": [],
      "stateMutability": "nonpayable",
      "type": "function"
    },
    {
      "inputs": [
        {
          "internalType": "address",
          "name": "account",
          "type": "address"
        },
        {
          "internalType": "uint256",
          "name": "id",
          "type": "uint256"
        }
      ],
      "name": "balanceOf",
      "outputs": [
        {
          "internalType": "uint256",
          "name": "",
          "type": "uint256"
        }
      ],
      "stateMutability": "view",
      "type": "function"
    },
    {
      "inputs": [
        {
          "internalType": "address[]",
          "name": "accounts",
          "type": "address[]"
        },
        {
          "internalType": "uint256[]",
          "name": "ids",
          "type": "uint256[]"
        }
      ],
      "name": "balanceOfBatch",
      "outputs": [
        {
          "internalType": "uint256[]",
          "name": "",
          "type": "uint256[]"
        }
      ],
      "stateMutability": "view",
      "type": "function"
    },
    {
      "inputs": [],
      "name": "baseURI",
      "outputs": [
        {
          "internalType": "string",
          "name": "",
          "type": "string"
        }
      ],
      "stateMutability": "view",
      "type": "function"
    },
    {
      "inputs": [
        {
          "internalType": "address",
          "name": "account",
          "type": "address"
        },
        {
          "internalType": "uint256",
          "name": "id",
          "type": "uint256"
        },
        {
          "internalType": "uint256",
          "name": "value",
          "type": "uint256"
        }
      ],
      "name": "burn",
      "outputs": [],
      "stateMutability": "nonpayable",
      "type": "function"
    },
    {
      "inputs": [
        {
          "internalType": "address",
          "name": "account",
          "type": "address"
        },
        {
          "internalType": "uint256[]",
          "name": "ids",
          "type": "uint256[]"
        },
        {
          "internalType": "uint256[]",
          "name": "values",
          "type": "uint256[]"
        }
      ],
      "name": "burnBatch",
      "outputs": [],
      "stateMutability": "nonpayable",
      "type": "function"
    },
    {
      "inputs": [],
      "name": "contractURI",
      "outputs": [
        {
          "internalType": "string",
          "name": "",
          "type": "string"
        }
      ],
      "stateMutability": "view",
      "type": "function"
    },
    {
      "inputs": [
        {
          "internalType": "uint256",
          "name": "",
          "type": "uint256"
        },
        {
          "internalType": "uint256",
          "name": "",
          "type": "uint256"
        }
      ],
      "name": "creators",
      "outputs": [
        {
          "internalType": "address payable",
          "name": "account",
          "type": "address"
        },
        {
          "internalType": "uint96",
          "name": "value",
          "type": "uint96"
        }
      ],
      "stateMutability": "view",
      "type": "function"
    },
    {
      "inputs": [
        {
          "internalType": "uint256",
          "name": "_id",
          "type": "uint256"
        }
      ],
      "name": "getCreators",
      "outputs": [
        {
          "components": [
            {
              "internalType": "address payable",
              "name": "account",
              "type": "address"
            },
            {
              "internalType": "uint96",
              "name": "value",
              "type": "uint96"
            }
          ],
          "internalType": "struct LibPart.Part[]",
          "name": "",
          "type": "tuple[]"
        }
      ],
      "stateMutability": "view",
      "type": "function"
    },
    {
      "inputs": [
        {
          "internalType": "uint256",
          "name": "id",
          "type": "uint256"
        }
      ],
      "name": "getRoyalties",
      "outputs": [
        {
          "components": [
            {
              "internalType": "address payable",
              "name": "account",
              "type": "address"
            },
            {
              "internalType": "uint96",
              "name": "value",
              "type": "uint96"
            }
          ],
          "internalType": "struct LibPart.Part[]",
          "name": "",
          "type": "tuple[]"
        }
      ],
      "stateMutability": "view",
      "type": "function"
    },
    {
      "inputs": [
        {
          "internalType": "uint256",
          "name": "id",
          "type": "uint256"
        }
      ],
      "name": "image",
      "outputs": [
        {
          "internalType": "string",
          "name": "",
          "type": "string"
        }
      ],
      "stateMutability": "view",
      "type": "function"
    },
    {
      "inputs": [
        {
          "internalType": "address",
          "name": "_owner",
          "type": "address"
        },
        {
          "internalType": "address",
          "name": "_operator",
          "type": "address"
        }
      ],
      "name": "isApprovedForAll",
      "outputs": [
        {
          "internalType": "bool",
          "name": "",
          "type": "bool"
        }
      ],
      "stateMutability": "view",
      "type": "function"
    },
    {
      "inputs": [
        {
          "components": [
            {
              "internalType": "uint256",
              "name": "tokenId",
              "type": "uint256"
            },
            {
              "internalType": "string",
              "name": "uri",
              "type": "string"
            },
            {
              "internalType": "uint256",
              "name": "supply",
              "type": "uint256"
            },
            {
              "components": [
                {
                  "internalType": "address payable",
                  "name": "account",
                  "type": "address"
                },
                {
                  "internalType": "uint96",
                  "name": "value",
                  "type": "uint96"
                }
              ],
              "internalType": "struct LibPart.Part[]",
              "name": "creators",
              "type": "tuple[]"
            },
            {
              "components": [
                {
                  "internalType": "address payable",
                  "name": "account",
                  "type": "address"
                },
                {
                  "internalType": "uint96",
                  "name": "value",
                  "type": "uint96"
                }
              ],
              "internalType": "struct LibPart.Part[]",
              "name": "royalties",
              "type": "tuple[]"
            },
            {
              "internalType": "bytes[]",
              "name": "signatures",
              "type": "bytes[]"
            }
          ],
          "internalType": "struct LibERC1155LazyMint.Mint1155Data",
          "name": "data",
          "type": "tuple"
        },
        {
          "internalType": "address",
          "name": "to",
          "type": "address"
        },
        {
          "internalType": "uint256",
          "name": "_amount",
          "type": "uint256"
        }
      ],
      "name": "mintAndTransfer",
      "outputs": [],
      "stateMutability": "nonpayable",
      "type": "function"
    },
    {
      "inputs": [
        {
          "components": [
            {
              "internalType": "uint256",
              "name": "tokenId",
              "type": "uint256"
            },
            {
              "internalType": "string",
              "name": "uri",
              "type": "string"
            },
            {
              "internalType": "uint256",
              "name": "supply",
              "type": "uint256"
            },
            {
              "components": [
                {
                  "internalType": "address payable",
                  "name": "account",
                  "type": "address"
                },
                {
                  "internalType": "uint96",
                  "name": "value",
                  "type": "uint96"
                }
              ],
              "internalType": "struct LibPart.Part[]",
              "name": "creators",
              "type": "tuple[]"
            },
            {
              "components": [
                {
                  "internalType": "address payable",
                  "name": "account",
                  "type": "address"
                },
                {
                  "internalType": "uint96",
                  "name": "value",
                  "type": "uint96"
                }
              ],
              "internalType": "struct LibPart.Part[]",
              "name": "royalties",
              "type": "tuple[]"
            },
            {
              "internalType": "bytes[]",
              "name": "signatures",
              "type": "bytes[]"
            }
          ],
          "internalType": "struct LibERC1155LazyMint.Mint1155Data",
          "name": "data",
          "type": "tuple"
        },
        {
          "internalType": "string",
          "name": "image",
          "type": "string"
        },
        {
          "internalType": "address",
          "name": "to",
          "type": "address"
        },
        {
          "internalType": "uint256",
          "name": "_amount",
          "type": "uint256"
        }
      ],
      "name": "mintWithImage",
      "outputs": [],
      "stateMutability": "nonpayable",
      "type": "function"
    },
    {
      "inputs": [],
      "name": "name",
      "outputs": [
        {
          "internalType": "string",
          "name": "",
          "type": "string"
        }
      ],
      "stateMutability": "view",
      "type": "function"
    },
    {
      "inputs": [],
      "name": "owner",
      "outputs": [
        {
          "internalType": "address",
          "name": "",
          "type": "address"
        }
      ],
      "stateMutability": "view",
      "type": "function"
    },
    {
      "inputs": [],
      "name": "renounceOwnership",
      "outputs": [],
      "stateMutability": "nonpayable",
      "type": "function"
    },
    {
      "inputs": [
        {
          "internalType": "uint256",
          "name": "",
          "type": "uint256"
        },
        {
          "internalType": "uint256",
          "name": "",
          "type": "uint256"
        }
      ],
      "name": "royalties",
      "outputs": [
        {
          "internalType": "address payable",
          "name": "account",
          "type": "address"
        },
        {
          "internalType": "uint96",
          "name": "value",
          "type": "uint96"
        }
      ],
      "stateMutability": "view",
      "type": "function"
    },
    {
      "inputs": [
        {
          "internalType": "address",
          "name": "from",
          "type": "address"
        },
        {
          "internalType": "address",
          "name": "to",
          "type": "address"
        },
        {
          "internalType": "uint256[]",
          "name": "ids",
          "type": "uint256[]"
        },
        {
          "internalType": "uint256[]",
          "name": "amounts",
          "type": "uint256[]"
        },
        {
          "internalType": "bytes",
          "name": "data",
          "type": "bytes"
        }
      ],
      "name": "safeBatchTransferFrom",
      "outputs": [],
      "stateMutability": "nonpayable",
      "type": "function"
    },
    {
      "inputs": [
        {
          "internalType": "address",
          "name": "from",
          "type": "address"
        },
        {
          "internalType": "address",
          "name": "to",
          "type": "address"
        },
        {
          "internalType": "uint256",
          "name": "id",
          "type": "uint256"
        },
        {
          "internalType": "uint256",
          "name": "amount",
          "type": "uint256"
        },
        {
          "internalType": "bytes",
          "name": "data",
          "type": "bytes"
        }
      ],
      "name": "safeTransferFrom",
      "outputs": [],
      "stateMutability": "nonpayable",
      "type": "function"
    },
    {
      "inputs": [
        {
          "internalType": "address",
          "name": "operator",
          "type": "address"
        },
        {
          "internalType": "bool",
          "name": "approved",
          "type": "bool"
        }
      ],
      "name": "setApprovalForAll",
      "outputs": [],
      "stateMutability": "nonpayable",
      "type": "function"
    },
    {
      "inputs": [
        {
          "internalType": "address",
          "name": "operator",
          "type": "address"
        },
        {
          "internalType": "bool",
          "name": "hasApproval",
          "type": "bool"
        }
      ],
      "name": "setDefaultApproval",
      "outputs": [],
      "stateMutability": "nonpayable",
      "type": "function"
    },
    {
      "inputs": [
        {
          "internalType": "bytes4",
          "name": "interfaceId",
          "type": "bytes4"
        }
      ],
      "name": "supportsInterface",
      "outputs": [
        {
          "internalType": "bool",
          "name": "",
          "type": "bool"
        }
      ],
      "stateMutability": "view",
      "type": "function"
    },
    {
      "inputs": [],
      "name": "symbol",
      "outputs": [
        {
          "internalType": "string",
          "name": "",
          "type": "string"
        }
      ],
      "stateMutability": "view",
      "type": "function"
    },
    {
      "inputs": [
        {
          "components": [
            {
              "internalType": "uint256",
              "name": "tokenId",
              "type": "uint256"
            },
            {
              "internalType": "string",
              "name": "uri",
              "type": "string"
            },
            {
              "internalType": "uint256",
              "name": "supply",
              "type": "uint256"
            },
            {
              "components": [
                {
                  "internalType": "address payable",
                  "name": "account",
                  "type": "address"
                },
                {
                  "internalType": "uint96",
                  "name": "value",
                  "type": "uint96"
                }
              ],
              "internalType": "struct LibPart.Part[]",
              "name": "creators",
              "type": "tuple[]"
            },
            {
              "components": [
                {
                  "internalType": "address payable",
                  "name": "account",
                  "type": "address"
                },
                {
                  "internalType": "uint96",
                  "name": "value",
                  "type": "uint96"
                }
              ],
              "internalType": "struct LibPart.Part[]",
              "name": "royalties",
              "type": "tuple[]"
            },
            {
              "internalType": "bytes[]",
              "name": "signatures",
              "type": "bytes[]"
            }
          ],
          "internalType": "struct LibERC1155LazyMint.Mint1155Data",
          "name": "data",
          "type": "tuple"
        },
        {
          "internalType": "address",
          "name": "from",
          "type": "address"
        },
        {
          "internalType": "address",
          "name": "to",
          "type": "address"
        },
        {
          "internalType": "uint256",
          "name": "amount",
          "type": "uint256"
        }
      ],
      "name": "transferFromOrMint",
      "outputs": [],
      "stateMutability": "nonpayable",
      "type": "function"
    },
    {
      "inputs": [
        {
          "internalType": "address",
          "name": "newOwner",
          "type": "address"
        }
      ],
      "name": "transferOwnership",
      "outputs": [],
      "stateMutability": "nonpayable",
      "type": "function"
    },
    {
      "inputs": [
        {
          "internalType": "uint256",
          "name": "id",
          "type": "uint256"
        }
      ],
      "name": "uri",
      "outputs": [
        {
          "internalType": "string",
          "name": "",
          "type": "string"
        }
      ],
      "stateMutability": "view",
      "type": "function"
    }
  ],
  "bytecode": "0x608060405234801561001057600080fd5b5061750380620000216000396000f3fe608060405234801561001057600080fd5b50600436106101a85760003560e01c8063891be974116100f9578063c79178c611610097578063f242432a11610071578063f242432a146104f3578063f2fde38b1461050f578063f5298aca1461052b578063ffc4e0a714610547576101a8565b8063c79178c614610475578063e8a3d485146104a5578063e985e9c5146104c3576101a8565b806395d89b41116100d357806395d89b41146103da57806398d0b4fb146103f8578063a22cb46514610429578063bb3bafd614610445576101a8565b8063891be9741461035b5780638924af741461038b5780638da5cb5b146103bc576101a8565b80631e014a4b116101665780636b20c454116101405780636b20c454146102fb5780636c0360eb14610317578063715018a61461033557806383ca29ed1461033f576101a8565b80631e014a4b146102935780632eb2c2d6146102af5780634e1273f4146102cb576101a8565b8062fdd58e146101ad57806301ffc9a7146101dd57806306fdde031461020d5780630e89341c1461022b5780630eaead671461025b57806318054c3714610277575b600080fd5b6101c760048036038101906101c2919061637b565b610563565b6040516101d49190616d69565b60405180910390f35b6101f760048036038101906101f29190616472565b610643565b6040516102049190616c2c565b60405180910390f35b6102156106ab565b6040516102229190616c47565b60405180910390f35b610245600480360381019061024091906166d3565b61074a565b6040516102529190616c47565b60405180910390f35b610275600480360381019061027091906165d9565b61075c565b005b610291600480360381019061028c919061633f565b610a51565b005b6102ad60048036038101906102a89190616640565b610b0e565b005b6102c960048036038101906102c49190616172565b610e06565b005b6102e560048036038101906102e09190616406565b611291565b6040516102f29190616c0a565b60405180910390f35b610315600480360381019061031091906162c0565b6113a3565b005b61031f611456565b60405161032c9190616c47565b60405180910390f35b61033d6114f9565b005b6103596004803603810190610354919061649b565b611669565b005b610375600480360381019061037091906166d3565b61182b565b6040516103829190616be8565b60405180910390f35b6103a560048036038101906103a091906166fc565b61192e565b6040516103b3929190616bbf565b60405180910390f35b6103c46119a4565b6040516103d19190616b5f565b60405180910390f35b6103e26119ce565b6040516103ef9190616c47565b60405180910390f35b610412600480360381019061040d91906166fc565b611a6d565b604051610420929190616bbf565b60405180910390f35b610443600480360381019061043e919061633f565b611ae3565b005b61045f600480360381019061045a91906166d3565b611c7c565b60405161046c9190616be8565b60405180910390f35b61048f600480360381019061048a91906166d3565b611d7f565b60405161049c9190616c47565b60405180910390f35b6104ad611d91565b6040516104ba9190616c47565b60405180910390f35b6104dd60048036038101906104d89190616136565b611e30565b6040516104ea9190616c2c565b60405180910390f35b61050d60048036038101906105089190616231565b611e44565b005b6105296004803603810190610524919061610d565b6121b9565b005b610545600480360381019061054091906163b7565b6123ae565b005b610561600480360381019061055c919061655e565b612461565b005b60008073ffffffffffffffffffffffffffffffffffffffff168373ffffffffffffffffffffffffffffffffffffffff1614156105ea576040517f08c379a000000000000000000000000000000000000000000000000000000000815260040180806020018281038252602b81526020018061727f602b913960400191505060405180910390fd5b6097600083815260200190815260200160002060008473ffffffffffffffffffffffffffffffffffffffff1673ffffffffffffffffffffffffffffffffffffffff16815260200190815260200160002054905092915050565b600060656000837bffffffffffffffffffffffffffffffffffffffffffffffffffffffff19167bffffffffffffffffffffffffffffffffffffffffffffffffffffffff1916815260200190815260200160002060009054906101000a900460ff169050919050565b6102628054600181600116156101000203166002900480601f0160208091040260200160405190810160405280929190818152602001828054600181600116156101000203166002900480156107425780601f1061071757610100808354040283529160200191610742565b820191906000526020600020905b81548152906001019060200180831161072557829003601f168201915b505050505081565b6060610755826124d5565b9050919050565b600060608460000151901c90506000610773612749565b90508073ffffffffffffffffffffffffffffffffffffffff168273ffffffffffffffffffffffffffffffffffffffff1614806107b557506107b48282611e30565b5b6107f4576040517f08c379a00000000000000000000000000000000000000000000000000000000081526004016107eb90616ce9565b60405180910390fd5b60008311610837576040517f08c379a000000000000000000000000000000000000000000000000000000000815260040161082e90616cc9565b60405180910390fd5b60006101fc600087600001518152602001908152602001600020541415610a2b57846060015160008151811061086957fe5b60200260200101516000015173ffffffffffffffffffffffffffffffffffffffff168273ffffffffffffffffffffffffffffffffffffffff16146108e2576040517f08c379a00000000000000000000000000000000000000000000000000000000081526004016108d990616ca9565b60405180910390fd5b6000856040015111610929576040517f08c379a000000000000000000000000000000000000000000000000000000000815260040161092090616c69565b60405180910390fd5b8460a00151518560600151511461093f57600080fd5b600061094a86612751565b905060005b8660600151518110156109e05760008760600151828151811061096e57fe5b60200260200101516000015190508373ffffffffffffffffffffffffffffffffffffffff168173ffffffffffffffffffffffffffffffffffffffff16146109d2576109d181848a60a0015185815181106109c457fe5b60200260200101516129cf565b5b50808060010191505061094f565b506109f3866000015187604001516129df565b610a0586600001518760800151612a56565b610a1786600001518760600151612ca1565b610a2986600001518760200151612f3b565b505b610a4a848660000151856040518060200160405280600081525061300d565b5050505050565b610a59612749565b73ffffffffffffffffffffffffffffffffffffffff16610a776119a4565b73ffffffffffffffffffffffffffffffffffffffff1614610b00576040517f08c379a00000000000000000000000000000000000000000000000000000000081526004018080602001828103825260208152602001807f4f776e61626c653a2063616c6c6572206973206e6f7420746865206f776e657281525060200191505060405180910390fd5b610b0a828261301f565b5050565b600060608560000151901c90506000610b25612749565b90508073ffffffffffffffffffffffffffffffffffffffff168273ffffffffffffffffffffffffffffffffffffffff161480610b675750610b668282611e30565b5b610ba6576040517f08c379a0000000000000000000000000000000000000000000000000000000008152600401610b9d90616ce9565b60405180910390fd5b60008311610be9576040517f08c379a0000000000000000000000000000000000000000000000000000000008152600401610be090616cc9565b60405180910390fd5b6000610bf887600001516130ca565b1415610ddf578560600151600081518110610c0f57fe5b60200260200101516000015173ffffffffffffffffffffffffffffffffffffffff168273ffffffffffffffffffffffffffffffffffffffff1614610c88576040517f08c379a0000000000000000000000000000000000000000000000000000000008152600401610c7f90616ca9565b60405180910390fd5b6000866040015111610ccf576040517f08c379a0000000000000000000000000000000000000000000000000000000008152600401610cc690616c69565b60405180910390fd5b8560a001515186606001515114610ce557600080fd5b6000610cf087612751565b905060005b876060015151811015610d8657600088606001518281518110610d1457fe5b60200260200101516000015190508373ffffffffffffffffffffffffffffffffffffffff168173ffffffffffffffffffffffffffffffffffffffff1614610d7857610d7781848b60a001518581518110610d6a57fe5b60200260200101516129cf565b5b508080600101915050610cf5565b50610d99876000015188604001516129df565b610dab87600001518860800151612a56565b610dbd87600001518860600151612ca1565b610dcf87600001518860200151612f3b565b610ddd8760000151876130e8565b505b610dfe848760000151856040518060200160405280600081525061300d565b505050505050565b8151835114610e60576040517f08c379a00000000000000000000000000000000000000000000000000000000081526004018080602001828103825260288152602001806174856028913960400191505060405180910390fd5b600073ffffffffffffffffffffffffffffffffffffffff168473ffffffffffffffffffffffffffffffffffffffff161415610ee6576040517f08c379a000000000000000000000000000000000000000000000000000000000815260040180806020018281038252602581526020018061733f6025913960400191505060405180910390fd5b610eee612749565b73ffffffffffffffffffffffffffffffffffffffff168573ffffffffffffffffffffffffffffffffffffffff161480610f345750610f3385610f2e612749565b611e30565b5b610f89576040517f08c379a00000000000000000000000000000000000000000000000000000000081526004018080602001828103825260328152602001806173646032913960400191505060405180910390fd5b6000610f93612749565b9050610fa38187878787876131ba565b60005b8451811015611174576000858281518110610fbd57fe5b602002602001015190506000858381518110610fd557fe5b6020026020010151905061105c816040518060600160405280602a8152602001617409602a91396097600086815260200190815260200160002060008d73ffffffffffffffffffffffffffffffffffffffff1673ffffffffffffffffffffffffffffffffffffffff168152602001908152602001600020546131c29092919063ffffffff16565b6097600084815260200190815260200160002060008b73ffffffffffffffffffffffffffffffffffffffff1673ffffffffffffffffffffffffffffffffffffffff16815260200190815260200160002081905550611113816097600085815260200190815260200160002060008b73ffffffffffffffffffffffffffffffffffffffff1673ffffffffffffffffffffffffffffffffffffffff1681526020019081526020016000205461327c90919063ffffffff16565b6097600084815260200190815260200160002060008a73ffffffffffffffffffffffffffffffffffffffff1673ffffffffffffffffffffffffffffffffffffffff168152602001908152602001600020819055505050806001019050610fa6565b508473ffffffffffffffffffffffffffffffffffffffff168673ffffffffffffffffffffffffffffffffffffffff168273ffffffffffffffffffffffffffffffffffffffff167f4a39dc06d4c0dbc64b70af90fd698a233a518aa5d07e595d983b8c0526c8f7fb8787604051808060200180602001838103835285818151815260200191508051906020019060200280838360005b83811015611224578082015181840152602081019050611209565b50505050905001838103825284818151815260200191508051906020019060200280838360005b8381101561126657808201518184015260208101905061124b565b5050505090500194505050505060405180910390a4611289818787878787613304565b505050505050565b606081518351146112ed576040517f08c379a000000000000000000000000000000000000000000000000000000000815260040180806020018281038252602981526020018061745c6029913960400191505060405180910390fd5b6000835167ffffffffffffffff8111801561130757600080fd5b506040519080825280602002602001820160405280156113365781602001602082028036833780820191505090505b50905060005b84518110156113985761137585828151811061135457fe5b602002602001015185838151811061136857fe5b6020026020010151610563565b82828151811061138157fe5b60200260200101818152505080600101905061133c565b508091505092915050565b6113ab612749565b73ffffffffffffffffffffffffffffffffffffffff168373ffffffffffffffffffffffffffffffffffffffff1614806113f157506113f0836113eb612749565b611e30565b5b611446576040517f08c379a00000000000000000000000000000000000000000000000000000000081526004018080602001828103825260298152602001806172f46029913960400191505060405180910390fd5b611451838383613693565b505050565b606061012f8054600181600116156101000203166002900480601f0160208091040260200160405190810160405280929190818152602001828054600181600116156101000203166002900480156114ef5780601f106114c4576101008083540402835291602001916114ef565b820191906000526020600020905b8154815290600101906020018083116114d257829003601f168201915b5050505050905090565b611501612749565b73ffffffffffffffffffffffffffffffffffffffff1661151f6119a4565b73ffffffffffffffffffffffffffffffffffffffff16146115a8576040517f08c379a00000000000000000000000000000000000000000000000000000000081526004018080602001828103825260208152602001807f4f776e61626c653a2063616c6c6572206973206e6f7420746865206f776e657281525060200191505060405180910390fd5b600073ffffffffffffffffffffffffffffffffffffffff16603360009054906101000a900473ffffffffffffffffffffffffffffffffffffffff1673ffffffffffffffffffffffffffffffffffffffff167f8be0079c531659141344cd1fd0a4f28419497f9722a3daafe3b4186f6b6457e060405160405180910390a36000603360006101000a81548173ffffffffffffffffffffffffffffffffffffffff021916908373ffffffffffffffffffffffffffffffffffffffff160217905550565b600060019054906101000a900460ff168061168857506116876139ce565b5b8061169e575060008054906101000a900460ff16155b6116f3576040517f08c379a000000000000000000000000000000000000000000000000000000000815260040180806020018281038252602e815260200180617396602e913960400191505060405180910390fd5b60008060019054906101000a900460ff161590508015611743576001600060016101000a81548160ff02191690831515021790555060016000806101000a81548160ff0219169083151502179055505b61174b6139df565b611753613b86565b61175b613c94565b611763613da2565b61176b613ea0565b61178360405180602001604052806000815250614012565b61178c8261413a565b611794614261565b61179c61435f565b6117a6858561446d565b6117af8361459d565b6117c16117ba612749565b600161301f565b7f630c3520bebe920390fcfcb48ef2e0bde326ef10f85761c5f708d1ccebf6ba736117ea612749565b86866040516117fb93929190616b7a565b60405180910390a180156118245760008060016101000a81548160ff0219169083151502179055505b5050505050565b60606101fb6000838152602001908152602001600020805480602002602001604051908101604052809291908181526020016000905b82821015611923578382906000526020600020016040518060400160405290816000820160009054906101000a900473ffffffffffffffffffffffffffffffffffffffff1673ffffffffffffffffffffffffffffffffffffffff1673ffffffffffffffffffffffffffffffffffffffff1681526020016000820160149054906101000a90046bffffffffffffffffffffffff166bffffffffffffffffffffffff166bffffffffffffffffffffffff168152505081526020019060010190611861565b505050509050919050565b6101fa602052816000526040600020818154811061194b57600080fd5b90600052602060002001600091509150508060000160009054906101000a900473ffffffffffffffffffffffffffffffffffffffff16908060000160149054906101000a90046bffffffffffffffffffffffff16905082565b6000603360009054906101000a900473ffffffffffffffffffffffffffffffffffffffff16905090565b6102638054600181600116156101000203166002900480601f016020809104026020016040519081016040528092919081815260200182805460018160011615610100020316600290048015611a655780601f10611a3a57610100808354040283529160200191611a65565b820191906000526020600020905b815481529060010190602001808311611a4857829003601f168201915b505050505081565b6101fb6020528160005260406000208181548110611a8a57600080fd5b90600052602060002001600091509150508060000160009054906101000a900473ffffffffffffffffffffffffffffffffffffffff16908060000160149054906101000a90046bffffffffffffffffffffffff16905082565b8173ffffffffffffffffffffffffffffffffffffffff16611b02612749565b73ffffffffffffffffffffffffffffffffffffffff161415611b6f576040517f08c379a00000000000000000000000000000000000000000000000000000000081526004018080602001828103825260298152602001806174336029913960400191505060405180910390fd5b8060986000611b7c612749565b73ffffffffffffffffffffffffffffffffffffffff1673ffffffffffffffffffffffffffffffffffffffff16815260200190815260200160002060008473ffffffffffffffffffffffffffffffffffffffff1673ffffffffffffffffffffffffffffffffffffffff16815260200190815260200160002060006101000a81548160ff0219169083151502179055508173ffffffffffffffffffffffffffffffffffffffff16611c29612749565b73ffffffffffffffffffffffffffffffffffffffff167f17307eab39ab6107e8899845ad3d59bd9653f200f220920489ca2b5937696c318360405180821515815260200191505060405180910390a35050565b60606101fa6000838152602001908152602001600020805480602002602001604051908101604052809291908181526020016000905b82821015611d74578382906000526020600020016040518060400160405290816000820160009054906101000a900473ffffffffffffffffffffffffffffffffffffffff1673ffffffffffffffffffffffffffffffffffffffff1673ffffffffffffffffffffffffffffffffffffffff1681526020016000820160149054906101000a90046bffffffffffffffffffffffff166bffffffffffffffffffffffff166bffffffffffffffffffffffff168152505081526020019060010190611cb2565b505050509050919050565b6060611d8a826145b8565b9050919050565b6102308054600181600116156101000203166002900480601f016020809104026020016040519081016040528092919081815260200182805460018160011615610100020316600290048015611e285780601f10611dfd57610100808354040283529160200191611e28565b820191906000526020600020905b815481529060010190602001808311611e0b57829003601f168201915b505050505081565b6000611e3c8383614674565b905092915050565b600073ffffffffffffffffffffffffffffffffffffffff168473ffffffffffffffffffffffffffffffffffffffff161415611eca576040517f08c379a000000000000000000000000000000000000000000000000000000000815260040180806020018281038252602581526020018061733f6025913960400191505060405180910390fd5b611ed2612749565b73ffffffffffffffffffffffffffffffffffffffff168573ffffffffffffffffffffffffffffffffffffffff161480611f185750611f1785611f12612749565b611e30565b5b611f6d576040517f08c379a00000000000000000000000000000000000000000000000000000000081526004018080602001828103825260298152602001806172f46029913960400191505060405180910390fd5b6000611f77612749565b9050611f97818787611f88886146dc565b611f91886146dc565b876131ba565b612014836040518060600160405280602a8152602001617409602a91396097600088815260200190815260200160002060008a73ffffffffffffffffffffffffffffffffffffffff1673ffffffffffffffffffffffffffffffffffffffff168152602001908152602001600020546131c29092919063ffffffff16565b6097600086815260200190815260200160002060008873ffffffffffffffffffffffffffffffffffffffff1673ffffffffffffffffffffffffffffffffffffffff168152602001908152602001600020819055506120cb836097600087815260200190815260200160002060008873ffffffffffffffffffffffffffffffffffffffff1673ffffffffffffffffffffffffffffffffffffffff1681526020019081526020016000205461327c90919063ffffffff16565b6097600086815260200190815260200160002060008773ffffffffffffffffffffffffffffffffffffffff1673ffffffffffffffffffffffffffffffffffffffff168152602001908152602001600020819055508473ffffffffffffffffffffffffffffffffffffffff168673ffffffffffffffffffffffffffffffffffffffff168273ffffffffffffffffffffffffffffffffffffffff167fc3d58168c5ae7397731d063d5bbf3d657854427343f4c083240f7aacaa2d0f628787604051808381526020018281526020019250505060405180910390a46121b181878787878761474d565b505050505050565b6121c1612749565b73ffffffffffffffffffffffffffffffffffffffff166121df6119a4565b73ffffffffffffffffffffffffffffffffffffffff1614612268576040517f08c379a00000000000000000000000000000000000000000000000000000000081526004018080602001828103825260208152602001807f4f776e61626c653a2063616c6c6572206973206e6f7420746865206f776e657281525060200191505060405180910390fd5b600073ffffffffffffffffffffffffffffffffffffffff168173ffffffffffffffffffffffffffffffffffffffff1614156122ee576040517f08c379a00000000000000000000000000000000000000000000000000000000081526004018080602001828103825260268152602001806172aa6026913960400191505060405180910390fd5b8073ffffffffffffffffffffffffffffffffffffffff16603360009054906101000a900473ffffffffffffffffffffffffffffffffffffffff1673ffffffffffffffffffffffffffffffffffffffff167f8be0079c531659141344cd1fd0a4f28419497f9722a3daafe3b4186f6b6457e060405160405180910390a380603360006101000a81548173ffffffffffffffffffffffffffffffffffffffff021916908373ffffffffffffffffffffffffffffffffffffffff16021790555050565b6123b6612749565b73ffffffffffffffffffffffffffffffffffffffff168373ffffffffffffffffffffffffffffffffffffffff1614806123fc57506123fb836123f6612749565b611e30565b5b612451576040517f08c379a00000000000000000000000000000000000000000000000000000000081526004018080602001828103825260298152602001806172f46029913960400191505060405180910390fd5b61245c838383614a5a565b505050565b6000612471848660000151610563565b90506000829050600082146124b857600083905083831015612491578290505b6124b1868689600001518460405180602001604052806000815250611e44565b8084039150505b60008111156124cd576124cc86858361075c565b5b505050505050565b6060600061012e60008481526020019081526020016000208054600181600116156101000203166002900480601f0160208091040260200160405190810160405280929190818152602001828054600181600116156101000203166002900480156125815780601f1061255657610100808354040283529160200191612581565b820191906000526020600020905b81548152906001019060200180831161256457829003601f168201915b505050505090506000612592611456565b90506000815114156125a8578192505050612744565b6000825111156126795780826040516020018083805190602001908083835b602083106125ea57805182526020820191506020810190506020830392506125c7565b6001836020036101000a03801982511681845116808217855250505050505090500182805190602001908083835b6020831061263b5780518252602082019150602081019050602083039250612618565b6001836020036101000a0380198251168184511680821785525050505050509050019250505060405160208183030381529060405292505050612744565b8061268385614c76565b6040516020018083805190602001908083835b602083106126b95780518252602082019150602081019050602083039250612696565b6001836020036101000a03801982511681845116808217855250505050505090500182805190602001908083835b6020831061270a57805182526020820191506020810190506020830392506126e7565b6001836020036101000a03801982511681845116808217855250505050505090500192505050604051602081830303815290604052925050505b919050565b600033905090565b60008082608001515167ffffffffffffffff8111801561277057600080fd5b5060405190808252806020026020018201604052801561279f5781602001602082028036833780820191505090505b50905060005b8360800151518110156127f7576127d2846080015182815181106127c557fe5b6020026020010151614dbd565b8282815181106127de57fe5b60200260200101818152505080806001019150506127a5565b50600083606001515167ffffffffffffffff8111801561281657600080fd5b506040519080825280602002602001820160405280156128455781602001602082028036833780820191505090505b50905060005b84606001515181101561289d576128788560600151828151811061286b57fe5b6020026020010151614dbd565b82828151811061288457fe5b602002602001018181525050808060010191505061284b565b507ffb988707ebb338694f318760b0fd5cfe756d00a2ade251fda110b80c336a3c7f846000015185604001518660200151805190602001208460405160200180828051906020019060200280838360005b838110156129095780820151818401526020810190506128ee565b50505050905001915050604051602081830303815290604052805190602001208660405160200180828051906020019060200280838360005b8381101561295d578082015181840152602081019050612942565b50505050905001915050604051602081830303815290604052805190602001206040516020018087815260200186815260200185815260200184815260200183815260200182815260200196505050505050506040516020818303038152906040528051906020012092505050919050565b6129da838383614e49565b505050565b60006101fc60008481526020019081526020016000205414612a0057600080fd5b806101fc6000848152602001908152602001600020819055507f5e2aa66efd74cce82b21852e317e5490d9ecc9e6bb953ae24d90851258cc2f5c8282604051612a4a929190616db4565b60405180910390a15050565b60005b8151811015612c9257600073ffffffffffffffffffffffffffffffffffffffff16828281518110612a8657fe5b60200260200101516000015173ffffffffffffffffffffffffffffffffffffffff161415612b1c576040517f08c379a000000000000000000000000000000000000000000000000000000000815260040180806020018281038252601b8152602001807f526563697069656e742073686f756c642062652070726573656e74000000000081525060200191505060405180910390fd5b6000828281518110612b2a57fe5b6020026020010151602001516bffffffffffffffffffffffff161415612bb8576040517f08c379a00000000000000000000000000000000000000000000000000000000081526004018080602001828103825260208152602001807f526f79616c74792076616c75652073686f756c6420626520706f73697469766581525060200191505060405180910390fd5b6101fa6000848152602001908152602001600020828281518110612bd857fe5b60200260200101519080600181540180825580915050600190039060005260206000200160009091909190915060008201518160000160006101000a81548173ffffffffffffffffffffffffffffffffffffffff021916908373ffffffffffffffffffffffffffffffffffffffff16021790555060208201518160000160146101000a8154816bffffffffffffffffffffffff02191690836bffffffffffffffffffffffff16021790555050508080600101915050612a59565b50612c9d82826151c1565b5050565b60006101fb600084815260200190815260200160002090506000805b8351811015612eb757600073ffffffffffffffffffffffffffffffffffffffff16848281518110612cea57fe5b60200260200101516000015173ffffffffffffffffffffffffffffffffffffffff161415612d4d576040517f08c379a0000000000000000000000000000000000000000000000000000000008152600401612d4490616d29565b60405180910390fd5b6000848281518110612d5b57fe5b6020026020010151602001516bffffffffffffffffffffffff161415612db6576040517f08c379a0000000000000000000000000000000000000000000000000000000008152600401612dad90616c89565b60405180910390fd5b82848281518110612dc357fe5b60200260200101519080600181540180825580915050600190039060005260206000200160009091909190915060008201518160000160006101000a81548173ffffffffffffffffffffffffffffffffffffffff021916908373ffffffffffffffffffffffffffffffffffffffff16021790555060208201518160000160146101000a8154816bffffffffffffffffffffffff02191690836bffffffffffffffffffffffff1602179055505050612ea8848281518110612e7f57fe5b6020026020010151602001516bffffffffffffffffffffffff168361327c90919063ffffffff16565b91508080600101915050612cbd565b506127108114612efc576040517f08c379a0000000000000000000000000000000000000000000000000000000008152600401612ef390616d49565b60405180910390fd5b7f841ffb90d4cabdd1f16034f3fa831d79060febbb8167bdd54a49269365bdf78f8484604051612f2d929190616d84565b60405180910390a150505050565b8061012e60008481526020019081526020016000209080519060200190612f63929190615b83565b50817f6bb7ff708619ba0610cba295a58592e0451dee2622938c8755667688daf3529b612f8f846124d5565b6040518080602001828103825283818151815260200191508051906020019080838360005b83811015612fcf578082015181840152602081019050612fb4565b50505050905090810190601f168015612ffc5780820380516001836020036101000a031916815260200191505b509250505060405180910390a25050565b613019848484846151fe565b50505050565b8060c960008473ffffffffffffffffffffffffffffffffffffffff1673ffffffffffffffffffffffffffffffffffffffff16815260200190815260200160002060006101000a81548160ff0219169083151502179055508173ffffffffffffffffffffffffffffffffffffffff167f270dbb8ba4292910ae92862466486be25c355c837270a3d8824b36a8bc7c653b8260405180821515815260200191505060405180910390a25050565b60006101fc6000838152602001908152602001600020549050919050565b8061029660008481526020019081526020016000209080519060200190613110929190615b83565b50817fa595484f343d9669f13f28cff734012d5ea0924a2ec5440aa2c2833751c9a28861313c846145b8565b6040518080602001828103825283818151815260200191508051906020019080838360005b8381101561317c578082015181840152602081019050613161565b50505050905090810190601f1680156131a95780820380516001836020036101000a031916815260200191505b509250505060405180910390a25050565b505050505050565b600083831115829061326f576040517f08c379a00000000000000000000000000000000000000000000000000000000081526004018080602001828103825283818151815260200191508051906020019080838360005b83811015613234578082015181840152602081019050613219565b50505050905090810190601f1680156132615780820380516001836020036101000a031916815260200191505b509250505060405180910390fd5b5082840390509392505050565b6000808284019050838110156132fa576040517f08c379a000000000000000000000000000000000000000000000000000000000815260040180806020018281038252601b8152602001807f536166654d6174683a206164646974696f6e206f766572666c6f77000000000081525060200191505060405180910390fd5b8091505092915050565b6133238473ffffffffffffffffffffffffffffffffffffffff166152ac565b1561368b578373ffffffffffffffffffffffffffffffffffffffff1663bc197c8187878686866040518663ffffffff1660e01b8152600401808673ffffffffffffffffffffffffffffffffffffffff1681526020018573ffffffffffffffffffffffffffffffffffffffff168152602001806020018060200180602001848103845287818151815260200191508051906020019060200280838360005b838110156133db5780820151818401526020810190506133c0565b50505050905001848103835286818151815260200191508051906020019060200280838360005b8381101561341d578082015181840152602081019050613402565b50505050905001848103825285818151815260200191508051906020019080838360005b8381101561345c578082015181840152602081019050613441565b50505050905090810190601f1680156134895780820380516001836020036101000a031916815260200191505b5098505050505050505050602060405180830381600087803b1580156134ae57600080fd5b505af19250505080156134e257506040513d60208110156134ce57600080fd5b810190808051906020019092919050505060015b6135ec576134ee6170e2565b806134f9575061359b565b806040517f08c379a00000000000000000000000000000000000000000000000000000000081526004018080602001828103825283818151815260200191508051906020019080838360005b83811015613560578082015181840152602081019050613545565b50505050905090810190601f16801561358d5780820380516001836020036101000a031916815260200191505b509250505060405180910390fd5b6040517f08c379a00000000000000000000000000000000000000000000000000000000081526004018080602001828103825260348152602001806172236034913960400191505060405180910390fd5b63bc197c8160e01b7bffffffffffffffffffffffffffffffffffffffffffffffffffffffff1916817bffffffffffffffffffffffffffffffffffffffffffffffffffffffff191614613689576040517f08c379a00000000000000000000000000000000000000000000000000000000081526004018080602001828103825260288152602001806172576028913960400191505060405180910390fd5b505b505050505050565b600073ffffffffffffffffffffffffffffffffffffffff168373ffffffffffffffffffffffffffffffffffffffff161415613719576040517f08c379a00000000000000000000000000000000000000000000000000000000081526004018080602001828103825260238152602001806173e66023913960400191505060405180910390fd5b8051825114613773576040517f08c379a00000000000000000000000000000000000000000000000000000000081526004018080602001828103825260288152602001806174856028913960400191505060405180910390fd5b600061377d612749565b905061379d818560008686604051806020016040528060008152506131ba565b60005b83518110156138c05761384c8382815181106137b857fe5b60200260200101516040518060600160405280602481526020016172d060249139609760008886815181106137e957fe5b6020026020010151815260200190815260200160002060008973ffffffffffffffffffffffffffffffffffffffff1673ffffffffffffffffffffffffffffffffffffffff168152602001908152602001600020546131c29092919063ffffffff16565b6097600086848151811061385c57fe5b6020026020010151815260200190815260200160002060008773ffffffffffffffffffffffffffffffffffffffff1673ffffffffffffffffffffffffffffffffffffffff1681526020019081526020016000208190555080806001019150506137a0565b50600073ffffffffffffffffffffffffffffffffffffffff168473ffffffffffffffffffffffffffffffffffffffff168273ffffffffffffffffffffffffffffffffffffffff167f4a39dc06d4c0dbc64b70af90fd698a233a518aa5d07e595d983b8c0526c8f7fb8686604051808060200180602001838103835285818151815260200191508051906020019060200280838360005b83811015613971578082015181840152602081019050613956565b50505050905001838103825284818151815260200191508051906020019060200280838360005b838110156139b3578082015181840152602081019050613998565b5050505090500194505050505060405180910390a450505050565b60006139d9306152ac565b15905090565b600060019054906101000a900460ff16806139fe57506139fd6139ce565b5b80613a14575060008054906101000a900460ff16155b613a69576040517f08c379a000000000000000000000000000000000000000000000000000000000815260040180806020018281038252602e815260200180617396602e913960400191505060405180910390fd5b60008060019054906101000a900460ff161590508015613ab9576001600060016101000a81548160ff02191690831515021790555060016000806101000a81548160ff0219169083151502179055505b6000613ac3612749565b905080603360006101000a81548173ffffffffffffffffffffffffffffffffffffffff021916908373ffffffffffffffffffffffffffffffffffffffff1602179055508073ffffffffffffffffffffffffffffffffffffffff16600073ffffffffffffffffffffffffffffffffffffffff167f8be0079c531659141344cd1fd0a4f28419497f9722a3daafe3b4186f6b6457e060405160405180910390a3508015613b835760008060016101000a81548160ff0219169083151502179055505b50565b600060019054906101000a900460ff1680613ba55750613ba46139ce565b5b80613bbb575060008054906101000a900460ff16155b613c10576040517f08c379a000000000000000000000000000000000000000000000000000000000815260040180806020018281038252602e815260200180617396602e913960400191505060405180910390fd5b60008060019054906101000a900460ff161590508015613c60576001600060016101000a81548160ff02191690831515021790555060016000806101000a81548160ff0219169083151502179055505b613c70636db15a0f60e01b6152bf565b8015613c915760008060016101000a81548160ff0219169083151502179055505b50565b600060019054906101000a900460ff1680613cb35750613cb26139ce565b5b80613cc9575060008054906101000a900460ff16155b613d1e576040517f08c379a000000000000000000000000000000000000000000000000000000000815260040180806020018281038252602e815260200180617396602e913960400191505060405180910390fd5b60008060019054906101000a900460ff161590508015613d6e576001600060016101000a81548160ff02191690831515021790555060016000806101000a81548160ff0219169083151502179055505b613d7e6301ffc9a760e01b6152bf565b8015613d9f5760008060016101000a81548160ff0219169083151502179055505b50565b600060019054906101000a900460ff1680613dc15750613dc06139ce565b5b80613dd7575060008054906101000a900460ff16155b613e2c576040517f08c379a000000000000000000000000000000000000000000000000000000000815260040180806020018281038252602e815260200180617396602e913960400191505060405180910390fd5b60008060019054906101000a900460ff161590508015613e7c576001600060016101000a81548160ff02191690831515021790555060016000806101000a81548160ff0219169083151502179055505b8015613e9d5760008060016101000a81548160ff0219169083151502179055505b50565b600060019054906101000a900460ff1680613ebf5750613ebe6139ce565b5b80613ed5575060008054906101000a900460ff16155b613f2a576040517f08c379a000000000000000000000000000000000000000000000000000000000815260040180806020018281038252602e815260200180617396602e913960400191505060405180910390fd5b60008060019054906101000a900460ff161590508015613f7a576001600060016101000a81548160ff02191690831515021790555060016000806101000a81548160ff0219169083151502179055505b613fee6040518060400160405280600881526020017f4d696e74313135350000000000000000000000000000000000000000000000008152506040518060400160405280600181526020017f31000000000000000000000000000000000000000000000000000000000000008152506153c8565b801561400f5760008060016101000a81548160ff0219169083151502179055505b50565b600060019054906101000a900460ff168061403157506140306139ce565b5b80614047575060008054906101000a900460ff16155b61409c576040517f08c379a000000000000000000000000000000000000000000000000000000000815260040180806020018281038252602e815260200180617396602e913960400191505060405180910390fd5b60008060019054906101000a900460ff1615905080156140ec576001600060016101000a81548160ff02191690831515021790555060016000806101000a81548160ff0219169083151502179055505b6140f5826154f2565b61410563d9b67a2660e01b6152bf565b614115630e89341c60e01b6152bf565b80156141365760008060016101000a81548160ff0219169083151502179055505b5050565b600060019054906101000a900460ff168061415957506141586139ce565b5b8061416f575060008054906101000a900460ff16155b6141c4576040517f08c379a000000000000000000000000000000000000000000000000000000000815260040180806020018281038252602e815260200180617396602e913960400191505060405180910390fd5b60008060019054906101000a900460ff161590508015614214576001600060016101000a81548160ff02191690831515021790555060016000806101000a81548160ff0219169083151502179055505b81610230908051906020019061422b929190615b83565b5061423c63e8a3d48560e01b6152bf565b801561425d5760008060016101000a81548160ff0219169083151502179055505b5050565b600060019054906101000a900460ff1680614280575061427f6139ce565b5b80614296575060008054906101000a900460ff16155b6142eb576040517f08c379a000000000000000000000000000000000000000000000000000000000815260040180806020018281038252602e815260200180617396602e913960400191505060405180910390fd5b60008060019054906101000a900460ff16159050801561433b576001600060016101000a81548160ff02191690831515021790555060016000806101000a81548160ff0219169083151502179055505b801561435c5760008060016101000a81548160ff0219169083151502179055505b50565b600060019054906101000a900460ff168061437e575061437d6139ce565b5b80614394575060008054906101000a900460ff16155b6143e9576040517f08c379a000000000000000000000000000000000000000000000000000000000815260040180806020018281038252602e815260200180617396602e913960400191505060405180910390fd5b60008060019054906101000a900460ff161590508015614439576001600060016101000a81548160ff02191690831515021790555060016000806101000a81548160ff0219169083151502179055505b6144496344c74bcc60e01b6152bf565b801561446a5760008060016101000a81548160ff0219169083151502179055505b50565b600060019054906101000a900460ff168061448c575061448b6139ce565b5b806144a2575060008054906101000a900460ff16155b6144f7576040517f08c379a000000000000000000000000000000000000000000000000000000000815260040180806020018281038252602e815260200180617396602e913960400191505060405180910390fd5b60008060019054906101000a900460ff161590508015614547576001600060016101000a81548160ff02191690831515021790555060016000806101000a81548160ff0219169083151502179055505b82610262908051906020019061455e929190615b83565b50816102639080519060200190614576929190615b83565b5080156145985760008060016101000a81548160ff0219169083151502179055505b505050565b8061012f90805190602001906145b4929190615b83565b5050565b6060600061029660008481526020019081526020016000208054600181600116156101000203166002900480601f0160208091040260200160405190810160405280929190818152602001828054600181600116156101000203166002900480156146645780601f1061463957610100808354040283529160200191614664565b820191906000526020600020905b81548152906001019060200180831161464757829003601f168201915b5050505050905080915050919050565b600060c960008373ffffffffffffffffffffffffffffffffffffffff1673ffffffffffffffffffffffffffffffffffffffff16815260200190815260200160002060009054906101000a900460ff16806146d457506146d3838361550c565b5b905092915050565b60606000600167ffffffffffffffff811180156146f857600080fd5b506040519080825280602002602001820160405280156147275781602001602082028036833780820191505090505b509050828160008151811061473857fe5b60200260200101818152505080915050919050565b61476c8473ffffffffffffffffffffffffffffffffffffffff166152ac565b15614a52578373ffffffffffffffffffffffffffffffffffffffff1663f23a6e6187878686866040518663ffffffff1660e01b8152600401808673ffffffffffffffffffffffffffffffffffffffff1681526020018573ffffffffffffffffffffffffffffffffffffffff16815260200184815260200183815260200180602001828103825283818151815260200191508051906020019080838360005b8381101561482557808201518184015260208101905061480a565b50505050905090810190601f1680156148525780820380516001836020036101000a031916815260200191505b509650505050505050602060405180830381600087803b15801561487557600080fd5b505af19250505080156148a957506040513d602081101561489557600080fd5b810190808051906020019092919050505060015b6149b3576148b56170e2565b806148c05750614962565b806040517f08c379a00000000000000000000000000000000000000000000000000000000081526004018080602001828103825283818151815260200191508051906020019080838360005b8381101561492757808201518184015260208101905061490c565b50505050905090810190601f1680156149545780820380516001836020036101000a031916815260200191505b509250505060405180910390fd5b6040517f08c379a00000000000000000000000000000000000000000000000000000000081526004018080602001828103825260348152602001806172236034913960400191505060405180910390fd5b63f23a6e6160e01b7bffffffffffffffffffffffffffffffffffffffffffffffffffffffff1916817bffffffffffffffffffffffffffffffffffffffffffffffffffffffff191614614a50576040517f08c379a00000000000000000000000000000000000000000000000000000000081526004018080602001828103825260288152602001806172576028913960400191505060405180910390fd5b505b505050505050565b600073ffffffffffffffffffffffffffffffffffffffff168373ffffffffffffffffffffffffffffffffffffffff161415614ae0576040517f08c379a00000000000000000000000000000000000000000000000000000000081526004018080602001828103825260238152602001806173e66023913960400191505060405180910390fd5b6000614aea612749565b9050614b1a81856000614afc876146dc565b614b05876146dc565b604051806020016040528060008152506131ba565b614b97826040518060600160405280602481526020016172d0602491396097600087815260200190815260200160002060008873ffffffffffffffffffffffffffffffffffffffff1673ffffffffffffffffffffffffffffffffffffffff168152602001908152602001600020546131c29092919063ffffffff16565b6097600085815260200190815260200160002060008673ffffffffffffffffffffffffffffffffffffffff1673ffffffffffffffffffffffffffffffffffffffff16815260200190815260200160002081905550600073ffffffffffffffffffffffffffffffffffffffff168473ffffffffffffffffffffffffffffffffffffffff168273ffffffffffffffffffffffffffffffffffffffff167fc3d58168c5ae7397731d063d5bbf3d657854427343f4c083240f7aacaa2d0f628686604051808381526020018281526020019250505060405180910390a450505050565b60606000821415614cbe576040518060400160405280600181526020017f30000000000000000000000000000000000000000000000000000000000000008152509050614db8565b600082905060005b60008214614ce8578080600101915050600a8281614ce057fe5b049150614cc6565b60008167ffffffffffffffff81118015614d0157600080fd5b506040519080825280601f01601f191660200182016040528015614d345781602001600182028036833780820191505090505b50905060006001830390508593505b60008414614db057600a8481614d5557fe5b0660300160f81b82828060019003935081518110614d6f57fe5b60200101907effffffffffffffffffffffffffffffffffffffffffffffffffffffffffffff1916908160001a905350600a8481614da857fe5b049350614d43565b819450505050505b919050565b60007f397e04204c1e1a60ee8724b71f8244e10ab5f2e9009854d80f602bda21b59ebb82600001518360200151604051602001808481526020018373ffffffffffffffffffffffffffffffffffffffff168152602001826bffffffffffffffffffffffff1681526020019350505050604051602081830303815290604052805190602001209050919050565b6000614e54836155a0565b9050614e758473ffffffffffffffffffffffffffffffffffffffff166152ac565b1561509c57631626ba7e60e01b7bffffffffffffffffffffffffffffffffffffffffffffffffffffffff19168473ffffffffffffffffffffffffffffffffffffffff16631626ba7e83856040518363ffffffff1660e01b81526004018083815260200180602001828103825283818151815260200191508051906020019080838360005b83811015614f14578082015181840152602081019050614ef9565b50505050905090810190601f168015614f415780820380516001836020036101000a031916815260200191505b50935050505060206040518083038186803b158015614f5f57600080fd5b505afa158015614f73573d6000803e3d6000fd5b505050506040513d6020811015614f8957600080fd5b81019080805190602001909291905050507bffffffffffffffffffffffffffffffffffffffffffffffffffffffff1916146040518060400160405280601c81526020017f7369676e617475726520766572696669636174696f6e206572726f720000000081525090615096576040517f08c379a00000000000000000000000000000000000000000000000000000000081526004018080602001828103825283818151815260200191508051906020019080838360005b8381101561505b578082015181840152602081019050615040565b50505050905090810190601f1680156150885780820380516001836020036101000a031916815260200191505b509250505060405180910390fd5b506151bb565b8373ffffffffffffffffffffffffffffffffffffffff166150c6838361560790919063ffffffff16565b73ffffffffffffffffffffffffffffffffffffffff16146040518060400160405280601c81526020017f7369676e617475726520766572696669636174696f6e206572726f7200000000815250906151b9576040517f08c379a00000000000000000000000000000000000000000000000000000000081526004018080602001828103825283818151815260200191508051906020019080838360005b8381101561517e578082015181840152602081019050615163565b50505050905090810190601f1680156151ab5780820380516001836020036101000a031916815260200191505b509250505060405180910390fd5b505b50505050565b7f3fa96d7b6bcbfe71ef171666d84db3cf52fa2d1c8afdb1cc8e486177f208b7df82826040516151f2929190616d84565b60405180910390a15050565b60006152276101fd6000868152602001908152602001600020548461327c90919063ffffffff16565b90506101fc600085815260200190815260200160002054811115615280576040517f08c379a000000000000000000000000000000000000000000000000000000000815260040161527790616d09565b60405180910390fd5b806101fd6000868152602001908152602001600020819055506152a5858585856156b4565b5050505050565b600080823b905060008111915050919050565b63ffffffff60e01b817bffffffffffffffffffffffffffffffffffffffffffffffffffffffff1916141561535b576040517f08c379a000000000000000000000000000000000000000000000000000000000815260040180806020018281038252601c8152602001807f4552433136353a20696e76616c696420696e746572666163652069640000000081525060200191505060405180910390fd5b600160656000837bffffffffffffffffffffffffffffffffffffffffffffffffffffffff19167bffffffffffffffffffffffffffffffffffffffffffffffffffffffff1916815260200190815260200160002060006101000a81548160ff02191690831515021790555050565b600060019054906101000a900460ff16806153e757506153e66139ce565b5b806153fd575060008054906101000a900460ff16155b615452576040517f08c379a000000000000000000000000000000000000000000000000000000000815260040180806020018281038252602e815260200180617396602e913960400191505060405180910390fd5b60008060019054906101000a900460ff1615905080156154a2576001600060016101000a81548160ff02191690831515021790555060016000806101000a81548160ff0219169083151502179055505b60008380519060200120905060008380519060200120905081610162819055508061016381905550505080156154ed5760008060016101000a81548160ff0219169083151502179055505b505050565b8060999080519060200190615508929190615b83565b5050565b6000609860008473ffffffffffffffffffffffffffffffffffffffff1673ffffffffffffffffffffffffffffffffffffffff16815260200190815260200160002060008373ffffffffffffffffffffffffffffffffffffffff1673ffffffffffffffffffffffffffffffffffffffff16815260200190815260200160002060009054906101000a900460ff16905092915050565b60006155aa6158b7565b8260405160200180807f190100000000000000000000000000000000000000000000000000000000000081525060020183815260200182815260200192505050604051602081830303815290604052805190602001209050919050565b60006041825114615680576040517f08c379a000000000000000000000000000000000000000000000000000000000815260040180806020018281038252601f8152602001807f45434453413a20696e76616c6964207369676e6174757265206c656e6774680081525060200191505060405180910390fd5b60008060006020850151925060408501519150606085015160001a90506156a9868285856158f7565b935050505092915050565b600073ffffffffffffffffffffffffffffffffffffffff168473ffffffffffffffffffffffffffffffffffffffff16141561573a576040517f08c379a00000000000000000000000000000000000000000000000000000000081526004018080602001828103825260218152602001806174ad6021913960400191505060405180910390fd5b6000615744612749565b905061576581600087615756886146dc565b61575f886146dc565b876131ba565b6157c8836097600087815260200190815260200160002060008873ffffffffffffffffffffffffffffffffffffffff1673ffffffffffffffffffffffffffffffffffffffff1681526020019081526020016000205461327c90919063ffffffff16565b6097600086815260200190815260200160002060008773ffffffffffffffffffffffffffffffffffffffff1673ffffffffffffffffffffffffffffffffffffffff168152602001908152602001600020819055508473ffffffffffffffffffffffffffffffffffffffff16600073ffffffffffffffffffffffffffffffffffffffff168273ffffffffffffffffffffffffffffffffffffffff167fc3d58168c5ae7397731d063d5bbf3d657854427343f4c083240f7aacaa2d0f628787604051808381526020018281526020019250505060405180910390a46158b08160008787878761474d565b5050505050565b60006158f27f8b73c3c69bb8fe3d512ecc4cf759cc79239f7b179b0ffacaa9a75d522b39400f6158e5615af6565b6158ed615b01565b615b0c565b905090565b60007f7fffffffffffffffffffffffffffffff5d576e7357a4501ddfe92f46681b20a08260001c1115615975576040517f08c379a000000000000000000000000000000000000000000000000000000000815260040180806020018281038252602281526020018061731d6022913960400191505060405180910390fd5b601b8460ff16148061598a5750601c8460ff16145b6159df576040517f08c379a00000000000000000000000000000000000000000000000000000000081526004018080602001828103825260228152602001806173c46022913960400191505060405180910390fd5b600060018686868660405160008152602001604052604051808581526020018460ff1681526020018381526020018281526020019450505050506020604051602081039080840390855afa158015615a3b573d6000803e3d6000fd5b505050602060405103519050600073ffffffffffffffffffffffffffffffffffffffff168173ffffffffffffffffffffffffffffffffffffffff161415615aea576040517f08c379a00000000000000000000000000000000000000000000000000000000081526004018080602001828103825260188152602001807f45434453413a20696e76616c6964207369676e6174757265000000000000000081525060200191505060405180910390fd5b80915050949350505050565b600061016254905090565b600061016354905090565b6000838383615b19615b7b565b30604051602001808681526020018581526020018481526020018381526020018273ffffffffffffffffffffffffffffffffffffffff168152602001955050505050506040516020818303038152906040528051906020012090509392505050565b600046905090565b828054600181600116156101000203166002900490600052602060002090601f016020900481019282615bb95760008555615c00565b82601f10615bd257805160ff1916838001178555615c00565b82800160010185558215615c00579182015b82811115615bff578251825591602001919060010190615be4565b5b509050615c0d9190615c11565b5090565b5b80821115615c2a576000816000905550600101615c12565b5090565b6000615c41615c3c84616e0e565b616ddd565b90508083825260208201905082856020860282011115615c6057600080fd5b60005b85811015615c905781615c768882615e4b565b845260208401935060208301925050600181019050615c63565b5050509392505050565b6000615cad615ca884616e3a565b616ddd565b9050808382526020820190508260005b85811015615ced5781358501615cd38882615f47565b845260208401935060208301925050600181019050615cbd565b5050509392505050565b6000615d0a615d0584616e66565b616ddd565b90508083825260208201905082856040860282011115615d2957600080fd5b60005b85811015615d595781615d3f8882616097565b845260208401935060408301925050600181019050615d2c565b5050509392505050565b6000615d76615d7184616e92565b616ddd565b90508083825260208201905082856020860282011115615d9557600080fd5b60005b85811015615dc55781615dab88826160e3565b845260208401935060208301925050600181019050615d98565b5050509392505050565b6000615de2615ddd84616ebe565b616ddd565b905082815260208101848484011115615dfa57600080fd5b615e05848285617080565b509392505050565b6000615e20615e1b84616eee565b616ddd565b905082815260208101848484011115615e3857600080fd5b615e43848285617080565b509392505050565b600081359050615e5a81617198565b92915050565b600081359050615e6f816171af565b92915050565b600082601f830112615e8657600080fd5b8135615e96848260208601615c2e565b91505092915050565b600082601f830112615eb057600080fd5b8135615ec0848260208601615c9a565b91505092915050565b600082601f830112615eda57600080fd5b8135615eea848260208601615cf7565b91505092915050565b600082601f830112615f0457600080fd5b8135615f14848260208601615d63565b91505092915050565b600081359050615f2c816171c6565b92915050565b600081359050615f41816171dd565b92915050565b600082601f830112615f5857600080fd5b8135615f68848260208601615dcf565b91505092915050565b600082601f830112615f8257600080fd5b8135615f92848260208601615e0d565b91505092915050565b600060c08284031215615fad57600080fd5b615fb760c0616ddd565b90506000615fc7848285016160e3565b600083015250602082013567ffffffffffffffff811115615fe757600080fd5b615ff384828501615f71565b6020830152506040616007848285016160e3565b604083015250606082013567ffffffffffffffff81111561602757600080fd5b61603384828501615ec9565b606083015250608082013567ffffffffffffffff81111561605357600080fd5b61605f84828501615ec9565b60808301525060a082013567ffffffffffffffff81111561607f57600080fd5b61608b84828501615e9f565b60a08301525092915050565b6000604082840312156160a957600080fd5b6160b36040616ddd565b905060006160c384828501615e60565b60008301525060206160d7848285016160f8565b60208301525092915050565b6000813590506160f2816171f4565b92915050565b6000813590506161078161720b565b92915050565b60006020828403121561611f57600080fd5b600061612d84828501615e4b565b91505092915050565b6000806040838503121561614957600080fd5b600061615785828601615e4b565b925050602061616885828601615e4b565b9150509250929050565b600080600080600060a0868803121561618a57600080fd5b600061619888828901615e4b565b95505060206161a988828901615e4b565b945050604086013567ffffffffffffffff8111156161c657600080fd5b6161d288828901615ef3565b935050606086013567ffffffffffffffff8111156161ef57600080fd5b6161fb88828901615ef3565b925050608086013567ffffffffffffffff81111561621857600080fd5b61622488828901615f47565b9150509295509295909350565b600080600080600060a0868803121561624957600080fd5b600061625788828901615e4b565b955050602061626888828901615e4b565b9450506040616279888289016160e3565b935050606061628a888289016160e3565b925050608086013567ffffffffffffffff8111156162a757600080fd5b6162b388828901615f47565b9150509295509295909350565b6000806000606084860312156162d557600080fd5b60006162e386828701615e4b565b935050602084013567ffffffffffffffff81111561630057600080fd5b61630c86828701615ef3565b925050604084013567ffffffffffffffff81111561632957600080fd5b61633586828701615ef3565b9150509250925092565b6000806040838503121561635257600080fd5b600061636085828601615e4b565b925050602061637185828601615f1d565b9150509250929050565b6000806040838503121561638e57600080fd5b600061639c85828601615e4b565b92505060206163ad858286016160e3565b9150509250929050565b6000806000606084860312156163cc57600080fd5b60006163da86828701615e4b565b93505060206163eb868287016160e3565b92505060406163fc868287016160e3565b9150509250925092565b6000806040838503121561641957600080fd5b600083013567ffffffffffffffff81111561643357600080fd5b61643f85828601615e75565b925050602083013567ffffffffffffffff81111561645c57600080fd5b61646885828601615ef3565b9150509250929050565b60006020828403121561648457600080fd5b600061649284828501615f32565b91505092915050565b600080600080608085870312156164b157600080fd5b600085013567ffffffffffffffff8111156164cb57600080fd5b6164d787828801615f71565b945050602085013567ffffffffffffffff8111156164f457600080fd5b61650087828801615f71565b935050604085013567ffffffffffffffff81111561651d57600080fd5b61652987828801615f71565b925050606085013567ffffffffffffffff81111561654657600080fd5b61655287828801615f71565b91505092959194509250565b6000806000806080858703121561657457600080fd5b600085013567ffffffffffffffff81111561658e57600080fd5b61659a87828801615f9b565b94505060206165ab87828801615e4b565b93505060406165bc87828801615e4b565b92505060606165cd878288016160e3565b91505092959194509250565b6000806000606084860312156165ee57600080fd5b600084013567ffffffffffffffff81111561660857600080fd5b61661486828701615f9b565b935050602061662586828701615e4b565b9250506040616636868287016160e3565b9150509250925092565b6000806000806080858703121561665657600080fd5b600085013567ffffffffffffffff81111561667057600080fd5b61667c87828801615f9b565b945050602085013567ffffffffffffffff81111561669957600080fd5b6166a587828801615f71565b93505060406166b687828801615e4b565b92505060606166c7878288016160e3565b91505092959194509250565b6000602082840312156166e557600080fd5b60006166f3848285016160e3565b91505092915050565b6000806040838503121561670f57600080fd5b600061671d858286016160e3565b925050602061672e858286016160e3565b9150509250929050565b60006167448383616af4565b60408301905092915050565b600061675c8383616b23565b60208301905092915050565b6167718161704a565b82525050565b61678081616fbe565b82525050565b61678f81616fbe565b82525050565b61679e81616fac565b82525050565b60006167af82616f3e565b6167b98185616f79565b93506167c483616f1e565b8060005b838110156167f55781516167dc8882616738565b97506167e783616f5f565b9250506001810190506167c8565b5085935050505092915050565b600061680d82616f49565b6168178185616f8a565b935061682283616f2e565b8060005b8381101561685357815161683a8882616750565b975061684583616f6c565b925050600181019050616826565b5085935050505092915050565b61686981616fd0565b82525050565b600061687a82616f54565b6168848185616f9b565b935061689481856020860161708f565b61689d816170c4565b840191505092915050565b60006168b5601083616f9b565b91507f737570706c7920696e636f7272656374000000000000000000000000000000006000830152602082019050919050565b60006168f5602083616f9b565b91507f43726561746f722073686172652073686f756c6420626520706f7369746976656000830152602082019050919050565b6000616935601183616f9b565b91507f746f6b656e496420696e636f72726563740000000000000000000000000000006000830152602082019050919050565b6000616975601083616f9b565b91507f616d6f756e7420696e636f7272656374000000000000000000000000000000006000830152602082019050919050565b60006169b5602883616f9b565b91507f455243313135353a207472616e736665722063616c6c6572206973206e6f742060008301527f617070726f7665640000000000000000000000000000000000000000000000006020830152604082019050919050565b6000616a1b601083616f9b565b91507f6d6f7265207468616e20737570706c79000000000000000000000000000000006000830152602082019050919050565b6000616a5b601983616f9b565b91507f4163636f756e742073686f756c642062652070726573656e74000000000000006000830152602082019050919050565b6000616a9b602e83616f9b565b91507f746f74616c20616d6f756e74206f662063726561746f7273207368617265207360008301527f686f756c642062652031303030300000000000000000000000000000000000006020830152604082019050919050565b604082016000820151616b0a6000850182616777565b506020820151616b1d6020850182616b41565b50505050565b616b2c81617028565b82525050565b616b3b81617028565b82525050565b616b4a81617032565b82525050565b616b5981617032565b82525050565b6000602082019050616b746000830184616795565b92915050565b6000606082019050616b8f6000830186616768565b8181036020830152616ba1818561686f565b90508181036040830152616bb5818461686f565b9050949350505050565b6000604082019050616bd46000830185616786565b616be16020830184616b50565b9392505050565b60006020820190508181036000830152616c0281846167a4565b905092915050565b60006020820190508181036000830152616c248184616802565b905092915050565b6000602082019050616c416000830184616860565b92915050565b60006020820190508181036000830152616c61818461686f565b905092915050565b60006020820190508181036000830152616c82816168a8565b9050919050565b60006020820190508181036000830152616ca2816168e8565b9050919050565b60006020820190508181036000830152616cc281616928565b9050919050565b60006020820190508181036000830152616ce281616968565b9050919050565b60006020820190508181036000830152616d02816169a8565b9050919050565b60006020820190508181036000830152616d2281616a0e565b9050919050565b60006020820190508181036000830152616d4281616a4e565b9050919050565b60006020820190508181036000830152616d6281616a8e565b9050919050565b6000602082019050616d7e6000830184616b32565b92915050565b6000604082019050616d996000830185616b32565b8181036020830152616dab81846167a4565b90509392505050565b6000604082019050616dc96000830185616b32565b616dd66020830184616b32565b9392505050565b6000604051905081810181811067ffffffffffffffff82111715616e0457616e036170c2565b5b8060405250919050565b600067ffffffffffffffff821115616e2957616e286170c2565b5b602082029050602081019050919050565b600067ffffffffffffffff821115616e5557616e546170c2565b5b602082029050602081019050919050565b600067ffffffffffffffff821115616e8157616e806170c2565b5b602082029050602081019050919050565b600067ffffffffffffffff821115616ead57616eac6170c2565b5b602082029050602081019050919050565b600067ffffffffffffffff821115616ed957616ed86170c2565b5b601f19601f8301169050602081019050919050565b600067ffffffffffffffff821115616f0957616f086170c2565b5b601f19601f8301169050602081019050919050565b6000819050602082019050919050565b6000819050602082019050919050565b600081519050919050565b600081519050919050565b600081519050919050565b6000602082019050919050565b6000602082019050919050565b600082825260208201905092915050565b600082825260208201905092915050565b600082825260208201905092915050565b6000616fb782617008565b9050919050565b6000616fc982617008565b9050919050565b60008115159050919050565b60007fffffffff0000000000000000000000000000000000000000000000000000000082169050919050565b600073ffffffffffffffffffffffffffffffffffffffff82169050919050565b6000819050919050565b60006bffffffffffffffffffffffff82169050919050565b60006170558261705c565b9050919050565b60006170678261706e565b9050919050565b600061707982617008565b9050919050565b82818337600083830152505050565b60005b838110156170ad578082015181840152602081019050617092565b838111156170bc576000848401525b50505050565bfe5b6000601f19601f8301169050919050565b60008160e01c9050919050565b600060443d10156170f257617195565b60046000803e6171036000516170d5565b6308c379a081146171145750617195565b60405160043d036004823e80513d602482011167ffffffffffffffff8211171561714057505050617195565b808201805167ffffffffffffffff81111561715f575050505050617195565b8060208301013d850181111561717a57505050505050617195565b617183826170c4565b60208401016040528296505050505050505b90565b6171a181616fac565b81146171ac57600080fd5b50565b6171b881616fbe565b81146171c357600080fd5b50565b6171cf81616fd0565b81146171da57600080fd5b50565b6171e681616fdc565b81146171f157600080fd5b50565b6171fd81617028565b811461720857600080fd5b50565b61721481617032565b811461721f57600080fd5b5056fe455243313135353a207472616e7366657220746f206e6f6e2045524331313535526563656976657220696d706c656d656e746572455243313135353a204552433131353552656365697665722072656a656374656420746f6b656e73455243313135353a2062616c616e636520717565727920666f7220746865207a65726f20616464726573734f776e61626c653a206e6577206f776e657220697320746865207a65726f2061646472657373455243313135353a206275726e20616d6f756e7420657863656564732062616c616e6365455243313135353a2063616c6c6572206973206e6f74206f776e6572206e6f7220617070726f76656445434453413a20696e76616c6964207369676e6174757265202773272076616c7565455243313135353a207472616e7366657220746f20746865207a65726f2061646472657373455243313135353a207472616e736665722063616c6c6572206973206e6f74206f776e6572206e6f7220617070726f766564496e697469616c697a61626c653a20636f6e747261637420697320616c726561647920696e697469616c697a656445434453413a20696e76616c6964207369676e6174757265202776272076616c7565455243313135353a206275726e2066726f6d20746865207a65726f2061646472657373455243313135353a20696e73756666696369656e742062616c616e636520666f72207472616e73666572455243313135353a2073657474696e6720617070726f76616c2073746174757320666f722073656c66455243313135353a206163636f756e747320616e6420696473206c656e677468206d69736d61746368455243313135353a2069647320616e6420616d6f756e7473206c656e677468206d69736d61746368455243313135353a206d696e7420746f20746865207a65726f2061646472657373a26469706673582212209bebefeddbb9c83a35c0eccc5d0ad5793da6dd1598d26d9ef6b41620449efec764736f6c63430007060033",
  "linkReferences": {},
  "deployedLinkReferences": {}
}