{
  "_format": "hh-sol-artifact-1",
  "contractName": "EcoFiERC1155",
  "sourceName": "contracts/EcoFiERC1155.sol",
  "abi": [
    {
      "anonymous": false,
      "inputs": [
        {
          "indexed": true,
          "internalType": "address",
          "name": "account",
          "type": "address"
        },
        {
          "indexed": true,
          "internalType": "address",
          "name": "operator",
          "type": "address"
        },
        {
          "indexed": false,
          "internalType": "bool",
          "name": "approved",
          "type": "bool"
        }
      ],
      "name": "ApprovalForAll",
      "type": "event"
    },
    {
      "anonymous": false,
      "inputs": [
        {
          "indexed": false,
          "internalType": "address",
          "name": "owner",
          "type": "address"
        },
        {
          "indexed": false,
          "internalType": "string",
          "name": "name",
          "type": "string"
        },
        {
          "indexed": false,
          "internalType": "string",
          "name": "symbol",
          "type": "string"
        }
      ],
      "name": "CreateEcoFiERC1155",
      "type": "event"
    },
    {
      "anonymous": false,
      "inputs": [
        {
          "indexed": false,
          "internalType": "uint256",
          "name": "tokenId",
          "type": "uint256"
        },
        {
          "components": [
            {
              "internalType": "address payable",
              "name": "account",
              "type": "address"
            },
            {
              "internalType": "uint96",
              "name": "value",
              "type": "uint96"
            }
          ],
          "indexed": false,
          "internalType": "struct LibPart.Part[]",
          "name": "creators",
          "type": "tuple[]"
        }
      ],
      "name": "Creators",
      "type": "event"
    },
    {
      "anonymous": false,
      "inputs": [
        {
          "indexed": true,
          "internalType": "address",
          "name": "operator",
          "type": "address"
        },
        {
          "indexed": false,
          "internalType": "bool",
          "name": "hasApproval",
          "type": "bool"
        }
      ],
      "name": "DefaultApproval",
      "type": "event"
    },
    {
      "anonymous": false,
      "inputs": [
        {
          "indexed": false,
          "internalType": "string",
          "name": "value",
          "type": "string"
        },
        {
          "indexed": true,
          "internalType": "uint256",
          "name": "id",
          "type": "uint256"
        }
      ],
      "name": "Image",
      "type": "event"
    },
    {
      "anonymous": false,
      "inputs": [
        {
          "indexed": true,
          "internalType": "address",
          "name": "previousOwner",
          "type": "address"
        },
        {
          "indexed": true,
          "internalType": "address",
          "name": "newOwner",
          "type": "address"
        }
      ],
      "name": "OwnershipTransferred",
      "type": "event"
    },
    {
      "anonymous": false,
      "inputs": [
        {
          "indexed": false,
          "internalType": "uint256",
          "name": "tokenId",
          "type": "uint256"
        },
        {
          "components": [
            {
              "internalType": "address payable",
              "name": "account",
              "type": "address"
            },
            {
              "internalType": "uint96",
              "name": "value",
              "type": "uint96"
            }
          ],
          "indexed": false,
          "internalType": "struct LibPart.Part[]",
          "name": "royalties",
          "type": "tuple[]"
        }
      ],
      "name": "RoyaltiesSet",
      "type": "event"
    },
    {
      "anonymous": false,
      "inputs": [
        {
          "indexed": false,
          "internalType": "uint256",
          "name": "tokenId",
          "type": "uint256"
        },
        {
          "indexed": false,
          "internalType": "uint256",
          "name": "value",
          "type": "uint256"
        }
      ],
      "name": "Supply",
      "type": "event"
    },
    {
      "anonymous": false,
      "inputs": [
        {
          "indexed": true,
          "internalType": "address",
          "name": "operator",
          "type": "address"
        },
        {
          "indexed": true,
          "internalType": "address",
          "name": "from",
          "type": "address"
        },
        {
          "indexed": true,
          "internalType": "address",
          "name": "to",
          "type": "address"
        },
        {
          "indexed": false,
          "internalType": "uint256[]",
          "name": "ids",
          "type": "uint256[]"
        },
        {
          "indexed": false,
          "internalType": "uint256[]",
          "name": "values",
          "type": "uint256[]"
        }
      ],
      "name": "TransferBatch",
      "type": "event"
    },
    {
      "anonymous": false,
      "inputs": [
        {
          "indexed": true,
          "internalType": "address",
          "name": "operator",
          "type": "address"
        },
        {
          "indexed": true,
          "internalType": "address",
          "name": "from",
          "type": "address"
        },
        {
          "indexed": true,
          "internalType": "address",
          "name": "to",
          "type": "address"
        },
        {
          "indexed": false,
          "internalType": "uint256",
          "name": "id",
          "type": "uint256"
        },
        {
          "indexed": false,
          "internalType": "uint256",
          "name": "value",
          "type": "uint256"
        }
      ],
      "name": "TransferSingle",
      "type": "event"
    },
    {
      "anonymous": false,
      "inputs": [
        {
          "indexed": false,
          "internalType": "string",
          "name": "value",
          "type": "string"
        },
        {
          "indexed": true,
          "internalType": "uint256",
          "name": "id",
          "type": "uint256"
        }
      ],
      "name": "URI",
      "type": "event"
    },
    {
      "inputs": [
        {
          "internalType": "string",
          "name": "_name",
          "type": "string"
        },
        {
          "internalType": "string",
          "name": "_symbol",
          "type": "string"
        },
        {
          "internalType": "string",
          "name": "baseURI",
          "type": "string"
        },
        {
          "internalType": "string",
          "name": "contractURI",
          "type": "string"
        },
        {
          "internalType": "address",
          "name": "_address",
          "type": "address"
        }
      ],
      "name": "__EcoFiERC1155_init",
      "outputs": [],
      "stateMutability": "nonpayable",
      "type": "function"
    },
    {
      "inputs": [
        {
          "internalType": "address",
          "name": "account",
          "type": "address"
        },
        {
          "internalType": "uint256",
          "name": "id",
          "type": "uint256"
        }
      ],
      "name": "balanceOf",
      "outputs": [
        {
          "internalType": "uint256",
          "name": "",
          "type": "uint256"
        }
      ],
      "stateMutability": "view",
      "type": "function"
    },
    {
      "inputs": [
        {
          "internalType": "address[]",
          "name": "accounts",
          "type": "address[]"
        },
        {
          "internalType": "uint256[]",
          "name": "ids",
          "type": "uint256[]"
        }
      ],
      "name": "balanceOfBatch",
      "outputs": [
        {
          "internalType": "uint256[]",
          "name": "",
          "type": "uint256[]"
        }
      ],
      "stateMutability": "view",
      "type": "function"
    },
    {
      "inputs": [],
      "name": "baseURI",
      "outputs": [
        {
          "internalType": "string",
          "name": "",
          "type": "string"
        }
      ],
      "stateMutability": "view",
      "type": "function"
    },
    {
      "inputs": [
        {
          "internalType": "address",
          "name": "account",
          "type": "address"
        },
        {
          "internalType": "uint256",
          "name": "id",
          "type": "uint256"
        },
        {
          "internalType": "uint256",
          "name": "value",
          "type": "uint256"
        }
      ],
      "name": "burn",
      "outputs": [],
      "stateMutability": "nonpayable",
      "type": "function"
    },
    {
      "inputs": [
        {
          "internalType": "address",
          "name": "account",
          "type": "address"
        },
        {
          "internalType": "uint256[]",
          "name": "ids",
          "type": "uint256[]"
        },
        {
          "internalType": "uint256[]",
          "name": "values",
          "type": "uint256[]"
        }
      ],
      "name": "burnBatch",
      "outputs": [],
      "stateMutability": "nonpayable",
      "type": "function"
    },
    {
      "inputs": [],
      "name": "contractURI",
      "outputs": [
        {
          "internalType": "string",
          "name": "",
          "type": "string"
        }
      ],
      "stateMutability": "view",
      "type": "function"
    },
    {
      "inputs": [
        {
          "internalType": "uint256",
          "name": "",
          "type": "uint256"
        },
        {
          "internalType": "uint256",
          "name": "",
          "type": "uint256"
        }
      ],
      "name": "creators",
      "outputs": [
        {
          "internalType": "address payable",
          "name": "account",
          "type": "address"
        },
        {
          "internalType": "uint96",
          "name": "value",
          "type": "uint96"
        }
      ],
      "stateMutability": "view",
      "type": "function"
    },
    {
      "inputs": [
        {
          "internalType": "uint256",
          "name": "_id",
          "type": "uint256"
        }
      ],
      "name": "getCreators",
      "outputs": [
        {
          "components": [
            {
              "internalType": "address payable",
              "name": "account",
              "type": "address"
            },
            {
              "internalType": "uint96",
              "name": "value",
              "type": "uint96"
            }
          ],
          "internalType": "struct LibPart.Part[]",
          "name": "",
          "type": "tuple[]"
        }
      ],
      "stateMutability": "view",
      "type": "function"
    },
    {
      "inputs": [
        {
          "internalType": "uint256",
          "name": "id",
          "type": "uint256"
        }
      ],
      "name": "getRoyalties",
      "outputs": [
        {
          "components": [
            {
              "internalType": "address payable",
              "name": "account",
              "type": "address"
            },
            {
              "internalType": "uint96",
              "name": "value",
              "type": "uint96"
            }
          ],
          "internalType": "struct LibPart.Part[]",
          "name": "",
          "type": "tuple[]"
        }
      ],
      "stateMutability": "view",
      "type": "function"
    },
    {
      "inputs": [
        {
          "internalType": "uint256",
          "name": "id",
          "type": "uint256"
        }
      ],
      "name": "image",
      "outputs": [
        {
          "internalType": "string",
          "name": "",
          "type": "string"
        }
      ],
      "stateMutability": "view",
      "type": "function"
    },
    {
      "inputs": [
        {
          "internalType": "address",
          "name": "_owner",
          "type": "address"
        },
        {
          "internalType": "address",
          "name": "_operator",
          "type": "address"
        }
      ],
      "name": "isApprovedForAll",
      "outputs": [
        {
          "internalType": "bool",
          "name": "",
          "type": "bool"
        }
      ],
      "stateMutability": "view",
      "type": "function"
    },
    {
      "inputs": [
        {
          "components": [
            {
              "internalType": "uint256",
              "name": "tokenId",
              "type": "uint256"
            },
            {
              "internalType": "string",
              "name": "uri",
              "type": "string"
            },
            {
              "internalType": "uint256",
              "name": "supply",
              "type": "uint256"
            },
            {
              "components": [
                {
                  "internalType": "address payable",
                  "name": "account",
                  "type": "address"
                },
                {
                  "internalType": "uint96",
                  "name": "value",
                  "type": "uint96"
                }
              ],
              "internalType": "struct LibPart.Part[]",
              "name": "creators",
              "type": "tuple[]"
            },
            {
              "components": [
                {
                  "internalType": "address payable",
                  "name": "account",
                  "type": "address"
                },
                {
                  "internalType": "uint96",
                  "name": "value",
                  "type": "uint96"
                }
              ],
              "internalType": "struct LibPart.Part[]",
              "name": "royalties",
              "type": "tuple[]"
            },
            {
              "internalType": "bytes[]",
              "name": "signatures",
              "type": "bytes[]"
            }
          ],
          "internalType": "struct LibERC1155LazyMint.Mint1155Data",
          "name": "data",
          "type": "tuple"
        },
        {
          "internalType": "address",
          "name": "to",
          "type": "address"
        },
        {
          "internalType": "uint256",
          "name": "_amount",
          "type": "uint256"
        }
      ],
      "name": "mintAndTransfer",
      "outputs": [],
      "stateMutability": "nonpayable",
      "type": "function"
    },
    {
      "inputs": [
        {
          "components": [
            {
              "internalType": "uint256",
              "name": "tokenId",
              "type": "uint256"
            },
            {
              "internalType": "string",
              "name": "uri",
              "type": "string"
            },
            {
              "internalType": "uint256",
              "name": "supply",
              "type": "uint256"
            },
            {
              "components": [
                {
                  "internalType": "address payable",
                  "name": "account",
                  "type": "address"
                },
                {
                  "internalType": "uint96",
                  "name": "value",
                  "type": "uint96"
                }
              ],
              "internalType": "struct LibPart.Part[]",
              "name": "creators",
              "type": "tuple[]"
            },
            {
              "components": [
                {
                  "internalType": "address payable",
                  "name": "account",
                  "type": "address"
                },
                {
                  "internalType": "uint96",
                  "name": "value",
                  "type": "uint96"
                }
              ],
              "internalType": "struct LibPart.Part[]",
              "name": "royalties",
              "type": "tuple[]"
            },
            {
              "internalType": "bytes[]",
              "name": "signatures",
              "type": "bytes[]"
            }
          ],
          "internalType": "struct LibERC1155LazyMint.Mint1155Data",
          "name": "data",
          "type": "tuple"
        },
        {
          "internalType": "string",
          "name": "image",
          "type": "string"
        },
        {
          "internalType": "address",
          "name": "to",
          "type": "address"
        },
        {
          "internalType": "uint256",
          "name": "_amount",
          "type": "uint256"
        }
      ],
      "name": "mintWithImage",
      "outputs": [],
      "stateMutability": "nonpayable",
      "type": "function"
    },
    {
      "inputs": [],
      "name": "name",
      "outputs": [
        {
          "internalType": "string",
          "name": "",
          "type": "string"
        }
      ],
      "stateMutability": "view",
      "type": "function"
    },
    {
      "inputs": [],
      "name": "owner",
      "outputs": [
        {
          "internalType": "address",
          "name": "",
          "type": "address"
        }
      ],
      "stateMutability": "view",
      "type": "function"
    },
    {
      "inputs": [],
      "name": "renounceOwnership",
      "outputs": [],
      "stateMutability": "nonpayable",
      "type": "function"
    },
    {
      "inputs": [
        {
          "internalType": "uint256",
          "name": "",
          "type": "uint256"
        },
        {
          "internalType": "uint256",
          "name": "",
          "type": "uint256"
        }
      ],
      "name": "royalties",
      "outputs": [
        {
          "internalType": "address payable",
          "name": "account",
          "type": "address"
        },
        {
          "internalType": "uint96",
          "name": "value",
          "type": "uint96"
        }
      ],
      "stateMutability": "view",
      "type": "function"
    },
    {
      "inputs": [
        {
          "internalType": "address",
          "name": "from",
          "type": "address"
        },
        {
          "internalType": "address",
          "name": "to",
          "type": "address"
        },
        {
          "internalType": "uint256[]",
          "name": "ids",
          "type": "uint256[]"
        },
        {
          "internalType": "uint256[]",
          "name": "amounts",
          "type": "uint256[]"
        },
        {
          "internalType": "bytes",
          "name": "data",
          "type": "bytes"
        }
      ],
      "name": "safeBatchTransferFrom",
      "outputs": [],
      "stateMutability": "nonpayable",
      "type": "function"
    },
    {
      "inputs": [
        {
          "internalType": "address",
          "name": "from",
          "type": "address"
        },
        {
          "internalType": "address",
          "name": "to",
          "type": "address"
        },
        {
          "internalType": "uint256",
          "name": "id",
          "type": "uint256"
        },
        {
          "internalType": "uint256",
          "name": "amount",
          "type": "uint256"
        },
        {
          "internalType": "bytes",
          "name": "data",
          "type": "bytes"
        }
      ],
      "name": "safeTransferFrom",
      "outputs": [],
      "stateMutability": "nonpayable",
      "type": "function"
    },
    {
      "inputs": [
        {
          "internalType": "address",
          "name": "operator",
          "type": "address"
        },
        {
          "internalType": "bool",
          "name": "approved",
          "type": "bool"
        }
      ],
      "name": "setApprovalForAll",
      "outputs": [],
      "stateMutability": "nonpayable",
      "type": "function"
    },
    {
      "inputs": [
        {
          "internalType": "address",
          "name": "operator",
          "type": "address"
        },
        {
          "internalType": "bool",
          "name": "hasApproval",
          "type": "bool"
        }
      ],
      "name": "setDefaultApproval",
      "outputs": [],
      "stateMutability": "nonpayable",
      "type": "function"
    },
    {
      "inputs": [
        {
          "internalType": "bytes4",
          "name": "interfaceId",
          "type": "bytes4"
        }
      ],
      "name": "supportsInterface",
      "outputs": [
        {
          "internalType": "bool",
          "name": "",
          "type": "bool"
        }
      ],
      "stateMutability": "view",
      "type": "function"
    },
    {
      "inputs": [],
      "name": "symbol",
      "outputs": [
        {
          "internalType": "string",
          "name": "",
          "type": "string"
        }
      ],
      "stateMutability": "view",
      "type": "function"
    },
    {
      "inputs": [
        {
          "components": [
            {
              "internalType": "uint256",
              "name": "tokenId",
              "type": "uint256"
            },
            {
              "internalType": "string",
              "name": "uri",
              "type": "string"
            },
            {
              "internalType": "uint256",
              "name": "supply",
              "type": "uint256"
            },
            {
              "components": [
                {
                  "internalType": "address payable",
                  "name": "account",
                  "type": "address"
                },
                {
                  "internalType": "uint96",
                  "name": "value",
                  "type": "uint96"
                }
              ],
              "internalType": "struct LibPart.Part[]",
              "name": "creators",
              "type": "tuple[]"
            },
            {
              "components": [
                {
                  "internalType": "address payable",
                  "name": "account",
                  "type": "address"
                },
                {
                  "internalType": "uint96",
                  "name": "value",
                  "type": "uint96"
                }
              ],
              "internalType": "struct LibPart.Part[]",
              "name": "royalties",
              "type": "tuple[]"
            },
            {
              "internalType": "bytes[]",
              "name": "signatures",
              "type": "bytes[]"
            }
          ],
          "internalType": "struct LibERC1155LazyMint.Mint1155Data",
          "name": "data",
          "type": "tuple"
        },
        {
          "internalType": "address",
          "name": "from",
          "type": "address"
        },
        {
          "internalType": "address",
          "name": "to",
          "type": "address"
        },
        {
          "internalType": "uint256",
          "name": "amount",
          "type": "uint256"
        }
      ],
      "name": "transferFromOrMint",
      "outputs": [],
      "stateMutability": "nonpayable",
      "type": "function"
    },
    {
      "inputs": [
        {
          "internalType": "address",
          "name": "newOwner",
          "type": "address"
        }
      ],
      "name": "transferOwnership",
      "outputs": [],
      "stateMutability": "nonpayable",
      "type": "function"
    },
    {
      "inputs": [
        {
          "internalType": "uint256",
          "name": "id",
          "type": "uint256"
        }
      ],
      "name": "uri",
      "outputs": [
        {
          "internalType": "string",
          "name": "",
          "type": "string"
        }
      ],
      "stateMutability": "view",
      "type": "function"
    }
  ],
  "bytecode": "0x608060405234801561001057600080fd5b5061751180620000216000396000f3fe608060405234801561001057600080fd5b50600436106101a85760003560e01c80638924af74116100f9578063e582675111610097578063f242432a11610071578063f242432a146104f3578063f2fde38b1461050f578063f5298aca1461052b578063ffc4e0a714610547576101a8565b8063e582675114610489578063e8a3d485146104a5578063e985e9c5146104c3576101a8565b806398d0b4fb116100d357806398d0b4fb146103dc578063a22cb4651461040d578063bb3bafd614610429578063c79178c614610459576101a8565b80638924af741461036f5780638da5cb5b146103a057806395d89b41146103be576101a8565b80631e014a4b116101665780636b20c454116101405780636b20c454146102fb5780636c0360eb14610317578063715018a614610335578063891be9741461033f576101a8565b80631e014a4b146102935780632eb2c2d6146102af5780634e1273f4146102cb576101a8565b8062fdd58e146101ad57806301ffc9a7146101dd57806306fdde031461020d5780630e89341c1461022b5780630eaead671461025b57806318054c3714610277575b600080fd5b6101c760048036038101906101c29190616375565b610563565b6040516101d49190616d77565b60405180910390f35b6101f760048036038101906101f2919061646c565b610643565b6040516102049190616c3a565b60405180910390f35b6102156106ab565b6040516102229190616c55565b60405180910390f35b610245600480360381019061024091906166e1565b61074a565b6040516102529190616c55565b60405180910390f35b610275600480360381019061027091906165e7565b61075c565b005b610291600480360381019061028c9190616339565b610a51565b005b6102ad60048036038101906102a8919061664e565b610b0e565b005b6102c960048036038101906102c4919061616c565b610e06565b005b6102e560048036038101906102e09190616400565b611291565b6040516102f29190616c18565b60405180910390f35b610315600480360381019061031091906162ba565b6113a3565b005b61031f611456565b60405161032c9190616c55565b60405180910390f35b61033d6114f9565b005b610359600480360381019061035491906166e1565b611669565b6040516103669190616bf6565b60405180910390f35b6103896004803603810190610384919061670a565b61176c565b604051610397929190616bcd565b60405180910390f35b6103a86117e2565b6040516103b59190616b6d565b60405180910390f35b6103c661180c565b6040516103d39190616c55565b60405180910390f35b6103f660048036038101906103f1919061670a565b6118ab565b604051610404929190616bcd565b60405180910390f35b61042760048036038101906104229190616339565b611921565b005b610443600480360381019061043e91906166e1565b611aba565b6040516104509190616bf6565b60405180910390f35b610473600480360381019061046e91906166e1565b611bbd565b6040516104809190616c55565b60405180910390f35b6104a3600480360381019061049e9190616495565b611bcf565b005b6104ad611d8b565b6040516104ba9190616c55565b60405180910390f35b6104dd60048036038101906104d89190616130565b611e2a565b6040516104ea9190616c3a565b60405180910390f35b61050d6004803603810190610508919061622b565b611e3e565b005b61052960048036038101906105249190616107565b6121b3565b005b610545600480360381019061054091906163b1565b6123a8565b005b610561600480360381019061055c919061656c565b61245b565b005b60008073ffffffffffffffffffffffffffffffffffffffff168373ffffffffffffffffffffffffffffffffffffffff1614156105ea576040517f08c379a000000000000000000000000000000000000000000000000000000000815260040180806020018281038252602b81526020018061728d602b913960400191505060405180910390fd5b6097600083815260200190815260200160002060008473ffffffffffffffffffffffffffffffffffffffff1673ffffffffffffffffffffffffffffffffffffffff16815260200190815260200160002054905092915050565b600060656000837bffffffffffffffffffffffffffffffffffffffffffffffffffffffff19167bffffffffffffffffffffffffffffffffffffffffffffffffffffffff1916815260200190815260200160002060009054906101000a900460ff169050919050565b6102628054600181600116156101000203166002900480601f0160208091040260200160405190810160405280929190818152602001828054600181600116156101000203166002900480156107425780601f1061071757610100808354040283529160200191610742565b820191906000526020600020905b81548152906001019060200180831161072557829003601f168201915b505050505081565b6060610755826124cf565b9050919050565b600060608460000151901c90506000610773612743565b90508073ffffffffffffffffffffffffffffffffffffffff168273ffffffffffffffffffffffffffffffffffffffff1614806107b557506107b48282611e2a565b5b6107f4576040517f08c379a00000000000000000000000000000000000000000000000000000000081526004016107eb90616cf7565b60405180910390fd5b60008311610837576040517f08c379a000000000000000000000000000000000000000000000000000000000815260040161082e90616cd7565b60405180910390fd5b60006101fc600087600001518152602001908152602001600020541415610a2b57846060015160008151811061086957fe5b60200260200101516000015173ffffffffffffffffffffffffffffffffffffffff168273ffffffffffffffffffffffffffffffffffffffff16146108e2576040517f08c379a00000000000000000000000000000000000000000000000000000000081526004016108d990616cb7565b60405180910390fd5b6000856040015111610929576040517f08c379a000000000000000000000000000000000000000000000000000000000815260040161092090616c77565b60405180910390fd5b8460a00151518560600151511461093f57600080fd5b600061094a8661274b565b905060005b8660600151518110156109e05760008760600151828151811061096e57fe5b60200260200101516000015190508373ffffffffffffffffffffffffffffffffffffffff168173ffffffffffffffffffffffffffffffffffffffff16146109d2576109d181848a60a0015185815181106109c457fe5b60200260200101516129c9565b5b50808060010191505061094f565b506109f3866000015187604001516129d9565b610a0586600001518760800151612a50565b610a1786600001518760600151612c9b565b610a2986600001518760200151612f35565b505b610a4a8486600001518560405180602001604052806000815250613007565b5050505050565b610a59612743565b73ffffffffffffffffffffffffffffffffffffffff16610a776117e2565b73ffffffffffffffffffffffffffffffffffffffff1614610b00576040517f08c379a00000000000000000000000000000000000000000000000000000000081526004018080602001828103825260208152602001807f4f776e61626c653a2063616c6c6572206973206e6f7420746865206f776e657281525060200191505060405180910390fd5b610b0a8282613019565b5050565b600060608560000151901c90506000610b25612743565b90508073ffffffffffffffffffffffffffffffffffffffff168273ffffffffffffffffffffffffffffffffffffffff161480610b675750610b668282611e2a565b5b610ba6576040517f08c379a0000000000000000000000000000000000000000000000000000000008152600401610b9d90616cf7565b60405180910390fd5b60008311610be9576040517f08c379a0000000000000000000000000000000000000000000000000000000008152600401610be090616cd7565b60405180910390fd5b6000610bf887600001516130c4565b1415610ddf578560600151600081518110610c0f57fe5b60200260200101516000015173ffffffffffffffffffffffffffffffffffffffff168273ffffffffffffffffffffffffffffffffffffffff1614610c88576040517f08c379a0000000000000000000000000000000000000000000000000000000008152600401610c7f90616cb7565b60405180910390fd5b6000866040015111610ccf576040517f08c379a0000000000000000000000000000000000000000000000000000000008152600401610cc690616c77565b60405180910390fd5b8560a001515186606001515114610ce557600080fd5b6000610cf08761274b565b905060005b876060015151811015610d8657600088606001518281518110610d1457fe5b60200260200101516000015190508373ffffffffffffffffffffffffffffffffffffffff168173ffffffffffffffffffffffffffffffffffffffff1614610d7857610d7781848b60a001518581518110610d6a57fe5b60200260200101516129c9565b5b508080600101915050610cf5565b50610d99876000015188604001516129d9565b610dab87600001518860800151612a50565b610dbd87600001518860600151612c9b565b610dcf87600001518860200151612f35565b610ddd8760000151876130e2565b505b610dfe8487600001518560405180602001604052806000815250613007565b505050505050565b8151835114610e60576040517f08c379a00000000000000000000000000000000000000000000000000000000081526004018080602001828103825260288152602001806174936028913960400191505060405180910390fd5b600073ffffffffffffffffffffffffffffffffffffffff168473ffffffffffffffffffffffffffffffffffffffff161415610ee6576040517f08c379a000000000000000000000000000000000000000000000000000000000815260040180806020018281038252602581526020018061734d6025913960400191505060405180910390fd5b610eee612743565b73ffffffffffffffffffffffffffffffffffffffff168573ffffffffffffffffffffffffffffffffffffffff161480610f345750610f3385610f2e612743565b611e2a565b5b610f89576040517f08c379a00000000000000000000000000000000000000000000000000000000081526004018080602001828103825260328152602001806173726032913960400191505060405180910390fd5b6000610f93612743565b9050610fa38187878787876131b4565b60005b8451811015611174576000858281518110610fbd57fe5b602002602001015190506000858381518110610fd557fe5b6020026020010151905061105c816040518060600160405280602a8152602001617417602a91396097600086815260200190815260200160002060008d73ffffffffffffffffffffffffffffffffffffffff1673ffffffffffffffffffffffffffffffffffffffff168152602001908152602001600020546131bc9092919063ffffffff16565b6097600084815260200190815260200160002060008b73ffffffffffffffffffffffffffffffffffffffff1673ffffffffffffffffffffffffffffffffffffffff16815260200190815260200160002081905550611113816097600085815260200190815260200160002060008b73ffffffffffffffffffffffffffffffffffffffff1673ffffffffffffffffffffffffffffffffffffffff1681526020019081526020016000205461327690919063ffffffff16565b6097600084815260200190815260200160002060008a73ffffffffffffffffffffffffffffffffffffffff1673ffffffffffffffffffffffffffffffffffffffff168152602001908152602001600020819055505050806001019050610fa6565b508473ffffffffffffffffffffffffffffffffffffffff168673ffffffffffffffffffffffffffffffffffffffff168273ffffffffffffffffffffffffffffffffffffffff167f4a39dc06d4c0dbc64b70af90fd698a233a518aa5d07e595d983b8c0526c8f7fb8787604051808060200180602001838103835285818151815260200191508051906020019060200280838360005b83811015611224578082015181840152602081019050611209565b50505050905001838103825284818151815260200191508051906020019060200280838360005b8381101561126657808201518184015260208101905061124b565b5050505090500194505050505060405180910390a46112898187878787876132fe565b505050505050565b606081518351146112ed576040517f08c379a000000000000000000000000000000000000000000000000000000000815260040180806020018281038252602981526020018061746a6029913960400191505060405180910390fd5b6000835167ffffffffffffffff8111801561130757600080fd5b506040519080825280602002602001820160405280156113365781602001602082028036833780820191505090505b50905060005b84518110156113985761137585828151811061135457fe5b602002602001015185838151811061136857fe5b6020026020010151610563565b82828151811061138157fe5b60200260200101818152505080600101905061133c565b508091505092915050565b6113ab612743565b73ffffffffffffffffffffffffffffffffffffffff168373ffffffffffffffffffffffffffffffffffffffff1614806113f157506113f0836113eb612743565b611e2a565b5b611446576040517f08c379a00000000000000000000000000000000000000000000000000000000081526004018080602001828103825260298152602001806173026029913960400191505060405180910390fd5b61145183838361368d565b505050565b606061012f8054600181600116156101000203166002900480601f0160208091040260200160405190810160405280929190818152602001828054600181600116156101000203166002900480156114ef5780601f106114c4576101008083540402835291602001916114ef565b820191906000526020600020905b8154815290600101906020018083116114d257829003601f168201915b5050505050905090565b611501612743565b73ffffffffffffffffffffffffffffffffffffffff1661151f6117e2565b73ffffffffffffffffffffffffffffffffffffffff16146115a8576040517f08c379a00000000000000000000000000000000000000000000000000000000081526004018080602001828103825260208152602001807f4f776e61626c653a2063616c6c6572206973206e6f7420746865206f776e657281525060200191505060405180910390fd5b600073ffffffffffffffffffffffffffffffffffffffff16603360009054906101000a900473ffffffffffffffffffffffffffffffffffffffff1673ffffffffffffffffffffffffffffffffffffffff167f8be0079c531659141344cd1fd0a4f28419497f9722a3daafe3b4186f6b6457e060405160405180910390a36000603360006101000a81548173ffffffffffffffffffffffffffffffffffffffff021916908373ffffffffffffffffffffffffffffffffffffffff160217905550565b60606101fb6000838152602001908152602001600020805480602002602001604051908101604052809291908181526020016000905b82821015611761578382906000526020600020016040518060400160405290816000820160009054906101000a900473ffffffffffffffffffffffffffffffffffffffff1673ffffffffffffffffffffffffffffffffffffffff1673ffffffffffffffffffffffffffffffffffffffff1681526020016000820160149054906101000a90046bffffffffffffffffffffffff166bffffffffffffffffffffffff166bffffffffffffffffffffffff16815250508152602001906001019061169f565b505050509050919050565b6101fa602052816000526040600020818154811061178957600080fd5b90600052602060002001600091509150508060000160009054906101000a900473ffffffffffffffffffffffffffffffffffffffff16908060000160149054906101000a90046bffffffffffffffffffffffff16905082565b6000603360009054906101000a900473ffffffffffffffffffffffffffffffffffffffff16905090565b6102638054600181600116156101000203166002900480601f0160208091040260200160405190810160405280929190818152602001828054600181600116156101000203166002900480156118a35780601f10611878576101008083540402835291602001916118a3565b820191906000526020600020905b81548152906001019060200180831161188657829003601f168201915b505050505081565b6101fb60205281600052604060002081815481106118c857600080fd5b90600052602060002001600091509150508060000160009054906101000a900473ffffffffffffffffffffffffffffffffffffffff16908060000160149054906101000a90046bffffffffffffffffffffffff16905082565b8173ffffffffffffffffffffffffffffffffffffffff16611940612743565b73ffffffffffffffffffffffffffffffffffffffff1614156119ad576040517f08c379a00000000000000000000000000000000000000000000000000000000081526004018080602001828103825260298152602001806174416029913960400191505060405180910390fd5b80609860006119ba612743565b73ffffffffffffffffffffffffffffffffffffffff1673ffffffffffffffffffffffffffffffffffffffff16815260200190815260200160002060008473ffffffffffffffffffffffffffffffffffffffff1673ffffffffffffffffffffffffffffffffffffffff16815260200190815260200160002060006101000a81548160ff0219169083151502179055508173ffffffffffffffffffffffffffffffffffffffff16611a67612743565b73ffffffffffffffffffffffffffffffffffffffff167f17307eab39ab6107e8899845ad3d59bd9653f200f220920489ca2b5937696c318360405180821515815260200191505060405180910390a35050565b60606101fa6000838152602001908152602001600020805480602002602001604051908101604052809291908181526020016000905b82821015611bb2578382906000526020600020016040518060400160405290816000820160009054906101000a900473ffffffffffffffffffffffffffffffffffffffff1673ffffffffffffffffffffffffffffffffffffffff1673ffffffffffffffffffffffffffffffffffffffff1681526020016000820160149054906101000a90046bffffffffffffffffffffffff166bffffffffffffffffffffffff166bffffffffffffffffffffffff168152505081526020019060010190611af0565b505050509050919050565b6060611bc8826139c8565b9050919050565b600060019054906101000a900460ff1680611bee5750611bed613a84565b5b80611c04575060008054906101000a900460ff16155b611c59576040517f08c379a000000000000000000000000000000000000000000000000000000000815260040180806020018281038252602e8152602001806173a4602e913960400191505060405180910390fd5b60008060019054906101000a900460ff161590508015611ca9576001600060016101000a81548160ff02191690831515021790555060016000806101000a81548160ff0219169083151502179055505b611cb1613a95565b611cb9613c3c565b611cc1613d4a565b611cc9613e58565b611cd1613f56565b611ce9604051806020016040528060008152506140c8565b611cf2836141f0565b611cfa614317565b611d02614415565b611d0c8686614523565b611d1584614653565b611d20826001613019565b7f630c3520bebe920390fcfcb48ef2e0bde326ef10f85761c5f708d1ccebf6ba73611d49612743565b8787604051611d5a93929190616b88565b60405180910390a18015611d835760008060016101000a81548160ff0219169083151502179055505b505050505050565b6102308054600181600116156101000203166002900480601f016020809104026020016040519081016040528092919081815260200182805460018160011615610100020316600290048015611e225780601f10611df757610100808354040283529160200191611e22565b820191906000526020600020905b815481529060010190602001808311611e0557829003601f168201915b505050505081565b6000611e36838361466e565b905092915050565b600073ffffffffffffffffffffffffffffffffffffffff168473ffffffffffffffffffffffffffffffffffffffff161415611ec4576040517f08c379a000000000000000000000000000000000000000000000000000000000815260040180806020018281038252602581526020018061734d6025913960400191505060405180910390fd5b611ecc612743565b73ffffffffffffffffffffffffffffffffffffffff168573ffffffffffffffffffffffffffffffffffffffff161480611f125750611f1185611f0c612743565b611e2a565b5b611f67576040517f08c379a00000000000000000000000000000000000000000000000000000000081526004018080602001828103825260298152602001806173026029913960400191505060405180910390fd5b6000611f71612743565b9050611f91818787611f82886146d6565b611f8b886146d6565b876131b4565b61200e836040518060600160405280602a8152602001617417602a91396097600088815260200190815260200160002060008a73ffffffffffffffffffffffffffffffffffffffff1673ffffffffffffffffffffffffffffffffffffffff168152602001908152602001600020546131bc9092919063ffffffff16565b6097600086815260200190815260200160002060008873ffffffffffffffffffffffffffffffffffffffff1673ffffffffffffffffffffffffffffffffffffffff168152602001908152602001600020819055506120c5836097600087815260200190815260200160002060008873ffffffffffffffffffffffffffffffffffffffff1673ffffffffffffffffffffffffffffffffffffffff1681526020019081526020016000205461327690919063ffffffff16565b6097600086815260200190815260200160002060008773ffffffffffffffffffffffffffffffffffffffff1673ffffffffffffffffffffffffffffffffffffffff168152602001908152602001600020819055508473ffffffffffffffffffffffffffffffffffffffff168673ffffffffffffffffffffffffffffffffffffffff168273ffffffffffffffffffffffffffffffffffffffff167fc3d58168c5ae7397731d063d5bbf3d657854427343f4c083240f7aacaa2d0f628787604051808381526020018281526020019250505060405180910390a46121ab818787878787614747565b505050505050565b6121bb612743565b73ffffffffffffffffffffffffffffffffffffffff166121d96117e2565b73ffffffffffffffffffffffffffffffffffffffff1614612262576040517f08c379a00000000000000000000000000000000000000000000000000000000081526004018080602001828103825260208152602001807f4f776e61626c653a2063616c6c6572206973206e6f7420746865206f776e657281525060200191505060405180910390fd5b600073ffffffffffffffffffffffffffffffffffffffff168173ffffffffffffffffffffffffffffffffffffffff1614156122e8576040517f08c379a00000000000000000000000000000000000000000000000000000000081526004018080602001828103825260268152602001806172b86026913960400191505060405180910390fd5b8073ffffffffffffffffffffffffffffffffffffffff16603360009054906101000a900473ffffffffffffffffffffffffffffffffffffffff1673ffffffffffffffffffffffffffffffffffffffff167f8be0079c531659141344cd1fd0a4f28419497f9722a3daafe3b4186f6b6457e060405160405180910390a380603360006101000a81548173ffffffffffffffffffffffffffffffffffffffff021916908373ffffffffffffffffffffffffffffffffffffffff16021790555050565b6123b0612743565b73ffffffffffffffffffffffffffffffffffffffff168373ffffffffffffffffffffffffffffffffffffffff1614806123f657506123f5836123f0612743565b611e2a565b5b61244b576040517f08c379a00000000000000000000000000000000000000000000000000000000081526004018080602001828103825260298152602001806173026029913960400191505060405180910390fd5b612456838383614a54565b505050565b600061246b848660000151610563565b90506000829050600082146124b25760008390508383101561248b578290505b6124ab868689600001518460405180602001604052806000815250611e3e565b8084039150505b60008111156124c7576124c686858361075c565b5b505050505050565b6060600061012e60008481526020019081526020016000208054600181600116156101000203166002900480601f01602080910402602001604051908101604052809291908181526020018280546001816001161561010002031660029004801561257b5780601f106125505761010080835404028352916020019161257b565b820191906000526020600020905b81548152906001019060200180831161255e57829003601f168201915b50505050509050600061258c611456565b90506000815114156125a257819250505061273e565b6000825111156126735780826040516020018083805190602001908083835b602083106125e457805182526020820191506020810190506020830392506125c1565b6001836020036101000a03801982511681845116808217855250505050505090500182805190602001908083835b602083106126355780518252602082019150602081019050602083039250612612565b6001836020036101000a038019825116818451168082178552505050505050905001925050506040516020818303038152906040529250505061273e565b8061267d85614c70565b6040516020018083805190602001908083835b602083106126b35780518252602082019150602081019050602083039250612690565b6001836020036101000a03801982511681845116808217855250505050505090500182805190602001908083835b6020831061270457805182526020820191506020810190506020830392506126e1565b6001836020036101000a03801982511681845116808217855250505050505090500192505050604051602081830303815290604052925050505b919050565b600033905090565b60008082608001515167ffffffffffffffff8111801561276a57600080fd5b506040519080825280602002602001820160405280156127995781602001602082028036833780820191505090505b50905060005b8360800151518110156127f1576127cc846080015182815181106127bf57fe5b6020026020010151614db7565b8282815181106127d857fe5b602002602001018181525050808060010191505061279f565b50600083606001515167ffffffffffffffff8111801561281057600080fd5b5060405190808252806020026020018201604052801561283f5781602001602082028036833780820191505090505b50905060005b846060015151811015612897576128728560600151828151811061286557fe5b6020026020010151614db7565b82828151811061287e57fe5b6020026020010181815250508080600101915050612845565b507ffb988707ebb338694f318760b0fd5cfe756d00a2ade251fda110b80c336a3c7f846000015185604001518660200151805190602001208460405160200180828051906020019060200280838360005b838110156129035780820151818401526020810190506128e8565b50505050905001915050604051602081830303815290604052805190602001208660405160200180828051906020019060200280838360005b8381101561295757808201518184015260208101905061293c565b50505050905001915050604051602081830303815290604052805190602001206040516020018087815260200186815260200185815260200184815260200183815260200182815260200196505050505050506040516020818303038152906040528051906020012092505050919050565b6129d4838383614e43565b505050565b60006101fc600084815260200190815260200160002054146129fa57600080fd5b806101fc6000848152602001908152602001600020819055507f5e2aa66efd74cce82b21852e317e5490d9ecc9e6bb953ae24d90851258cc2f5c8282604051612a44929190616dc2565b60405180910390a15050565b60005b8151811015612c8c57600073ffffffffffffffffffffffffffffffffffffffff16828281518110612a8057fe5b60200260200101516000015173ffffffffffffffffffffffffffffffffffffffff161415612b16576040517f08c379a000000000000000000000000000000000000000000000000000000000815260040180806020018281038252601b8152602001807f526563697069656e742073686f756c642062652070726573656e74000000000081525060200191505060405180910390fd5b6000828281518110612b2457fe5b6020026020010151602001516bffffffffffffffffffffffff161415612bb2576040517f08c379a00000000000000000000000000000000000000000000000000000000081526004018080602001828103825260208152602001807f526f79616c74792076616c75652073686f756c6420626520706f73697469766581525060200191505060405180910390fd5b6101fa6000848152602001908152602001600020828281518110612bd257fe5b60200260200101519080600181540180825580915050600190039060005260206000200160009091909190915060008201518160000160006101000a81548173ffffffffffffffffffffffffffffffffffffffff021916908373ffffffffffffffffffffffffffffffffffffffff16021790555060208201518160000160146101000a8154816bffffffffffffffffffffffff02191690836bffffffffffffffffffffffff16021790555050508080600101915050612a53565b50612c9782826151bb565b5050565b60006101fb600084815260200190815260200160002090506000805b8351811015612eb157600073ffffffffffffffffffffffffffffffffffffffff16848281518110612ce457fe5b60200260200101516000015173ffffffffffffffffffffffffffffffffffffffff161415612d47576040517f08c379a0000000000000000000000000000000000000000000000000000000008152600401612d3e90616d37565b60405180910390fd5b6000848281518110612d5557fe5b6020026020010151602001516bffffffffffffffffffffffff161415612db0576040517f08c379a0000000000000000000000000000000000000000000000000000000008152600401612da790616c97565b60405180910390fd5b82848281518110612dbd57fe5b60200260200101519080600181540180825580915050600190039060005260206000200160009091909190915060008201518160000160006101000a81548173ffffffffffffffffffffffffffffffffffffffff021916908373ffffffffffffffffffffffffffffffffffffffff16021790555060208201518160000160146101000a8154816bffffffffffffffffffffffff02191690836bffffffffffffffffffffffff1602179055505050612ea2848281518110612e7957fe5b6020026020010151602001516bffffffffffffffffffffffff168361327690919063ffffffff16565b91508080600101915050612cb7565b506127108114612ef6576040517f08c379a0000000000000000000000000000000000000000000000000000000008152600401612eed90616d57565b60405180910390fd5b7f841ffb90d4cabdd1f16034f3fa831d79060febbb8167bdd54a49269365bdf78f8484604051612f27929190616d92565b60405180910390a150505050565b8061012e60008481526020019081526020016000209080519060200190612f5d929190615b7d565b50817f6bb7ff708619ba0610cba295a58592e0451dee2622938c8755667688daf3529b612f89846124cf565b6040518080602001828103825283818151815260200191508051906020019080838360005b83811015612fc9578082015181840152602081019050612fae565b50505050905090810190601f168015612ff65780820380516001836020036101000a031916815260200191505b509250505060405180910390a25050565b613013848484846151f8565b50505050565b8060c960008473ffffffffffffffffffffffffffffffffffffffff1673ffffffffffffffffffffffffffffffffffffffff16815260200190815260200160002060006101000a81548160ff0219169083151502179055508173ffffffffffffffffffffffffffffffffffffffff167f270dbb8ba4292910ae92862466486be25c355c837270a3d8824b36a8bc7c653b8260405180821515815260200191505060405180910390a25050565b60006101fc6000838152602001908152602001600020549050919050565b806102966000848152602001908152602001600020908051906020019061310a929190615b7d565b50817fa595484f343d9669f13f28cff734012d5ea0924a2ec5440aa2c2833751c9a288613136846139c8565b6040518080602001828103825283818151815260200191508051906020019080838360005b8381101561317657808201518184015260208101905061315b565b50505050905090810190601f1680156131a35780820380516001836020036101000a031916815260200191505b509250505060405180910390a25050565b505050505050565b6000838311158290613269576040517f08c379a00000000000000000000000000000000000000000000000000000000081526004018080602001828103825283818151815260200191508051906020019080838360005b8381101561322e578082015181840152602081019050613213565b50505050905090810190601f16801561325b5780820380516001836020036101000a031916815260200191505b509250505060405180910390fd5b5082840390509392505050565b6000808284019050838110156132f4576040517f08c379a000000000000000000000000000000000000000000000000000000000815260040180806020018281038252601b8152602001807f536166654d6174683a206164646974696f6e206f766572666c6f77000000000081525060200191505060405180910390fd5b8091505092915050565b61331d8473ffffffffffffffffffffffffffffffffffffffff166152a6565b15613685578373ffffffffffffffffffffffffffffffffffffffff1663bc197c8187878686866040518663ffffffff1660e01b8152600401808673ffffffffffffffffffffffffffffffffffffffff1681526020018573ffffffffffffffffffffffffffffffffffffffff168152602001806020018060200180602001848103845287818151815260200191508051906020019060200280838360005b838110156133d55780820151818401526020810190506133ba565b50505050905001848103835286818151815260200191508051906020019060200280838360005b838110156134175780820151818401526020810190506133fc565b50505050905001848103825285818151815260200191508051906020019080838360005b8381101561345657808201518184015260208101905061343b565b50505050905090810190601f1680156134835780820380516001836020036101000a031916815260200191505b5098505050505050505050602060405180830381600087803b1580156134a857600080fd5b505af19250505080156134dc57506040513d60208110156134c857600080fd5b810190808051906020019092919050505060015b6135e6576134e86170f0565b806134f35750613595565b806040517f08c379a00000000000000000000000000000000000000000000000000000000081526004018080602001828103825283818151815260200191508051906020019080838360005b8381101561355a57808201518184015260208101905061353f565b50505050905090810190601f1680156135875780820380516001836020036101000a031916815260200191505b509250505060405180910390fd5b6040517f08c379a00000000000000000000000000000000000000000000000000000000081526004018080602001828103825260348152602001806172316034913960400191505060405180910390fd5b63bc197c8160e01b7bffffffffffffffffffffffffffffffffffffffffffffffffffffffff1916817bffffffffffffffffffffffffffffffffffffffffffffffffffffffff191614613683576040517f08c379a00000000000000000000000000000000000000000000000000000000081526004018080602001828103825260288152602001806172656028913960400191505060405180910390fd5b505b505050505050565b600073ffffffffffffffffffffffffffffffffffffffff168373ffffffffffffffffffffffffffffffffffffffff161415613713576040517f08c379a00000000000000000000000000000000000000000000000000000000081526004018080602001828103825260238152602001806173f46023913960400191505060405180910390fd5b805182511461376d576040517f08c379a00000000000000000000000000000000000000000000000000000000081526004018080602001828103825260288152602001806174936028913960400191505060405180910390fd5b6000613777612743565b9050613797818560008686604051806020016040528060008152506131b4565b60005b83518110156138ba576138468382815181106137b257fe5b60200260200101516040518060600160405280602481526020016172de60249139609760008886815181106137e357fe5b6020026020010151815260200190815260200160002060008973ffffffffffffffffffffffffffffffffffffffff1673ffffffffffffffffffffffffffffffffffffffff168152602001908152602001600020546131bc9092919063ffffffff16565b6097600086848151811061385657fe5b6020026020010151815260200190815260200160002060008773ffffffffffffffffffffffffffffffffffffffff1673ffffffffffffffffffffffffffffffffffffffff16815260200190815260200160002081905550808060010191505061379a565b50600073ffffffffffffffffffffffffffffffffffffffff168473ffffffffffffffffffffffffffffffffffffffff168273ffffffffffffffffffffffffffffffffffffffff167f4a39dc06d4c0dbc64b70af90fd698a233a518aa5d07e595d983b8c0526c8f7fb8686604051808060200180602001838103835285818151815260200191508051906020019060200280838360005b8381101561396b578082015181840152602081019050613950565b50505050905001838103825284818151815260200191508051906020019060200280838360005b838110156139ad578082015181840152602081019050613992565b5050505090500194505050505060405180910390a450505050565b6060600061029660008481526020019081526020016000208054600181600116156101000203166002900480601f016020809104026020016040519081016040528092919081815260200182805460018160011615610100020316600290048015613a745780601f10613a4957610100808354040283529160200191613a74565b820191906000526020600020905b815481529060010190602001808311613a5757829003601f168201915b5050505050905080915050919050565b6000613a8f306152a6565b15905090565b600060019054906101000a900460ff1680613ab45750613ab3613a84565b5b80613aca575060008054906101000a900460ff16155b613b1f576040517f08c379a000000000000000000000000000000000000000000000000000000000815260040180806020018281038252602e8152602001806173a4602e913960400191505060405180910390fd5b60008060019054906101000a900460ff161590508015613b6f576001600060016101000a81548160ff02191690831515021790555060016000806101000a81548160ff0219169083151502179055505b6000613b79612743565b905080603360006101000a81548173ffffffffffffffffffffffffffffffffffffffff021916908373ffffffffffffffffffffffffffffffffffffffff1602179055508073ffffffffffffffffffffffffffffffffffffffff16600073ffffffffffffffffffffffffffffffffffffffff167f8be0079c531659141344cd1fd0a4f28419497f9722a3daafe3b4186f6b6457e060405160405180910390a3508015613c395760008060016101000a81548160ff0219169083151502179055505b50565b600060019054906101000a900460ff1680613c5b5750613c5a613a84565b5b80613c71575060008054906101000a900460ff16155b613cc6576040517f08c379a000000000000000000000000000000000000000000000000000000000815260040180806020018281038252602e8152602001806173a4602e913960400191505060405180910390fd5b60008060019054906101000a900460ff161590508015613d16576001600060016101000a81548160ff02191690831515021790555060016000806101000a81548160ff0219169083151502179055505b613d26636db15a0f60e01b6152b9565b8015613d475760008060016101000a81548160ff0219169083151502179055505b50565b600060019054906101000a900460ff1680613d695750613d68613a84565b5b80613d7f575060008054906101000a900460ff16155b613dd4576040517f08c379a000000000000000000000000000000000000000000000000000000000815260040180806020018281038252602e8152602001806173a4602e913960400191505060405180910390fd5b60008060019054906101000a900460ff161590508015613e24576001600060016101000a81548160ff02191690831515021790555060016000806101000a81548160ff0219169083151502179055505b613e346301ffc9a760e01b6152b9565b8015613e555760008060016101000a81548160ff0219169083151502179055505b50565b600060019054906101000a900460ff1680613e775750613e76613a84565b5b80613e8d575060008054906101000a900460ff16155b613ee2576040517f08c379a000000000000000000000000000000000000000000000000000000000815260040180806020018281038252602e8152602001806173a4602e913960400191505060405180910390fd5b60008060019054906101000a900460ff161590508015613f32576001600060016101000a81548160ff02191690831515021790555060016000806101000a81548160ff0219169083151502179055505b8015613f535760008060016101000a81548160ff0219169083151502179055505b50565b600060019054906101000a900460ff1680613f755750613f74613a84565b5b80613f8b575060008054906101000a900460ff16155b613fe0576040517f08c379a000000000000000000000000000000000000000000000000000000000815260040180806020018281038252602e8152602001806173a4602e913960400191505060405180910390fd5b60008060019054906101000a900460ff161590508015614030576001600060016101000a81548160ff02191690831515021790555060016000806101000a81548160ff0219169083151502179055505b6140a46040518060400160405280600881526020017f4d696e74313135350000000000000000000000000000000000000000000000008152506040518060400160405280600181526020017f31000000000000000000000000000000000000000000000000000000000000008152506153c2565b80156140c55760008060016101000a81548160ff0219169083151502179055505b50565b600060019054906101000a900460ff16806140e757506140e6613a84565b5b806140fd575060008054906101000a900460ff16155b614152576040517f08c379a000000000000000000000000000000000000000000000000000000000815260040180806020018281038252602e8152602001806173a4602e913960400191505060405180910390fd5b60008060019054906101000a900460ff1615905080156141a2576001600060016101000a81548160ff02191690831515021790555060016000806101000a81548160ff0219169083151502179055505b6141ab826154ec565b6141bb63d9b67a2660e01b6152b9565b6141cb630e89341c60e01b6152b9565b80156141ec5760008060016101000a81548160ff0219169083151502179055505b5050565b600060019054906101000a900460ff168061420f575061420e613a84565b5b80614225575060008054906101000a900460ff16155b61427a576040517f08c379a000000000000000000000000000000000000000000000000000000000815260040180806020018281038252602e8152602001806173a4602e913960400191505060405180910390fd5b60008060019054906101000a900460ff1615905080156142ca576001600060016101000a81548160ff02191690831515021790555060016000806101000a81548160ff0219169083151502179055505b8161023090805190602001906142e1929190615b7d565b506142f263e8a3d48560e01b6152b9565b80156143135760008060016101000a81548160ff0219169083151502179055505b5050565b600060019054906101000a900460ff16806143365750614335613a84565b5b8061434c575060008054906101000a900460ff16155b6143a1576040517f08c379a000000000000000000000000000000000000000000000000000000000815260040180806020018281038252602e8152602001806173a4602e913960400191505060405180910390fd5b60008060019054906101000a900460ff1615905080156143f1576001600060016101000a81548160ff02191690831515021790555060016000806101000a81548160ff0219169083151502179055505b80156144125760008060016101000a81548160ff0219169083151502179055505b50565b600060019054906101000a900460ff16806144345750614433613a84565b5b8061444a575060008054906101000a900460ff16155b61449f576040517f08c379a000000000000000000000000000000000000000000000000000000000815260040180806020018281038252602e8152602001806173a4602e913960400191505060405180910390fd5b60008060019054906101000a900460ff1615905080156144ef576001600060016101000a81548160ff02191690831515021790555060016000806101000a81548160ff0219169083151502179055505b6144ff6344c74bcc60e01b6152b9565b80156145205760008060016101000a81548160ff0219169083151502179055505b50565b600060019054906101000a900460ff16806145425750614541613a84565b5b80614558575060008054906101000a900460ff16155b6145ad576040517f08c379a000000000000000000000000000000000000000000000000000000000815260040180806020018281038252602e8152602001806173a4602e913960400191505060405180910390fd5b60008060019054906101000a900460ff1615905080156145fd576001600060016101000a81548160ff02191690831515021790555060016000806101000a81548160ff0219169083151502179055505b826102629080519060200190614614929190615b7d565b5081610263908051906020019061462c929190615b7d565b50801561464e5760008060016101000a81548160ff0219169083151502179055505b505050565b8061012f908051906020019061466a929190615b7d565b5050565b600060c960008373ffffffffffffffffffffffffffffffffffffffff1673ffffffffffffffffffffffffffffffffffffffff16815260200190815260200160002060009054906101000a900460ff16806146ce57506146cd8383615506565b5b905092915050565b60606000600167ffffffffffffffff811180156146f257600080fd5b506040519080825280602002602001820160405280156147215781602001602082028036833780820191505090505b509050828160008151811061473257fe5b60200260200101818152505080915050919050565b6147668473ffffffffffffffffffffffffffffffffffffffff166152a6565b15614a4c578373ffffffffffffffffffffffffffffffffffffffff1663f23a6e6187878686866040518663ffffffff1660e01b8152600401808673ffffffffffffffffffffffffffffffffffffffff1681526020018573ffffffffffffffffffffffffffffffffffffffff16815260200184815260200183815260200180602001828103825283818151815260200191508051906020019080838360005b8381101561481f578082015181840152602081019050614804565b50505050905090810190601f16801561484c5780820380516001836020036101000a031916815260200191505b509650505050505050602060405180830381600087803b15801561486f57600080fd5b505af19250505080156148a357506040513d602081101561488f57600080fd5b810190808051906020019092919050505060015b6149ad576148af6170f0565b806148ba575061495c565b806040517f08c379a00000000000000000000000000000000000000000000000000000000081526004018080602001828103825283818151815260200191508051906020019080838360005b83811015614921578082015181840152602081019050614906565b50505050905090810190601f16801561494e5780820380516001836020036101000a031916815260200191505b509250505060405180910390fd5b6040517f08c379a00000000000000000000000000000000000000000000000000000000081526004018080602001828103825260348152602001806172316034913960400191505060405180910390fd5b63f23a6e6160e01b7bffffffffffffffffffffffffffffffffffffffffffffffffffffffff1916817bffffffffffffffffffffffffffffffffffffffffffffffffffffffff191614614a4a576040517f08c379a00000000000000000000000000000000000000000000000000000000081526004018080602001828103825260288152602001806172656028913960400191505060405180910390fd5b505b505050505050565b600073ffffffffffffffffffffffffffffffffffffffff168373ffffffffffffffffffffffffffffffffffffffff161415614ada576040517f08c379a00000000000000000000000000000000000000000000000000000000081526004018080602001828103825260238152602001806173f46023913960400191505060405180910390fd5b6000614ae4612743565b9050614b1481856000614af6876146d6565b614aff876146d6565b604051806020016040528060008152506131b4565b614b91826040518060600160405280602481526020016172de602491396097600087815260200190815260200160002060008873ffffffffffffffffffffffffffffffffffffffff1673ffffffffffffffffffffffffffffffffffffffff168152602001908152602001600020546131bc9092919063ffffffff16565b6097600085815260200190815260200160002060008673ffffffffffffffffffffffffffffffffffffffff1673ffffffffffffffffffffffffffffffffffffffff16815260200190815260200160002081905550600073ffffffffffffffffffffffffffffffffffffffff168473ffffffffffffffffffffffffffffffffffffffff168273ffffffffffffffffffffffffffffffffffffffff167fc3d58168c5ae7397731d063d5bbf3d657854427343f4c083240f7aacaa2d0f628686604051808381526020018281526020019250505060405180910390a450505050565b60606000821415614cb8576040518060400160405280600181526020017f30000000000000000000000000000000000000000000000000000000000000008152509050614db2565b600082905060005b60008214614ce2578080600101915050600a8281614cda57fe5b049150614cc0565b60008167ffffffffffffffff81118015614cfb57600080fd5b506040519080825280601f01601f191660200182016040528015614d2e5781602001600182028036833780820191505090505b50905060006001830390508593505b60008414614daa57600a8481614d4f57fe5b0660300160f81b82828060019003935081518110614d6957fe5b60200101907effffffffffffffffffffffffffffffffffffffffffffffffffffffffffffff1916908160001a905350600a8481614da257fe5b049350614d3d565b819450505050505b919050565b60007f397e04204c1e1a60ee8724b71f8244e10ab5f2e9009854d80f602bda21b59ebb82600001518360200151604051602001808481526020018373ffffffffffffffffffffffffffffffffffffffff168152602001826bffffffffffffffffffffffff1681526020019350505050604051602081830303815290604052805190602001209050919050565b6000614e4e8361559a565b9050614e6f8473ffffffffffffffffffffffffffffffffffffffff166152a6565b1561509657631626ba7e60e01b7bffffffffffffffffffffffffffffffffffffffffffffffffffffffff19168473ffffffffffffffffffffffffffffffffffffffff16631626ba7e83856040518363ffffffff1660e01b81526004018083815260200180602001828103825283818151815260200191508051906020019080838360005b83811015614f0e578082015181840152602081019050614ef3565b50505050905090810190601f168015614f3b5780820380516001836020036101000a031916815260200191505b50935050505060206040518083038186803b158015614f5957600080fd5b505afa158015614f6d573d6000803e3d6000fd5b505050506040513d6020811015614f8357600080fd5b81019080805190602001909291905050507bffffffffffffffffffffffffffffffffffffffffffffffffffffffff1916146040518060400160405280601c81526020017f7369676e617475726520766572696669636174696f6e206572726f720000000081525090615090576040517f08c379a00000000000000000000000000000000000000000000000000000000081526004018080602001828103825283818151815260200191508051906020019080838360005b8381101561505557808201518184015260208101905061503a565b50505050905090810190601f1680156150825780820380516001836020036101000a031916815260200191505b509250505060405180910390fd5b506151b5565b8373ffffffffffffffffffffffffffffffffffffffff166150c0838361560190919063ffffffff16565b73ffffffffffffffffffffffffffffffffffffffff16146040518060400160405280601c81526020017f7369676e617475726520766572696669636174696f6e206572726f7200000000815250906151b3576040517f08c379a00000000000000000000000000000000000000000000000000000000081526004018080602001828103825283818151815260200191508051906020019080838360005b8381101561517857808201518184015260208101905061515d565b50505050905090810190601f1680156151a55780820380516001836020036101000a031916815260200191505b509250505060405180910390fd5b505b50505050565b7f3fa96d7b6bcbfe71ef171666d84db3cf52fa2d1c8afdb1cc8e486177f208b7df82826040516151ec929190616d92565b60405180910390a15050565b60006152216101fd6000868152602001908152602001600020548461327690919063ffffffff16565b90506101fc60008581526020019081526020016000205481111561527a576040517f08c379a000000000000000000000000000000000000000000000000000000000815260040161527190616d17565b60405180910390fd5b806101fd60008681526020019081526020016000208190555061529f858585856156ae565b5050505050565b600080823b905060008111915050919050565b63ffffffff60e01b817bffffffffffffffffffffffffffffffffffffffffffffffffffffffff19161415615355576040517f08c379a000000000000000000000000000000000000000000000000000000000815260040180806020018281038252601c8152602001807f4552433136353a20696e76616c696420696e746572666163652069640000000081525060200191505060405180910390fd5b600160656000837bffffffffffffffffffffffffffffffffffffffffffffffffffffffff19167bffffffffffffffffffffffffffffffffffffffffffffffffffffffff1916815260200190815260200160002060006101000a81548160ff02191690831515021790555050565b600060019054906101000a900460ff16806153e157506153e0613a84565b5b806153f7575060008054906101000a900460ff16155b61544c576040517f08c379a000000000000000000000000000000000000000000000000000000000815260040180806020018281038252602e8152602001806173a4602e913960400191505060405180910390fd5b60008060019054906101000a900460ff16159050801561549c576001600060016101000a81548160ff02191690831515021790555060016000806101000a81548160ff0219169083151502179055505b60008380519060200120905060008380519060200120905081610162819055508061016381905550505080156154e75760008060016101000a81548160ff0219169083151502179055505b505050565b8060999080519060200190615502929190615b7d565b5050565b6000609860008473ffffffffffffffffffffffffffffffffffffffff1673ffffffffffffffffffffffffffffffffffffffff16815260200190815260200160002060008373ffffffffffffffffffffffffffffffffffffffff1673ffffffffffffffffffffffffffffffffffffffff16815260200190815260200160002060009054906101000a900460ff16905092915050565b60006155a46158b1565b8260405160200180807f190100000000000000000000000000000000000000000000000000000000000081525060020183815260200182815260200192505050604051602081830303815290604052805190602001209050919050565b6000604182511461567a576040517f08c379a000000000000000000000000000000000000000000000000000000000815260040180806020018281038252601f8152602001807f45434453413a20696e76616c6964207369676e6174757265206c656e6774680081525060200191505060405180910390fd5b60008060006020850151925060408501519150606085015160001a90506156a3868285856158f1565b935050505092915050565b600073ffffffffffffffffffffffffffffffffffffffff168473ffffffffffffffffffffffffffffffffffffffff161415615734576040517f08c379a00000000000000000000000000000000000000000000000000000000081526004018080602001828103825260218152602001806174bb6021913960400191505060405180910390fd5b600061573e612743565b905061575f81600087615750886146d6565b615759886146d6565b876131b4565b6157c2836097600087815260200190815260200160002060008873ffffffffffffffffffffffffffffffffffffffff1673ffffffffffffffffffffffffffffffffffffffff1681526020019081526020016000205461327690919063ffffffff16565b6097600086815260200190815260200160002060008773ffffffffffffffffffffffffffffffffffffffff1673ffffffffffffffffffffffffffffffffffffffff168152602001908152602001600020819055508473ffffffffffffffffffffffffffffffffffffffff16600073ffffffffffffffffffffffffffffffffffffffff168273ffffffffffffffffffffffffffffffffffffffff167fc3d58168c5ae7397731d063d5bbf3d657854427343f4c083240f7aacaa2d0f628787604051808381526020018281526020019250505060405180910390a46158aa81600087878787614747565b5050505050565b60006158ec7f8b73c3c69bb8fe3d512ecc4cf759cc79239f7b179b0ffacaa9a75d522b39400f6158df615af0565b6158e7615afb565b615b06565b905090565b60007f7fffffffffffffffffffffffffffffff5d576e7357a4501ddfe92f46681b20a08260001c111561596f576040517f08c379a000000000000000000000000000000000000000000000000000000000815260040180806020018281038252602281526020018061732b6022913960400191505060405180910390fd5b601b8460ff1614806159845750601c8460ff16145b6159d9576040517f08c379a00000000000000000000000000000000000000000000000000000000081526004018080602001828103825260228152602001806173d26022913960400191505060405180910390fd5b600060018686868660405160008152602001604052604051808581526020018460ff1681526020018381526020018281526020019450505050506020604051602081039080840390855afa158015615a35573d6000803e3d6000fd5b505050602060405103519050600073ffffffffffffffffffffffffffffffffffffffff168173ffffffffffffffffffffffffffffffffffffffff161415615ae4576040517f08c379a00000000000000000000000000000000000000000000000000000000081526004018080602001828103825260188152602001807f45434453413a20696e76616c6964207369676e6174757265000000000000000081525060200191505060405180910390fd5b80915050949350505050565b600061016254905090565b600061016354905090565b6000838383615b13615b75565b30604051602001808681526020018581526020018481526020018381526020018273ffffffffffffffffffffffffffffffffffffffff168152602001955050505050506040516020818303038152906040528051906020012090509392505050565b600046905090565b828054600181600116156101000203166002900490600052602060002090601f016020900481019282615bb35760008555615bfa565b82601f10615bcc57805160ff1916838001178555615bfa565b82800160010185558215615bfa579182015b82811115615bf9578251825591602001919060010190615bde565b5b509050615c079190615c0b565b5090565b5b80821115615c24576000816000905550600101615c0c565b5090565b6000615c3b615c3684616e1c565b616deb565b90508083825260208201905082856020860282011115615c5a57600080fd5b60005b85811015615c8a5781615c708882615e45565b845260208401935060208301925050600181019050615c5d565b5050509392505050565b6000615ca7615ca284616e48565b616deb565b9050808382526020820190508260005b85811015615ce75781358501615ccd8882615f41565b845260208401935060208301925050600181019050615cb7565b5050509392505050565b6000615d04615cff84616e74565b616deb565b90508083825260208201905082856040860282011115615d2357600080fd5b60005b85811015615d535781615d398882616091565b845260208401935060408301925050600181019050615d26565b5050509392505050565b6000615d70615d6b84616ea0565b616deb565b90508083825260208201905082856020860282011115615d8f57600080fd5b60005b85811015615dbf5781615da588826160dd565b845260208401935060208301925050600181019050615d92565b5050509392505050565b6000615ddc615dd784616ecc565b616deb565b905082815260208101848484011115615df457600080fd5b615dff84828561708e565b509392505050565b6000615e1a615e1584616efc565b616deb565b905082815260208101848484011115615e3257600080fd5b615e3d84828561708e565b509392505050565b600081359050615e54816171a6565b92915050565b600081359050615e69816171bd565b92915050565b600082601f830112615e8057600080fd5b8135615e90848260208601615c28565b91505092915050565b600082601f830112615eaa57600080fd5b8135615eba848260208601615c94565b91505092915050565b600082601f830112615ed457600080fd5b8135615ee4848260208601615cf1565b91505092915050565b600082601f830112615efe57600080fd5b8135615f0e848260208601615d5d565b91505092915050565b600081359050615f26816171d4565b92915050565b600081359050615f3b816171eb565b92915050565b600082601f830112615f5257600080fd5b8135615f62848260208601615dc9565b91505092915050565b600082601f830112615f7c57600080fd5b8135615f8c848260208601615e07565b91505092915050565b600060c08284031215615fa757600080fd5b615fb160c0616deb565b90506000615fc1848285016160dd565b600083015250602082013567ffffffffffffffff811115615fe157600080fd5b615fed84828501615f6b565b6020830152506040616001848285016160dd565b604083015250606082013567ffffffffffffffff81111561602157600080fd5b61602d84828501615ec3565b606083015250608082013567ffffffffffffffff81111561604d57600080fd5b61605984828501615ec3565b60808301525060a082013567ffffffffffffffff81111561607957600080fd5b61608584828501615e99565b60a08301525092915050565b6000604082840312156160a357600080fd5b6160ad6040616deb565b905060006160bd84828501615e5a565b60008301525060206160d1848285016160f2565b60208301525092915050565b6000813590506160ec81617202565b92915050565b60008135905061610181617219565b92915050565b60006020828403121561611957600080fd5b600061612784828501615e45565b91505092915050565b6000806040838503121561614357600080fd5b600061615185828601615e45565b925050602061616285828601615e45565b9150509250929050565b600080600080600060a0868803121561618457600080fd5b600061619288828901615e45565b95505060206161a388828901615e45565b945050604086013567ffffffffffffffff8111156161c057600080fd5b6161cc88828901615eed565b935050606086013567ffffffffffffffff8111156161e957600080fd5b6161f588828901615eed565b925050608086013567ffffffffffffffff81111561621257600080fd5b61621e88828901615f41565b9150509295509295909350565b600080600080600060a0868803121561624357600080fd5b600061625188828901615e45565b955050602061626288828901615e45565b9450506040616273888289016160dd565b9350506060616284888289016160dd565b925050608086013567ffffffffffffffff8111156162a157600080fd5b6162ad88828901615f41565b9150509295509295909350565b6000806000606084860312156162cf57600080fd5b60006162dd86828701615e45565b935050602084013567ffffffffffffffff8111156162fa57600080fd5b61630686828701615eed565b925050604084013567ffffffffffffffff81111561632357600080fd5b61632f86828701615eed565b9150509250925092565b6000806040838503121561634c57600080fd5b600061635a85828601615e45565b925050602061636b85828601615f17565b9150509250929050565b6000806040838503121561638857600080fd5b600061639685828601615e45565b92505060206163a7858286016160dd565b9150509250929050565b6000806000606084860312156163c657600080fd5b60006163d486828701615e45565b93505060206163e5868287016160dd565b92505060406163f6868287016160dd565b9150509250925092565b6000806040838503121561641357600080fd5b600083013567ffffffffffffffff81111561642d57600080fd5b61643985828601615e6f565b925050602083013567ffffffffffffffff81111561645657600080fd5b61646285828601615eed565b9150509250929050565b60006020828403121561647e57600080fd5b600061648c84828501615f2c565b91505092915050565b600080600080600060a086880312156164ad57600080fd5b600086013567ffffffffffffffff8111156164c757600080fd5b6164d388828901615f6b565b955050602086013567ffffffffffffffff8111156164f057600080fd5b6164fc88828901615f6b565b945050604086013567ffffffffffffffff81111561651957600080fd5b61652588828901615f6b565b935050606086013567ffffffffffffffff81111561654257600080fd5b61654e88828901615f6b565b925050608061655f88828901615e45565b9150509295509295909350565b6000806000806080858703121561658257600080fd5b600085013567ffffffffffffffff81111561659c57600080fd5b6165a887828801615f95565b94505060206165b987828801615e45565b93505060406165ca87828801615e45565b92505060606165db878288016160dd565b91505092959194509250565b6000806000606084860312156165fc57600080fd5b600084013567ffffffffffffffff81111561661657600080fd5b61662286828701615f95565b935050602061663386828701615e45565b9250506040616644868287016160dd565b9150509250925092565b6000806000806080858703121561666457600080fd5b600085013567ffffffffffffffff81111561667e57600080fd5b61668a87828801615f95565b945050602085013567ffffffffffffffff8111156166a757600080fd5b6166b387828801615f6b565b93505060406166c487828801615e45565b92505060606166d5878288016160dd565b91505092959194509250565b6000602082840312156166f357600080fd5b6000616701848285016160dd565b91505092915050565b6000806040838503121561671d57600080fd5b600061672b858286016160dd565b925050602061673c858286016160dd565b9150509250929050565b60006167528383616b02565b60408301905092915050565b600061676a8383616b31565b60208301905092915050565b61677f81617058565b82525050565b61678e81616fcc565b82525050565b61679d81616fcc565b82525050565b6167ac81616fba565b82525050565b60006167bd82616f4c565b6167c78185616f87565b93506167d283616f2c565b8060005b838110156168035781516167ea8882616746565b97506167f583616f6d565b9250506001810190506167d6565b5085935050505092915050565b600061681b82616f57565b6168258185616f98565b935061683083616f3c565b8060005b83811015616861578151616848888261675e565b975061685383616f7a565b925050600181019050616834565b5085935050505092915050565b61687781616fde565b82525050565b600061688882616f62565b6168928185616fa9565b93506168a281856020860161709d565b6168ab816170d2565b840191505092915050565b60006168c3601083616fa9565b91507f737570706c7920696e636f7272656374000000000000000000000000000000006000830152602082019050919050565b6000616903602083616fa9565b91507f43726561746f722073686172652073686f756c6420626520706f7369746976656000830152602082019050919050565b6000616943601183616fa9565b91507f746f6b656e496420696e636f72726563740000000000000000000000000000006000830152602082019050919050565b6000616983601083616fa9565b91507f616d6f756e7420696e636f7272656374000000000000000000000000000000006000830152602082019050919050565b60006169c3602883616fa9565b91507f455243313135353a207472616e736665722063616c6c6572206973206e6f742060008301527f617070726f7665640000000000000000000000000000000000000000000000006020830152604082019050919050565b6000616a29601083616fa9565b91507f6d6f7265207468616e20737570706c79000000000000000000000000000000006000830152602082019050919050565b6000616a69601983616fa9565b91507f4163636f756e742073686f756c642062652070726573656e74000000000000006000830152602082019050919050565b6000616aa9602e83616fa9565b91507f746f74616c20616d6f756e74206f662063726561746f7273207368617265207360008301527f686f756c642062652031303030300000000000000000000000000000000000006020830152604082019050919050565b604082016000820151616b186000850182616785565b506020820151616b2b6020850182616b4f565b50505050565b616b3a81617036565b82525050565b616b4981617036565b82525050565b616b5881617040565b82525050565b616b6781617040565b82525050565b6000602082019050616b8260008301846167a3565b92915050565b6000606082019050616b9d6000830186616776565b8181036020830152616baf818561687d565b90508181036040830152616bc3818461687d565b9050949350505050565b6000604082019050616be26000830185616794565b616bef6020830184616b5e565b9392505050565b60006020820190508181036000830152616c1081846167b2565b905092915050565b60006020820190508181036000830152616c328184616810565b905092915050565b6000602082019050616c4f600083018461686e565b92915050565b60006020820190508181036000830152616c6f818461687d565b905092915050565b60006020820190508181036000830152616c90816168b6565b9050919050565b60006020820190508181036000830152616cb0816168f6565b9050919050565b60006020820190508181036000830152616cd081616936565b9050919050565b60006020820190508181036000830152616cf081616976565b9050919050565b60006020820190508181036000830152616d10816169b6565b9050919050565b60006020820190508181036000830152616d3081616a1c565b9050919050565b60006020820190508181036000830152616d5081616a5c565b9050919050565b60006020820190508181036000830152616d7081616a9c565b9050919050565b6000602082019050616d8c6000830184616b40565b92915050565b6000604082019050616da76000830185616b40565b8181036020830152616db981846167b2565b90509392505050565b6000604082019050616dd76000830185616b40565b616de46020830184616b40565b9392505050565b6000604051905081810181811067ffffffffffffffff82111715616e1257616e116170d0565b5b8060405250919050565b600067ffffffffffffffff821115616e3757616e366170d0565b5b602082029050602081019050919050565b600067ffffffffffffffff821115616e6357616e626170d0565b5b602082029050602081019050919050565b600067ffffffffffffffff821115616e8f57616e8e6170d0565b5b602082029050602081019050919050565b600067ffffffffffffffff821115616ebb57616eba6170d0565b5b602082029050602081019050919050565b600067ffffffffffffffff821115616ee757616ee66170d0565b5b601f19601f8301169050602081019050919050565b600067ffffffffffffffff821115616f1757616f166170d0565b5b601f19601f8301169050602081019050919050565b6000819050602082019050919050565b6000819050602082019050919050565b600081519050919050565b600081519050919050565b600081519050919050565b6000602082019050919050565b6000602082019050919050565b600082825260208201905092915050565b600082825260208201905092915050565b600082825260208201905092915050565b6000616fc582617016565b9050919050565b6000616fd782617016565b9050919050565b60008115159050919050565b60007fffffffff0000000000000000000000000000000000000000000000000000000082169050919050565b600073ffffffffffffffffffffffffffffffffffffffff82169050919050565b6000819050919050565b60006bffffffffffffffffffffffff82169050919050565b60006170638261706a565b9050919050565b60006170758261707c565b9050919050565b600061708782617016565b9050919050565b82818337600083830152505050565b60005b838110156170bb5780820151818401526020810190506170a0565b838111156170ca576000848401525b50505050565bfe5b6000601f19601f8301169050919050565b60008160e01c9050919050565b600060443d1015617100576171a3565b60046000803e6171116000516170e3565b6308c379a0811461712257506171a3565b60405160043d036004823e80513d602482011167ffffffffffffffff8211171561714e575050506171a3565b808201805167ffffffffffffffff81111561716d5750505050506171a3565b8060208301013d8501811115617188575050505050506171a3565b617191826170d2565b60208401016040528296505050505050505b90565b6171af81616fba565b81146171ba57600080fd5b50565b6171c681616fcc565b81146171d157600080fd5b50565b6171dd81616fde565b81146171e857600080fd5b50565b6171f481616fea565b81146171ff57600080fd5b50565b61720b81617036565b811461721657600080fd5b50565b61722281617040565b811461722d57600080fd5b5056fe455243313135353a207472616e7366657220746f206e6f6e2045524331313535526563656976657220696d706c656d656e746572455243313135353a204552433131353552656365697665722072656a656374656420746f6b656e73455243313135353a2062616c616e636520717565727920666f7220746865207a65726f20616464726573734f776e61626c653a206e6577206f776e657220697320746865207a65726f2061646472657373455243313135353a206275726e20616d6f756e7420657863656564732062616c616e6365455243313135353a2063616c6c6572206973206e6f74206f776e6572206e6f7220617070726f76656445434453413a20696e76616c6964207369676e6174757265202773272076616c7565455243313135353a207472616e7366657220746f20746865207a65726f2061646472657373455243313135353a207472616e736665722063616c6c6572206973206e6f74206f776e6572206e6f7220617070726f766564496e697469616c697a61626c653a20636f6e747261637420697320616c726561647920696e697469616c697a656445434453413a20696e76616c6964207369676e6174757265202776272076616c7565455243313135353a206275726e2066726f6d20746865207a65726f2061646472657373455243313135353a20696e73756666696369656e742062616c616e636520666f72207472616e73666572455243313135353a2073657474696e6720617070726f76616c2073746174757320666f722073656c66455243313135353a206163636f756e747320616e6420696473206c656e677468206d69736d61746368455243313135353a2069647320616e6420616d6f756e7473206c656e677468206d69736d61746368455243313135353a206d696e7420746f20746865207a65726f2061646472657373a2646970667358221220fbaa37c0b437cb5353f05e5916d407ac04c2c6d74cf0db7c9e26547b817f8ad564736f6c63430007060033",
  "linkReferences": {},
  "deployedLinkReferences": {}
}