{
  "_format": "hh-sol-artifact-1",
  "contractName": "EcoFiExchangeV2",
  "sourceName": "contracts/EcoFiExchangeV2.sol",
  "abi": [
    {
      "anonymous": false,
      "inputs": [
        {
          "indexed": false,
          "internalType": "bytes32",
          "name": "hash",
          "type": "bytes32"
        },
        {
          "indexed": false,
          "internalType": "address",
          "name": "maker",
          "type": "address"
        },
        {
          "components": [
            {
              "internalType": "bytes4",
              "name": "assetClass",
              "type": "bytes4"
            },
            {
              "internalType": "bytes",
              "name": "data",
              "type": "bytes"
            }
          ],
          "indexed": false,
          "internalType": "struct LibAsset.AssetType",
          "name": "makeAssetType",
          "type": "tuple"
        },
        {
          "components": [
            {
              "internalType": "bytes4",
              "name": "assetClass",
              "type": "bytes4"
            },
            {
              "internalType": "bytes",
              "name": "data",
              "type": "bytes"
            }
          ],
          "indexed": false,
          "internalType": "struct LibAsset.AssetType",
          "name": "takeAssetType",
          "type": "tuple"
        }
      ],
      "name": "Cancel",
      "type": "event"
    },
    {
      "anonymous": false,
      "inputs": [
        {
          "indexed": false,
          "internalType": "bytes32",
          "name": "leftHash",
          "type": "bytes32"
        },
        {
          "indexed": false,
          "internalType": "bytes32",
          "name": "rightHash",
          "type": "bytes32"
        },
        {
          "indexed": false,
          "internalType": "address",
          "name": "leftMaker",
          "type": "address"
        },
        {
          "indexed": false,
          "internalType": "address",
          "name": "rightMaker",
          "type": "address"
        },
        {
          "indexed": false,
          "internalType": "uint256",
          "name": "newLeftFill",
          "type": "uint256"
        },
        {
          "indexed": false,
          "internalType": "uint256",
          "name": "newRightFill",
          "type": "uint256"
        },
        {
          "components": [
            {
              "internalType": "bytes4",
              "name": "assetClass",
              "type": "bytes4"
            },
            {
              "internalType": "bytes",
              "name": "data",
              "type": "bytes"
            }
          ],
          "indexed": false,
          "internalType": "struct LibAsset.AssetType",
          "name": "leftAsset",
          "type": "tuple"
        },
        {
          "components": [
            {
              "internalType": "bytes4",
              "name": "assetClass",
              "type": "bytes4"
            },
            {
              "internalType": "bytes",
              "name": "data",
              "type": "bytes"
            }
          ],
          "indexed": false,
          "internalType": "struct LibAsset.AssetType",
          "name": "rightAsset",
          "type": "tuple"
        }
      ],
      "name": "Match",
      "type": "event"
    },
    {
      "anonymous": false,
      "inputs": [
        {
          "indexed": true,
          "internalType": "bytes4",
          "name": "assetType",
          "type": "bytes4"
        },
        {
          "indexed": false,
          "internalType": "address",
          "name": "matcher",
          "type": "address"
        }
      ],
      "name": "MatcherChange",
      "type": "event"
    },
    {
      "anonymous": false,
      "inputs": [
        {
          "indexed": true,
          "internalType": "address",
          "name": "previousOwner",
          "type": "address"
        },
        {
          "indexed": true,
          "internalType": "address",
          "name": "newOwner",
          "type": "address"
        }
      ],
      "name": "OwnershipTransferred",
      "type": "event"
    },
    {
      "anonymous": false,
      "inputs": [
        {
          "indexed": true,
          "internalType": "bytes4",
          "name": "assetType",
          "type": "bytes4"
        },
        {
          "indexed": false,
          "internalType": "address",
          "name": "proxy",
          "type": "address"
        }
      ],
      "name": "ProxyChange",
      "type": "event"
    },
    {
      "anonymous": false,
      "inputs": [
        {
          "components": [
            {
              "components": [
                {
                  "internalType": "bytes4",
                  "name": "assetClass",
                  "type": "bytes4"
                },
                {
                  "internalType": "bytes",
                  "name": "data",
                  "type": "bytes"
                }
              ],
              "internalType": "struct LibAsset.AssetType",
              "name": "assetType",
              "type": "tuple"
            },
            {
              "internalType": "uint256",
              "name": "value",
              "type": "uint256"
            }
          ],
          "indexed": false,
          "internalType": "struct LibAsset.Asset",
          "name": "asset",
          "type": "tuple"
        },
        {
          "indexed": false,
          "internalType": "address",
          "name": "from",
          "type": "address"
        },
        {
          "indexed": false,
          "internalType": "address",
          "name": "to",
          "type": "address"
        },
        {
          "indexed": false,
          "internalType": "bytes4",
          "name": "transferDirection",
          "type": "bytes4"
        },
        {
          "indexed": false,
          "internalType": "bytes4",
          "name": "transferType",
          "type": "bytes4"
        }
      ],
      "name": "Transfer",
      "type": "event"
    },
    {
      "inputs": [
        {
          "internalType": "contract INftTransferProxy",
          "name": "_transferProxy",
          "type": "address"
        },
        {
          "internalType": "contract IERC20TransferProxy",
          "name": "_erc20TransferProxy",
          "type": "address"
        },
        {
          "internalType": "uint256",
          "name": "newProtocolFee",
          "type": "uint256"
        },
        {
          "internalType": "address payable",
          "name": "newDefaultFeeReceiver",
          "type": "address"
        },
        {
          "internalType": "contract IRoyaltiesProvider",
          "name": "newRoyaltiesProvider",
          "type": "address"
        }
      ],
      "name": "__EcoExchangeV2_init",
      "outputs": [],
      "stateMutability": "nonpayable",
      "type": "function"
    },
    {
      "inputs": [
        {
          "components": [
            {
              "internalType": "address",
              "name": "maker",
              "type": "address"
            },
            {
              "components": [
                {
                  "components": [
                    {
                      "internalType": "bytes4",
                      "name": "assetClass",
                      "type": "bytes4"
                    },
                    {
                      "internalType": "bytes",
                      "name": "data",
                      "type": "bytes"
                    }
                  ],
                  "internalType": "struct LibAsset.AssetType",
                  "name": "assetType",
                  "type": "tuple"
                },
                {
                  "internalType": "uint256",
                  "name": "value",
                  "type": "uint256"
                }
              ],
              "internalType": "struct LibAsset.Asset",
              "name": "makeAsset",
              "type": "tuple"
            },
            {
              "internalType": "address",
              "name": "taker",
              "type": "address"
            },
            {
              "components": [
                {
                  "components": [
                    {
                      "internalType": "bytes4",
                      "name": "assetClass",
                      "type": "bytes4"
                    },
                    {
                      "internalType": "bytes",
                      "name": "data",
                      "type": "bytes"
                    }
                  ],
                  "internalType": "struct LibAsset.AssetType",
                  "name": "assetType",
                  "type": "tuple"
                },
                {
                  "internalType": "uint256",
                  "name": "value",
                  "type": "uint256"
                }
              ],
              "internalType": "struct LibAsset.Asset",
              "name": "takeAsset",
              "type": "tuple"
            },
            {
              "internalType": "uint256",
              "name": "salt",
              "type": "uint256"
            },
            {
              "internalType": "uint256",
              "name": "start",
              "type": "uint256"
            },
            {
              "internalType": "uint256",
              "name": "end",
              "type": "uint256"
            },
            {
              "internalType": "bytes4",
              "name": "dataType",
              "type": "bytes4"
            },
            {
              "internalType": "bytes",
              "name": "data",
              "type": "bytes"
            }
          ],
          "internalType": "struct LibOrder.Order",
          "name": "order",
          "type": "tuple"
        }
      ],
      "name": "cancel",
      "outputs": [],
      "stateMutability": "nonpayable",
      "type": "function"
    },
    {
      "inputs": [],
      "name": "defaultFeeReceiver",
      "outputs": [
        {
          "internalType": "address",
          "name": "",
          "type": "address"
        }
      ],
      "stateMutability": "view",
      "type": "function"
    },
    {
      "inputs": [
        {
          "internalType": "address",
          "name": "",
          "type": "address"
        }
      ],
      "name": "feeReceivers",
      "outputs": [
        {
          "internalType": "address",
          "name": "",
          "type": "address"
        }
      ],
      "stateMutability": "view",
      "type": "function"
    },
    {
      "inputs": [
        {
          "internalType": "bytes32",
          "name": "",
          "type": "bytes32"
        }
      ],
      "name": "fills",
      "outputs": [
        {
          "internalType": "uint256",
          "name": "",
          "type": "uint256"
        }
      ],
      "stateMutability": "view",
      "type": "function"
    },
    {
      "inputs": [
        {
          "components": [
            {
              "internalType": "address",
              "name": "maker",
              "type": "address"
            },
            {
              "components": [
                {
                  "components": [
                    {
                      "internalType": "bytes4",
                      "name": "assetClass",
                      "type": "bytes4"
                    },
                    {
                      "internalType": "bytes",
                      "name": "data",
                      "type": "bytes"
                    }
                  ],
                  "internalType": "struct LibAsset.AssetType",
                  "name": "assetType",
                  "type": "tuple"
                },
                {
                  "internalType": "uint256",
                  "name": "value",
                  "type": "uint256"
                }
              ],
              "internalType": "struct LibAsset.Asset",
              "name": "makeAsset",
              "type": "tuple"
            },
            {
              "internalType": "address",
              "name": "taker",
              "type": "address"
            },
            {
              "components": [
                {
                  "components": [
                    {
                      "internalType": "bytes4",
                      "name": "assetClass",
                      "type": "bytes4"
                    },
                    {
                      "internalType": "bytes",
                      "name": "data",
                      "type": "bytes"
                    }
                  ],
                  "internalType": "struct LibAsset.AssetType",
                  "name": "assetType",
                  "type": "tuple"
                },
                {
                  "internalType": "uint256",
                  "name": "value",
                  "type": "uint256"
                }
              ],
              "internalType": "struct LibAsset.Asset",
              "name": "takeAsset",
              "type": "tuple"
            },
            {
              "internalType": "uint256",
              "name": "salt",
              "type": "uint256"
            },
            {
              "internalType": "uint256",
              "name": "start",
              "type": "uint256"
            },
            {
              "internalType": "uint256",
              "name": "end",
              "type": "uint256"
            },
            {
              "internalType": "bytes4",
              "name": "dataType",
              "type": "bytes4"
            },
            {
              "internalType": "bytes",
              "name": "data",
              "type": "bytes"
            }
          ],
          "internalType": "struct LibOrder.Order",
          "name": "orderLeft",
          "type": "tuple"
        },
        {
          "internalType": "bytes",
          "name": "signatureLeft",
          "type": "bytes"
        },
        {
          "components": [
            {
              "internalType": "address",
              "name": "maker",
              "type": "address"
            },
            {
              "components": [
                {
                  "components": [
                    {
                      "internalType": "bytes4",
                      "name": "assetClass",
                      "type": "bytes4"
                    },
                    {
                      "internalType": "bytes",
                      "name": "data",
                      "type": "bytes"
                    }
                  ],
                  "internalType": "struct LibAsset.AssetType",
                  "name": "assetType",
                  "type": "tuple"
                },
                {
                  "internalType": "uint256",
                  "name": "value",
                  "type": "uint256"
                }
              ],
              "internalType": "struct LibAsset.Asset",
              "name": "makeAsset",
              "type": "tuple"
            },
            {
              "internalType": "address",
              "name": "taker",
              "type": "address"
            },
            {
              "components": [
                {
                  "components": [
                    {
                      "internalType": "bytes4",
                      "name": "assetClass",
                      "type": "bytes4"
                    },
                    {
                      "internalType": "bytes",
                      "name": "data",
                      "type": "bytes"
                    }
                  ],
                  "internalType": "struct LibAsset.AssetType",
                  "name": "assetType",
                  "type": "tuple"
                },
                {
                  "internalType": "uint256",
                  "name": "value",
                  "type": "uint256"
                }
              ],
              "internalType": "struct LibAsset.Asset",
              "name": "takeAsset",
              "type": "tuple"
            },
            {
              "internalType": "uint256",
              "name": "salt",
              "type": "uint256"
            },
            {
              "internalType": "uint256",
              "name": "start",
              "type": "uint256"
            },
            {
              "internalType": "uint256",
              "name": "end",
              "type": "uint256"
            },
            {
              "internalType": "bytes4",
              "name": "dataType",
              "type": "bytes4"
            },
            {
              "internalType": "bytes",
              "name": "data",
              "type": "bytes"
            }
          ],
          "internalType": "struct LibOrder.Order",
          "name": "orderRight",
          "type": "tuple"
        },
        {
          "internalType": "bytes",
          "name": "signatureRight",
          "type": "bytes"
        }
      ],
      "name": "matchOrders",
      "outputs": [],
      "stateMutability": "payable",
      "type": "function"
    },
    {
      "inputs": [],
      "name": "owner",
      "outputs": [
        {
          "internalType": "address",
          "name": "",
          "type": "address"
        }
      ],
      "stateMutability": "view",
      "type": "function"
    },
    {
      "inputs": [],
      "name": "protocolFee",
      "outputs": [
        {
          "internalType": "uint256",
          "name": "",
          "type": "uint256"
        }
      ],
      "stateMutability": "view",
      "type": "function"
    },
    {
      "inputs": [],
      "name": "renounceOwnership",
      "outputs": [],
      "stateMutability": "nonpayable",
      "type": "function"
    },
    {
      "inputs": [],
      "name": "royaltiesRegistry",
      "outputs": [
        {
          "internalType": "contract IRoyaltiesProvider",
          "name": "",
          "type": "address"
        }
      ],
      "stateMutability": "view",
      "type": "function"
    },
    {
      "inputs": [
        {
          "internalType": "bytes4",
          "name": "assetType",
          "type": "bytes4"
        },
        {
          "internalType": "address",
          "name": "matcher",
          "type": "address"
        }
      ],
      "name": "setAssetMatcher",
      "outputs": [],
      "stateMutability": "nonpayable",
      "type": "function"
    },
    {
      "inputs": [
        {
          "internalType": "address payable",
          "name": "newDefaultFeeReceiver",
          "type": "address"
        }
      ],
      "name": "setDefaultFeeReceiver",
      "outputs": [],
      "stateMutability": "nonpayable",
      "type": "function"
    },
    {
      "inputs": [
        {
          "internalType": "address",
          "name": "token",
          "type": "address"
        },
        {
          "internalType": "address",
          "name": "wallet",
          "type": "address"
        }
      ],
      "name": "setFeeReceiver",
      "outputs": [],
      "stateMutability": "nonpayable",
      "type": "function"
    },
    {
      "inputs": [
        {
          "internalType": "uint256",
          "name": "newProtocolFee",
          "type": "uint256"
        }
      ],
      "name": "setProtocolFee",
      "outputs": [],
      "stateMutability": "nonpayable",
      "type": "function"
    },
    {
      "inputs": [
        {
          "internalType": "contract IRoyaltiesProvider",
          "name": "newRoyaltiesRegistry",
          "type": "address"
        }
      ],
      "name": "setRoyaltiesRegistry",
      "outputs": [],
      "stateMutability": "nonpayable",
      "type": "function"
    },
    {
      "inputs": [
        {
          "internalType": "bytes4",
          "name": "assetType",
          "type": "bytes4"
        },
        {
          "internalType": "address",
          "name": "proxy",
          "type": "address"
        }
      ],
      "name": "setTransferProxy",
      "outputs": [],
      "stateMutability": "nonpayable",
      "type": "function"
    },
    {
      "inputs": [
        {
          "internalType": "address",
          "name": "newOwner",
          "type": "address"
        }
      ],
      "name": "transferOwnership",
      "outputs": [],
      "stateMutability": "nonpayable",
      "type": "function"
    }
  ],
  "bytecode": "0x608060405234801561001057600080fd5b5061689e80620000216000396000f3fe6080604052600436106100fe5760003560e01c8063787dce3d11610095578063c08693a411610064578063c08693a41461030d578063e2864fe314610336578063e66db25e1461035f578063e99a3f8014610388578063f2fde38b146103a4576100fe565b8063787dce3d146102655780638da5cb5b1461028e578063b0e21e8a146102b9578063b39deb46146102e4576100fe565b80633abf6fd4116100d15780633abf6fd4146101cf5780633be89922146101fa5780636d8f069414610223578063715018a61461024e576100fe565b806302097ab1146101035780631cdfe3d81461014057806320158c441461016957806330c642f1146101a6575b600080fd5b34801561010f57600080fd5b5061012a60048036038101906101259190615765565b6103cd565b6040516101379190615fb9565b60405180910390f35b34801561014c57600080fd5b506101676004803603810190610162919061578e565b610401565b005b34801561017557600080fd5b50610190600480360381019061018b9190615899565b6104f5565b60405161019d91906163f6565b60405180910390f35b3480156101b257600080fd5b506101cd60048036038101906101c891906158c2565b61050e565b005b3480156101db57600080fd5b506101e46106a8565b6040516101f19190615fb9565b60405180910390f35b34801561020657600080fd5b50610221600480360381019061021c9190615975565b6106cf565b005b34801561022f57600080fd5b506102386107c3565b60405161024591906161cc565b60405180910390f35b34801561025a57600080fd5b506102636107ea565b005b34801561027157600080fd5b5061028c60048036038101906102879190615b24565b61095a565b005b34801561029a57600080fd5b506102a3610a14565b6040516102b09190615fb9565b60405180910390f35b3480156102c557600080fd5b506102ce610a3e565b6040516102db91906163f6565b60405180910390f35b3480156102f057600080fd5b5061030b600480360381019061030691906158c2565b610a45565b005b34801561031957600080fd5b50610334600480360381019061032f91906158fe565b610bdf565b005b34801561034257600080fd5b5061035d60048036038101906103589190615a20565b610d0f565b005b34801561036b57600080fd5b506103866004803603810190610381919061581c565b610e6b565b005b6103a2600480360381019061039d9190615a61565b610f9d565b005b3480156103b057600080fd5b506103cb60048036038101906103c69190615765565b61111f565b005b6101646020528060005260406000206000915054906101000a900473ffffffffffffffffffffffffffffffffffffffff1681565b610409611314565b73ffffffffffffffffffffffffffffffffffffffff16610427610a14565b73ffffffffffffffffffffffffffffffffffffffff16146104b0576040517f08c379a00000000000000000000000000000000000000000000000000000000081526004018080602001828103825260208152602001807f4f776e61626c653a2063616c6c6572206973206e6f7420746865206f776e657281525060200191505060405180910390fd5b8061016360006101000a81548173ffffffffffffffffffffffffffffffffffffffff021916908373ffffffffffffffffffffffffffffffffffffffff16021790555050565b61012f6020528060005260406000206000915090505481565b610516611314565b73ffffffffffffffffffffffffffffffffffffffff16610534610a14565b73ffffffffffffffffffffffffffffffffffffffff16146105bd576040517f08c379a00000000000000000000000000000000000000000000000000000000081526004018080602001828103825260208152602001807f4f776e61626c653a2063616c6c6572206973206e6f7420746865206f776e657281525060200191505060405180910390fd5b8060976000847bffffffffffffffffffffffffffffffffffffffffffffffffffffffff19167bffffffffffffffffffffffffffffffffffffffffffffffffffffffff1916815260200190815260200160002060006101000a81548173ffffffffffffffffffffffffffffffffffffffff021916908373ffffffffffffffffffffffffffffffffffffffff160217905550817bffffffffffffffffffffffffffffffffffffffffffffffffffffffff19167f4b5aced933c0c9a88aeac3f0b3b72c5aaf75df8ebaf53225773248c4c31535938260405161069c9190615fb9565b60405180910390a25050565b61016360009054906101000a900473ffffffffffffffffffffffffffffffffffffffff1681565b6106d7611314565b73ffffffffffffffffffffffffffffffffffffffff166106f5610a14565b73ffffffffffffffffffffffffffffffffffffffff161461077e576040517f08c379a00000000000000000000000000000000000000000000000000000000081526004018080602001828103825260208152602001807f4f776e61626c653a2063616c6c6572206973206e6f7420746865206f776e657281525060200191505060405180910390fd5b8061016260006101000a81548173ffffffffffffffffffffffffffffffffffffffff021916908373ffffffffffffffffffffffffffffffffffffffff16021790555050565b61016260009054906101000a900473ffffffffffffffffffffffffffffffffffffffff1681565b6107f2611314565b73ffffffffffffffffffffffffffffffffffffffff16610810610a14565b73ffffffffffffffffffffffffffffffffffffffff1614610899576040517f08c379a00000000000000000000000000000000000000000000000000000000081526004018080602001828103825260208152602001807f4f776e61626c653a2063616c6c6572206973206e6f7420746865206f776e657281525060200191505060405180910390fd5b600073ffffffffffffffffffffffffffffffffffffffff16603360009054906101000a900473ffffffffffffffffffffffffffffffffffffffff1673ffffffffffffffffffffffffffffffffffffffff167f8be0079c531659141344cd1fd0a4f28419497f9722a3daafe3b4186f6b6457e060405160405180910390a36000603360006101000a81548173ffffffffffffffffffffffffffffffffffffffff021916908373ffffffffffffffffffffffffffffffffffffffff160217905550565b610962611314565b73ffffffffffffffffffffffffffffffffffffffff16610980610a14565b73ffffffffffffffffffffffffffffffffffffffff1614610a09576040517f08c379a00000000000000000000000000000000000000000000000000000000081526004018080602001828103825260208152602001807f4f776e61626c653a2063616c6c6572206973206e6f7420746865206f776e657281525060200191505060405180910390fd5b806101618190555050565b6000603360009054906101000a900473ffffffffffffffffffffffffffffffffffffffff16905090565b6101615481565b610a4d611314565b73ffffffffffffffffffffffffffffffffffffffff16610a6b610a14565b73ffffffffffffffffffffffffffffffffffffffff1614610af4576040517f08c379a00000000000000000000000000000000000000000000000000000000081526004018080602001828103825260208152602001807f4f776e61626c653a2063616c6c6572206973206e6f7420746865206f776e657281525060200191505060405180910390fd5b8060656000847bffffffffffffffffffffffffffffffffffffffffffffffffffffffff19167bffffffffffffffffffffffffffffffffffffffffffffffffffffffff1916815260200190815260200160002060006101000a81548173ffffffffffffffffffffffffffffffffffffffff021916908373ffffffffffffffffffffffffffffffffffffffff160217905550817bffffffffffffffffffffffffffffffffffffffffffffffffffffffff19167fd2bf91075f105d0fd80328da28e20ebdad1c1261839711183bc29a44cbe6c72f82604051610bd39190615fb9565b60405180910390a25050565b600060019054906101000a900460ff1680610bfe5750610bfd61131c565b5b80610c14575060008054906101000a900460ff16155b610c69576040517f08c379a000000000000000000000000000000000000000000000000000000000815260040180806020018281038252602e8152602001806167f8602e913960400191505060405180910390fd5b60008060019054906101000a900460ff161590508015610cb9576001600060016101000a81548160ff02191690831515021790555060016000806101000a81548160ff0219169083151502179055505b610cc161132d565b610cc961142b565b610cd386866115d2565b610cde8484846117e6565b610ce6611973565b8015610d075760008060016101000a81548160ff0219169083151502179055505b505050505050565b806000015173ffffffffffffffffffffffffffffffffffffffff16610d32611314565b73ffffffffffffffffffffffffffffffffffffffff1614610d88576040517f08c379a0000000000000000000000000000000000000000000000000000000008152600401610d7f90616307565b60405180910390fd5b600081608001511415610dd0576040517f08c379a0000000000000000000000000000000000000000000000000000000008152600401610dc790616207565b60405180910390fd5b6000610ddb82611ae5565b90507fffffffffffffffffffffffffffffffffffffffffffffffffffffffffffffffff61012f6000838152602001908152602001600020819055507fbbdc98cb2835f4f846e6a63700d0498b4674f0e8858fd50c6379314227afa04e818360000151846020015160000151856060015160000151604051610e5f9493929190615ffd565b60405180910390a15050565b610e73611314565b73ffffffffffffffffffffffffffffffffffffffff16610e91610a14565b73ffffffffffffffffffffffffffffffffffffffff1614610f1a576040517f08c379a00000000000000000000000000000000000000000000000000000000081526004018080602001828103825260208152602001807f4f776e61626c653a2063616c6c6572206973206e6f7420746865206f776e657281525060200191505060405180910390fd5b8061016460008473ffffffffffffffffffffffffffffffffffffffff1673ffffffffffffffffffffffffffffffffffffffff16815260200190815260200160002060006101000a81548173ffffffffffffffffffffffffffffffffffffffff021916908373ffffffffffffffffffffffffffffffffffffffff1602179055505050565b610fa78484611b6b565b610fb18282611b6b565b600073ffffffffffffffffffffffffffffffffffffffff16846040015173ffffffffffffffffffffffffffffffffffffffff161461106057836040015173ffffffffffffffffffffffffffffffffffffffff16826000015173ffffffffffffffffffffffffffffffffffffffff161461105f576040517f08c379a0000000000000000000000000000000000000000000000000000000008152600401611056906162c7565b60405180910390fd5b5b600073ffffffffffffffffffffffffffffffffffffffff16826040015173ffffffffffffffffffffffffffffffffffffffff161461110f57836000015173ffffffffffffffffffffffffffffffffffffffff16826040015173ffffffffffffffffffffffffffffffffffffffff161461110e576040517f08c379a000000000000000000000000000000000000000000000000000000000815260040161110590616227565b60405180910390fd5b5b6111198483611b82565b50505050565b611127611314565b73ffffffffffffffffffffffffffffffffffffffff16611145610a14565b73ffffffffffffffffffffffffffffffffffffffff16146111ce576040517f08c379a00000000000000000000000000000000000000000000000000000000081526004018080602001828103825260208152602001807f4f776e61626c653a2063616c6c6572206973206e6f7420746865206f776e657281525060200191505060405180910390fd5b600073ffffffffffffffffffffffffffffffffffffffff168173ffffffffffffffffffffffffffffffffffffffff161415611254576040517f08c379a00000000000000000000000000000000000000000000000000000000081526004018080602001828103825260268152602001806167636026913960400191505060405180910390fd5b8073ffffffffffffffffffffffffffffffffffffffff16603360009054906101000a900473ffffffffffffffffffffffffffffffffffffffff1673ffffffffffffffffffffffffffffffffffffffff167f8be0079c531659141344cd1fd0a4f28419497f9722a3daafe3b4186f6b6457e060405160405180910390a380603360006101000a81548173ffffffffffffffffffffffffffffffffffffffff021916908373ffffffffffffffffffffffffffffffffffffffff16021790555050565b600033905090565b600061132730611f66565b15905090565b600060019054906101000a900460ff168061134c575061134b61131c565b5b80611362575060008054906101000a900460ff16155b6113b7576040517f08c379a000000000000000000000000000000000000000000000000000000000815260040180806020018281038252602e8152602001806167f8602e913960400191505060405180910390fd5b60008060019054906101000a900460ff161590508015611407576001600060016101000a81548160ff02191690831515021790555060016000806101000a81548160ff0219169083151502179055505b80156114285760008060016101000a81548160ff0219169083151502179055505b50565b600060019054906101000a900460ff168061144a575061144961131c565b5b80611460575060008054906101000a900460ff16155b6114b5576040517f08c379a000000000000000000000000000000000000000000000000000000000815260040180806020018281038252602e8152602001806167f8602e913960400191505060405180910390fd5b60008060019054906101000a900460ff161590508015611505576001600060016101000a81548160ff02191690831515021790555060016000806101000a81548160ff0219169083151502179055505b600061150f611314565b905080603360006101000a81548173ffffffffffffffffffffffffffffffffffffffff021916908373ffffffffffffffffffffffffffffffffffffffff1602179055508073ffffffffffffffffffffffffffffffffffffffff16600073ffffffffffffffffffffffffffffffffffffffff167f8be0079c531659141344cd1fd0a4f28419497f9722a3daafe3b4186f6b6457e060405160405180910390a35080156115cf5760008060016101000a81548160ff0219169083151502179055505b50565b80609760007f8ae85d849167ff996c04040c44924fd364217285e4cad818292c7ac37c0a345b7bffffffffffffffffffffffffffffffffffffffffffffffffffffffff19167bffffffffffffffffffffffffffffffffffffffffffffffffffffffff1916815260200190815260200160002060006101000a81548173ffffffffffffffffffffffffffffffffffffffff021916908373ffffffffffffffffffffffffffffffffffffffff16021790555081609760007f73ad2146b3d3a286642c794379d750360a2d53a3459a11b3e5d6cc900f55f44a7bffffffffffffffffffffffffffffffffffffffffffffffffffffffff19167bffffffffffffffffffffffffffffffffffffffffffffffffffffffff1916815260200190815260200160002060006101000a81548173ffffffffffffffffffffffffffffffffffffffff021916908373ffffffffffffffffffffffffffffffffffffffff16021790555081609760007f973bb64086f173ec8099b7ed3d43da984f4a332e4417a08bc6a286e6402b05867bffffffffffffffffffffffffffffffffffffffffffffffffffffffff19167bffffffffffffffffffffffffffffffffffffffffffffffffffffffff1916815260200190815260200160002060006101000a81548173ffffffffffffffffffffffffffffffffffffffff021916908373ffffffffffffffffffffffffffffffffffffffff1602179055505050565b600060019054906101000a900460ff1680611805575061180461131c565b5b8061181b575060008054906101000a900460ff16155b611870576040517f08c379a000000000000000000000000000000000000000000000000000000000815260040180806020018281038252602e8152602001806167f8602e913960400191505060405180910390fd5b60008060019054906101000a900460ff1615905080156118c0576001600060016101000a81548160ff02191690831515021790555060016000806101000a81548160ff0219169083151502179055505b83610161819055508261016360006101000a81548173ffffffffffffffffffffffffffffffffffffffff021916908373ffffffffffffffffffffffffffffffffffffffff1602179055508161016260006101000a81548173ffffffffffffffffffffffffffffffffffffffff021916908373ffffffffffffffffffffffffffffffffffffffff160217905550801561196d5760008060016101000a81548160ff0219169083151502179055505b50505050565b600060019054906101000a900460ff1680611992575061199161131c565b5b806119a8575060008054906101000a900460ff16155b6119fd576040517f08c379a000000000000000000000000000000000000000000000000000000000815260040180806020018281038252602e8152602001806167f8602e913960400191505060405180910390fd5b60008060019054906101000a900460ff161590508015611a4d576001600060016101000a81548160ff02191690831515021790555060016000806101000a81548160ff0219169083151502179055505b611ac16040518060400160405280600881526020017f45786368616e67650000000000000000000000000000000000000000000000008152506040518060400160405280600181526020017f3200000000000000000000000000000000000000000000000000000000000000815250611f79565b8015611ae25760008060016101000a81548160ff0219169083151502179055505b50565b60008160000151611afd8360200151600001516120a1565b611b0e8460600151600001516120a1565b8460800151604051602001808573ffffffffffffffffffffffffffffffffffffffff168152602001848152602001838152602001828152602001945050505050604051602081830303815290604052805190602001209050919050565b611b748261212f565b611b7e8282612242565b5050565b600080611b8f84846125c3565b915091506000611b9e85611ae5565b90506000611bab85611ae5565b90506000611bb987846126e6565b90506000611bc787846126e6565b90506000611bd78989858561271b565b90506000816020015111611c20576040517f08c379a0000000000000000000000000000000000000000000000000000000008152600401611c1790616267565b60405180910390fd5b6000896080015114611c5c57611c4381602001518461279f90919063ffffffff16565b61012f6000878152602001908152602001600020819055505b6000886080015114611c9857611c7f81600001518361279f90919063ffffffff16565b61012f6000868152602001908152602001600020819055505b600080611ca88989858e8e612827565b915091507faaaebeba3810b1e6b70781f14b2d72c1cb89c0b2b320c43bb67ff79f562f5ff47bffffffffffffffffffffffffffffffffffffffffffffffffffffffff191689600001517bffffffffffffffffffffffffffffffffffffffffffffffffffffffff19161415611e11577faaaebeba3810b1e6b70781f14b2d72c1cb89c0b2b320c43bb67ff79f562f5ff47bffffffffffffffffffffffffffffffffffffffffffffffffffffffff191688600001517bffffffffffffffffffffffffffffffffffffffffffffffffffffffff19161415611d8557600080fd5b81341015611dc8576040517f08c379a0000000000000000000000000000000000000000000000000000000008152600401611dbf906162e7565b60405180910390fd5b81341115611e0c57611e0b611de6833461299d90919063ffffffff16565b3373ffffffffffffffffffffffffffffffffffffffff16612a2090919063ffffffff16565b5b611f04565b7faaaebeba3810b1e6b70781f14b2d72c1cb89c0b2b320c43bb67ff79f562f5ff47bffffffffffffffffffffffffffffffffffffffffffffffffffffffff191688600001517bffffffffffffffffffffffffffffffffffffffffffffffffffffffff19161415611f035780341015611ebe576040517f08c379a0000000000000000000000000000000000000000000000000000000008152600401611eb5906162e7565b60405180910390fd5b80341115611f0257611f01611edc823461299d90919063ffffffff16565b3373ffffffffffffffffffffffffffffffffffffffff16612a2090919063ffffffff16565b5b5b5b7f268820db288a211986b26a8fda86b1e0046281b21206936bb0e61c67b5c79ef487878d600001518d60000151876020015188600001518f8f604051611f51989796959493929190616050565b60405180910390a15050505050505050505050565b600080823b905060008111915050919050565b600060019054906101000a900460ff1680611f985750611f9761131c565b5b80611fae575060008054906101000a900460ff16155b612003576040517f08c379a000000000000000000000000000000000000000000000000000000000815260040180806020018281038252602e8152602001806167f8602e913960400191505060405180910390fd5b60008060019054906101000a900460ff161590508015612053576001600060016101000a81548160ff02191690831515021790555060016000806101000a81548160ff0219169083151502179055505b6000838051906020012090506000838051906020012090508160c9819055508060ca819055505050801561209c5760008060016101000a81548160ff0219169083151502179055505b505050565b60007f452a0dc408cb0d27ffc3b3caff933a5208040a53a9dbecd8d89cad2c0d40e00c826000015183602001518051906020012060405160200180848152602001837bffffffffffffffffffffffffffffffffffffffffffffffffffffffff191681526020018281526020019350505050604051602081830303815290604052805190602001209050919050565b60008160a0015114806121455750428160a00151105b6121b7576040517f08c379a000000000000000000000000000000000000000000000000000000000815260040180806020018281038252601d8152602001807f4f726465722073746172742076616c69646174696f6e206661696c656400000081525060200191505060405180910390fd5b60008160c0015114806121cd5750428160c00151115b61223f576040517f08c379a000000000000000000000000000000000000000000000000000000000815260040180806020018281038252601b8152602001807f4f7264657220656e642076616c69646174696f6e206661696c6564000000000081525060200191505060405180910390fd5b50565b60008260800151141561230057816000015173ffffffffffffffffffffffffffffffffffffffff16612272611314565b73ffffffffffffffffffffffffffffffffffffffff16146122fb576040517f08c379a00000000000000000000000000000000000000000000000000000000081526004018080602001828103825260168152602001807f6d616b6572206973206e6f742074782073656e6465720000000000000000000081525060200191505060405180910390fd5b6125bf565b816000015173ffffffffffffffffffffffffffffffffffffffff16612323611314565b73ffffffffffffffffffffffffffffffffffffffff16146125be57600061234983612b01565b9050826000015173ffffffffffffffffffffffffffffffffffffffff166123818361237384612c20565b612c8790919063ffffffff16565b73ffffffffffffffffffffffffffffffffffffffff16146125bc576123bf836000015173ffffffffffffffffffffffffffffffffffffffff16611f66565b1561256a57631626ba7e60e01b7bffffffffffffffffffffffffffffffffffffffffffffffffffffffff1916836000015173ffffffffffffffffffffffffffffffffffffffff16631626ba7e61241484612c20565b856040518363ffffffff1660e01b81526004018083815260200180602001828103825283818151815260200191508051906020019080838360005b8381101561246a57808201518184015260208101905061244f565b50505050905090810190601f1680156124975780820380516001836020036101000a031916815260200191505b50935050505060206040518083038186803b1580156124b557600080fd5b505afa1580156124c9573d6000803e3d6000fd5b505050506040513d60208110156124df57600080fd5b81019080805190602001909291905050507bffffffffffffffffffffffffffffffffffffffffffffffffffffffff191614612565576040517f08c379a000000000000000000000000000000000000000000000000000000000815260040180806020018281038252602b8152602001806167cd602b913960400191505060405180910390fd5b6125bb565b6040517f08c379a00000000000000000000000000000000000000000000000000000000081526004018080602001828103825260228152602001806167ab6022913960400191505060405180910390fd5b5b505b5b5050565b6125cb615140565b6125d3615140565b6125ed846020015160000151846060015160000151612d34565b9150600060e01b82600001517bffffffffffffffffffffffffffffffffffffffffffffffffffffffff19161415612659576040517f08c379a0000000000000000000000000000000000000000000000000000000008152600401612650906162a7565b60405180910390fd5b612673846060015160000151846020015160000151612d34565b9050600060e01b81600001517bffffffffffffffffffffffffffffffffffffffffffffffffffffffff191614156126df576040517f08c379a00000000000000000000000000000000000000000000000000000000081526004016126d6906162a7565b60405180910390fd5b9250929050565b600080836080015114156126fd5760009050612715565b61012f60008381526020019081526020016000205490505b92915050565b612723615179565b6000806127308786612d96565b915091506000806127418887612d96565b91509150838111156127745761276984848a60200151602001518b6060015160200151612dda565b945050505050612797565b6127908960200151602001518a60600151602001518484612e87565b9450505050505b949350505050565b60008082840190508381101561281d576040517f08c379a000000000000000000000000000000000000000000000000000000000815260040180806020018281038252601b8152602001807f536166654d6174683a206164646974696f6e206f766572666c6f77000000000081525060200191505060405180910390fd5b8091505092915050565b600080600061283e88600001518860000151612f34565b905085600001519250856020015191506000612859866131db565b90506000612866866131db565b90506001600281111561287557fe5b83600281111561288157fe5b14156128fe576128be8860000151886000015184848e8e7f1a0388dd7519a093630516a672419a2562e0e74deb98af068657dc265f0164c961333c565b94506128f9898960200151886000015185600001517fb45a3ba14423c8f1b71cc094845ab56b5294dbe8d8e3ba53f3cdb63d59a4044b6133fa565b612990565b60028081111561290a57fe5b83600281111561291657fe5b141561298f576129538860200151876000015183858d8f7fb45a3ba14423c8f1b71cc094845ab56b5294dbe8d8e3ba53f3cdb63d59a4044b61333c565b935061298e8a8960000151896000015184600001517f1a0388dd7519a093630516a672419a2562e0e74deb98af068657dc265f0164c96133fa565b5b5b5050509550959350505050565b600082821115612a15576040517f08c379a000000000000000000000000000000000000000000000000000000000815260040180806020018281038252601e8152602001807f536166654d6174683a207375627472616374696f6e206f766572666c6f77000081525060200191505060405180910390fd5b818303905092915050565b60008273ffffffffffffffffffffffffffffffffffffffff168260405180600001905060006040518083038185875af1925050503d8060008114612a80576040519150601f19603f3d011682016040523d82523d6000602084013e612a85565b606091505b5050905080612afc576040517f08c379a000000000000000000000000000000000000000000000000000000000815260040180806020018281038252600f8152602001807f7472616e73666572206661696c6564000000000000000000000000000000000081525060200191505060405180910390fd5b505050565b60007f477ed43b8020849b755512278536c3766a3b4ab547519949a75f483372493f8d8260000151612b3684602001516135eb565b8460400151612b4886606001516135eb565b86608001518760a001518860c001518960e001518a610100015180519060200120604051602001808b81526020018a73ffffffffffffffffffffffffffffffffffffffff1681526020018981526020018873ffffffffffffffffffffffffffffffffffffffff168152602001878152602001868152602001858152602001848152602001837bffffffffffffffffffffffffffffffffffffffffffffffffffffffff191681526020018281526020019a5050505050505050505050604051602081830303815290604052805190602001209050919050565b6000612c2a61365b565b8260405160200180807f190100000000000000000000000000000000000000000000000000000000000081525060020183815260200182815260200192505050604051602081830303815290604052805190602001209050919050565b60006041825114612d00576040517f08c379a000000000000000000000000000000000000000000000000000000000815260040180806020018281038252601f8152602001807f45434453413a20696e76616c6964207369676e6174757265206c656e6774680081525060200191505060405180910390fd5b60008060006020850151925060408501519150606085015160001a9050612d298682858561369b565b935050505092915050565b612d3c615140565b6000612d48848461389a565b9050600060e01b81600001517bffffffffffffffffffffffffffffffffffffffffffffffffffffffff19161415612d8b57612d83838561389a565b915050612d90565b809150505b92915050565b600080612db48385606001516020015161299d90919063ffffffff16565b9050612dd184602001516020015185606001516020015183613f46565b91509250929050565b612de2615179565b6000612def858585613f46565b905085811115612e67576040517f08c379a00000000000000000000000000000000000000000000000000000000081526004018080602001828103825260188152602001807f66696c6c4c6566743a20756e61626c6520746f2066696c6c000000000000000081525060200191505060405180910390fd5b604051806040016040528087815260200186815250915050949350505050565b612e8f615179565b6000612e9c838787613f46565b905083811115612f14576040517f08c379a00000000000000000000000000000000000000000000000000000000081526004018080602001828103825260198152602001807f66696c6c52696768743a20756e61626c6520746f2066696c6c0000000000000081525060200191505060405180910390fd5b604051806040016040528084815260200182815250915050949350505050565b60007faaaebeba3810b1e6b70781f14b2d72c1cb89c0b2b320c43bb67ff79f562f5ff47bffffffffffffffffffffffffffffffffffffffffffffffffffffffff1916837bffffffffffffffffffffffffffffffffffffffffffffffffffffffff19161415612fa557600190506131d5565b7faaaebeba3810b1e6b70781f14b2d72c1cb89c0b2b320c43bb67ff79f562f5ff47bffffffffffffffffffffffffffffffffffffffffffffffffffffffff1916827bffffffffffffffffffffffffffffffffffffffffffffffffffffffff1916141561301457600290506131d5565b7f8ae85d849167ff996c04040c44924fd364217285e4cad818292c7ac37c0a345b7bffffffffffffffffffffffffffffffffffffffffffffffffffffffff1916837bffffffffffffffffffffffffffffffffffffffffffffffffffffffff1916141561308357600190506131d5565b7f8ae85d849167ff996c04040c44924fd364217285e4cad818292c7ac37c0a345b7bffffffffffffffffffffffffffffffffffffffffffffffffffffffff1916827bffffffffffffffffffffffffffffffffffffffffffffffffffffffff191614156130f257600290506131d5565b7f973bb64086f173ec8099b7ed3d43da984f4a332e4417a08bc6a286e6402b05867bffffffffffffffffffffffffffffffffffffffffffffffffffffffff1916837bffffffffffffffffffffffffffffffffffffffffffffffffffffffff1916141561316157600190506131d5565b7f973bb64086f173ec8099b7ed3d43da984f4a332e4417a08bc6a286e6402b05867bffffffffffffffffffffffffffffffffffffffffffffffffffffffff1916827bffffffffffffffffffffffffffffffffffffffffffffffffffffffff191614156131d057600290506131d5565b600090505b92915050565b6131e3615193565b7f4c23426613a5dc69e08fbd2787e6210aa679d4522e95a89d4dd88c4fd13a22837bffffffffffffffffffffffffffffffffffffffffffffffffffffffff19168260e001517bffffffffffffffffffffffffffffffffffffffffffffffffffffffff191614156132815761325b826101000151613ff4565b90506000816000015151141561327c57613279826000015182614017565b90505b613337565b63ffffffff60e01b8260e001517bffffffffffffffffffffffffffffffffffffffffffffffffffffffff191614156132c8576132c1826000015182614017565b9050613336565b6040517f08c379a00000000000000000000000000000000000000000000000000000000081526004018080602001828103825260178152602001807f556e6b6e6f776e204f726465722064617461207479706500000000000000000081525060200191505060405180910390fd5b5b919050565b600061335088610161548860200151614113565b90506000613361828a8a88876141a9565b90506133718585838c8c8861434f565b90506133a685828b8a602001518c887fdfdfdaf4cc275341b6776a7ee23b953990b8d991717449077287da70f32cf955614549565b90506133db85828b89602001518c887fdfdfdaf4cc275341b6776a7ee23b953990b8d991717449077287da70f32cf955614549565b90506133ee85828a8960000151876133fa565b50979650505050505050565b60008085905060005b600185510381101561350a57600061344986838151811061342057fe5b6020026020010151602001516bffffffffffffffffffffffff16896145f190919063ffffffff16565b905061348386838151811061345a57fe5b6020026020010151602001516bffffffffffffffffffffffff168561279f90919063ffffffff16565b935060008111156134fc576134a1818461299d90919063ffffffff16565b92506134fb60405180604001604052808b815260200183815250888885815181106134c857fe5b602002602001015160000151887fa10bb5b2060a412d05113732875a5431ca23453eb93f797e0ffcb5b40e5f2c3e614622565b5b508080600101915050613403565b5060008460018651038151811061351d57fe5b6020026020010151905061354c81602001516bffffffffffffffffffffffff168461279f90919063ffffffff16565b92506127108314613592576040517f08c379a000000000000000000000000000000000000000000000000000000000815260040161358990616287565b60405180910390fd5b60008211156135e1576135e060405180604001604052808a815260200184815250878360000151877fa10bb5b2060a412d05113732875a5431ca23453eb93f797e0ffcb5b40e5f2c3e614622565b5b5050505050505050565b60007fdb6f72e915676cfc289da13bc4ece054fd17b1df6d77ffc4a60510718c236b0861361b83600001516120a1565b8360200151604051602001808481526020018381526020018281526020019350505050604051602081830303815290604052805190602001209050919050565b60006136967f8b73c3c69bb8fe3d512ecc4cf759cc79239f7b179b0ffacaa9a75d522b39400f613689614d0f565b613691614d19565b614d23565b905090565b60007f7fffffffffffffffffffffffffffffff5d576e7357a4501ddfe92f46681b20a08260001c1115613719576040517f08c379a00000000000000000000000000000000000000000000000000000000081526004018080602001828103825260228152602001806167896022913960400191505060405180910390fd5b601b8460ff16148061372e5750601c8460ff16145b613783576040517f08c379a00000000000000000000000000000000000000000000000000000000081526004018080602001828103825260228152602001806168266022913960400191505060405180910390fd5b600060018686868660405160008152602001604052604051808581526020018460ff1681526020018381526020018281526020019450505050506020604051602081039080840390855afa1580156137df573d6000803e3d6000fd5b505050602060405103519050600073ffffffffffffffffffffffffffffffffffffffff168173ffffffffffffffffffffffffffffffffffffffff16141561388e576040517f08c379a00000000000000000000000000000000000000000000000000000000081526004018080602001828103825260188152602001807f45434453413a20696e76616c6964207369676e6174757265000000000000000081525060200191505060405180910390fd5b80915050949350505050565b6138a2615140565b6000836000015190506000836000015190507faaaebeba3810b1e6b70781f14b2d72c1cb89c0b2b320c43bb67ff79f562f5ff47bffffffffffffffffffffffffffffffffffffffffffffffffffffffff1916827bffffffffffffffffffffffffffffffffffffffffffffffffffffffff191614156139da577faaaebeba3810b1e6b70781f14b2d72c1cb89c0b2b320c43bb67ff79f562f5ff47bffffffffffffffffffffffffffffffffffffffffffffffffffffffff1916817bffffffffffffffffffffffffffffffffffffffffffffffffffffffff1916141561398a578492505050613f40565b6040518060400160405280600060e01b7bffffffffffffffffffffffffffffffffffffffffffffffffffffffff191681526020016040518060200160405280600081525081525092505050613f40565b7f8ae85d849167ff996c04040c44924fd364217285e4cad818292c7ac37c0a345b7bffffffffffffffffffffffffffffffffffffffffffffffffffffffff1916827bffffffffffffffffffffffffffffffffffffffffffffffffffffffff19161415613b09577f8ae85d849167ff996c04040c44924fd364217285e4cad818292c7ac37c0a345b7bffffffffffffffffffffffffffffffffffffffffffffffffffffffff1916817bffffffffffffffffffffffffffffffffffffffffffffffffffffffff19161415613ab957613ab08585614d92565b92505050613f40565b6040518060400160405280600060e01b7bffffffffffffffffffffffffffffffffffffffffffffffffffffffff191681526020016040518060200160405280600081525081525092505050613f40565b7f73ad2146b3d3a286642c794379d750360a2d53a3459a11b3e5d6cc900f55f44a7bffffffffffffffffffffffffffffffffffffffffffffffffffffffff1916827bffffffffffffffffffffffffffffffffffffffffffffffffffffffff19161415613c38577f73ad2146b3d3a286642c794379d750360a2d53a3459a11b3e5d6cc900f55f44a7bffffffffffffffffffffffffffffffffffffffffffffffffffffffff1916817bffffffffffffffffffffffffffffffffffffffffffffffffffffffff19161415613be857613bdf8585614d92565b92505050613f40565b6040518060400160405280600060e01b7bffffffffffffffffffffffffffffffffffffffffffffffffffffffff191681526020016040518060200160405280600081525081525092505050613f40565b7f973bb64086f173ec8099b7ed3d43da984f4a332e4417a08bc6a286e6402b05867bffffffffffffffffffffffffffffffffffffffffffffffffffffffff1916827bffffffffffffffffffffffffffffffffffffffffffffffffffffffff19161415613d67577f973bb64086f173ec8099b7ed3d43da984f4a332e4417a08bc6a286e6402b05867bffffffffffffffffffffffffffffffffffffffffffffffffffffffff1916817bffffffffffffffffffffffffffffffffffffffffffffffffffffffff19161415613d1757613d0e8585614d92565b92505050613f40565b6040518060400160405280600060e01b7bffffffffffffffffffffffffffffffffffffffffffffffffffffffff191681526020016040518060200160405280600081525081525092505050613f40565b600060656000847bffffffffffffffffffffffffffffffffffffffffffffffffffffffff19167bffffffffffffffffffffffffffffffffffffffffffffffffffffffff1916815260200190815260200160002060009054906101000a900473ffffffffffffffffffffffffffffffffffffffff169050600073ffffffffffffffffffffffffffffffffffffffff168173ffffffffffffffffffffffffffffffffffffffff1614613eab578073ffffffffffffffffffffffffffffffffffffffff16636d3f7cb087876040518363ffffffff1660e01b8152600401613e4c929190616327565b60006040518083038186803b158015613e6457600080fd5b505afa158015613e78573d6000803e3d6000fd5b505050506040513d6000823e3d601f19601f82011682018060405250810190613ea1919061599e565b9350505050613f40565b817bffffffffffffffffffffffffffffffffffffffffffffffffffffffff1916837bffffffffffffffffffffffffffffffffffffffffffffffffffffffff19161415613f0557613efb8686614d92565b9350505050613f40565b6040517f08c379a0000000000000000000000000000000000000000000000000000000008152600401613f37906161e7565b60405180910390fd5b92915050565b6000613f53848484614e1e565b15613fc6576040517f08c379a000000000000000000000000000000000000000000000000000000000815260040180806020018281038252600e8152602001807f726f756e64696e67206572726f7200000000000000000000000000000000000081525060200191505060405180910390fd5b613feb83613fdd8487614ef790919063ffffffff16565b614f7d90919063ffffffff16565b90509392505050565b613ffc615193565b8180602001905181019061401091906159df565b9050919050565b61401f615193565b6000600167ffffffffffffffff8111801561403957600080fd5b5060405190808252806020026020018201604052801561407357816020015b6140606151ad565b8152602001906001900390816140585790505b509050838160008151811061408457fe5b60200260200101516000019073ffffffffffffffffffffffffffffffffffffffff16908173ffffffffffffffffffffffffffffffffffffffff1681525050612710816000815181106140d257fe5b6020026020010151602001906bffffffffffffffffffffffff1690816bffffffffffffffffffffffff16815250508083600001819052508291505092915050565b600061413a61412b84866145f190919063ffffffff16565b8561279f90919063ffffffff16565b905060005b82518110156141a15761419261418384838151811061415a57fe5b6020026020010151602001516bffffffffffffffffffffffff16876145f190919063ffffffff16565b8361279f90919063ffffffff16565b9150808060010191505061413f565b509392505050565b60008060006141cf88886141ca600261016154614ef790919063ffffffff16565b615006565b9150915060008111156143415760007f8ae85d849167ff996c04040c44924fd364217285e4cad818292c7ac37c0a345b7bffffffffffffffffffffffffffffffffffffffffffffffffffffffff191686600001517bffffffffffffffffffffffffffffffffffffffffffffffffffffffff1916141561426757856020015180602001905181019061426091906157b7565b90506142f6565b7f973bb64086f173ec8099b7ed3d43da984f4a332e4417a08bc6a286e6402b05867bffffffffffffffffffffffffffffffffffffffffffffffffffffffff191686600001517bffffffffffffffffffffffffffffffffffffffffffffffffffffffff191614156142f557600086602001518060200190518101906142eb91906157e0565b8092508193505050505b5b61433f6040518060400160405280888152602001848152508861431884615031565b887ff87e69cb514f255f3d32f9d90f25160a10d0cdefe6618a6406db334d4450595c614622565b505b819250505095945050505050565b60007f973bb64086f173ec8099b7ed3d43da984f4a332e4417a08bc6a286e6402b05867bffffffffffffffffffffffffffffffffffffffffffffffffffffffff191686600001517bffffffffffffffffffffffffffffffffffffffffffffffffffffffff19161415801561442557507f73ad2146b3d3a286642c794379d750360a2d53a3459a11b3e5d6cc900f55f44a7bffffffffffffffffffffffffffffffffffffffffffffffffffffffff191686600001517bffffffffffffffffffffffffffffffffffffffffffffffffffffffff191614155b156144325784905061453f565b600080876020015180602001905181019061444d91906157e0565b91509150600061016260009054906101000a900473ffffffffffffffffffffffffffffffffffffffff1673ffffffffffffffffffffffffffffffffffffffff16639ca7dc7a84846040518363ffffffff1660e01b81526004016144b1929190615fd4565b600060405180830381600087803b1580156144cb57600080fd5b505af11580156144df573d6000803e3d6000fd5b505050506040513d6000823e3d601f19601f820116820180604052508101906145089190615858565b90506145398a8989848a8a7fb3c5c697ec0b511b76d12f6293e6ee827b1e1df79ac7c64d0466d945904893d7614549565b93505050505b9695505050505050565b600086905060005b85518110156145e55760008061458d848a8a868151811061456e57fe5b6020026020010151602001516bffffffffffffffffffffffff16615006565b9150915081935060008111156145d6576145d560405180604001604052808d815260200183815250888a86815181106145c257fe5b6020026020010151600001518989614622565b5b50508080600101915050614551565b50979650505050505050565b600061461a61271061460c8486614ef790919063ffffffff16565b614f7d90919063ffffffff16565b905092915050565b7faaaebeba3810b1e6b70781f14b2d72c1cb89c0b2b320c43bb67ff79f562f5ff47bffffffffffffffffffffffffffffffffffffffffffffffffffffffff19168560000151600001517bffffffffffffffffffffffffffffffffffffffffffffffffffffffff191614156146c2576146bd85602001518473ffffffffffffffffffffffffffffffffffffffff16612a2090919063ffffffff16565b614cc9565b7f8ae85d849167ff996c04040c44924fd364217285e4cad818292c7ac37c0a345b7bffffffffffffffffffffffffffffffffffffffffffffffffffffffff19168560000151600001517bffffffffffffffffffffffffffffffffffffffffffffffffffffffff1916141561485c57600085600001516020015180602001905181019061474e91906157b7565b9050609760007f8ae85d849167ff996c04040c44924fd364217285e4cad818292c7ac37c0a345b7bffffffffffffffffffffffffffffffffffffffffffffffffffffffff19167bffffffffffffffffffffffffffffffffffffffffffffffffffffffff1916815260200190815260200160002060009054906101000a900473ffffffffffffffffffffffffffffffffffffffff1673ffffffffffffffffffffffffffffffffffffffff1663776062c38287878a602001516040518563ffffffff1660e01b81526004016148249493929190616142565b600060405180830381600087803b15801561483e57600080fd5b505af1158015614852573d6000803e3d6000fd5b5050505050614cc8565b7f73ad2146b3d3a286642c794379d750360a2d53a3459a11b3e5d6cc900f55f44a7bffffffffffffffffffffffffffffffffffffffffffffffffffffffff19168560000151600001517bffffffffffffffffffffffffffffffffffffffffffffffffffffffff19161415614a3d576000808660000151602001518060200190518101906148e991906157e0565b915091506001876020015114614934576040517f08c379a000000000000000000000000000000000000000000000000000000000815260040161492b90616247565b60405180910390fd5b609760007f73ad2146b3d3a286642c794379d750360a2d53a3459a11b3e5d6cc900f55f44a7bffffffffffffffffffffffffffffffffffffffffffffffffffffffff19167bffffffffffffffffffffffffffffffffffffffffffffffffffffffff1916815260200190815260200160002060009054906101000a900473ffffffffffffffffffffffffffffffffffffffff1673ffffffffffffffffffffffffffffffffffffffff1663f709b906838888856040518563ffffffff1660e01b8152600401614a049493929190616187565b600060405180830381600087803b158015614a1e57600080fd5b505af1158015614a32573d6000803e3d6000fd5b505050505050614cc7565b7f973bb64086f173ec8099b7ed3d43da984f4a332e4417a08bc6a286e6402b05867bffffffffffffffffffffffffffffffffffffffffffffffffffffffff19168560000151600001517bffffffffffffffffffffffffffffffffffffffffffffffffffffffff19161415614bdd57600080866000015160200151806020019051810190614aca91906157e0565b91509150609760007f973bb64086f173ec8099b7ed3d43da984f4a332e4417a08bc6a286e6402b05867bffffffffffffffffffffffffffffffffffffffffffffffffffffffff19167bffffffffffffffffffffffffffffffffffffffffffffffffffffffff1916815260200190815260200160002060009054906101000a900473ffffffffffffffffffffffffffffffffffffffff1673ffffffffffffffffffffffffffffffffffffffff16639c1c2ee9838888858c602001516040518663ffffffff1660e01b8152600401614ba49594939291906160dc565b600060405180830381600087803b158015614bbe57600080fd5b505af1158015614bd2573d6000803e3d6000fd5b505050505050614cc6565b609760008660000151600001517bffffffffffffffffffffffffffffffffffffffffffffffffffffffff19167bffffffffffffffffffffffffffffffffffffffffffffffffffffffff1916815260200190815260200160002060009054906101000a900473ffffffffffffffffffffffffffffffffffffffff1673ffffffffffffffffffffffffffffffffffffffff166354bc0cf18686866040518463ffffffff1660e01b8152600401614c939392919061635e565b600060405180830381600087803b158015614cad57600080fd5b505af1158015614cc1573d6000803e3d6000fd5b505050505b5b5b5b7fcae9d16f553e92058883de29cb3135dbc0c1e31fd7eace79fef1d80577fe482e8585858585604051614d0095949392919061639c565b60405180910390a15050505050565b600060c954905090565b600060ca54905090565b6000838383614d30615101565b30604051602001808681526020018581526020018481526020018381526020018273ffffffffffffffffffffffffffffffffffffffff168152602001955050505050506040516020818303038152906040528051906020012090509392505050565b614d9a615140565b600083602001518051906020012090506000836020015180519060200120905080821415614dcc578492505050614e18565b6040518060400160405280600060e01b7bffffffffffffffffffffffffffffffffffffffffffffffffffffffff1916815260200160405180602001604052806000815250815250925050505b92915050565b600080831415614e96576040517f08c379a00000000000000000000000000000000000000000000000000000000081526004018080602001828103825260108152602001807f6469766973696f6e206279207a65726f0000000000000000000000000000000081525060200191505060405180910390fd5b6000821480614ea55750600084145b15614eb35760009050614ef0565b60008380614ebd57fe5b8584099050614ed58386614ef790919063ffffffff16565b614eea6103e883614ef790919063ffffffff16565b10159150505b9392505050565b600080831415614f0a5760009050614f77565b6000828402905082848281614f1b57fe5b0414614f72576040517f08c379a00000000000000000000000000000000000000000000000000000000081526004018080602001828103825260218152602001806168486021913960400191505060405180910390fd5b809150505b92915050565b6000808211614ff4576040517f08c379a000000000000000000000000000000000000000000000000000000000815260040180806020018281038252601a8152602001807f536166654d6174683a206469766973696f6e206279207a65726f00000000000081525060200191505060405180910390fd5b818381614ffd57fe5b04905092915050565b6000806150258561502085876145f190919063ffffffff16565b615109565b91509150935093915050565b60008061016460008473ffffffffffffffffffffffffffffffffffffffff1673ffffffffffffffffffffffffffffffffffffffff16815260200190815260200160002060009054906101000a900473ffffffffffffffffffffffffffffffffffffffff169050600073ffffffffffffffffffffffffffffffffffffffff168173ffffffffffffffffffffffffffffffffffffffff16146150d457809150506150fc565b61016360009054906101000a900473ffffffffffffffffffffffffffffffffffffffff169150505b919050565b600046905090565b6000808284111561513157615127838561299d90919063ffffffff16565b9150829050615139565b600091508390505b9250929050565b604051806040016040528060007bffffffffffffffffffffffffffffffffffffffffffffffffffffffff19168152602001606081525090565b604051806040016040528060008152602001600081525090565b604051806040016040528060608152602001606081525090565b6040518060400160405280600073ffffffffffffffffffffffffffffffffffffffff16815260200160006bffffffffffffffffffffffff1681525090565b60006151fe6151f984616442565b616411565b9050808382526020820190508285604086028201111561521d57600080fd5b60005b8581101561524d578161523388826156da565b845260208401935060408301925050600181019050615220565b5050509392505050565b600061526a6152658461646e565b616411565b90508281526020810184848401111561528257600080fd5b61528d84828561663e565b509392505050565b60006152a86152a38461646e565b616411565b9050828152602081018484840111156152c057600080fd5b6152cb84828561664d565b509392505050565b6000813590506152e281616693565b92915050565b6000813590506152f7816166aa565b92915050565b60008151905061530c816166aa565b92915050565b600082601f83011261532357600080fd5b81516153338482602086016151eb565b91505092915050565b60008135905061534b816166c1565b92915050565b600081359050615360816166d8565b92915050565b600081519050615375816166d8565b92915050565b600082601f83011261538c57600080fd5b813561539c848260208601615257565b91505092915050565b600082601f8301126153b657600080fd5b81516153c6848260208601615295565b91505092915050565b6000813590506153de816166ef565b92915050565b6000813590506153f381616706565b92915050565b6000813590506154088161671d565b92915050565b60006040828403121561542057600080fd5b61542a6040616411565b9050600061543a84828501615351565b600083015250602082013567ffffffffffffffff81111561545a57600080fd5b6154668482850161537b565b60208301525092915050565b60006040828403121561548457600080fd5b61548e6040616411565b9050600061549e84828501615366565b600083015250602082015167ffffffffffffffff8111156154be57600080fd5b6154ca848285016153a5565b60208301525092915050565b6000604082840312156154e857600080fd5b6154f26040616411565b9050600082013567ffffffffffffffff81111561550e57600080fd5b61551a8482850161540e565b600083015250602061552e84828501615726565b60208301525092915050565b60006040828403121561554c57600080fd5b6155566040616411565b9050600082015167ffffffffffffffff81111561557257600080fd5b61557e84828501615312565b600083015250602082015167ffffffffffffffff81111561559e57600080fd5b6155aa84828501615312565b60208301525092915050565b600061012082840312156155c957600080fd5b6155d4610120616411565b905060006155e4848285016152d3565b600083015250602082013567ffffffffffffffff81111561560457600080fd5b615610848285016154d6565b6020830152506040615624848285016152d3565b604083015250606082013567ffffffffffffffff81111561564457600080fd5b615650848285016154d6565b606083015250608061566484828501615726565b60808301525060a061567884828501615726565b60a08301525060c061568c84828501615726565b60c08301525060e06156a084828501615351565b60e08301525061010082013567ffffffffffffffff8111156156c157600080fd5b6156cd8482850161537b565b6101008301525092915050565b6000604082840312156156ec57600080fd5b6156f66040616411565b90506000615706848285016152fd565b600083015250602061571a84828501615750565b60208301525092915050565b60008135905061573581616734565b92915050565b60008151905061574a81616734565b92915050565b60008151905061575f8161674b565b92915050565b60006020828403121561577757600080fd5b6000615785848285016152d3565b91505092915050565b6000602082840312156157a057600080fd5b60006157ae848285016152e8565b91505092915050565b6000602082840312156157c957600080fd5b60006157d7848285016152fd565b91505092915050565b600080604083850312156157f357600080fd5b6000615801858286016152fd565b92505060206158128582860161573b565b9150509250929050565b6000806040838503121561582f57600080fd5b600061583d858286016152d3565b925050602061584e858286016152d3565b9150509250929050565b60006020828403121561586a57600080fd5b600082015167ffffffffffffffff81111561588457600080fd5b61589084828501615312565b91505092915050565b6000602082840312156158ab57600080fd5b60006158b98482850161533c565b91505092915050565b600080604083850312156158d557600080fd5b60006158e385828601615351565b92505060206158f4858286016152d3565b9150509250929050565b600080600080600060a0868803121561591657600080fd5b6000615924888289016153e4565b9550506020615935888289016153cf565b945050604061594688828901615726565b9350506060615957888289016152e8565b9250506080615968888289016153f9565b9150509295509295909350565b60006020828403121561598757600080fd5b6000615995848285016153f9565b91505092915050565b6000602082840312156159b057600080fd5b600082015167ffffffffffffffff8111156159ca57600080fd5b6159d684828501615472565b91505092915050565b6000602082840312156159f157600080fd5b600082015167ffffffffffffffff811115615a0b57600080fd5b615a178482850161553a565b91505092915050565b600060208284031215615a3257600080fd5b600082013567ffffffffffffffff811115615a4c57600080fd5b615a58848285016155b6565b91505092915050565b60008060008060808587031215615a7757600080fd5b600085013567ffffffffffffffff811115615a9157600080fd5b615a9d878288016155b6565b945050602085013567ffffffffffffffff811115615aba57600080fd5b615ac68782880161537b565b935050604085013567ffffffffffffffff811115615ae357600080fd5b615aef878288016155b6565b925050606085013567ffffffffffffffff811115615b0c57600080fd5b615b188782880161537b565b91505092959194509250565b600060208284031215615b3657600080fd5b6000615b4484828501615726565b91505092915050565b615b56816164dc565b82525050565b615b6581616500565b82525050565b615b748161650a565b82525050565b615b838161650a565b82525050565b6000615b948261649e565b615b9e81856164a9565b9350615bae81856020860161664d565b615bb781616682565b840191505092915050565b615bcb816165ae565b82525050565b615bda816165d2565b82525050565b615be9816165f6565b82525050565b615bf88161661a565b82525050565b6000615c0b6017836164cb565b91507f6e6f7420666f756e64204941737365744d6174636865720000000000000000006000830152602082019050919050565b6000615c4b6014836164cb565b91507f302073616c742063616e277420626520757365640000000000000000000000006000830152602082019050919050565b6000615c8b6024836164cb565b91507f72696768744f726465722e74616b657220766572696669636174696f6e20666160008301527f696c6564000000000000000000000000000000000000000000000000000000006020830152604082019050919050565b6000615cf16012836164cb565b91507f6572633732312076616c7565206572726f7200000000000000000000000000006000830152602082019050919050565b6000615d31600f836164cb565b91507f6e6f7468696e6720746f2066696c6c00000000000000000000000000000000006000830152602082019050919050565b6000615d71601e836164cb565b91507f53756d207061796f75747320427073206e6f7420657175616c203130302500006000830152602082019050919050565b6000615db16012836164cb565b91507f61737365747320646f6e2774206d6174636800000000000000000000000000006000830152602082019050919050565b6000615df16000836164ba565b9150600082019050919050565b6000615e0b6023836164cb565b91507f6c6566744f726465722e74616b657220766572696669636174696f6e2066616960008301527f6c656400000000000000000000000000000000000000000000000000000000006020830152604082019050919050565b6000615e71600e836164cb565b91507f6e6f7420656e6f756768206574680000000000000000000000000000000000006000830152602082019050919050565b6000615eb1600b836164cb565b91507f6e6f742061206d616b65720000000000000000000000000000000000000000006000830152602082019050919050565b6000604083016000830151615efc6000860182615b6b565b5060208301518482036020860152615f148282615b89565b9150508091505092915050565b6000604083016000830151615f396000860182615b6b565b5060208301518482036020860152615f518282615b89565b9150508091505092915050565b60006040830160008301518482036000860152615f7b8282615ee4565b9150506020830151615f906020860182615f9b565b508091505092915050565b615fa48161658c565b82525050565b615fb38161658c565b82525050565b6000602082019050615fce6000830184615b4d565b92915050565b6000604082019050615fe96000830185615b4d565b615ff66020830184615faa565b9392505050565b60006080820190506160126000830187615b5c565b61601f6020830186615b4d565b81810360408301526160318185615f21565b905081810360608301526160458184615f21565b905095945050505050565b600061010082019050616066600083018b615b5c565b616073602083018a615b5c565b6160806040830189615b4d565b61608d6060830188615b4d565b61609a6080830187615faa565b6160a760a0830186615faa565b81810360c08301526160b98185615f21565b905081810360e08301526160cd8184615f21565b90509998505050505050505050565b600060c0820190506160f16000830188615bc2565b6160fe6020830187615b4d565b61610b6040830186615b4d565b6161186060830185615faa565b6161256080830184615faa565b81810360a083015261613681615de4565b90509695505050505050565b60006080820190506161576000830187615bd1565b6161646020830186615b4d565b6161716040830185615b4d565b61617e6060830184615faa565b95945050505050565b600060808201905061619c6000830187615be0565b6161a96020830186615b4d565b6161b66040830185615b4d565b6161c36060830184615faa565b95945050505050565b60006020820190506161e16000830184615bef565b92915050565b6000602082019050818103600083015261620081615bfe565b9050919050565b6000602082019050818103600083015261622081615c3e565b9050919050565b6000602082019050818103600083015261624081615c7e565b9050919050565b6000602082019050818103600083015261626081615ce4565b9050919050565b6000602082019050818103600083015261628081615d24565b9050919050565b600060208201905081810360008301526162a081615d64565b9050919050565b600060208201905081810360008301526162c081615da4565b9050919050565b600060208201905081810360008301526162e081615dfe565b9050919050565b6000602082019050818103600083015261630081615e64565b9050919050565b6000602082019050818103600083015261632081615ea4565b9050919050565b600060408201905081810360008301526163418185615f21565b905081810360208301526163558184615f21565b90509392505050565b600060608201905081810360008301526163788186615f5e565b90506163876020830185615b4d565b6163946040830184615b4d565b949350505050565b600060a08201905081810360008301526163b68188615f5e565b90506163c56020830187615b4d565b6163d26040830186615b4d565b6163df6060830185615b7a565b6163ec6080830184615b7a565b9695505050505050565b600060208201905061640b6000830184615faa565b92915050565b6000604051905081810181811067ffffffffffffffff8211171561643857616437616680565b5b8060405250919050565b600067ffffffffffffffff82111561645d5761645c616680565b5b602082029050602081019050919050565b600067ffffffffffffffff82111561648957616488616680565b5b601f19601f8301169050602081019050919050565b600081519050919050565b600082825260208201905092915050565b600082825260208201905092915050565b600082825260208201905092915050565b60006164e78261656c565b9050919050565b60006164f98261656c565b9050919050565b6000819050919050565b60007fffffffff0000000000000000000000000000000000000000000000000000000082169050919050565b6000616541826164dc565b9050919050565b6000616553826164dc565b9050919050565b6000616565826164dc565b9050919050565b600073ffffffffffffffffffffffffffffffffffffffff82169050919050565b6000819050919050565b60006bffffffffffffffffffffffff82169050919050565b60006165b9826165c0565b9050919050565b60006165cb8261656c565b9050919050565b60006165dd826165e4565b9050919050565b60006165ef8261656c565b9050919050565b600061660182616608565b9050919050565b60006166138261656c565b9050919050565b60006166258261662c565b9050919050565b60006166378261656c565b9050919050565b82818337600083830152505050565b60005b8381101561666b578082015181840152602081019050616650565b8381111561667a576000848401525b50505050565bfe5b6000601f19601f8301169050919050565b61669c816164dc565b81146166a757600080fd5b50565b6166b3816164ee565b81146166be57600080fd5b50565b6166ca81616500565b81146166d557600080fd5b50565b6166e18161650a565b81146166ec57600080fd5b50565b6166f881616536565b811461670357600080fd5b50565b61670f81616548565b811461671a57600080fd5b50565b6167268161655a565b811461673157600080fd5b50565b61673d8161658c565b811461674857600080fd5b50565b61675481616596565b811461675f57600080fd5b5056fe4f776e61626c653a206e6577206f776e657220697320746865207a65726f206164647265737345434453413a20696e76616c6964207369676e6174757265202773272076616c75656f72646572207369676e617475726520766572696669636174696f6e206572726f72636f6e7472616374206f72646572207369676e617475726520766572696669636174696f6e206572726f72496e697469616c697a61626c653a20636f6e747261637420697320616c726561647920696e697469616c697a656445434453413a20696e76616c6964207369676e6174757265202776272076616c7565536166654d6174683a206d756c7469706c69636174696f6e206f766572666c6f77a2646970667358221220438b0e1f0d388259b252b9752edcaa040a165a1cffd47e90a85b9f68a539873464736f6c63430007060033",
  "linkReferences": {},
  "deployedLinkReferences": {}
}