{
  "_format": "hh-sol-artifact-1",
  "contractName": "EcoFiToken",
  "sourceName": "contracts/EcoFiToken.sol",
  "abi": [
    {
      "inputs": [
        {
          "internalType": "address",
          "name": "_ecoMultisig",
          "type": "address"
        }
      ],
      "stateMutability": "nonpayable",
      "type": "constructor"
    },
    {
      "anonymous": false,
      "inputs": [
        {
          "indexed": true,
          "internalType": "address",
          "name": "owner",
          "type": "address"
        },
        {
          "indexed": true,
          "internalType": "address",
          "name": "spender",
          "type": "address"
        },
        {
          "indexed": false,
          "internalType": "uint256",
          "name": "value",
          "type": "uint256"
        }
      ],
      "name": "Approval",
      "type": "event"
    },
    {
      "anonymous": false,
      "inputs": [
        {
          "indexed": true,
          "internalType": "address",
          "name": "from",
          "type": "address"
        },
        {
          "indexed": true,
          "internalType": "address",
          "name": "to",
          "type": "address"
        },
        {
          "indexed": false,
          "internalType": "uint256",
          "name": "value",
          "type": "uint256"
        }
      ],
      "name": "Transfer",
      "type": "event"
    },
    {
      "inputs": [
        {
          "internalType": "address",
          "name": "owner",
          "type": "address"
        },
        {
          "internalType": "address",
          "name": "spender",
          "type": "address"
        }
      ],
      "name": "allowance",
      "outputs": [
        {
          "internalType": "uint256",
          "name": "",
          "type": "uint256"
        }
      ],
      "stateMutability": "view",
      "type": "function"
    },
    {
      "inputs": [
        {
          "internalType": "address",
          "name": "spender",
          "type": "address"
        },
        {
          "internalType": "uint256",
          "name": "amount",
          "type": "uint256"
        }
      ],
      "name": "approve",
      "outputs": [
        {
          "internalType": "bool",
          "name": "",
          "type": "bool"
        }
      ],
      "stateMutability": "nonpayable",
      "type": "function"
    },
    {
      "inputs": [
        {
          "internalType": "address",
          "name": "account",
          "type": "address"
        }
      ],
      "name": "balanceOf",
      "outputs": [
        {
          "internalType": "uint256",
          "name": "",
          "type": "uint256"
        }
      ],
      "stateMutability": "view",
      "type": "function"
    },
    {
      "inputs": [
        {
          "internalType": "uint256",
          "name": "amount",
          "type": "uint256"
        }
      ],
      "name": "burn",
      "outputs": [],
      "stateMutability": "nonpayable",
      "type": "function"
    },
    {
      "inputs": [
        {
          "internalType": "address",
          "name": "account",
          "type": "address"
        },
        {
          "internalType": "uint256",
          "name": "amount",
          "type": "uint256"
        }
      ],
      "name": "burnFrom",
      "outputs": [],
      "stateMutability": "nonpayable",
      "type": "function"
    },
    {
      "inputs": [],
      "name": "decimals",
      "outputs": [
        {
          "internalType": "uint8",
          "name": "",
          "type": "uint8"
        }
      ],
      "stateMutability": "view",
      "type": "function"
    },
    {
      "inputs": [
        {
          "internalType": "address",
          "name": "spender",
          "type": "address"
        },
        {
          "internalType": "uint256",
          "name": "subtractedValue",
          "type": "uint256"
        }
      ],
      "name": "decreaseAllowance",
      "outputs": [
        {
          "internalType": "bool",
          "name": "",
          "type": "bool"
        }
      ],
      "stateMutability": "nonpayable",
      "type": "function"
    },
    {
      "inputs": [
        {
          "internalType": "address",
          "name": "spender",
          "type": "address"
        },
        {
          "internalType": "uint256",
          "name": "addedValue",
          "type": "uint256"
        }
      ],
      "name": "increaseAllowance",
      "outputs": [
        {
          "internalType": "bool",
          "name": "",
          "type": "bool"
        }
      ],
      "stateMutability": "nonpayable",
      "type": "function"
    },
    {
      "inputs": [],
      "name": "name",
      "outputs": [
        {
          "internalType": "string",
          "name": "",
          "type": "string"
        }
      ],
      "stateMutability": "view",
      "type": "function"
    },
    {
      "inputs": [
        {
          "internalType": "address",
          "name": "_sproutContract",
          "type": "address"
        }
      ],
      "name": "setSproutAddress",
      "outputs": [],
      "stateMutability": "nonpayable",
      "type": "function"
    },
    {
      "inputs": [],
      "name": "symbol",
      "outputs": [
        {
          "internalType": "string",
          "name": "",
          "type": "string"
        }
      ],
      "stateMutability": "view",
      "type": "function"
    },
    {
      "inputs": [],
      "name": "totalSupply",
      "outputs": [
        {
          "internalType": "uint256",
          "name": "",
          "type": "uint256"
        }
      ],
      "stateMutability": "view",
      "type": "function"
    },
    {
      "inputs": [
        {
          "internalType": "address",
          "name": "_recipient",
          "type": "address"
        },
        {
          "internalType": "uint256",
          "name": "_amount",
          "type": "uint256"
        }
      ],
      "name": "transfer",
      "outputs": [
        {
          "internalType": "bool",
          "name": "",
          "type": "bool"
        }
      ],
      "stateMutability": "nonpayable",
      "type": "function"
    },
    {
      "inputs": [
        {
          "internalType": "address",
          "name": "sender",
          "type": "address"
        },
        {
          "internalType": "address",
          "name": "recipient",
          "type": "address"
        },
        {
          "internalType": "uint256",
          "name": "amount",
          "type": "uint256"
        }
      ],
      "name": "transferFrom",
      "outputs": [
        {
          "internalType": "bool",
          "name": "",
          "type": "bool"
        }
      ],
      "stateMutability": "nonpayable",
      "type": "function"
    }
  ],
  "bytecode": "0x60806040526000600660006101000a81548173ffffffffffffffffffffffffffffffffffffffff021916908373ffffffffffffffffffffffffffffffffffffffff1602179055503480156200005357600080fd5b5060405162002447380380620024478339818101604052810190620000799190620003af565b6040518060400160405280600b81526020017f45636f466920546f6b656e0000000000000000000000000000000000000000008152506040518060400160405280600381526020017f45434f00000000000000000000000000000000000000000000000000000000008152508160039080519060200190620000fd929190620002e8565b50806004908051906020019062000116929190620002e8565b50505033600560006101000a81548173ffffffffffffffffffffffffffffffffffffffff021916908373ffffffffffffffffffffffffffffffffffffffff16021790555062000177816a084595161401484a0000006200017e60201b60201c565b50620005c7565b600073ffffffffffffffffffffffffffffffffffffffff168273ffffffffffffffffffffffffffffffffffffffff161415620001f1576040517f08c379a0000000000000000000000000000000000000000000000000000000008152600401620001e8906200042e565b60405180910390fd5b6200020560008383620002e360201b60201c565b80600260008282546200021991906200047e565b92505081905550806000808473ffffffffffffffffffffffffffffffffffffffff1673ffffffffffffffffffffffffffffffffffffffff16815260200190815260200160002060008282546200027091906200047e565b925050819055508173ffffffffffffffffffffffffffffffffffffffff16600073ffffffffffffffffffffffffffffffffffffffff167fddf252ad1be2c89b69c2b068fc378daa952ba7f163c4a11628f55a4df523b3ef83604051620002d7919062000450565b60405180910390a35050565b505050565b828054620002f69062000519565b90600052602060002090601f0160209004810192826200031a576000855562000366565b82601f106200033557805160ff191683800117855562000366565b8280016001018555821562000366579182015b828111156200036557825182559160200191906001019062000348565b5b50905062000375919062000379565b5090565b5b80821115620003945760008160009055506001016200037a565b5090565b600081519050620003a981620005ad565b92915050565b600060208284031215620003c257600080fd5b6000620003d28482850162000398565b91505092915050565b6000620003ea601f836200046d565b91507f45524332303a206d696e7420746f20746865207a65726f2061646472657373006000830152602082019050919050565b62000428816200050f565b82525050565b600060208201905081810360008301526200044981620003db565b9050919050565b60006020820190506200046760008301846200041d565b92915050565b600082825260208201905092915050565b60006200048b826200050f565b915062000498836200050f565b9250827fffffffffffffffffffffffffffffffffffffffffffffffffffffffffffffffff03821115620004d057620004cf6200054f565b5b828201905092915050565b6000620004e882620004ef565b9050919050565b600073ffffffffffffffffffffffffffffffffffffffff82169050919050565b6000819050919050565b600060028204905060018216806200053257607f821691505b602082108114156200054957620005486200057e565b5b50919050565b7f4e487b7100000000000000000000000000000000000000000000000000000000600052601160045260246000fd5b7f4e487b7100000000000000000000000000000000000000000000000000000000600052602260045260246000fd5b620005b881620004db565b8114620005c457600080fd5b50565b611e7080620005d76000396000f3fe608060405234801561001057600080fd5b50600436106100ea5760003560e01c806370a082311161008c578063a457c2d711610066578063a457c2d71461025f578063a9059cbb1461028f578063cf157ae5146102bf578063dd62ed3e146102db576100ea565b806370a08231146101f557806379cc67901461022557806395d89b4114610241576100ea565b806323b872dd116100c857806323b872dd1461015b578063313ce5671461018b57806339509351146101a957806342966c68146101d9576100ea565b806306fdde03146100ef578063095ea7b31461010d57806318160ddd1461013d575b600080fd5b6100f761030b565b6040516101049190611a25565b60405180910390f35b610127600480360381019061012291906113a7565b61039d565b6040516101349190611a0a565b60405180910390f35b6101456103bb565b6040516101529190611c07565b60405180910390f35b61017560048036038101906101709190611358565b6103c5565b6040516101829190611a0a565b60405180910390f35b6101936104fa565b6040516101a09190611c22565b60405180910390f35b6101c360048036038101906101be91906113a7565b610503565b6040516101d09190611a0a565b60405180910390f35b6101f360048036038101906101ee91906113e3565b6105af565b005b61020f600480360381019061020a91906112f3565b6105c3565b60405161021c9190611c07565b60405180910390f35b61023f600480360381019061023a91906113a7565b61060b565b005b61024961068f565b6040516102569190611a25565b60405180910390f35b610279600480360381019061027491906113a7565b610721565b6040516102869190611a0a565b60405180910390f35b6102a960048036038101906102a491906113a7565b610815565b6040516102b69190611a0a565b60405180910390f35b6102d960048036038101906102d491906112f3565b6108ba565b005b6102f560048036038101906102f0919061131c565b610a1f565b6040516103029190611c07565b60405180910390f35b60606003805461031a90611d6b565b80601f016020809104026020016040519081016040528092919081815260200182805461034690611d6b565b80156103935780601f1061036857610100808354040283529160200191610393565b820191906000526020600020905b81548152906001019060200180831161037657829003601f168201915b5050505050905090565b60006103b16103aa610aa6565b8484610aae565b6001905092915050565b6000600254905090565b60006103d2848484610c79565b6103db84610cf8565b6103eb6103e6610aa6565b610cf8565b6103f483610cf8565b6103fd82610d91565b6000600160008673ffffffffffffffffffffffffffffffffffffffff1673ffffffffffffffffffffffffffffffffffffffff1681526020019081526020016000206000610448610aa6565b73ffffffffffffffffffffffffffffffffffffffff1673ffffffffffffffffffffffffffffffffffffffff16815260200190815260200160002054905061048e81610d91565b828110156104d1576040517f08c379a00000000000000000000000000000000000000000000000000000000081526004016104c890611b07565b60405180910390fd5b6104ee856104dd610aa6565b85846104e99190611caf565b610aae565b60019150509392505050565b60006012905090565b60006105a5610510610aa6565b84846001600061051e610aa6565b73ffffffffffffffffffffffffffffffffffffffff1673ffffffffffffffffffffffffffffffffffffffff16815260200190815260200160002060008873ffffffffffffffffffffffffffffffffffffffff1673ffffffffffffffffffffffffffffffffffffffff168152602001908152602001600020546105a09190611c59565b610aae565b6001905092915050565b6105c06105ba610aa6565b82610e2a565b50565b60008060008373ffffffffffffffffffffffffffffffffffffffff1673ffffffffffffffffffffffffffffffffffffffff168152602001908152602001600020549050919050565b600061061e83610619610aa6565b610a1f565b905081811015610663576040517f08c379a000000000000000000000000000000000000000000000000000000000815260040161065a90611b27565b60405180910390fd5b6106808361066f610aa6565b848461067b9190611caf565b610aae565b61068a8383610e2a565b505050565b60606004805461069e90611d6b565b80601f01602080910402602001604051908101604052809291908181526020018280546106ca90611d6b565b80156107175780601f106106ec57610100808354040283529160200191610717565b820191906000526020600020905b8154815290600101906020018083116106fa57829003601f168201915b5050505050905090565b60008060016000610730610aa6565b73ffffffffffffffffffffffffffffffffffffffff1673ffffffffffffffffffffffffffffffffffffffff16815260200190815260200160002060008573ffffffffffffffffffffffffffffffffffffffff1673ffffffffffffffffffffffffffffffffffffffff168152602001908152602001600020549050828110156107ed576040517f08c379a00000000000000000000000000000000000000000000000000000000081526004016107e490611be7565b60405180910390fd5b61080a6107f8610aa6565b8585846108059190611caf565b610aae565b600191505092915050565b6000600660009054906101000a900473ffffffffffffffffffffffffffffffffffffffff1673ffffffffffffffffffffffffffffffffffffffff168373ffffffffffffffffffffffffffffffffffffffff1614156108a8576040517f08c379a000000000000000000000000000000000000000000000000000000000815260040161089f90611ac7565b60405180910390fd5b6108b28383610ffe565b905092915050565b600073ffffffffffffffffffffffffffffffffffffffff16600660009054906101000a900473ffffffffffffffffffffffffffffffffffffffff1673ffffffffffffffffffffffffffffffffffffffff161461094b576040517f08c379a000000000000000000000000000000000000000000000000000000000815260040161094290611bc7565b60405180910390fd5b600560009054906101000a900473ffffffffffffffffffffffffffffffffffffffff1673ffffffffffffffffffffffffffffffffffffffff163373ffffffffffffffffffffffffffffffffffffffff16146109db576040517f08c379a00000000000000000000000000000000000000000000000000000000081526004016109d290611b87565b60405180910390fd5b80600660006101000a81548173ffffffffffffffffffffffffffffffffffffffff021916908373ffffffffffffffffffffffffffffffffffffffff16021790555050565b6000600160008473ffffffffffffffffffffffffffffffffffffffff1673ffffffffffffffffffffffffffffffffffffffff16815260200190815260200160002060008373ffffffffffffffffffffffffffffffffffffffff1673ffffffffffffffffffffffffffffffffffffffff16815260200190815260200160002054905092915050565b600033905090565b600073ffffffffffffffffffffffffffffffffffffffff168373ffffffffffffffffffffffffffffffffffffffff161415610b1e576040517f08c379a0000000000000000000000000000000000000000000000000000000008152600401610b1590611ba7565b60405180910390fd5b600073ffffffffffffffffffffffffffffffffffffffff168273ffffffffffffffffffffffffffffffffffffffff161415610b8e576040517f08c379a0000000000000000000000000000000000000000000000000000000008152600401610b8590611aa7565b60405180910390fd5b80600160008573ffffffffffffffffffffffffffffffffffffffff1673ffffffffffffffffffffffffffffffffffffffff16815260200190815260200160002060008473ffffffffffffffffffffffffffffffffffffffff1673ffffffffffffffffffffffffffffffffffffffff168152602001908152602001600020819055508173ffffffffffffffffffffffffffffffffffffffff168373ffffffffffffffffffffffffffffffffffffffff167f8c5be1e5ebec7d5bd14f71427d1e84f3dd0314c0f7b2291e5b200ac8c7c3b92583604051610c6c9190611c07565b60405180910390a3505050565b3073ffffffffffffffffffffffffffffffffffffffff168273ffffffffffffffffffffffffffffffffffffffff161415610ce8576040517f08c379a0000000000000000000000000000000000000000000000000000000008152600401610cdf90611a87565b60405180910390fd5b610cf383838361101c565b505050565b610d8e81604051602401610d0c91906119ef565b6040516020818303038152906040527f2c2ecbc2000000000000000000000000000000000000000000000000000000007bffffffffffffffffffffffffffffffffffffffffffffffffffffffff19166020820180517bffffffffffffffffffffffffffffffffffffffffffffffffffffffff838183161783525050505061129b565b50565b610e2781604051602401610da59190611c07565b6040516020818303038152906040527ff5b1bba9000000000000000000000000000000000000000000000000000000007bffffffffffffffffffffffffffffffffffffffffffffffffffffffff19166020820180517bffffffffffffffffffffffffffffffffffffffffffffffffffffffff838183161783525050505061129b565b50565b600073ffffffffffffffffffffffffffffffffffffffff168273ffffffffffffffffffffffffffffffffffffffff161415610e9a576040517f08c379a0000000000000000000000000000000000000000000000000000000008152600401610e9190611b47565b60405180910390fd5b610ea6826000836112c4565b60008060008473ffffffffffffffffffffffffffffffffffffffff1673ffffffffffffffffffffffffffffffffffffffff16815260200190815260200160002054905081811015610f2c576040517f08c379a0000000000000000000000000000000000000000000000000000000008152600401610f2390611a67565b60405180910390fd5b8181610f389190611caf565b6000808573ffffffffffffffffffffffffffffffffffffffff1673ffffffffffffffffffffffffffffffffffffffff168152602001908152602001600020819055508160026000828254610f8c9190611caf565b92505081905550600073ffffffffffffffffffffffffffffffffffffffff168373ffffffffffffffffffffffffffffffffffffffff167fddf252ad1be2c89b69c2b068fc378daa952ba7f163c4a11628f55a4df523b3ef84604051610ff19190611c07565b60405180910390a3505050565b600061101261100b610aa6565b8484610c79565b6001905092915050565b600073ffffffffffffffffffffffffffffffffffffffff168373ffffffffffffffffffffffffffffffffffffffff16141561108c576040517f08c379a000000000000000000000000000000000000000000000000000000000815260040161108390611b67565b60405180910390fd5b600073ffffffffffffffffffffffffffffffffffffffff168273ffffffffffffffffffffffffffffffffffffffff1614156110fc576040517f08c379a00000000000000000000000000000000000000000000000000000000081526004016110f390611a47565b60405180910390fd5b6111078383836112c4565b60008060008573ffffffffffffffffffffffffffffffffffffffff1673ffffffffffffffffffffffffffffffffffffffff1681526020019081526020016000205490508181101561118d576040517f08c379a000000000000000000000000000000000000000000000000000000000815260040161118490611ae7565b60405180910390fd5b81816111999190611caf565b6000808673ffffffffffffffffffffffffffffffffffffffff1673ffffffffffffffffffffffffffffffffffffffff16815260200190815260200160002081905550816000808573ffffffffffffffffffffffffffffffffffffffff1673ffffffffffffffffffffffffffffffffffffffff16815260200190815260200160002060008282546112299190611c59565b925050819055508273ffffffffffffffffffffffffffffffffffffffff168473ffffffffffffffffffffffffffffffffffffffff167fddf252ad1be2c89b69c2b068fc378daa952ba7f163c4a11628f55a4df523b3ef8460405161128d9190611c07565b60405180910390a350505050565b60008151905060006a636f6e736f6c652e6c6f679050602083016000808483855afa5050505050565b505050565b6000813590506112d881611e0c565b92915050565b6000813590506112ed81611e23565b92915050565b60006020828403121561130557600080fd5b6000611313848285016112c9565b91505092915050565b6000806040838503121561132f57600080fd5b600061133d858286016112c9565b925050602061134e858286016112c9565b9150509250929050565b60008060006060848603121561136d57600080fd5b600061137b868287016112c9565b935050602061138c868287016112c9565b925050604061139d868287016112de565b9150509250925092565b600080604083850312156113ba57600080fd5b60006113c8858286016112c9565b92505060206113d9858286016112de565b9150509250929050565b6000602082840312156113f557600080fd5b6000611403848285016112de565b91505092915050565b61141581611ce3565b82525050565b61142481611cf5565b82525050565b600061143582611c3d565b61143f8185611c48565b935061144f818560208601611d38565b61145881611dfb565b840191505092915050565b6000611470602383611c48565b91507f45524332303a207472616e7366657220746f20746865207a65726f206164647260008301527f65737300000000000000000000000000000000000000000000000000000000006020830152604082019050919050565b60006114d6602283611c48565b91507f45524332303a206275726e20616d6f756e7420657863656564732062616c616e60008301527f63650000000000000000000000000000000000000000000000000000000000006020830152604082019050919050565b600061153c602e83611c48565b91507f45636f4669546f6b656e3a207472616e7366657220746f20746f6b656e20636f60008301527f6e747261637420616464726573730000000000000000000000000000000000006020830152604082019050919050565b60006115a2602283611c48565b91507f45524332303a20617070726f766520746f20746865207a65726f20616464726560008301527f73730000000000000000000000000000000000000000000000000000000000006020830152604082019050919050565b6000611608604a83611c48565b91507f45636f4669546f6b656e3a207472616e7366657220746f207370726f7574206360008301527f6f6e747261637420616464726573732028757365207472616e7366657246726f60208301527f6d20696e737465616429000000000000000000000000000000000000000000006040830152606082019050919050565b6000611694602683611c48565b91507f45524332303a207472616e7366657220616d6f756e742065786365656473206260008301527f616c616e636500000000000000000000000000000000000000000000000000006020830152604082019050919050565b60006116fa602883611c48565b91507f45524332303a207472616e7366657220616d6f756e742065786365656473206160008301527f6c6c6f77616e63650000000000000000000000000000000000000000000000006020830152604082019050919050565b6000611760602483611c48565b91507f45524332303a206275726e20616d6f756e74206578636565647320616c6c6f7760008301527f616e6365000000000000000000000000000000000000000000000000000000006020830152604082019050919050565b60006117c6602183611c48565b91507f45524332303a206275726e2066726f6d20746865207a65726f2061646472657360008301527f73000000000000000000000000000000000000000000000000000000000000006020830152604082019050919050565b600061182c602583611c48565b91507f45524332303a207472616e736665722066726f6d20746865207a65726f20616460008301527f64726573730000000000000000000000000000000000000000000000000000006020830152604082019050919050565b6000611892601a83611c48565b91507f6d7573742062652063616c6c6564206279206465706c6f7965720000000000006000830152602082019050919050565b60006118d2602483611c48565b91507f45524332303a20617070726f76652066726f6d20746865207a65726f2061646460008301527f72657373000000000000000000000000000000000000000000000000000000006020830152604082019050919050565b6000611938601783611c48565b91507f6d6179206f6e6c792062652063616c6c6564206f6e63650000000000000000006000830152602082019050919050565b6000611978602583611c48565b91507f45524332303a2064656372656173656420616c6c6f77616e63652062656c6f7760008301527f207a65726f0000000000000000000000000000000000000000000000000000006020830152604082019050919050565b6119da81611d21565b82525050565b6119e981611d2b565b82525050565b6000602082019050611a04600083018461140c565b92915050565b6000602082019050611a1f600083018461141b565b92915050565b60006020820190508181036000830152611a3f818461142a565b905092915050565b60006020820190508181036000830152611a6081611463565b9050919050565b60006020820190508181036000830152611a80816114c9565b9050919050565b60006020820190508181036000830152611aa08161152f565b9050919050565b60006020820190508181036000830152611ac081611595565b9050919050565b60006020820190508181036000830152611ae0816115fb565b9050919050565b60006020820190508181036000830152611b0081611687565b9050919050565b60006020820190508181036000830152611b20816116ed565b9050919050565b60006020820190508181036000830152611b4081611753565b9050919050565b60006020820190508181036000830152611b60816117b9565b9050919050565b60006020820190508181036000830152611b808161181f565b9050919050565b60006020820190508181036000830152611ba081611885565b9050919050565b60006020820190508181036000830152611bc0816118c5565b9050919050565b60006020820190508181036000830152611be08161192b565b9050919050565b60006020820190508181036000830152611c008161196b565b9050919050565b6000602082019050611c1c60008301846119d1565b92915050565b6000602082019050611c3760008301846119e0565b92915050565b600081519050919050565b600082825260208201905092915050565b6000611c6482611d21565b9150611c6f83611d21565b9250827fffffffffffffffffffffffffffffffffffffffffffffffffffffffffffffffff03821115611ca457611ca3611d9d565b5b828201905092915050565b6000611cba82611d21565b9150611cc583611d21565b925082821015611cd857611cd7611d9d565b5b828203905092915050565b6000611cee82611d01565b9050919050565b60008115159050919050565b600073ffffffffffffffffffffffffffffffffffffffff82169050919050565b6000819050919050565b600060ff82169050919050565b60005b83811015611d56578082015181840152602081019050611d3b565b83811115611d65576000848401525b50505050565b60006002820490506001821680611d8357607f821691505b60208210811415611d9757611d96611dcc565b5b50919050565b7f4e487b7100000000000000000000000000000000000000000000000000000000600052601160045260246000fd5b7f4e487b7100000000000000000000000000000000000000000000000000000000600052602260045260246000fd5b6000601f19601f8301169050919050565b611e1581611ce3565b8114611e2057600080fd5b50565b611e2c81611d21565b8114611e3757600080fd5b5056fea2646970667358221220b21bd18af348a009dd49f9f3b9f2734dde11f6a11c96668985d7a1eb9f40c02c64736f6c63430008000033",
  "linkReferences": {},
  "deployedLinkReferences": {}
}