{
  "_format": "hh-sol-artifact-1",
  "contractName": "SproutToken",
  "sourceName": "contracts/SproutToken.sol",
  "abi": [
    {
      "inputs": [
        {
          "internalType": "address",
          "name": "_baseTokenContract",
          "type": "address"
        },
        {
          "internalType": "address",
          "name": "_ecoFiAddress",
          "type": "address"
        }
      ],
      "stateMutability": "nonpayable",
      "type": "constructor"
    },
    {
      "anonymous": false,
      "inputs": [
        {
          "indexed": true,
          "internalType": "address",
          "name": "owner",
          "type": "address"
        },
        {
          "indexed": true,
          "internalType": "address",
          "name": "spender",
          "type": "address"
        },
        {
          "indexed": false,
          "internalType": "uint256",
          "name": "value",
          "type": "uint256"
        }
      ],
      "name": "Approval",
      "type": "event"
    },
    {
      "anonymous": false,
      "inputs": [
        {
          "indexed": true,
          "internalType": "address",
          "name": "from",
          "type": "address"
        },
        {
          "indexed": true,
          "internalType": "address",
          "name": "to",
          "type": "address"
        },
        {
          "indexed": false,
          "internalType": "uint256",
          "name": "value",
          "type": "uint256"
        }
      ],
      "name": "Transfer",
      "type": "event"
    },
    {
      "inputs": [
        {
          "internalType": "address",
          "name": "owner",
          "type": "address"
        },
        {
          "internalType": "address",
          "name": "spender",
          "type": "address"
        }
      ],
      "name": "allowance",
      "outputs": [
        {
          "internalType": "uint256",
          "name": "",
          "type": "uint256"
        }
      ],
      "stateMutability": "view",
      "type": "function"
    },
    {
      "inputs": [
        {
          "internalType": "address",
          "name": "spender",
          "type": "address"
        },
        {
          "internalType": "uint256",
          "name": "amount",
          "type": "uint256"
        }
      ],
      "name": "approve",
      "outputs": [
        {
          "internalType": "bool",
          "name": "",
          "type": "bool"
        }
      ],
      "stateMutability": "nonpayable",
      "type": "function"
    },
    {
      "inputs": [
        {
          "internalType": "address",
          "name": "_account",
          "type": "address"
        }
      ],
      "name": "balanceOf",
      "outputs": [
        {
          "internalType": "uint256",
          "name": "",
          "type": "uint256"
        }
      ],
      "stateMutability": "view",
      "type": "function"
    },
    {
      "inputs": [
        {
          "internalType": "uint256",
          "name": "amount",
          "type": "uint256"
        }
      ],
      "name": "burn",
      "outputs": [],
      "stateMutability": "nonpayable",
      "type": "function"
    },
    {
      "inputs": [
        {
          "internalType": "address",
          "name": "account",
          "type": "address"
        },
        {
          "internalType": "uint256",
          "name": "amount",
          "type": "uint256"
        }
      ],
      "name": "burnFrom",
      "outputs": [],
      "stateMutability": "nonpayable",
      "type": "function"
    },
    {
      "inputs": [],
      "name": "decimals",
      "outputs": [
        {
          "internalType": "uint8",
          "name": "",
          "type": "uint8"
        }
      ],
      "stateMutability": "view",
      "type": "function"
    },
    {
      "inputs": [
        {
          "internalType": "address",
          "name": "spender",
          "type": "address"
        },
        {
          "internalType": "uint256",
          "name": "subtractedValue",
          "type": "uint256"
        }
      ],
      "name": "decreaseAllowance",
      "outputs": [
        {
          "internalType": "bool",
          "name": "",
          "type": "bool"
        }
      ],
      "stateMutability": "nonpayable",
      "type": "function"
    },
    {
      "inputs": [
        {
          "internalType": "address",
          "name": "_account",
          "type": "address"
        }
      ],
      "name": "ecoBalanceOf",
      "outputs": [
        {
          "internalType": "uint256",
          "name": "",
          "type": "uint256"
        }
      ],
      "stateMutability": "view",
      "type": "function"
    },
    {
      "inputs": [
        {
          "internalType": "address",
          "name": "_account",
          "type": "address"
        }
      ],
      "name": "generationExtrapolationInformation",
      "outputs": [
        {
          "internalType": "uint256",
          "name": "rawBalance",
          "type": "uint256"
        },
        {
          "internalType": "uint256",
          "name": "stakeBalance",
          "type": "uint256"
        },
        {
          "internalType": "uint256",
          "name": "lastDeposit",
          "type": "uint256"
        },
        {
          "internalType": "uint256",
          "name": "lastMint",
          "type": "uint256"
        },
        {
          "internalType": "uint256",
          "name": "blockTime",
          "type": "uint256"
        }
      ],
      "stateMutability": "view",
      "type": "function"
    },
    {
      "inputs": [
        {
          "internalType": "address",
          "name": "spender",
          "type": "address"
        },
        {
          "internalType": "uint256",
          "name": "addedValue",
          "type": "uint256"
        }
      ],
      "name": "increaseAllowance",
      "outputs": [
        {
          "internalType": "bool",
          "name": "",
          "type": "bool"
        }
      ],
      "stateMutability": "nonpayable",
      "type": "function"
    },
    {
      "inputs": [],
      "name": "name",
      "outputs": [
        {
          "internalType": "string",
          "name": "",
          "type": "string"
        }
      ],
      "stateMutability": "view",
      "type": "function"
    },
    {
      "inputs": [
        {
          "internalType": "uint256",
          "name": "_rate",
          "type": "uint256"
        },
        {
          "internalType": "uint256",
          "name": "_lastDepositTimestamp",
          "type": "uint256"
        }
      ],
      "name": "rawGenerationRate",
      "outputs": [
        {
          "internalType": "uint256",
          "name": "",
          "type": "uint256"
        }
      ],
      "stateMutability": "view",
      "type": "function"
    },
    {
      "inputs": [
        {
          "internalType": "address",
          "name": "_account",
          "type": "address"
        }
      ],
      "name": "reserveBalanceOf",
      "outputs": [
        {
          "internalType": "uint256",
          "name": "",
          "type": "uint256"
        }
      ],
      "stateMutability": "view",
      "type": "function"
    },
    {
      "inputs": [
        {
          "internalType": "uint256",
          "name": "_amount",
          "type": "uint256"
        }
      ],
      "name": "stakeDeposit",
      "outputs": [],
      "stateMutability": "nonpayable",
      "type": "function"
    },
    {
      "inputs": [
        {
          "internalType": "uint256",
          "name": "_amount",
          "type": "uint256"
        }
      ],
      "name": "stakeWithdraw",
      "outputs": [],
      "stateMutability": "nonpayable",
      "type": "function"
    },
    {
      "inputs": [],
      "name": "symbol",
      "outputs": [
        {
          "internalType": "string",
          "name": "",
          "type": "string"
        }
      ],
      "stateMutability": "view",
      "type": "function"
    },
    {
      "inputs": [],
      "name": "totalSupply",
      "outputs": [
        {
          "internalType": "uint256",
          "name": "",
          "type": "uint256"
        }
      ],
      "stateMutability": "view",
      "type": "function"
    },
    {
      "inputs": [
        {
          "internalType": "address",
          "name": "recipient",
          "type": "address"
        },
        {
          "internalType": "uint256",
          "name": "amount",
          "type": "uint256"
        }
      ],
      "name": "transfer",
      "outputs": [
        {
          "internalType": "bool",
          "name": "",
          "type": "bool"
        }
      ],
      "stateMutability": "nonpayable",
      "type": "function"
    },
    {
      "inputs": [
        {
          "internalType": "address",
          "name": "sender",
          "type": "address"
        },
        {
          "internalType": "address",
          "name": "recipient",
          "type": "address"
        },
        {
          "internalType": "uint256",
          "name": "amount",
          "type": "uint256"
        }
      ],
      "name": "transferFrom",
      "outputs": [
        {
          "internalType": "bool",
          "name": "",
          "type": "bool"
        }
      ],
      "stateMutability": "nonpayable",
      "type": "function"
    }
  ],
  "bytecode": "0x60806040523480156200001157600080fd5b5060405162003902380380620039028339818101604052810190620000379190620003af565b6040518060400160405280600c81526020017f5370726f757420546f6b656e00000000000000000000000000000000000000008152506040518060400160405280600481526020017f53505254000000000000000000000000000000000000000000000000000000008152508160039080519060200190620000bb929190620002e8565b508060049080519060200190620000d4929190620002e8565b50505081600560006101000a81548173ffffffffffffffffffffffffffffffffffffffff021916908373ffffffffffffffffffffffffffffffffffffffff16021790555080600660006101000a81548173ffffffffffffffffffffffffffffffffffffffff021916908373ffffffffffffffffffffffffffffffffffffffff16021790555062000176816a084595161401484a0000006200017e60201b60201c565b5050620005dc565b600073ffffffffffffffffffffffffffffffffffffffff168273ffffffffffffffffffffffffffffffffffffffff161415620001f1576040517f08c379a0000000000000000000000000000000000000000000000000000000008152600401620001e89062000443565b60405180910390fd5b6200020560008383620002e360201b60201c565b806002600082825462000219919062000493565b92505081905550806000808473ffffffffffffffffffffffffffffffffffffffff1673ffffffffffffffffffffffffffffffffffffffff168152602001908152602001600020600082825462000270919062000493565b925050819055508173ffffffffffffffffffffffffffffffffffffffff16600073ffffffffffffffffffffffffffffffffffffffff167fddf252ad1be2c89b69c2b068fc378daa952ba7f163c4a11628f55a4df523b3ef83604051620002d7919062000465565b60405180910390a35050565b505050565b828054620002f6906200052e565b90600052602060002090601f0160209004810192826200031a576000855562000366565b82601f106200033557805160ff191683800117855562000366565b8280016001018555821562000366579182015b828111156200036557825182559160200191906001019062000348565b5b50905062000375919062000379565b5090565b5b80821115620003945760008160009055506001016200037a565b5090565b600081519050620003a981620005c2565b92915050565b60008060408385031215620003c357600080fd5b6000620003d38582860162000398565b9250506020620003e68582860162000398565b9150509250929050565b6000620003ff601f8362000482565b91507f45524332303a206d696e7420746f20746865207a65726f2061646472657373006000830152602082019050919050565b6200043d8162000524565b82525050565b600060208201905081810360008301526200045e81620003f0565b9050919050565b60006020820190506200047c600083018462000432565b92915050565b600082825260208201905092915050565b6000620004a08262000524565b9150620004ad8362000524565b9250827fffffffffffffffffffffffffffffffffffffffffffffffffffffffffffffffff03821115620004e557620004e462000564565b5b828201905092915050565b6000620004fd8262000504565b9050919050565b600073ffffffffffffffffffffffffffffffffffffffff82169050919050565b6000819050919050565b600060028204905060018216806200054757607f821691505b602082108114156200055e576200055d62000593565b5b50919050565b7f4e487b7100000000000000000000000000000000000000000000000000000000600052601160045260246000fd5b7f4e487b7100000000000000000000000000000000000000000000000000000000600052602260045260246000fd5b620005cd81620004f0565b8114620005d957600080fd5b50565b61331680620005ec6000396000f3fe608060405234801561001057600080fd5b50600436106101215760003560e01c806379cc6790116100ad578063b5e2bb1011610071578063b5e2bb1014610342578063d450d64c14610372578063db124cd9146103a2578063dd62ed3e146103d6578063f20e0f111461040657610121565b806379cc67901461028c57806395d89b41146102a8578063a1ad3ab2146102c6578063a457c2d7146102e2578063a9059cbb1461031257610121565b8063313ce567116100f4578063313ce567146101c257806339509351146101e057806342966c68146102105780634506b5ee1461022c57806370a082311461025c57610121565b806306fdde0314610126578063095ea7b31461014457806318160ddd1461017457806323b872dd14610192575b600080fd5b61012e610422565b60405161013b9190612d11565b60405180910390f35b61015e6004803603810190610159919061243a565b6104b4565b60405161016b9190612cf6565b60405180910390f35b61017c6104d2565b6040516101899190612f73565b60405180910390f35b6101ac60048036038101906101a791906123eb565b6104dc565b6040516101b99190612cf6565b60405180910390f35b6101ca610611565b6040516101d79190612fe1565b60405180910390f35b6101fa60048036038101906101f5919061243a565b61061a565b6040516102079190612cf6565b60405180910390f35b61022a6004803603810190610225919061249f565b6106c6565b005b610246600480360381019061024191906124c8565b6106da565b6040516102539190612f73565b60405180910390f35b61027660048036038101906102719190612386565b610799565b6040516102839190612f73565b60405180910390f35b6102a660048036038101906102a1919061243a565b61081b565b005b6102b061089f565b6040516102bd9190612d11565b60405180910390f35b6102e060048036038101906102db919061249f565b610931565b005b6102fc60048036038101906102f7919061243a565b610af1565b6040516103099190612cf6565b60405180910390f35b61032c6004803603810190610327919061243a565b610be5565b6040516103399190612cf6565b60405180910390f35b61035c60048036038101906103579190612386565b610c03565b6040516103699190612f73565b60405180910390f35b61038c60048036038101906103879190612386565b610c4c565b6040516103999190612f73565b60405180910390f35b6103bc60048036038101906103b79190612386565b610c95565b6040516103cd959493929190612f8e565b60405180910390f35b6103f060048036038101906103eb91906123af565b610d7a565b6040516103fd9190612f73565b60405180910390f35b610420600480360381019061041b919061249f565b610e01565b005b606060038054610431906131cb565b80601f016020809104026020016040519081016040528092919081815260200182805461045d906131cb565b80156104aa5780601f1061047f576101008083540402835291602001916104aa565b820191906000526020600020905b81548152906001019060200180831161048d57829003601f168201915b5050505050905090565b60006104c86104c16110de565b84846110e6565b6001905092915050565b6000600254905090565b60006104e98484846112b1565b6104f2846113c9565b6105026104fd6110de565b6113c9565b61050b836113c9565b61051482611462565b6000600160008673ffffffffffffffffffffffffffffffffffffffff1673ffffffffffffffffffffffffffffffffffffffff168152602001908152602001600020600061055f6110de565b73ffffffffffffffffffffffffffffffffffffffff1673ffffffffffffffffffffffffffffffffffffffff1681526020019081526020016000205490506105a581611462565b828110156105e8576040517f08c379a00000000000000000000000000000000000000000000000000000000081526004016105df90612e13565b60405180910390fd5b610605856105f46110de565b8584610600919061310f565b6110e6565b60019150509392505050565b60006012905090565b60006106bc6106276110de565b8484600160006106356110de565b73ffffffffffffffffffffffffffffffffffffffff1673ffffffffffffffffffffffffffffffffffffffff16815260200190815260200160002060008873ffffffffffffffffffffffffffffffffffffffff1673ffffffffffffffffffffffffffffffffffffffff168152602001908152602001600020546106b7919061302e565b6110e6565b6001905092915050565b6106d76106d16110de565b826114fb565b50565b60008082426106e9919061310f565b90506276a70081111561078e57600061072c6b033b2e3c9fd0803ce800000061071e6276a700856116cf90919063ffffffff16565b6116e590919063ffffffff16565b90506e798e323576118aba04a8bc00000000811115610758576e798e323576118aba04a8bc0000000090505b610785610776826715fcef66185439586116fb90919063ffffffff16565b8661176090919063ffffffff16565b92505050610793565b839150505b92915050565b600080600080600a60008673ffffffffffffffffffffffffffffffffffffffff1673ffffffffffffffffffffffffffffffffffffffff1681526020019081526020016000205411156107f7576107ee84611776565b80925081935050505b61081282610804866118ca565b61176090919063ffffffff16565b92505050919050565b600061082e836108296110de565b610d7a565b905081811015610873576040517f08c379a000000000000000000000000000000000000000000000000000000000815260040161086a90612e33565b60405180910390fd5b6108908361087f6110de565b848461088b919061310f565b6110e6565b61089a83836114fb565b505050565b6060600480546108ae906131cb565b80601f01602080910402602001604051908101604052809291908181526020018280546108da906131cb565b80156109275780601f106108fc57610100808354040283529160200191610927565b820191906000526020600020905b81548152906001019060200180831161090a57829003601f168201915b5050505050905090565b6000600a60003373ffffffffffffffffffffffffffffffffffffffff1673ffffffffffffffffffffffffffffffffffffffff16815260200190815260200160002054111561098257610981611912565b5b6109d1333083600560009054906101000a900473ffffffffffffffffffffffffffffffffffffffff1673ffffffffffffffffffffffffffffffffffffffff16611a8c909392919063ffffffff16565b610a2381600a60003373ffffffffffffffffffffffffffffffffffffffff1673ffffffffffffffffffffffffffffffffffffffff1681526020019081526020016000205461176090919063ffffffff16565b600a60003373ffffffffffffffffffffffffffffffffffffffff1673ffffffffffffffffffffffffffffffffffffffff1681526020019081526020016000208190555042600860003373ffffffffffffffffffffffffffffffffffffffff1673ffffffffffffffffffffffffffffffffffffffff1681526020019081526020016000208190555042600960003373ffffffffffffffffffffffffffffffffffffffff1673ffffffffffffffffffffffffffffffffffffffff1681526020019081526020016000208190555050565b60008060016000610b006110de565b73ffffffffffffffffffffffffffffffffffffffff1673ffffffffffffffffffffffffffffffffffffffff16815260200190815260200160002060008573ffffffffffffffffffffffffffffffffffffffff1673ffffffffffffffffffffffffffffffffffffffff16815260200190815260200160002054905082811015610bbd576040517f08c379a0000000000000000000000000000000000000000000000000000000008152600401610bb490612f33565b60405180910390fd5b610bda610bc86110de565b858584610bd5919061310f565b6110e6565b600191505092915050565b6000610bf9610bf26110de565b84846112b1565b6001905092915050565b6000600760008373ffffffffffffffffffffffffffffffffffffffff1673ffffffffffffffffffffffffffffffffffffffff168152602001908152602001600020549050919050565b6000600a60008373ffffffffffffffffffffffffffffffffffffffff1673ffffffffffffffffffffffffffffffffffffffff168152602001908152602001600020549050919050565b6000806000806000610ca6866118ca565b600a60008873ffffffffffffffffffffffffffffffffffffffff1673ffffffffffffffffffffffffffffffffffffffff16815260200190815260200160002054600860008973ffffffffffffffffffffffffffffffffffffffff1673ffffffffffffffffffffffffffffffffffffffff16815260200190815260200160002054600960008a73ffffffffffffffffffffffffffffffffffffffff1673ffffffffffffffffffffffffffffffffffffffff16815260200190815260200160002054429450945094509450945091939590929450565b6000600160008473ffffffffffffffffffffffffffffffffffffffff1673ffffffffffffffffffffffffffffffffffffffff16815260200190815260200160002060008373ffffffffffffffffffffffffffffffffffffffff1673ffffffffffffffffffffffffffffffffffffffff16815260200190815260200160002054905092915050565b42610e57600860003373ffffffffffffffffffffffffffffffffffffffff1673ffffffffffffffffffffffffffffffffffffffff168152602001908152602001600020546276a70061176090919063ffffffff16565b10610e97576040517f08c379a0000000000000000000000000000000000000000000000000000000008152600401610e8e90612e93565b60405180910390fd5b80600a60003373ffffffffffffffffffffffffffffffffffffffff1673ffffffffffffffffffffffffffffffffffffffff168152602001908152602001600020541015610f19576040517f08c379a0000000000000000000000000000000000000000000000000000000008152600401610f1090612ef3565b60405180910390fd5b610f21611912565b610f7381600a60003373ffffffffffffffffffffffffffffffffffffffff1673ffffffffffffffffffffffffffffffffffffffff168152602001908152602001600020546116cf90919063ffffffff16565b600a60003373ffffffffffffffffffffffffffffffffffffffff1673ffffffffffffffffffffffffffffffffffffffff168152602001908152602001600020819055506000600a60003373ffffffffffffffffffffffffffffffffffffffff1673ffffffffffffffffffffffffffffffffffffffff16815260200190815260200160002054141561108e576110483033600760003373ffffffffffffffffffffffffffffffffffffffff1673ffffffffffffffffffffffffffffffffffffffff168152602001908152602001600020546112b1565b6000600760003373ffffffffffffffffffffffffffffffffffffffff1673ffffffffffffffffffffffffffffffffffffffff168152602001908152602001600020819055505b6110db3382600560009054906101000a900473ffffffffffffffffffffffffffffffffffffffff1673ffffffffffffffffffffffffffffffffffffffff16611b159092919063ffffffff16565b50565b600033905090565b600073ffffffffffffffffffffffffffffffffffffffff168373ffffffffffffffffffffffffffffffffffffffff161415611156576040517f08c379a000000000000000000000000000000000000000000000000000000000815260040161114d90612eb3565b60405180910390fd5b600073ffffffffffffffffffffffffffffffffffffffff168273ffffffffffffffffffffffffffffffffffffffff1614156111c6576040517f08c379a00000000000000000000000000000000000000000000000000000000081526004016111bd90612d73565b60405180910390fd5b80600160008573ffffffffffffffffffffffffffffffffffffffff1673ffffffffffffffffffffffffffffffffffffffff16815260200190815260200160002060008473ffffffffffffffffffffffffffffffffffffffff1673ffffffffffffffffffffffffffffffffffffffff168152602001908152602001600020819055508173ffffffffffffffffffffffffffffffffffffffff168373ffffffffffffffffffffffffffffffffffffffff167f8c5be1e5ebec7d5bd14f71427d1e84f3dd0314c0f7b2291e5b200ac8c7c3b925836040516112a49190612f73565b60405180910390a3505050565b3073ffffffffffffffffffffffffffffffffffffffff168273ffffffffffffffffffffffffffffffffffffffff161415611320576040517f08c379a000000000000000000000000000000000000000000000000000000000815260040161131790612df3565b60405180910390fd5b600560009054906101000a900473ffffffffffffffffffffffffffffffffffffffff1673ffffffffffffffffffffffffffffffffffffffff168273ffffffffffffffffffffffffffffffffffffffff1614156113b1576040517f08c379a00000000000000000000000000000000000000000000000000000000081526004016113a890612db3565b60405180910390fd5b6113b9611912565b6113c4838383611b9b565b505050565b61145f816040516024016113dd9190612c7b565b6040516020818303038152906040527f2c2ecbc2000000000000000000000000000000000000000000000000000000007bffffffffffffffffffffffffffffffffffffffffffffffffffffffff19166020820180517bffffffffffffffffffffffffffffffffffffffffffffffffffffffff8381831617835250505050611e1a565b50565b6114f8816040516024016114769190612f73565b6040516020818303038152906040527ff5b1bba9000000000000000000000000000000000000000000000000000000007bffffffffffffffffffffffffffffffffffffffffffffffffffffffff19166020820180517bffffffffffffffffffffffffffffffffffffffffffffffffffffffff8381831617835250505050611e1a565b50565b600073ffffffffffffffffffffffffffffffffffffffff168273ffffffffffffffffffffffffffffffffffffffff16141561156b576040517f08c379a000000000000000000000000000000000000000000000000000000000815260040161156290612e53565b60405180910390fd5b61157782600083611e43565b60008060008473ffffffffffffffffffffffffffffffffffffffff1673ffffffffffffffffffffffffffffffffffffffff168152602001908152602001600020549050818110156115fd576040517f08c379a00000000000000000000000000000000000000000000000000000000081526004016115f490612d53565b60405180910390fd5b8181611609919061310f565b6000808573ffffffffffffffffffffffffffffffffffffffff1673ffffffffffffffffffffffffffffffffffffffff16815260200190815260200160002081905550816002600082825461165d919061310f565b92505081905550600073ffffffffffffffffffffffffffffffffffffffff168373ffffffffffffffffffffffffffffffffffffffff167fddf252ad1be2c89b69c2b068fc378daa952ba7f163c4a11628f55a4df523b3ef846040516116c29190612f73565b60405180910390a3505050565b600081836116dd919061310f565b905092915050565b600081836116f391906130b5565b905092915050565b60006117586b033b2e3c9fd0803ce800000061174a61172385876116e590919063ffffffff16565b60026b033b2e3c9fd0803ce800000061173c9190613084565b61176090919063ffffffff16565b611e4890919063ffffffff16565b905092915050565b6000818361176e919061302e565b905092915050565b60008060006118106b06765c793fa10079d0000000600860008773ffffffffffffffffffffffffffffffffffffffff1673ffffffffffffffffffffffffffffffffffffffff16815260200190815260200160002054600960008873ffffffffffffffffffffffffffffffffffffffff1673ffffffffffffffffffffffffffffffffffffffff16815260200190815260200160002054611e5e565b9050600061187661187183611863600a60008a73ffffffffffffffffffffffffffffffffffffffff1673ffffffffffffffffffffffffffffffffffffffff16815260200190815260200160002054611ec1565b6116fb90919063ffffffff16565b611ee1565b905060006118a16064611893605a856116e590919063ffffffff16565b611e4890919063ffffffff16565b905060006118b9601484611e4890919063ffffffff16565b905081819550955050505050915091565b60008060008373ffffffffffffffffffffffffffffffffffffffff1673ffffffffffffffffffffffffffffffffffffffff168152602001908152602001600020549050919050565b6000600a60003373ffffffffffffffffffffffffffffffffffffffff1673ffffffffffffffffffffffffffffffffffffffff168152602001908152602001600020541115611a8a5760008061196633611776565b80925081935050506119783383611f28565b6119a4600660009054906101000a900473ffffffffffffffffffffffffffffffffffffffff1682611f28565b6119ae3082611f28565b611a0081600760003373ffffffffffffffffffffffffffffffffffffffff1673ffffffffffffffffffffffffffffffffffffffff1681526020019081526020016000205461176090919063ffffffff16565b600760003373ffffffffffffffffffffffffffffffffffffffff1673ffffffffffffffffffffffffffffffffffffffff1681526020019081526020016000208190555042600960003373ffffffffffffffffffffffffffffffffffffffff1673ffffffffffffffffffffffffffffffffffffffff1681526020019081526020016000208190555050505b565b611b0f846323b872dd60e01b858585604051602401611aad93929190612c96565b604051602081830303815290604052907bffffffffffffffffffffffffffffffffffffffffffffffffffffffff19166020820180517bffffffffffffffffffffffffffffffffffffffffffffffffffffffff838183161783525050505061207c565b50505050565b611b968363a9059cbb60e01b8484604051602401611b34929190612ccd565b604051602081830303815290604052907bffffffffffffffffffffffffffffffffffffffffffffffffffffffff19166020820180517bffffffffffffffffffffffffffffffffffffffffffffffffffffffff838183161783525050505061207c565b505050565b600073ffffffffffffffffffffffffffffffffffffffff168373ffffffffffffffffffffffffffffffffffffffff161415611c0b576040517f08c379a0000000000000000000000000000000000000000000000000000000008152600401611c0290612e73565b60405180910390fd5b600073ffffffffffffffffffffffffffffffffffffffff168273ffffffffffffffffffffffffffffffffffffffff161415611c7b576040517f08c379a0000000000000000000000000000000000000000000000000000000008152600401611c7290612d33565b60405180910390fd5b611c86838383611e43565b60008060008573ffffffffffffffffffffffffffffffffffffffff1673ffffffffffffffffffffffffffffffffffffffff16815260200190815260200160002054905081811015611d0c576040517f08c379a0000000000000000000000000000000000000000000000000000000008152600401611d0390612d93565b60405180910390fd5b8181611d18919061310f565b6000808673ffffffffffffffffffffffffffffffffffffffff1673ffffffffffffffffffffffffffffffffffffffff16815260200190815260200160002081905550816000808573ffffffffffffffffffffffffffffffffffffffff1673ffffffffffffffffffffffffffffffffffffffff1681526020019081526020016000206000828254611da8919061302e565b925050819055508273ffffffffffffffffffffffffffffffffffffffff168473ffffffffffffffffffffffffffffffffffffffff167fddf252ad1be2c89b69c2b068fc378daa952ba7f163c4a11628f55a4df523b3ef84604051611e0c9190612f73565b60405180910390a350505050565b60008151905060006a636f6e736f6c652e6c6f679050602083016000808483855afa5050505050565b505050565b60008183611e569190613084565b905092915050565b6000808242611e6d919061310f565b90506000611e98611e816301e187e0611ec1565b611e8a84611ec1565b61214390919063ffffffff16565b9050611eb681611ea888886106da565b6116fb90919063ffffffff16565b925050509392505050565b6000611eda633b9aca00836116e590919063ffffffff16565b9050919050565b6000806002633b9aca00611ef59190613084565b9050611f20633b9aca00611f12858461176090919063ffffffff16565b611e4890919063ffffffff16565b915050919050565b600073ffffffffffffffffffffffffffffffffffffffff168273ffffffffffffffffffffffffffffffffffffffff161415611f98576040517f08c379a0000000000000000000000000000000000000000000000000000000008152600401611f8f90612f53565b60405180910390fd5b611fa460008383611e43565b8060026000828254611fb6919061302e565b92505081905550806000808473ffffffffffffffffffffffffffffffffffffffff1673ffffffffffffffffffffffffffffffffffffffff168152602001908152602001600020600082825461200b919061302e565b925050819055508173ffffffffffffffffffffffffffffffffffffffff16600073ffffffffffffffffffffffffffffffffffffffff167fddf252ad1be2c89b69c2b068fc378daa952ba7f163c4a11628f55a4df523b3ef836040516120709190612f73565b60405180910390a35050565b60006120de826040518060400160405280602081526020017f5361666545524332303a206c6f772d6c6576656c2063616c6c206661696c65648152508573ffffffffffffffffffffffffffffffffffffffff166121a19092919063ffffffff16565b905060008151111561213e57808060200190518101906120fe9190612476565b61213d576040517f08c379a000000000000000000000000000000000000000000000000000000000815260040161213490612f13565b60405180910390fd5b5b505050565b6000806002836121539190613084565b90506121988361218a61217b6b033b2e3c9fd0803ce8000000886116e590919063ffffffff16565b8461176090919063ffffffff16565b611e4890919063ffffffff16565b91505092915050565b60606121b084846000856121b9565b90509392505050565b6060824710156121fe576040517f08c379a00000000000000000000000000000000000000000000000000000000081526004016121f590612dd3565b60405180910390fd5b612207856122cd565b612246576040517f08c379a000000000000000000000000000000000000000000000000000000000815260040161223d90612ed3565b60405180910390fd5b6000808673ffffffffffffffffffffffffffffffffffffffff16858760405161226f9190612c64565b60006040518083038185875af1925050503d80600081146122ac576040519150601f19603f3d011682016040523d82523d6000602084013e6122b1565b606091505b50915091506122c18282866122e0565b92505050949350505050565b600080823b905060008111915050919050565b606083156122f057829050612340565b6000835111156123035782518084602001fd5b816040517f08c379a00000000000000000000000000000000000000000000000000000000081526004016123379190612d11565b60405180910390fd5b9392505050565b6000813590506123568161329b565b92915050565b60008151905061236b816132b2565b92915050565b600081359050612380816132c9565b92915050565b60006020828403121561239857600080fd5b60006123a684828501612347565b91505092915050565b600080604083850312156123c257600080fd5b60006123d085828601612347565b92505060206123e185828601612347565b9150509250929050565b60008060006060848603121561240057600080fd5b600061240e86828701612347565b935050602061241f86828701612347565b925050604061243086828701612371565b9150509250925092565b6000806040838503121561244d57600080fd5b600061245b85828601612347565b925050602061246c85828601612371565b9150509250929050565b60006020828403121561248857600080fd5b60006124968482850161235c565b91505092915050565b6000602082840312156124b157600080fd5b60006124bf84828501612371565b91505092915050565b600080604083850312156124db57600080fd5b60006124e985828601612371565b92505060206124fa85828601612371565b9150509250929050565b61250d81613143565b82525050565b61251c81613155565b82525050565b600061252d82612ffc565b6125378185613012565b9350612547818560208601613198565b80840191505092915050565b600061255e82613007565b612568818561301d565b9350612578818560208601613198565b6125818161328a565b840191505092915050565b600061259960238361301d565b91507f45524332303a207472616e7366657220746f20746865207a65726f206164647260008301527f65737300000000000000000000000000000000000000000000000000000000006020830152604082019050919050565b60006125ff60228361301d565b91507f45524332303a206275726e20616d6f756e7420657863656564732062616c616e60008301527f63650000000000000000000000000000000000000000000000000000000000006020830152604082019050919050565b600061266560228361301d565b91507f45524332303a20617070726f766520746f20746865207a65726f20616464726560008301527f73730000000000000000000000000000000000000000000000000000000000006020830152604082019050919050565b60006126cb60268361301d565b91507f45524332303a207472616e7366657220616d6f756e742065786365656473206260008301527f616c616e636500000000000000000000000000000000000000000000000000006020830152604082019050919050565b6000612731602b8361301d565b91507f5370726f7574546f6b656e3a207472616e7366657220746f2045434f20746f6b60008301527f656e20636f6e74726163740000000000000000000000000000000000000000006020830152604082019050919050565b600061279760268361301d565b91507f416464726573733a20696e73756666696369656e742062616c616e636520666f60008301527f722063616c6c00000000000000000000000000000000000000000000000000006020830152604082019050919050565b60006127fd60278361301d565b91507f5370726f7574546f6b656e3a207472616e7366657220746f20746f6b656e206360008301527f6f6e7472616374000000000000000000000000000000000000000000000000006020830152604082019050919050565b600061286360288361301d565b91507f45524332303a207472616e7366657220616d6f756e742065786365656473206160008301527f6c6c6f77616e63650000000000000000000000000000000000000000000000006020830152604082019050919050565b60006128c960248361301d565b91507f45524332303a206275726e20616d6f756e74206578636565647320616c6c6f7760008301527f616e6365000000000000000000000000000000000000000000000000000000006020830152604082019050919050565b600061292f60218361301d565b91507f45524332303a206275726e2066726f6d20746865207a65726f2061646472657360008301527f73000000000000000000000000000000000000000000000000000000000000006020830152604082019050919050565b600061299560258361301d565b91507f45524332303a207472616e736665722066726f6d20746865207a65726f20616460008301527f64726573730000000000000000000000000000000000000000000000000000006020830152604082019050919050565b60006129fb60208361301d565b91507f4d696e5374616b654475726174696f6e206e6f7420656c6170736564207965746000830152602082019050919050565b6000612a3b60248361301d565b91507f45524332303a20617070726f76652066726f6d20746865207a65726f2061646460008301527f72657373000000000000000000000000000000000000000000000000000000006020830152604082019050919050565b6000612aa1601d8361301d565b91507f416464726573733a2063616c6c20746f206e6f6e2d636f6e74726163740000006000830152602082019050919050565b6000612ae1602c8361301d565b91507f5370726f7574546f6b656e3a20576974686472617720616d6f756e742065786360008301527f656564732062616c616e636500000000000000000000000000000000000000006020830152604082019050919050565b6000612b47602a8361301d565b91507f5361666545524332303a204552433230206f7065726174696f6e20646964206e60008301527f6f742073756363656564000000000000000000000000000000000000000000006020830152604082019050919050565b6000612bad60258361301d565b91507f45524332303a2064656372656173656420616c6c6f77616e63652062656c6f7760008301527f207a65726f0000000000000000000000000000000000000000000000000000006020830152604082019050919050565b6000612c13601f8361301d565b91507f45524332303a206d696e7420746f20746865207a65726f2061646472657373006000830152602082019050919050565b612c4f81613181565b82525050565b612c5e8161318b565b82525050565b6000612c708284612522565b915081905092915050565b6000602082019050612c906000830184612504565b92915050565b6000606082019050612cab6000830186612504565b612cb86020830185612504565b612cc56040830184612c46565b949350505050565b6000604082019050612ce26000830185612504565b612cef6020830184612c46565b9392505050565b6000602082019050612d0b6000830184612513565b92915050565b60006020820190508181036000830152612d2b8184612553565b905092915050565b60006020820190508181036000830152612d4c8161258c565b9050919050565b60006020820190508181036000830152612d6c816125f2565b9050919050565b60006020820190508181036000830152612d8c81612658565b9050919050565b60006020820190508181036000830152612dac816126be565b9050919050565b60006020820190508181036000830152612dcc81612724565b9050919050565b60006020820190508181036000830152612dec8161278a565b9050919050565b60006020820190508181036000830152612e0c816127f0565b9050919050565b60006020820190508181036000830152612e2c81612856565b9050919050565b60006020820190508181036000830152612e4c816128bc565b9050919050565b60006020820190508181036000830152612e6c81612922565b9050919050565b60006020820190508181036000830152612e8c81612988565b9050919050565b60006020820190508181036000830152612eac816129ee565b9050919050565b60006020820190508181036000830152612ecc81612a2e565b9050919050565b60006020820190508181036000830152612eec81612a94565b9050919050565b60006020820190508181036000830152612f0c81612ad4565b9050919050565b60006020820190508181036000830152612f2c81612b3a565b9050919050565b60006020820190508181036000830152612f4c81612ba0565b9050919050565b60006020820190508181036000830152612f6c81612c06565b9050919050565b6000602082019050612f886000830184612c46565b92915050565b600060a082019050612fa36000830188612c46565b612fb06020830187612c46565b612fbd6040830186612c46565b612fca6060830185612c46565b612fd76080830184612c46565b9695505050505050565b6000602082019050612ff66000830184612c55565b92915050565b600081519050919050565b600081519050919050565b600081905092915050565b600082825260208201905092915050565b600061303982613181565b915061304483613181565b9250827fffffffffffffffffffffffffffffffffffffffffffffffffffffffffffffffff03821115613079576130786131fd565b5b828201905092915050565b600061308f82613181565b915061309a83613181565b9250826130aa576130a961322c565b5b828204905092915050565b60006130c082613181565b91506130cb83613181565b9250817fffffffffffffffffffffffffffffffffffffffffffffffffffffffffffffffff0483118215151615613104576131036131fd565b5b828202905092915050565b600061311a82613181565b915061312583613181565b925082821015613138576131376131fd565b5b828203905092915050565b600061314e82613161565b9050919050565b60008115159050919050565b600073ffffffffffffffffffffffffffffffffffffffff82169050919050565b6000819050919050565b600060ff82169050919050565b60005b838110156131b657808201518184015260208101905061319b565b838111156131c5576000848401525b50505050565b600060028204905060018216806131e357607f821691505b602082108114156131f7576131f661325b565b5b50919050565b7f4e487b7100000000000000000000000000000000000000000000000000000000600052601160045260246000fd5b7f4e487b7100000000000000000000000000000000000000000000000000000000600052601260045260246000fd5b7f4e487b7100000000000000000000000000000000000000000000000000000000600052602260045260246000fd5b6000601f19601f8301169050919050565b6132a481613143565b81146132af57600080fd5b50565b6132bb81613155565b81146132c657600080fd5b50565b6132d281613181565b81146132dd57600080fd5b5056fea264697066735822122096bd8566cb520eb62a46cac8a521d112e0cfd7d2795a236544586f125ab2c0f964736f6c63430008000033",
  "linkReferences": {},
  "deployedLinkReferences": {}
}