{
  "contractName": "EcoFiExchangeV2",
  "abi": [
    {
      "anonymous": false,
      "inputs": [
        {
          "indexed": false,
          "internalType": "bytes32",
          "name": "hash",
          "type": "bytes32"
        },
        {
          "indexed": false,
          "internalType": "address",
          "name": "maker",
          "type": "address"
        },
        {
          "components": [
            {
              "internalType": "bytes4",
              "name": "assetClass",
              "type": "bytes4"
            },
            {
              "internalType": "bytes",
              "name": "data",
              "type": "bytes"
            }
          ],
          "indexed": false,
          "internalType": "struct LibAsset.AssetType",
          "name": "makeAssetType",
          "type": "tuple"
        },
        {
          "components": [
            {
              "internalType": "bytes4",
              "name": "assetClass",
              "type": "bytes4"
            },
            {
              "internalType": "bytes",
              "name": "data",
              "type": "bytes"
            }
          ],
          "indexed": false,
          "internalType": "struct LibAsset.AssetType",
          "name": "takeAssetType",
          "type": "tuple"
        }
      ],
      "name": "Cancel",
      "type": "event"
    },
    {
      "anonymous": false,
      "inputs": [
        {
          "indexed": false,
          "internalType": "bytes32",
          "name": "leftHash",
          "type": "bytes32"
        },
        {
          "indexed": false,
          "internalType": "bytes32",
          "name": "rightHash",
          "type": "bytes32"
        },
        {
          "indexed": false,
          "internalType": "address",
          "name": "leftMaker",
          "type": "address"
        },
        {
          "indexed": false,
          "internalType": "address",
          "name": "rightMaker",
          "type": "address"
        },
        {
          "indexed": false,
          "internalType": "uint256",
          "name": "newLeftFill",
          "type": "uint256"
        },
        {
          "indexed": false,
          "internalType": "uint256",
          "name": "newRightFill",
          "type": "uint256"
        },
        {
          "components": [
            {
              "internalType": "bytes4",
              "name": "assetClass",
              "type": "bytes4"
            },
            {
              "internalType": "bytes",
              "name": "data",
              "type": "bytes"
            }
          ],
          "indexed": false,
          "internalType": "struct LibAsset.AssetType",
          "name": "leftAsset",
          "type": "tuple"
        },
        {
          "components": [
            {
              "internalType": "bytes4",
              "name": "assetClass",
              "type": "bytes4"
            },
            {
              "internalType": "bytes",
              "name": "data",
              "type": "bytes"
            }
          ],
          "indexed": false,
          "internalType": "struct LibAsset.AssetType",
          "name": "rightAsset",
          "type": "tuple"
        }
      ],
      "name": "Match",
      "type": "event"
    },
    {
      "anonymous": false,
      "inputs": [
        {
          "indexed": true,
          "internalType": "bytes4",
          "name": "assetType",
          "type": "bytes4"
        },
        {
          "indexed": false,
          "internalType": "address",
          "name": "matcher",
          "type": "address"
        }
      ],
      "name": "MatcherChange",
      "type": "event"
    },
    {
      "anonymous": false,
      "inputs": [
        {
          "indexed": true,
          "internalType": "address",
          "name": "previousOwner",
          "type": "address"
        },
        {
          "indexed": true,
          "internalType": "address",
          "name": "newOwner",
          "type": "address"
        }
      ],
      "name": "OwnershipTransferred",
      "type": "event"
    },
    {
      "anonymous": false,
      "inputs": [
        {
          "indexed": true,
          "internalType": "bytes4",
          "name": "assetType",
          "type": "bytes4"
        },
        {
          "indexed": false,
          "internalType": "address",
          "name": "proxy",
          "type": "address"
        }
      ],
      "name": "ProxyChange",
      "type": "event"
    },
    {
      "anonymous": false,
      "inputs": [
        {
          "components": [
            {
              "components": [
                {
                  "internalType": "bytes4",
                  "name": "assetClass",
                  "type": "bytes4"
                },
                {
                  "internalType": "bytes",
                  "name": "data",
                  "type": "bytes"
                }
              ],
              "internalType": "struct LibAsset.AssetType",
              "name": "assetType",
              "type": "tuple"
            },
            {
              "internalType": "uint256",
              "name": "value",
              "type": "uint256"
            }
          ],
          "indexed": false,
          "internalType": "struct LibAsset.Asset",
          "name": "asset",
          "type": "tuple"
        },
        {
          "indexed": false,
          "internalType": "address",
          "name": "from",
          "type": "address"
        },
        {
          "indexed": false,
          "internalType": "address",
          "name": "to",
          "type": "address"
        },
        {
          "indexed": false,
          "internalType": "bytes4",
          "name": "transferDirection",
          "type": "bytes4"
        },
        {
          "indexed": false,
          "internalType": "bytes4",
          "name": "transferType",
          "type": "bytes4"
        }
      ],
      "name": "Transfer",
      "type": "event"
    },
    {
      "inputs": [
        {
          "components": [
            {
              "internalType": "address",
              "name": "maker",
              "type": "address"
            },
            {
              "components": [
                {
                  "components": [
                    {
                      "internalType": "bytes4",
                      "name": "assetClass",
                      "type": "bytes4"
                    },
                    {
                      "internalType": "bytes",
                      "name": "data",
                      "type": "bytes"
                    }
                  ],
                  "internalType": "struct LibAsset.AssetType",
                  "name": "assetType",
                  "type": "tuple"
                },
                {
                  "internalType": "uint256",
                  "name": "value",
                  "type": "uint256"
                }
              ],
              "internalType": "struct LibAsset.Asset",
              "name": "makeAsset",
              "type": "tuple"
            },
            {
              "internalType": "address",
              "name": "taker",
              "type": "address"
            },
            {
              "components": [
                {
                  "components": [
                    {
                      "internalType": "bytes4",
                      "name": "assetClass",
                      "type": "bytes4"
                    },
                    {
                      "internalType": "bytes",
                      "name": "data",
                      "type": "bytes"
                    }
                  ],
                  "internalType": "struct LibAsset.AssetType",
                  "name": "assetType",
                  "type": "tuple"
                },
                {
                  "internalType": "uint256",
                  "name": "value",
                  "type": "uint256"
                }
              ],
              "internalType": "struct LibAsset.Asset",
              "name": "takeAsset",
              "type": "tuple"
            },
            {
              "internalType": "uint256",
              "name": "salt",
              "type": "uint256"
            },
            {
              "internalType": "uint256",
              "name": "start",
              "type": "uint256"
            },
            {
              "internalType": "uint256",
              "name": "end",
              "type": "uint256"
            },
            {
              "internalType": "bytes4",
              "name": "dataType",
              "type": "bytes4"
            },
            {
              "internalType": "bytes",
              "name": "data",
              "type": "bytes"
            }
          ],
          "internalType": "struct LibOrder.Order",
          "name": "order",
          "type": "tuple"
        }
      ],
      "name": "cancel",
      "outputs": [],
      "stateMutability": "nonpayable",
      "type": "function"
    },
    {
      "inputs": [],
      "name": "defaultFeeReceiver",
      "outputs": [
        {
          "internalType": "address",
          "name": "",
          "type": "address"
        }
      ],
      "stateMutability": "view",
      "type": "function",
      "constant": true
    },
    {
      "inputs": [
        {
          "internalType": "address",
          "name": "",
          "type": "address"
        }
      ],
      "name": "feeReceivers",
      "outputs": [
        {
          "internalType": "address",
          "name": "",
          "type": "address"
        }
      ],
      "stateMutability": "view",
      "type": "function",
      "constant": true
    },
    {
      "inputs": [
        {
          "internalType": "bytes32",
          "name": "",
          "type": "bytes32"
        }
      ],
      "name": "fills",
      "outputs": [
        {
          "internalType": "uint256",
          "name": "",
          "type": "uint256"
        }
      ],
      "stateMutability": "view",
      "type": "function",
      "constant": true
    },
    {
      "inputs": [
        {
          "components": [
            {
              "internalType": "address",
              "name": "maker",
              "type": "address"
            },
            {
              "components": [
                {
                  "components": [
                    {
                      "internalType": "bytes4",
                      "name": "assetClass",
                      "type": "bytes4"
                    },
                    {
                      "internalType": "bytes",
                      "name": "data",
                      "type": "bytes"
                    }
                  ],
                  "internalType": "struct LibAsset.AssetType",
                  "name": "assetType",
                  "type": "tuple"
                },
                {
                  "internalType": "uint256",
                  "name": "value",
                  "type": "uint256"
                }
              ],
              "internalType": "struct LibAsset.Asset",
              "name": "makeAsset",
              "type": "tuple"
            },
            {
              "internalType": "address",
              "name": "taker",
              "type": "address"
            },
            {
              "components": [
                {
                  "components": [
                    {
                      "internalType": "bytes4",
                      "name": "assetClass",
                      "type": "bytes4"
                    },
                    {
                      "internalType": "bytes",
                      "name": "data",
                      "type": "bytes"
                    }
                  ],
                  "internalType": "struct LibAsset.AssetType",
                  "name": "assetType",
                  "type": "tuple"
                },
                {
                  "internalType": "uint256",
                  "name": "value",
                  "type": "uint256"
                }
              ],
              "internalType": "struct LibAsset.Asset",
              "name": "takeAsset",
              "type": "tuple"
            },
            {
              "internalType": "uint256",
              "name": "salt",
              "type": "uint256"
            },
            {
              "internalType": "uint256",
              "name": "start",
              "type": "uint256"
            },
            {
              "internalType": "uint256",
              "name": "end",
              "type": "uint256"
            },
            {
              "internalType": "bytes4",
              "name": "dataType",
              "type": "bytes4"
            },
            {
              "internalType": "bytes",
              "name": "data",
              "type": "bytes"
            }
          ],
          "internalType": "struct LibOrder.Order",
          "name": "orderLeft",
          "type": "tuple"
        },
        {
          "internalType": "bytes",
          "name": "signatureLeft",
          "type": "bytes"
        },
        {
          "components": [
            {
              "internalType": "address",
              "name": "maker",
              "type": "address"
            },
            {
              "components": [
                {
                  "components": [
                    {
                      "internalType": "bytes4",
                      "name": "assetClass",
                      "type": "bytes4"
                    },
                    {
                      "internalType": "bytes",
                      "name": "data",
                      "type": "bytes"
                    }
                  ],
                  "internalType": "struct LibAsset.AssetType",
                  "name": "assetType",
                  "type": "tuple"
                },
                {
                  "internalType": "uint256",
                  "name": "value",
                  "type": "uint256"
                }
              ],
              "internalType": "struct LibAsset.Asset",
              "name": "makeAsset",
              "type": "tuple"
            },
            {
              "internalType": "address",
              "name": "taker",
              "type": "address"
            },
            {
              "components": [
                {
                  "components": [
                    {
                      "internalType": "bytes4",
                      "name": "assetClass",
                      "type": "bytes4"
                    },
                    {
                      "internalType": "bytes",
                      "name": "data",
                      "type": "bytes"
                    }
                  ],
                  "internalType": "struct LibAsset.AssetType",
                  "name": "assetType",
                  "type": "tuple"
                },
                {
                  "internalType": "uint256",
                  "name": "value",
                  "type": "uint256"
                }
              ],
              "internalType": "struct LibAsset.Asset",
              "name": "takeAsset",
              "type": "tuple"
            },
            {
              "internalType": "uint256",
              "name": "salt",
              "type": "uint256"
            },
            {
              "internalType": "uint256",
              "name": "start",
              "type": "uint256"
            },
            {
              "internalType": "uint256",
              "name": "end",
              "type": "uint256"
            },
            {
              "internalType": "bytes4",
              "name": "dataType",
              "type": "bytes4"
            },
            {
              "internalType": "bytes",
              "name": "data",
              "type": "bytes"
            }
          ],
          "internalType": "struct LibOrder.Order",
          "name": "orderRight",
          "type": "tuple"
        },
        {
          "internalType": "bytes",
          "name": "signatureRight",
          "type": "bytes"
        }
      ],
      "name": "matchOrders",
      "outputs": [],
      "stateMutability": "payable",
      "type": "function",
      "payable": true
    },
    {
      "inputs": [],
      "name": "owner",
      "outputs": [
        {
          "internalType": "address",
          "name": "",
          "type": "address"
        }
      ],
      "stateMutability": "view",
      "type": "function",
      "constant": true
    },
    {
      "inputs": [],
      "name": "protocolFee",
      "outputs": [
        {
          "internalType": "uint256",
          "name": "",
          "type": "uint256"
        }
      ],
      "stateMutability": "view",
      "type": "function",
      "constant": true
    },
    {
      "inputs": [],
      "name": "renounceOwnership",
      "outputs": [],
      "stateMutability": "nonpayable",
      "type": "function"
    },
    {
      "inputs": [],
      "name": "royaltiesRegistry",
      "outputs": [
        {
          "internalType": "contract IRoyaltiesProvider",
          "name": "",
          "type": "address"
        }
      ],
      "stateMutability": "view",
      "type": "function",
      "constant": true
    },
    {
      "inputs": [
        {
          "internalType": "bytes4",
          "name": "assetType",
          "type": "bytes4"
        },
        {
          "internalType": "address",
          "name": "matcher",
          "type": "address"
        }
      ],
      "name": "setAssetMatcher",
      "outputs": [],
      "stateMutability": "nonpayable",
      "type": "function"
    },
    {
      "inputs": [
        {
          "internalType": "address payable",
          "name": "newDefaultFeeReceiver",
          "type": "address"
        }
      ],
      "name": "setDefaultFeeReceiver",
      "outputs": [],
      "stateMutability": "nonpayable",
      "type": "function"
    },
    {
      "inputs": [
        {
          "internalType": "address",
          "name": "token",
          "type": "address"
        },
        {
          "internalType": "address",
          "name": "wallet",
          "type": "address"
        }
      ],
      "name": "setFeeReceiver",
      "outputs": [],
      "stateMutability": "nonpayable",
      "type": "function"
    },
    {
      "inputs": [
        {
          "internalType": "uint256",
          "name": "newProtocolFee",
          "type": "uint256"
        }
      ],
      "name": "setProtocolFee",
      "outputs": [],
      "stateMutability": "nonpayable",
      "type": "function"
    },
    {
      "inputs": [
        {
          "internalType": "contract IRoyaltiesProvider",
          "name": "newRoyaltiesRegistry",
          "type": "address"
        }
      ],
      "name": "setRoyaltiesRegistry",
      "outputs": [],
      "stateMutability": "nonpayable",
      "type": "function"
    },
    {
      "inputs": [
        {
          "internalType": "bytes4",
          "name": "assetType",
          "type": "bytes4"
        },
        {
          "internalType": "address",
          "name": "proxy",
          "type": "address"
        }
      ],
      "name": "setTransferProxy",
      "outputs": [],
      "stateMutability": "nonpayable",
      "type": "function"
    },
    {
      "inputs": [
        {
          "internalType": "address",
          "name": "newOwner",
          "type": "address"
        }
      ],
      "name": "transferOwnership",
      "outputs": [],
      "stateMutability": "nonpayable",
      "type": "function"
    },
    {
      "inputs": [
        {
          "internalType": "contract INftTransferProxy",
          "name": "_transferProxy",
          "type": "address"
        },
        {
          "internalType": "contract IERC20TransferProxy",
          "name": "_erc20TransferProxy",
          "type": "address"
        },
        {
          "internalType": "uint256",
          "name": "newProtocolFee",
          "type": "uint256"
        },
        {
          "internalType": "address payable",
          "name": "newDefaultFeeReceiver",
          "type": "address"
        },
        {
          "internalType": "contract IRoyaltiesProvider",
          "name": "newRoyaltiesProvider",
          "type": "address"
        }
      ],
      "name": "__EcoExchangeV2_init",
      "outputs": [],
      "stateMutability": "nonpayable",
      "type": "function"
    }
  ],
  "bytecode": "0x608060405234801561001057600080fd5b506140a8806100206000396000f3fe60806040526004361061010e5760003560e01c8063787dce3d116100a5578063c08693a411610074578063e66db25e11610059578063e66db25e146102c1578063e99a3f80146102e1578063f2fde38b146102f45761010e565b8063c08693a414610281578063e2864fe3146102a15761010e565b8063787dce3d146102175780638da5cb5b14610237578063b0e21e8a1461024c578063b39deb46146102615761010e565b80633abf6fd4116100e15780633abf6fd4146101b85780633be89922146101cd5780636d8f0694146101ed578063715018a6146102025761010e565b806302097ab1146101135780631cdfe3d81461014957806320158c441461016b57806330c642f114610198575b600080fd5b34801561011f57600080fd5b5061013361012e366004613615565b610314565b6040516101409190613a33565b60405180910390f35b34801561015557600080fd5b50610169610164366004613615565b610330565b005b34801561017757600080fd5b5061018b6101863660046136e5565b6103c7565b6040516101409190613ec6565b3480156101a457600080fd5b506101696101b33660046136fd565b6103da565b3480156101c457600080fd5b506101336104bc565b3480156101d957600080fd5b506101696101e8366004613615565b6104cc565b3480156101f957600080fd5b50610133610563565b34801561020e57600080fd5b50610169610573565b34801561022357600080fd5b506101696102323660046136e5565b610631565b34801561024357600080fd5b506101336106ab565b34801561025857600080fd5b5061018b6106ba565b34801561026d57600080fd5b5061016961027c3660046136fd565b6106c1565b34801561028d57600080fd5b5061016961029c36600461371a565b610797565b3480156102ad57600080fd5b506101696102bc3660046138e5565b61086b565b3480156102cd57600080fd5b506101696102dc36600461367a565b61093e565b6101696102ef366004613918565b6109e1565b34801561030057600080fd5b5061016961030f366004613615565b610a9d565b610164602052600090815260409020546001600160a01b031681565b610338610bb2565b6001600160a01b03166103496106ab565b6001600160a01b0316146103a4576040805162461bcd60e51b815260206004820181905260248201527f4f776e61626c653a2063616c6c6572206973206e6f7420746865206f776e6572604482015290519081900360640190fd5b61016380546001600160a01b0319166001600160a01b0392909216919091179055565b61012f6020526000908152604090205481565b6103e2610bb2565b6001600160a01b03166103f36106ab565b6001600160a01b03161461044e576040805162461bcd60e51b815260206004820181905260248201527f4f776e61626c653a2063616c6c6572206973206e6f7420746865206f776e6572604482015290519081900360640190fd5b6001600160e01b031982166000818152609760205260409081902080546001600160a01b0319166001600160a01b038516179055517f4b5aced933c0c9a88aeac3f0b3b72c5aaf75df8ebaf53225773248c4c3153593906104b0908490613a33565b60405180910390a25050565b610163546001600160a01b031681565b6104d4610bb2565b6001600160a01b03166104e56106ab565b6001600160a01b031614610540576040805162461bcd60e51b815260206004820181905260248201527f4f776e61626c653a2063616c6c6572206973206e6f7420746865206f776e6572604482015290519081900360640190fd5b61016280546001600160a01b0319166001600160a01b0392909216919091179055565b610162546001600160a01b031681565b61057b610bb2565b6001600160a01b031661058c6106ab565b6001600160a01b0316146105e7576040805162461bcd60e51b815260206004820181905260248201527f4f776e61626c653a2063616c6c6572206973206e6f7420746865206f776e6572604482015290519081900360640190fd5b6033546040516000916001600160a01b0316907f8be0079c531659141344cd1fd0a4f28419497f9722a3daafe3b4186f6b6457e0908390a3603380546001600160a01b0319169055565b610639610bb2565b6001600160a01b031661064a6106ab565b6001600160a01b0316146106a5576040805162461bcd60e51b815260206004820181905260248201527f4f776e61626c653a2063616c6c6572206973206e6f7420746865206f776e6572604482015290519081900360640190fd5b61016155565b6033546001600160a01b031690565b6101615481565b6106c9610bb2565b6001600160a01b03166106da6106ab565b6001600160a01b031614610735576040805162461bcd60e51b815260206004820181905260248201527f4f776e61626c653a2063616c6c6572206973206e6f7420746865206f776e6572604482015290519081900360640190fd5b6001600160e01b031982166000818152606560205260409081902080546001600160a01b0319166001600160a01b038516179055517fd2bf91075f105d0fd80328da28e20ebdad1c1261839711183bc29a44cbe6c72f906104b0908490613a33565b600054610100900460ff16806107b057506107b0610bb6565b806107be575060005460ff16155b6107f95760405162461bcd60e51b815260040180806020018281038252602e815260200180614002602e913960400191505060405180910390fd5b600054610100900460ff16158015610824576000805460ff1961ff0019909116610100171660011790555b61082c610bc7565b610834610c69565b61083e8686610d62565b610849848484610e0c565b610851610ee8565b8015610863576000805461ff00191690555b505050505050565b80516001600160a01b031661087e610bb2565b6001600160a01b0316146108ad5760405162461bcd60e51b81526004016108a490613dec565b60405180910390fd5b60808101516108ce5760405162461bcd60e51b81526004016108a490613be8565b60006108d982610fe9565b600081815261012f602090815260409182902060001990558451908501515160608601515192519394507fbbdc98cb2835f4f846e6a63700d0498b4674f0e8858fd50c6379314227afa04e936109329386939291613a60565b60405180910390a15050565b610946610bb2565b6001600160a01b03166109576106ab565b6001600160a01b0316146109b2576040805162461bcd60e51b815260206004820181905260248201527f4f776e61626c653a2063616c6c6572206973206e6f7420746865206f776e6572604482015290519081900360640190fd5b6001600160a01b0391821660009081526101646020526040902080546001600160a01b03191691909216179055565b6109eb848461105e565b6109f5828261105e565b60408401516001600160a01b031615610a415783604001516001600160a01b031682600001516001600160a01b031614610a415760405162461bcd60e51b81526004016108a490613d58565b60408201516001600160a01b031615610a8d5783600001516001600160a01b031682604001516001600160a01b031614610a8d5760405162461bcd60e51b81526004016108a490613c1f565b610a978483611075565b50505050565b610aa5610bb2565b6001600160a01b0316610ab66106ab565b6001600160a01b031614610b11576040805162461bcd60e51b815260206004820181905260248201527f4f776e61626c653a2063616c6c6572206973206e6f7420746865206f776e6572604482015290519081900360640190fd5b6001600160a01b038116610b565760405162461bcd60e51b8152600401808060200182810382526026815260200180613f6d6026913960400191505060405180910390fd5b6033546040516001600160a01b038084169216907f8be0079c531659141344cd1fd0a4f28419497f9722a3daafe3b4186f6b6457e090600090a3603380546001600160a01b0319166001600160a01b0392909216919091179055565b3390565b6000610bc130611283565b15905090565b600054610100900460ff1680610be05750610be0610bb6565b80610bee575060005460ff16155b610c295760405162461bcd60e51b815260040180806020018281038252602e815260200180614002602e913960400191505060405180910390fd5b600054610100900460ff16158015610c54576000805460ff1961ff0019909116610100171660011790555b8015610c66576000805461ff00191690555b50565b600054610100900460ff1680610c825750610c82610bb6565b80610c90575060005460ff16155b610ccb5760405162461bcd60e51b815260040180806020018281038252602e815260200180614002602e913960400191505060405180910390fd5b600054610100900460ff16158015610cf6576000805460ff1961ff0019909116610100171660011790555b6000610d00610bb2565b603380546001600160a01b0319166001600160a01b038316908117909155604051919250906000907f8be0079c531659141344cd1fd0a4f28419497f9722a3daafe3b4186f6b6457e0908290a3508015610c66576000805461ff001916905550565b60976020527f4532fa16f071d6234e30e1a1e69b9806f04095edf37a1ca7a25c8d6af7861cc080546001600160a01b039283166001600160a01b0319918216179091557f30a684095c937b5aa064dcf94f9903a7d808e3efb22d8389dbd43080ad4ed3d5805493909216928116831790915563025ceed960e61b6000527f4b5822151ea34b7c8d9e37c3e466bcecb631efe6a9f26a4a4054110a93dd316f80549091169091179055565b600054610100900460ff1680610e255750610e25610bb6565b80610e33575060005460ff16155b610e6e5760405162461bcd60e51b815260040180806020018281038252602e815260200180614002602e913960400191505060405180910390fd5b600054610100900460ff16158015610e99576000805460ff1961ff0019909116610100171660011790555b61016184905561016380546001600160a01b038086166001600160a01b0319928316179092556101628054928516929091169190911790558015610a97576000805461ff001916905550505050565b600054610100900460ff1680610f015750610f01610bb6565b80610f0f575060005460ff16155b610f4a5760405162461bcd60e51b815260040180806020018281038252602e815260200180614002602e913960400191505060405180910390fd5b600054610100900460ff16158015610f75576000805460ff1961ff0019909116610100171660011790555b610c546040518060400160405280600881526020017f45786368616e67650000000000000000000000000000000000000000000000008152506040518060400160405280600181526020017f3200000000000000000000000000000000000000000000000000000000000000815250611289565b805160208201515160009190610ffe9061134a565b60608401515161100d9061134a565b846080015160405160200180856001600160a01b031681526020018481526020018381526020018281526020019450505050506040516020818303038152906040528051906020012090505b919050565b611067826113b4565b611071828261147e565b5050565b60008061108284846116f5565b91509150600061109185610fe9565b9050600061109e85610fe9565b905060006110ac878461178e565b905060006110ba878461178e565b905060006110ca898985856117bd565b905060008160200151116110f05760405162461bcd60e51b81526004016108a490613cb3565b60808901511561111b57602081015161110a908490611841565b600086815261012f60205260409020555b608088015115611143578051611132908390611841565b600085815261012f60205260409020555b6000806111538989858e8e6118a2565b8a5191935091506001600160e01b0319166355575f5d60e11b14156111d25787516001600160e01b0319166355575f5d60e11b141561119157600080fd5b813410156111b15760405162461bcd60e51b81526004016108a490613db5565b813411156111cd576111cd6111c63484611a64565b3390611ac1565b611221565b87516001600160e01b0319166355575f5d60e11b1415611221578034101561120c5760405162461bcd60e51b81526004016108a490613db5565b80341115611221576112216111c63483611a64565b7f268820db288a211986b26a8fda86b1e0046281b21206936bb0e61c67b5c79ef487878d600001518d60000151876020015188600001518f8f60405161126e989796959493929190613aa5565b60405180910390a15050505050505050505050565b3b151590565b600054610100900460ff16806112a257506112a2610bb6565b806112b0575060005460ff16155b6112eb5760405162461bcd60e51b815260040180806020018281038252602e815260200180614002602e913960400191505060405180910390fd5b600054610100900460ff16158015611316576000805460ff1961ff0019909116610100171660011790555b825160208085019190912083519184019190912060c99190915560ca558015611345576000805461ff00191690555b505050565b8051602091820151805190830120604080517f452a0dc408cb0d27ffc3b3caff933a5208040a53a9dbecd8d89cad2c0d40e00c818601526001600160e01b031990931683820152606080840192909252805180840390920182526080909201909152805191012090565b60a081015115806113c85750428160a00151105b611419576040805162461bcd60e51b815260206004820152601d60248201527f4f726465722073746172742076616c69646174696f6e206661696c6564000000604482015290519081900360640190fd5b60c0810151158061142d5750428160c00151115b610c66576040805162461bcd60e51b815260206004820152601b60248201527f4f7264657220656e642076616c69646174696f6e206661696c65640000000000604482015290519081900360640190fd5b60808201516114fa5781516001600160a01b031661149a610bb2565b6001600160a01b0316146114f5576040805162461bcd60e51b815260206004820152601660248201527f6d616b6572206973206e6f742074782073656e64657200000000000000000000604482015290519081900360640190fd5b611071565b81516001600160a01b031661150d610bb2565b6001600160a01b03161461107157600061152683611b67565b83519091506001600160a01b03166115478361154184611c6c565b90611cd3565b6001600160a01b031614611345578251611569906001600160a01b0316611283565b156116be5782517f1626ba7e00000000000000000000000000000000000000000000000000000000906001600160a01b0316631626ba7e6115a984611c6c565b856040518363ffffffff1660e01b81526004018083815260200180602001828103825283818151815260200191508051906020019080838360005b838110156115fc5781810151838201526020016115e4565b50505050905090810190601f1680156116295780820380516001836020036101000a031916815260200191505b50935050505060206040518083038186803b15801561164757600080fd5b505afa15801561165b573d6000803e3d6000fd5b505050506040513d602081101561167157600080fd5b50516001600160e01b031916146116b95760405162461bcd60e51b815260040180806020018281038252602b815260200180613fd7602b913960400191505060405180910390fd5b611345565b60405162461bcd60e51b8152600401808060200182810382526022815260200180613fb56022913960400191505060405180910390fd5b6116fd6132e1565b6117056132e1565b60208401515160608401515161171b9190611d53565b80519092506001600160e01b0319166117465760405162461bcd60e51b81526004016108a490613d21565b60608401515160208401515161175c9190611d53565b80519091506001600160e01b0319166117875760405162461bcd60e51b81526004016108a490613d21565b9250929050565b60008260800151600014156117a5575060006117b7565b50600081815261012f60205260409020545b92915050565b6117c56132f9565b6000806117d28786611d93565b915091506000806117e38887611d93565b91509150838111156118165761180b84848a60200151602001518b6060015160200151611dd7565b945050505050611839565b6118328960200151602001518a60600151602001518484611e5c565b9450505050505b949350505050565b60008282018381101561189b576040805162461bcd60e51b815260206004820152601b60248201527f536166654d6174683a206164646974696f6e206f766572666c6f770000000000604482015290519081900360640190fd5b9392505050565b60008060006118b988600001518860000151611ee2565b865160208801519094509250905060006118d286611fb3565b905060006118df86611fb3565b905060018360028111156118ef57fe5b14156119685787518751611928919084848e8e7f1a0388dd7519a093630516a672419a2562e0e74deb98af068657dc265f0164c961208d565b9450611963898960200151886000015185600001517fb45a3ba14423c8f1b71cc094845ab56b5294dbe8d8e3ba53f3cdb63d59a4044b612151565b611a57565b600283600281111561197657fe5b14156119ea576119b38860200151876000015183858d8f7fb45a3ba14423c8f1b71cc094845ab56b5294dbe8d8e3ba53f3cdb63d59a4044b61208d565b885188518351929650611963928d9291907f1a0388dd7519a093630516a672419a2562e0e74deb98af068657dc265f0164c9612151565b875187518251611a1e928d9290917f1a0388dd7519a093630516a672419a2562e0e74deb98af068657dc265f0164c9612151565b611a57898960200151886000015185600001517fb45a3ba14423c8f1b71cc094845ab56b5294dbe8d8e3ba53f3cdb63d59a4044b612151565b5050509550959350505050565b600082821115611abb576040805162461bcd60e51b815260206004820152601e60248201527f536166654d6174683a207375627472616374696f6e206f766572666c6f770000604482015290519081900360640190fd5b50900390565b6040516000906001600160a01b0384169083908381818185875af1925050503d8060008114611b0c576040519150601f19603f3d011682016040523d82523d6000602084013e611b11565b606091505b5050905080611345576040805162461bcd60e51b815260206004820152600f60248201527f7472616e73666572206661696c65640000000000000000000000000000000000604482015290519081900360640190fd5b60007f477ed43b8020849b755512278536c3766a3b4ab547519949a75f483372493f8d8260000151611b9c8460200151612305565b8460400151611bae8660600151612305565b86608001518760a001518860c001518960e001518a610100015180519060200120604051602001808b81526020018a6001600160a01b03168152602001898152602001886001600160a01b03168152602001878152602001868152602001858152602001848152602001837bffffffffffffffffffffffffffffffffffffffffffffffffffffffff191681526020018281526020019a5050505050505050505050604051602081830303815290604052805190602001209050919050565b6000611c76612375565b8260405160200180807f190100000000000000000000000000000000000000000000000000000000000081525060020183815260200182815260200192505050604051602081830303815290604052805190602001209050919050565b60008151604114611d2b576040805162461bcd60e51b815260206004820152601f60248201527f45434453413a20696e76616c6964207369676e6174757265206c656e67746800604482015290519081900360640190fd5b60208201516040830151606084015160001a611d49868285856123b5565b9695505050505050565b611d5b6132e1565b6000611d678484612533565b80519091506001600160e01b031916611d8c57611d848385612533565b9150506117b7565b90506117b7565b600080611db183856060015160200151611a6490919063ffffffff16565b9050611dce84602001516020015185606001516020015183612768565b91509250929050565b611ddf6132f9565b6000611dec858585612768565b905085811115611e43576040805162461bcd60e51b815260206004820152601860248201527f66696c6c4c6566743a20756e61626c6520746f2066696c6c0000000000000000604482015290519081900360640190fd5b5050604080518082019091529384525050602082015290565b611e646132f9565b6000611e71838787612768565b905083811115611ec8576040805162461bcd60e51b815260206004820152601960248201527f66696c6c52696768743a20756e61626c6520746f2066696c6c00000000000000604482015290519081900360640190fd5b604080518082019091529283526020830152509392505050565b60006001600160e01b031983166355575f5d60e11b1415611f05575060016117b7565b6001600160e01b031982166355575f5d60e11b1415611f26575060026117b7565b6001600160e01b031983166322ba176160e21b1415611f47575060016117b7565b6001600160e01b031982166322ba176160e21b1415611f68575060026117b7565b6001600160e01b0319831663025ceed960e61b1415611f89575060016117b7565b6001600160e01b0319821663025ceed960e61b1415611faa575060026117b7565b50600092915050565b611fbb613313565b60e08201516001600160e01b0319167f4c23426600000000000000000000000000000000000000000000000000000000141561201d57611fff8261010001516127db565b80515190915061201857815161201590826127f7565b90505b611059565b60e08201516001600160e01b0319908116141561204057815161201590826127f7565b6040805162461bcd60e51b815260206004820152601760248201527f556e6b6e6f776e204f7264657220646174612074797065000000000000000000604482015290519081900360640190fd5b60006120a18861016154886020015161289d565b905060006120b2828a8a8887612915565b90506120c28585838c8c88612a11565b90506120f785828b8a602001518c887fdfdfdaf4cc275341b6776a7ee23b953990b8d991717449077287da70f32cf955612b83565b508091505061212f85828b89602001518c887fdfdfdaf4cc275341b6776a7ee23b953990b8d991717449077287da70f32cf955612b83565b508091505061214585828a896000015187612151565b50979650505050505050565b600084815b600185510381101561224b57600061219c86838151811061217357fe5b6020026020010151602001516bffffffffffffffffffffffff1689612c5b90919063ffffffff16565b90506121d68683815181106121ad57fe5b6020026020010151602001516bffffffffffffffffffffffff168561184190919063ffffffff16565b93508015612242576121e88382611a64565b925061224260405180604001604052808b8152602001838152508888858151811061220f57fe5b602002602001015160000151887fa10bb5b2060a412d05113732875a5431ca23453eb93f797e0ffcb5b40e5f2c3e612c6d565b50600101612156565b5060008460018651038151811061225e57fe5b6020026020010151905061228d81602001516bffffffffffffffffffffffff168461184190919063ffffffff16565b925082612710146122b05760405162461bcd60e51b81526004016108a490613cea565b81156122fb576122fb60405180604001604052808a815260200184815250878360000151877fa10bb5b2060a412d05113732875a5431ca23453eb93f797e0ffcb5b40e5f2c3e612c6d565b5050505050505050565b60007fdb6f72e915676cfc289da13bc4ece054fd17b1df6d77ffc4a60510718c236b08612335836000015161134a565b8360200151604051602001808481526020018381526020018281526020019350505050604051602081830303815290604052805190602001209050919050565b60006123b07f8b73c3c69bb8fe3d512ecc4cf759cc79239f7b179b0ffacaa9a75d522b39400f6123a3613058565b6123ab61305e565b613064565b905090565b60007f7fffffffffffffffffffffffffffffff5d576e7357a4501ddfe92f46681b20a08211156124165760405162461bcd60e51b8152600401808060200182810382526022815260200180613f936022913960400191505060405180910390fd5b8360ff16601b148061242b57508360ff16601c145b6124665760405162461bcd60e51b81526004018080602001828103825260228152602001806140306022913960400191505060405180910390fd5b600060018686868660405160008152602001604052604051808581526020018460ff1681526020018381526020018281526020019450505050506020604051602081039080840390855afa1580156124c2573d6000803e3d6000fd5b5050604051601f1901519150506001600160a01b03811661252a576040805162461bcd60e51b815260206004820152601860248201527f45434453413a20696e76616c6964207369676e61747572650000000000000000604482015290519081900360640190fd5b95945050505050565b61253b6132e1565b825182516001600160e01b031982166355575f5d60e11b14156125a6576001600160e01b031981166355575f5d60e11b141561257b5784925050506117b7565b50506040805180820182526000808252825160208181019094529081529181019190915290506117b7565b6001600160e01b031982166322ba176160e21b14156125eb576001600160e01b031981166322ba176160e21b141561257b576125e285856130c6565b925050506117b7565b6001600160e01b031982166339d690a360e11b1415612627576001600160e01b031981166339d690a360e11b141561257b576125e285856130c6565b6001600160e01b0319821663025ceed960e61b1415612663576001600160e01b0319811663025ceed960e61b141561257b576125e285856130c6565b6001600160e01b031982166000908152606560205260409020546001600160a01b03168015612731576040517f6d3f7cb00000000000000000000000000000000000000000000000000000000081526001600160a01b03821690636d3f7cb0906126d39089908990600401613e23565b60006040518083038186803b1580156126eb57600080fd5b505afa1580156126ff573d6000803e3d6000fd5b505050506040513d6000823e601f3d908101601f191682016040526127279190810190613781565b93505050506117b7565b6001600160e01b031983811690831614156127505761272786866130c6565b60405162461bcd60e51b81526004016108a490613b7a565b60006127758484846130f8565b156127c7576040805162461bcd60e51b815260206004820152600e60248201527f726f756e64696e67206572726f72000000000000000000000000000000000000604482015290519081900360640190fd5b611839836127d58685613194565b906131ed565b6127e3613313565b818060200190518101906117b79190613849565b6127ff613313565b604080516001808252818301909252600091816020015b61281e61332d565b815260200190600190039081612816579050509050838160008151811061284157fe5b6020026020010151600001906001600160a01b031690816001600160a01b0316815250506127108160008151811061287557fe5b6020908102919091018101516bffffffffffffffffffffffff92909216910152825250919050565b60006128b36128ac8585612c5b565b8590611841565b905060005b825181101561290d576129036128fc8483815181106128d357fe5b6020026020010151602001516bffffffffffffffffffffffff1687612c5b90919063ffffffff16565b8390611841565b91506001016128b8565b509392505050565b600080600061293b888861293660026101615461319490919063ffffffff16565b613254565b90925090508015612a065784516000906001600160e01b0319166322ba176160e21b141561298257856020015180602001905181019061297b9190613631565b90506129bb565b85516001600160e01b03191663025ceed960e61b14156129bb57600086602001518060200190518101906129b6919061364d565b509150505b612a04604051806040016040528088815260200184815250886129dd84613276565b887ff87e69cb514f255f3d32f9d90f25160a10d0cdefe6618a6406db334d4450595c612c6d565b505b509695505050505050565b84516000906001600160e01b03191663025ceed960e61b14801590612a48575085516001600160e01b0319166339d690a360e11b14155b15612a54575083611d49565b6000808760200151806020019051810190612a6f919061364d565b610162546040517f9ca7dc7a0000000000000000000000000000000000000000000000000000000081529294509092506000916001600160a01b0390911690639ca7dc7a90612ac49086908690600401613a47565b600060405180830381600087803b158015612ade57600080fd5b505af1158015612af2573d6000803e3d6000fd5b505050506040513d6000823e601f3d908101601f19168201604052612b1a91908101906136b2565b9050600080612b4e8c8b8b868c8c7fb3c5c697ec0b511b76d12f6293e6ee827b1e1df79ac7c64d0466d945904893d7612b83565b91509150611388811115612b745760405162461bcd60e51b81526004016108a490613bb1565b509a9950505050505050505050565b856000805b8651811015612c4e57612bc9878281518110612ba057fe5b6020026020010151602001516bffffffffffffffffffffffff168361184190919063ffffffff16565b9150600080612bfe858b8b8681518110612bdf57fe5b6020026020010151602001516bffffffffffffffffffffffff16613254565b90955085925090508015612c4457612c4460405180604001604052808e815260200183815250898b8681518110612c3157fe5b6020026020010151600001518a8a612c6d565b5050600101612b88565b5097509795505050505050565b600061189b6127106127d58585613194565b8451516001600160e01b0319166355575f5d60e11b1415612ca6576020850151612ca1906001600160a01b03851690611ac1565b613012565b8451516001600160e01b0319166322ba176160e21b1415612d9d576000856000015160200151806020019051810190612cdf9190613631565b6322ba176160e21b600052609760209081527f4532fa16f071d6234e30e1a1e69b9806f04095edf37a1ca7a25c8d6af7861cc054908801516040517f776062c30000000000000000000000000000000000000000000000000000000081529293506001600160a01b039091169163776062c391612d659185918a918a9190600401613b50565b600060405180830381600087803b158015612d7f57600080fd5b505af1158015612d93573d6000803e3d6000fd5b5050505050613012565b8451516001600160e01b0319166339d690a360e11b1415612eb657600080866000015160200151806020019051810190612dd7919061364d565b915091508660200151600114612dff5760405162461bcd60e51b81526004016108a490613c7c565b6339d690a360e11b60005260976020527f30a684095c937b5aa064dcf94f9903a7d808e3efb22d8389dbd43080ad4ed3d5546040517ff709b9060000000000000000000000000000000000000000000000000000000081526001600160a01b039091169063f709b90690612e7d9085908a908a908790600401613b50565b600060405180830381600087803b158015612e9757600080fd5b505af1158015612eab573d6000803e3d6000fd5b505050505050613012565b8451516001600160e01b03191663025ceed960e61b1415612f7857600080866000015160200151806020019051810190612ef0919061364d565b63025ceed960e61b600052609760209081527f4b5822151ea34b7c8d9e37c3e466bcecb631efe6a9f26a4a4054110a93dd316f54908a01516040517f9c1c2ee90000000000000000000000000000000000000000000000000000000081529395509193506001600160a01b031691639c1c2ee991612e7d9186918b918b918891600401613b0d565b8451516001600160e01b031916600090815260976020526040908190205490517f54bc0cf10000000000000000000000000000000000000000000000000000000081526001600160a01b03909116906354bc0cf190612fdf90889088908890600401613e48565b600060405180830381600087803b158015612ff957600080fd5b505af115801561300d573d6000803e3d6000fd5b505050505b7fcae9d16f553e92058883de29cb3135dbc0c1e31fd7eace79fef1d80577fe482e8585858585604051613049959493929190613e7b565b60405180910390a15050505050565b60c95490565b60ca5490565b60008383836130716132b5565b3060405160200180868152602001858152602001848152602001838152602001826001600160a01b03168152602001955050505050506040516020818303038152906040528051906020012090509392505050565b6130ce6132e1565b6020808401518051908201208382015180519201919091208082141561257b5784925050506117b7565b60008261314c576040805162461bcd60e51b815260206004820152601060248201527f6469766973696f6e206279207a65726f00000000000000000000000000000000604482015290519081900360640190fd5b811580613157575083155b156131645750600061189b565b6000838061316e57fe5b858409905061317d8584613194565b613189826103e8613194565b101595945050505050565b6000826131a3575060006117b7565b828202828482816131b057fe5b041461189b5760405162461bcd60e51b81526004018080602001828103825260218152602001806140526021913960400191505060405180910390fd5b6000808211613243576040805162461bcd60e51b815260206004820152601a60248201527f536166654d6174683a206469766973696f6e206279207a65726f000000000000604482015290519081900360640190fd5b81838161324c57fe5b049392505050565b60008061326a856132658686612c5b565b6132b9565b91509150935093915050565b6001600160a01b038082166000908152610164602052604081205490911680156132a1579050611059565b5050610163546001600160a01b0316919050565b4690565b600080828411156132d8576132ce8484611a64565b9150829050611787565b50600093915050565b60408051808201909152600081526060602082015290565b604051806040016040528060008152602001600081525090565b604051806040016040528060608152602001606081525090565b604080518082019091526000808252602082015290565b803561105981613f41565b600082601f83011261335f578081fd5b8151602067ffffffffffffffff8083111561337657fe5b6133838283850201613ecf565b838152828101908684016040808702890186018a10156133a1578788fd5b875b8781101561340e5781838c0312156133b9578889fd5b815182810181811088821117156133cc57fe5b835283516133d981613f41565b8152838801516bffffffffffffffffffffffff811681146133f8578a8bfd5b81890152855293860193918101916001016133a3565b50919998505050505050505050565b803561105981613f56565b600082601f830112613438578081fd5b813561344b61344682613ef3565b613ecf565b81815284602083860101111561345f578283fd5b816020850160208301379081016020019190915292915050565b6000604080838503121561348b578182fd5b805181810167ffffffffffffffff82821081831117156134a757fe5b8184528294508535818111156134bc57600080fd5b86018088038513156134cd57600080fd5b6080840183811083821117156134df57fe5b9094528335936134ee85613f56565b9382526020840135938185111561350457600080fd5b61351088868301613428565b60608501525050815260209384013593019290925292915050565b600061012080838503121561353e578182fd5b61354781613ecf565b91505061355382613344565b8152602082013567ffffffffffffffff8082111561357057600080fd5b61357c85838601613479565b602084015261358d60408501613344565b604084015260608401359150808211156135a657600080fd5b6135b285838601613479565b60608401526080840135608084015260a084013560a084015260c084013560c08401526135e160e0850161341d565b60e0840152610100915081840135818111156135fc57600080fd5b61360886828701613428565b8385015250505092915050565b600060208284031215613626578081fd5b813561189b81613f41565b600060208284031215613642578081fd5b815161189b81613f41565b6000806040838503121561365f578081fd5b825161366a81613f41565b6020939093015192949293505050565b6000806040838503121561368c578182fd5b823561369781613f41565b915060208301356136a781613f41565b809150509250929050565b6000602082840312156136c3578081fd5b815167ffffffffffffffff8111156136d9578182fd5b6118398482850161334f565b6000602082840312156136f6578081fd5b5035919050565b6000806040838503121561370f578182fd5b823561369781613f56565b600080600080600060a08688031215613731578081fd5b853561373c81613f41565b9450602086013561374c81613f41565b935060408601359250606086013561376381613f41565b9150608086013561377381613f41565b809150509295509295909350565b60006020808385031215613793578182fd5b825167ffffffffffffffff808211156137aa578384fd5b90840190604082870312156137bd578384fd5b6040516040810181811083821117156137d257fe5b60405282516137e081613f56565b815282840151828111156137f2578586fd5b80840193505086601f840112613806578485fd5b8251915061381661344683613ef3565b8281528785848601011115613829578586fd5b61383883868301878701613f15565b938101939093525090949350505050565b60006020828403121561385a578081fd5b815167ffffffffffffffff80821115613871578283fd5b9083019060408286031215613884578283fd5b60405160408101818110838211171561389957fe5b6040528251828111156138aa578485fd5b6138b68782860161334f565b8252506020830151828111156138ca578485fd5b6138d68782860161334f565b60208301525095945050505050565b6000602082840312156138f6578081fd5b813567ffffffffffffffff81111561390c578182fd5b6118398482850161352b565b6000806000806080858703121561392d578182fd5b843567ffffffffffffffff80821115613944578384fd5b6139508883890161352b565b95506020870135915080821115613965578384fd5b61397188838901613428565b94506040870135915080821115613986578384fd5b6139928883890161352b565b935060608701359150808211156139a7578283fd5b506139b487828801613428565b91505092959194509250565b60006001600160e01b0319825116835260208201516040602085015280518060408601526139f5816060870160208501613f15565b601f01601f1916939093016060019392505050565b6000815160408452613a1f60408501826139c0565b602093840151949093019390935250919050565b6001600160a01b0391909116815260200190565b6001600160a01b03929092168252602082015260400190565b60008582526001600160a01b038516602083015260806040830152613a8860808301856139c0565b8281036060840152613a9a81856139c0565b979650505050505050565b60006101008a83528960208401526001600160a01b03808a1660408501528089166060850152508660808401528560a08401528060c0840152613aea818401866139c0565b905082810360e0840152613afe81856139c0565b9b9a5050505050505050505050565b6001600160a01b03958616815293851660208501529190931660408301526060820192909252608081019190915260c060a0820181905260009082015260e00190565b6001600160a01b039485168152928416602084015292166040820152606081019190915260800190565b60208082526017908201527f6e6f7420666f756e64204941737365744d617463686572000000000000000000604082015260600190565b6020808252601d908201527f526f79616c746965732061726520746f6f206869676820283e35302529000000604082015260600190565b60208082526014908201527f302073616c742063616e27742062652075736564000000000000000000000000604082015260600190565b60208082526024908201527f72696768744f726465722e74616b657220766572696669636174696f6e20666160408201527f696c656400000000000000000000000000000000000000000000000000000000606082015260800190565b60208082526012908201527f6572633732312076616c7565206572726f720000000000000000000000000000604082015260600190565b6020808252600f908201527f6e6f7468696e6720746f2066696c6c0000000000000000000000000000000000604082015260600190565b6020808252601e908201527f53756d207061796f75747320427073206e6f7420657175616c20313030250000604082015260600190565b60208082526012908201527f61737365747320646f6e2774206d617463680000000000000000000000000000604082015260600190565b60208082526023908201527f6c6566744f726465722e74616b657220766572696669636174696f6e2066616960408201527f6c65640000000000000000000000000000000000000000000000000000000000606082015260800190565b6020808252600e908201527f6e6f7420656e6f75676820657468000000000000000000000000000000000000604082015260600190565b6020808252600b908201527f6e6f742061206d616b6572000000000000000000000000000000000000000000604082015260600190565b600060408252613e3660408301856139c0565b828103602084015261252a81856139c0565b600060608252613e5b6060830186613a0a565b6001600160a01b0394851660208401529290931660409091015292915050565b600060a08252613e8e60a0830188613a0a565b6001600160a01b0396871660208401529490951660408201526001600160e01b03199283166060820152911660809091015292915050565b90815260200190565b60405181810167ffffffffffffffff81118282101715613eeb57fe5b604052919050565b600067ffffffffffffffff821115613f0757fe5b50601f01601f191660200190565b60005b83811015613f30578181015183820152602001613f18565b83811115610a975750506000910152565b6001600160a01b0381168114610c6657600080fd5b6001600160e01b031981168114610c6657600080fdfe4f776e61626c653a206e6577206f776e657220697320746865207a65726f206164647265737345434453413a20696e76616c6964207369676e6174757265202773272076616c75656f72646572207369676e617475726520766572696669636174696f6e206572726f72636f6e7472616374206f72646572207369676e617475726520766572696669636174696f6e206572726f72496e697469616c697a61626c653a20636f6e747261637420697320616c726561647920696e697469616c697a656445434453413a20696e76616c6964207369676e6174757265202776272076616c7565536166654d6174683a206d756c7469706c69636174696f6e206f766572666c6f77a2646970667358221220d10c78f0b7a10c14b0092c02082caf134d1fd10cf9d3bdd82f0a897a6f8cdfdc64736f6c63430007060033",
  "immutableReferences": {},
  "source": "// SPDX-License-Identifier: MIT\n\npragma solidity >=0.6.2 <0.8.0;\npragma abicoder v2;\n\nimport \"protocol-contracts/exchange-v2/contracts/ExchangeV2Core.sol\";\nimport \"protocol-contracts/exchange-v2/contracts/RaribleTransferManager.sol\";\nimport \"@rarible/royalties/contracts/IRoyaltiesProvider.sol\";\n\ncontract EcoFiExchangeV2 is ExchangeV2Core, RaribleTransferManager {\n    function __EcoExchangeV2_init(\n        INftTransferProxy _transferProxy,\n        IERC20TransferProxy _erc20TransferProxy,\n        uint newProtocolFee,\n        address payable newDefaultFeeReceiver,\n        IRoyaltiesProvider newRoyaltiesProvider\n    ) external initializer {\n        __Context_init_unchained();\n        __Ownable_init_unchained();\n        __TransferExecutor_init_unchained(_transferProxy, _erc20TransferProxy);\n        __RaribleTransferManager_init_unchained(newProtocolFee, newDefaultFeeReceiver, newRoyaltiesProvider);\n        __OrderValidator_init_unchained();\n    }\n}\n",
  "sourcePath": "/Users/sreckosmodis/Documents/Projects/Ecofi/ecofi-contracts/contracts/EcoFiExchangeV2.sol",
  "compiler": {
    "name": "solc",
    "version": "0.7.6+commit.7338295f.Emscripten.clang"
  },
  "schemaVersion": "3.4.1",
  "updatedAt": "2021-09-23T12:35:33.321Z",
  "networkType": "ethereum",
  "devdoc": {
    "kind": "dev",
    "methods": {
      "owner()": {
        "details": "Returns the address of the current owner."
      },
      "renounceOwnership()": {
        "details": "Leaves the contract without owner. It will not be possible to call `onlyOwner` functions anymore. Can only be called by the current owner. NOTE: Renouncing ownership will leave the contract without an owner, thereby removing any functionality that is only available to the owner."
      },
      "transferOwnership(address)": {
        "details": "Transfers ownership of the contract to a new account (`newOwner`). Can only be called by the current owner."
      }
    },
    "version": 1
  },
  "userdoc": {
    "kind": "user",
    "methods": {},
    "version": 1
  }
}