{
  "contractName": "EcoFiERC1155",
  "abi": [
    {
      "anonymous": false,
      "inputs": [
        {
          "indexed": true,
          "internalType": "address",
          "name": "account",
          "type": "address"
        },
        {
          "indexed": true,
          "internalType": "address",
          "name": "operator",
          "type": "address"
        },
        {
          "indexed": false,
          "internalType": "bool",
          "name": "approved",
          "type": "bool"
        }
      ],
      "name": "ApprovalForAll",
      "type": "event"
    },
    {
      "anonymous": false,
      "inputs": [
        {
          "indexed": false,
          "internalType": "address",
          "name": "owner",
          "type": "address"
        },
        {
          "indexed": false,
          "internalType": "string",
          "name": "name",
          "type": "string"
        },
        {
          "indexed": false,
          "internalType": "string",
          "name": "symbol",
          "type": "string"
        }
      ],
      "name": "CreateEcoFiERC1155",
      "type": "event"
    },
    {
      "anonymous": false,
      "inputs": [
        {
          "indexed": true,
          "internalType": "uint256",
          "name": "tokenId",
          "type": "uint256"
        },
        {
          "components": [
            {
              "internalType": "address payable",
              "name": "account",
              "type": "address"
            },
            {
              "internalType": "uint96",
              "name": "value",
              "type": "uint96"
            }
          ],
          "indexed": false,
          "internalType": "struct LibPart.Part[]",
          "name": "creators",
          "type": "tuple[]"
        }
      ],
      "name": "Creators",
      "type": "event"
    },
    {
      "anonymous": false,
      "inputs": [
        {
          "indexed": true,
          "internalType": "address",
          "name": "operator",
          "type": "address"
        },
        {
          "indexed": false,
          "internalType": "bool",
          "name": "hasApproval",
          "type": "bool"
        }
      ],
      "name": "DefaultApproval",
      "type": "event"
    },
    {
      "anonymous": false,
      "inputs": [
        {
          "indexed": false,
          "internalType": "string",
          "name": "value",
          "type": "string"
        },
        {
          "indexed": true,
          "internalType": "uint256",
          "name": "id",
          "type": "uint256"
        }
      ],
      "name": "Image",
      "type": "event"
    },
    {
      "anonymous": false,
      "inputs": [
        {
          "indexed": true,
          "internalType": "address",
          "name": "previousOwner",
          "type": "address"
        },
        {
          "indexed": true,
          "internalType": "address",
          "name": "newOwner",
          "type": "address"
        }
      ],
      "name": "OwnershipTransferred",
      "type": "event"
    },
    {
      "anonymous": false,
      "inputs": [
        {
          "indexed": false,
          "internalType": "uint256",
          "name": "tokenId",
          "type": "uint256"
        },
        {
          "components": [
            {
              "internalType": "address payable",
              "name": "account",
              "type": "address"
            },
            {
              "internalType": "uint96",
              "name": "value",
              "type": "uint96"
            }
          ],
          "indexed": false,
          "internalType": "struct LibPart.Part[]",
          "name": "royalties",
          "type": "tuple[]"
        }
      ],
      "name": "RoyaltiesSet",
      "type": "event"
    },
    {
      "anonymous": false,
      "inputs": [
        {
          "indexed": true,
          "internalType": "uint256",
          "name": "tokenId",
          "type": "uint256"
        },
        {
          "indexed": false,
          "internalType": "uint256",
          "name": "value",
          "type": "uint256"
        }
      ],
      "name": "Supply",
      "type": "event"
    },
    {
      "anonymous": false,
      "inputs": [
        {
          "indexed": true,
          "internalType": "address",
          "name": "operator",
          "type": "address"
        },
        {
          "indexed": true,
          "internalType": "address",
          "name": "from",
          "type": "address"
        },
        {
          "indexed": true,
          "internalType": "address",
          "name": "to",
          "type": "address"
        },
        {
          "indexed": false,
          "internalType": "uint256[]",
          "name": "ids",
          "type": "uint256[]"
        },
        {
          "indexed": false,
          "internalType": "uint256[]",
          "name": "values",
          "type": "uint256[]"
        }
      ],
      "name": "TransferBatch",
      "type": "event"
    },
    {
      "anonymous": false,
      "inputs": [
        {
          "indexed": true,
          "internalType": "address",
          "name": "operator",
          "type": "address"
        },
        {
          "indexed": true,
          "internalType": "address",
          "name": "from",
          "type": "address"
        },
        {
          "indexed": true,
          "internalType": "address",
          "name": "to",
          "type": "address"
        },
        {
          "indexed": false,
          "internalType": "uint256",
          "name": "id",
          "type": "uint256"
        },
        {
          "indexed": false,
          "internalType": "uint256",
          "name": "value",
          "type": "uint256"
        }
      ],
      "name": "TransferSingle",
      "type": "event"
    },
    {
      "anonymous": false,
      "inputs": [
        {
          "indexed": false,
          "internalType": "string",
          "name": "value",
          "type": "string"
        },
        {
          "indexed": true,
          "internalType": "uint256",
          "name": "id",
          "type": "uint256"
        }
      ],
      "name": "URI",
      "type": "event"
    },
    {
      "inputs": [
        {
          "internalType": "address",
          "name": "account",
          "type": "address"
        },
        {
          "internalType": "uint256",
          "name": "id",
          "type": "uint256"
        }
      ],
      "name": "balanceOf",
      "outputs": [
        {
          "internalType": "uint256",
          "name": "",
          "type": "uint256"
        }
      ],
      "stateMutability": "view",
      "type": "function",
      "constant": true
    },
    {
      "inputs": [
        {
          "internalType": "address[]",
          "name": "accounts",
          "type": "address[]"
        },
        {
          "internalType": "uint256[]",
          "name": "ids",
          "type": "uint256[]"
        }
      ],
      "name": "balanceOfBatch",
      "outputs": [
        {
          "internalType": "uint256[]",
          "name": "",
          "type": "uint256[]"
        }
      ],
      "stateMutability": "view",
      "type": "function",
      "constant": true
    },
    {
      "inputs": [],
      "name": "baseURI",
      "outputs": [
        {
          "internalType": "string",
          "name": "",
          "type": "string"
        }
      ],
      "stateMutability": "view",
      "type": "function",
      "constant": true
    },
    {
      "inputs": [
        {
          "internalType": "address",
          "name": "account",
          "type": "address"
        },
        {
          "internalType": "uint256",
          "name": "id",
          "type": "uint256"
        },
        {
          "internalType": "uint256",
          "name": "value",
          "type": "uint256"
        }
      ],
      "name": "burn",
      "outputs": [],
      "stateMutability": "nonpayable",
      "type": "function"
    },
    {
      "inputs": [
        {
          "internalType": "address",
          "name": "account",
          "type": "address"
        },
        {
          "internalType": "uint256[]",
          "name": "ids",
          "type": "uint256[]"
        },
        {
          "internalType": "uint256[]",
          "name": "values",
          "type": "uint256[]"
        }
      ],
      "name": "burnBatch",
      "outputs": [],
      "stateMutability": "nonpayable",
      "type": "function"
    },
    {
      "inputs": [],
      "name": "contractURI",
      "outputs": [
        {
          "internalType": "string",
          "name": "",
          "type": "string"
        }
      ],
      "stateMutability": "view",
      "type": "function",
      "constant": true
    },
    {
      "inputs": [
        {
          "internalType": "uint256",
          "name": "",
          "type": "uint256"
        },
        {
          "internalType": "uint256",
          "name": "",
          "type": "uint256"
        }
      ],
      "name": "creators",
      "outputs": [
        {
          "internalType": "address payable",
          "name": "account",
          "type": "address"
        },
        {
          "internalType": "uint96",
          "name": "value",
          "type": "uint96"
        }
      ],
      "stateMutability": "view",
      "type": "function",
      "constant": true
    },
    {
      "inputs": [
        {
          "internalType": "uint256",
          "name": "_id",
          "type": "uint256"
        }
      ],
      "name": "getCreators",
      "outputs": [
        {
          "components": [
            {
              "internalType": "address payable",
              "name": "account",
              "type": "address"
            },
            {
              "internalType": "uint96",
              "name": "value",
              "type": "uint96"
            }
          ],
          "internalType": "struct LibPart.Part[]",
          "name": "",
          "type": "tuple[]"
        }
      ],
      "stateMutability": "view",
      "type": "function",
      "constant": true
    },
    {
      "inputs": [
        {
          "internalType": "uint256",
          "name": "id",
          "type": "uint256"
        }
      ],
      "name": "getRoyalties",
      "outputs": [
        {
          "components": [
            {
              "internalType": "address payable",
              "name": "account",
              "type": "address"
            },
            {
              "internalType": "uint96",
              "name": "value",
              "type": "uint96"
            }
          ],
          "internalType": "struct LibPart.Part[]",
          "name": "",
          "type": "tuple[]"
        }
      ],
      "stateMutability": "view",
      "type": "function",
      "constant": true
    },
    {
      "inputs": [
        {
          "internalType": "uint256",
          "name": "id",
          "type": "uint256"
        }
      ],
      "name": "image",
      "outputs": [
        {
          "internalType": "string",
          "name": "",
          "type": "string"
        }
      ],
      "stateMutability": "view",
      "type": "function",
      "constant": true
    },
    {
      "inputs": [
        {
          "internalType": "address",
          "name": "_owner",
          "type": "address"
        },
        {
          "internalType": "address",
          "name": "_operator",
          "type": "address"
        }
      ],
      "name": "isApprovedForAll",
      "outputs": [
        {
          "internalType": "bool",
          "name": "",
          "type": "bool"
        }
      ],
      "stateMutability": "view",
      "type": "function",
      "constant": true
    },
    {
      "inputs": [],
      "name": "name",
      "outputs": [
        {
          "internalType": "string",
          "name": "",
          "type": "string"
        }
      ],
      "stateMutability": "view",
      "type": "function",
      "constant": true
    },
    {
      "inputs": [],
      "name": "owner",
      "outputs": [
        {
          "internalType": "address",
          "name": "",
          "type": "address"
        }
      ],
      "stateMutability": "view",
      "type": "function",
      "constant": true
    },
    {
      "inputs": [],
      "name": "renounceOwnership",
      "outputs": [],
      "stateMutability": "nonpayable",
      "type": "function"
    },
    {
      "inputs": [
        {
          "internalType": "uint256",
          "name": "",
          "type": "uint256"
        },
        {
          "internalType": "uint256",
          "name": "",
          "type": "uint256"
        }
      ],
      "name": "royalties",
      "outputs": [
        {
          "internalType": "address payable",
          "name": "account",
          "type": "address"
        },
        {
          "internalType": "uint96",
          "name": "value",
          "type": "uint96"
        }
      ],
      "stateMutability": "view",
      "type": "function",
      "constant": true
    },
    {
      "inputs": [
        {
          "internalType": "address",
          "name": "from",
          "type": "address"
        },
        {
          "internalType": "address",
          "name": "to",
          "type": "address"
        },
        {
          "internalType": "uint256[]",
          "name": "ids",
          "type": "uint256[]"
        },
        {
          "internalType": "uint256[]",
          "name": "amounts",
          "type": "uint256[]"
        },
        {
          "internalType": "bytes",
          "name": "data",
          "type": "bytes"
        }
      ],
      "name": "safeBatchTransferFrom",
      "outputs": [],
      "stateMutability": "nonpayable",
      "type": "function"
    },
    {
      "inputs": [
        {
          "internalType": "address",
          "name": "from",
          "type": "address"
        },
        {
          "internalType": "address",
          "name": "to",
          "type": "address"
        },
        {
          "internalType": "uint256",
          "name": "id",
          "type": "uint256"
        },
        {
          "internalType": "uint256",
          "name": "amount",
          "type": "uint256"
        },
        {
          "internalType": "bytes",
          "name": "data",
          "type": "bytes"
        }
      ],
      "name": "safeTransferFrom",
      "outputs": [],
      "stateMutability": "nonpayable",
      "type": "function"
    },
    {
      "inputs": [
        {
          "internalType": "address",
          "name": "operator",
          "type": "address"
        },
        {
          "internalType": "bool",
          "name": "approved",
          "type": "bool"
        }
      ],
      "name": "setApprovalForAll",
      "outputs": [],
      "stateMutability": "nonpayable",
      "type": "function"
    },
    {
      "inputs": [
        {
          "internalType": "address",
          "name": "operator",
          "type": "address"
        },
        {
          "internalType": "bool",
          "name": "hasApproval",
          "type": "bool"
        }
      ],
      "name": "setDefaultApproval",
      "outputs": [],
      "stateMutability": "nonpayable",
      "type": "function"
    },
    {
      "inputs": [
        {
          "internalType": "bytes4",
          "name": "interfaceId",
          "type": "bytes4"
        }
      ],
      "name": "supportsInterface",
      "outputs": [
        {
          "internalType": "bool",
          "name": "",
          "type": "bool"
        }
      ],
      "stateMutability": "view",
      "type": "function",
      "constant": true
    },
    {
      "inputs": [],
      "name": "symbol",
      "outputs": [
        {
          "internalType": "string",
          "name": "",
          "type": "string"
        }
      ],
      "stateMutability": "view",
      "type": "function",
      "constant": true
    },
    {
      "inputs": [
        {
          "components": [
            {
              "internalType": "uint256",
              "name": "tokenId",
              "type": "uint256"
            },
            {
              "internalType": "string",
              "name": "tokenURI",
              "type": "string"
            },
            {
              "internalType": "uint256",
              "name": "supply",
              "type": "uint256"
            },
            {
              "components": [
                {
                  "internalType": "address payable",
                  "name": "account",
                  "type": "address"
                },
                {
                  "internalType": "uint96",
                  "name": "value",
                  "type": "uint96"
                }
              ],
              "internalType": "struct LibPart.Part[]",
              "name": "creators",
              "type": "tuple[]"
            },
            {
              "components": [
                {
                  "internalType": "address payable",
                  "name": "account",
                  "type": "address"
                },
                {
                  "internalType": "uint96",
                  "name": "value",
                  "type": "uint96"
                }
              ],
              "internalType": "struct LibPart.Part[]",
              "name": "royalties",
              "type": "tuple[]"
            },
            {
              "internalType": "bytes[]",
              "name": "signatures",
              "type": "bytes[]"
            }
          ],
          "internalType": "struct LibERC1155LazyMint.Mint1155Data",
          "name": "data",
          "type": "tuple"
        },
        {
          "internalType": "address",
          "name": "from",
          "type": "address"
        },
        {
          "internalType": "address",
          "name": "to",
          "type": "address"
        },
        {
          "internalType": "uint256",
          "name": "amount",
          "type": "uint256"
        }
      ],
      "name": "transferFromOrMint",
      "outputs": [],
      "stateMutability": "nonpayable",
      "type": "function"
    },
    {
      "inputs": [
        {
          "internalType": "address",
          "name": "newOwner",
          "type": "address"
        }
      ],
      "name": "transferOwnership",
      "outputs": [],
      "stateMutability": "nonpayable",
      "type": "function"
    },
    {
      "inputs": [
        {
          "internalType": "uint256",
          "name": "_id",
          "type": "uint256"
        },
        {
          "internalType": "address",
          "name": "_from",
          "type": "address"
        },
        {
          "internalType": "address",
          "name": "_to",
          "type": "address"
        }
      ],
      "name": "updateAccount",
      "outputs": [],
      "stateMutability": "nonpayable",
      "type": "function"
    },
    {
      "inputs": [
        {
          "internalType": "uint256",
          "name": "id",
          "type": "uint256"
        }
      ],
      "name": "uri",
      "outputs": [
        {
          "internalType": "string",
          "name": "",
          "type": "string"
        }
      ],
      "stateMutability": "view",
      "type": "function",
      "constant": true
    },
    {
      "inputs": [
        {
          "internalType": "string",
          "name": "_name",
          "type": "string"
        },
        {
          "internalType": "string",
          "name": "_symbol",
          "type": "string"
        },
        {
          "internalType": "string",
          "name": "baseURI",
          "type": "string"
        },
        {
          "internalType": "string",
          "name": "contractURI",
          "type": "string"
        },
        {
          "internalType": "address",
          "name": "_address",
          "type": "address"
        }
      ],
      "name": "__EcoFiERC1155_init",
      "outputs": [],
      "stateMutability": "nonpayable",
      "type": "function"
    },
    {
      "inputs": [
        {
          "components": [
            {
              "internalType": "uint256",
              "name": "tokenId",
              "type": "uint256"
            },
            {
              "internalType": "string",
              "name": "tokenURI",
              "type": "string"
            },
            {
              "internalType": "uint256",
              "name": "supply",
              "type": "uint256"
            },
            {
              "components": [
                {
                  "internalType": "address payable",
                  "name": "account",
                  "type": "address"
                },
                {
                  "internalType": "uint96",
                  "name": "value",
                  "type": "uint96"
                }
              ],
              "internalType": "struct LibPart.Part[]",
              "name": "creators",
              "type": "tuple[]"
            },
            {
              "components": [
                {
                  "internalType": "address payable",
                  "name": "account",
                  "type": "address"
                },
                {
                  "internalType": "uint96",
                  "name": "value",
                  "type": "uint96"
                }
              ],
              "internalType": "struct LibPart.Part[]",
              "name": "royalties",
              "type": "tuple[]"
            },
            {
              "internalType": "bytes[]",
              "name": "signatures",
              "type": "bytes[]"
            }
          ],
          "internalType": "struct LibERC1155LazyMint.Mint1155Data",
          "name": "data",
          "type": "tuple"
        },
        {
          "internalType": "string",
          "name": "image",
          "type": "string"
        },
        {
          "internalType": "address",
          "name": "to",
          "type": "address"
        },
        {
          "internalType": "uint256",
          "name": "_amount",
          "type": "uint256"
        }
      ],
      "name": "mintWithImage",
      "outputs": [],
      "stateMutability": "nonpayable",
      "type": "function"
    },
    {
      "inputs": [
        {
          "components": [
            {
              "internalType": "uint256",
              "name": "tokenId",
              "type": "uint256"
            },
            {
              "internalType": "string",
              "name": "tokenURI",
              "type": "string"
            },
            {
              "internalType": "uint256",
              "name": "supply",
              "type": "uint256"
            },
            {
              "components": [
                {
                  "internalType": "address payable",
                  "name": "account",
                  "type": "address"
                },
                {
                  "internalType": "uint96",
                  "name": "value",
                  "type": "uint96"
                }
              ],
              "internalType": "struct LibPart.Part[]",
              "name": "creators",
              "type": "tuple[]"
            },
            {
              "components": [
                {
                  "internalType": "address payable",
                  "name": "account",
                  "type": "address"
                },
                {
                  "internalType": "uint96",
                  "name": "value",
                  "type": "uint96"
                }
              ],
              "internalType": "struct LibPart.Part[]",
              "name": "royalties",
              "type": "tuple[]"
            },
            {
              "internalType": "bytes[]",
              "name": "signatures",
              "type": "bytes[]"
            }
          ],
          "internalType": "struct LibERC1155LazyMint.Mint1155Data",
          "name": "data",
          "type": "tuple"
        },
        {
          "internalType": "address",
          "name": "to",
          "type": "address"
        },
        {
          "internalType": "uint256",
          "name": "_amount",
          "type": "uint256"
        }
      ],
      "name": "mintAndTransfer",
      "outputs": [],
      "stateMutability": "nonpayable",
      "type": "function"
    },
    {
      "inputs": [
        {
          "components": [
            {
              "internalType": "uint256",
              "name": "tokenId",
              "type": "uint256"
            },
            {
              "internalType": "string",
              "name": "tokenURI",
              "type": "string"
            },
            {
              "internalType": "uint256",
              "name": "supply",
              "type": "uint256"
            },
            {
              "components": [
                {
                  "internalType": "address payable",
                  "name": "account",
                  "type": "address"
                },
                {
                  "internalType": "uint96",
                  "name": "value",
                  "type": "uint96"
                }
              ],
              "internalType": "struct LibPart.Part[]",
              "name": "creators",
              "type": "tuple[]"
            },
            {
              "components": [
                {
                  "internalType": "address payable",
                  "name": "account",
                  "type": "address"
                },
                {
                  "internalType": "uint96",
                  "name": "value",
                  "type": "uint96"
                }
              ],
              "internalType": "struct LibPart.Part[]",
              "name": "royalties",
              "type": "tuple[]"
            },
            {
              "internalType": "bytes[]",
              "name": "signatures",
              "type": "bytes[]"
            }
          ],
          "internalType": "struct LibERC1155LazyMint.Mint1155Data",
          "name": "data",
          "type": "tuple"
        },
        {
          "internalType": "address[]",
          "name": "tos",
          "type": "address[]"
        },
        {
          "internalType": "uint256[]",
          "name": "_amounts",
          "type": "uint256[]"
        }
      ],
      "name": "batchMintAndTransfer",
      "outputs": [],
      "stateMutability": "nonpayable",
      "type": "function"
    }
  ],
  "bytecode": "0x608060405234801561001057600080fd5b50615235806100206000396000f3fe608060405234801561001057600080fd5b50600436106101ce5760003560e01c80638924af7411610104578063e07f2319116100a2578063f242432a11610071578063f242432a146103d3578063f2fde38b146103e6578063f5298aca146103f9578063ffc4e0a71461040c576101ce565b8063e07f231914610392578063e5826751146103a5578063e8a3d485146103b8578063e985e9c5146103c0576101ce565b806398d0b4fb116100de57806398d0b4fb14610346578063a22cb46514610359578063bb3bafd61461036c578063c79178c61461037f576101ce565b80638924af74146103085780638da5cb5b1461032957806395d89b411461033e576101ce565b80632eb2c2d6116101715780636b20c4541161014b5780636b20c454146102c55780636c0360eb146102d8578063715018a6146102e0578063891be974146102e8576101ce565b80632eb2c2d61461027f5780634e1273f4146102925780634eb840e1146102b2576101ce565b80630e89341c116101ad5780630e89341c146102315780630eaead671461024457806318054c37146102595780631e014a4b1461026c576101ce565b8062fdd58e146101d357806301ffc9a7146101fc57806306fdde031461021c575b600080fd5b6101e66101e1366004614608565b61041f565b6040516101f39190614e28565b60405180910390f35b61020f61020a3660046146c8565b61048e565b6040516101f39190614b17565b6102246104b1565b6040516101f39190614b22565b61022461023f366004614930565b610540565b610257610252366004614815565b610551565b005b6102576102673660046145d7565b6105d5565b61025761027a3660046148c5565b610657565b61025761028d366004614453565b6108db565b6102a56102a0366004614667565b610bd1565b6040516101f39190614ad3565b6102576102c036600461486d565b610cbd565b6102576102d3366004614564565b610ddc565b610224610e50565b610257610ee8565b6102fb6102f6366004614930565b610fa6565b6040516101f39190614ac0565b61031b610316366004614989565b61103b565b6040516101f3929190614a99565b61033161108a565b6040516101f39190614a51565b610224611099565b61031b610354366004614989565b6110f5565b6102576103673660046145d7565b611112565b6102fb61037a366004614930565b611201565b61022461038d366004614930565b611281565b6102576103a0366004614948565b61128c565b6102576103b33660046146f0565b6112cf565b61022461142e565b61020f6103ce36600461441b565b61148a565b6102576103e13660046144fd565b61149d565b6102576103f43660046143ff565b611668565b610257610407366004614633565b61177d565b61025761041a3660046147ad565b6117f1565b60006001600160a01b0383166104665760405162461bcd60e51b815260040180806020018281038252602b815260200180614fb1602b913960400191505060405180910390fd5b5060009081526097602090815260408083206001600160a01b03949094168352929052205490565b6001600160e01b0319811660009081526065602052604090205460ff165b919050565b610262805460408051602060026001851615610100026000190190941693909304601f810184900484028201840190925281815292918301828280156105385780601f1061050d57610100808354040283529160200191610538565b820191906000526020600020905b81548152906001019060200180831161051b57829003601f168201915b505050505081565b606061054b8261184c565b92915050565b610559611a89565b6001600160a01b031661056a61108a565b6001600160a01b0316146105c5576040805162461bcd60e51b815260206004820181905260248201527f4f776e61626c653a2063616c6c6572206973206e6f7420746865206f776e6572604482015290519081900360640190fd5b6105d0838383611a8d565b505050565b6105dd611a89565b6001600160a01b03166105ee61108a565b6001600160a01b031614610649576040805162461bcd60e51b815260206004820181905260248201527f4f776e61626c653a2063616c6c6572206973206e6f7420746865206f776e6572604482015290519081900360640190fd5b6106538282611c81565b5050565b61065f611a89565b6001600160a01b031661067061108a565b6001600160a01b0316146106cb576040805162461bcd60e51b815260206004820181905260248201527f4f776e61626c653a2063616c6c6572206973206e6f7420746865206f776e6572604482015290519081900360640190fd5b835160601c60006106da611a89565b9050806001600160a01b0316826001600160a01b031614806107015750610701828261148a565b6107265760405162461bcd60e51b815260040161071d90614ca3565b60405180910390fd5b600083116107465760405162461bcd60e51b815260040161071d90614c6c565b855161075190611ce1565b6108b457856060015160008151811061076657fe5b6020026020010151600001516001600160a01b0316826001600160a01b0316146107a25760405162461bcd60e51b815260040161071d90614ba1565b60008660400151116107c65760405162461bcd60e51b815260040161071d90614b35565b8560a0015151866060015151146107dc57600080fd5b60006107e787611cf4565b905060005b87606001515181101561085d5760008860600151828151811061080b57fe5b6020026020010151600001519050836001600160a01b0316816001600160a01b0316146108545761085481848b60a00151858151811061084757fe5b6020026020010151611f49565b506001016107ec565b5061087087600001518860400151611f54565b61088287600001518860800151611fbe565b6108948760000151886060015161214e565b6108a68760000151886020015161230b565b86516108b290876123cf565b505b6108d3848760000151856040518060200160405280600081525061241b565b505050505050565b815183511461091b5760405162461bcd60e51b81526004018080602001828103825260288152602001806151b76028913960400191505060405180910390fd5b6001600160a01b0384166109605760405162461bcd60e51b81526004018080602001828103825260258152602001806150716025913960400191505060405180910390fd5b610968611a89565b6001600160a01b0316856001600160a01b0316148061098e575061098e856103ce611a89565b6109c95760405162461bcd60e51b81526004018080602001828103825260328152602001806150966032913960400191505060405180910390fd5b60006109d3611a89565b90506109e38187878787876108d3565b60005b8451811015610ae95760008582815181106109fd57fe5b602002602001015190506000858381518110610a1557fe5b60200260200101519050610a82816040518060600160405280602a815260200161513b602a91396097600086815260200190815260200160002060008d6001600160a01b03166001600160a01b03168152602001908152602001600020546124279092919063ffffffff16565b60008381526097602090815260408083206001600160a01b038e811685529252808320939093558a1681522054610ab990826124be565b60009283526097602090815260408085206001600160a01b038c16865290915290922091909155506001016109e6565b50846001600160a01b0316866001600160a01b0316826001600160a01b03167f4a39dc06d4c0dbc64b70af90fd698a233a518aa5d07e595d983b8c0526c8f7fb8787604051808060200180602001838103835285818151815260200191508051906020019060200280838360005b83811015610b6f578181015183820152602001610b57565b50505050905001838103825284818151815260200191508051906020019060200280838360005b83811015610bae578181015183820152602001610b96565b5050505090500194505050505060405180910390a46108d3818787878787612518565b60608151835114610c135760405162461bcd60e51b815260040180806020018281038252602981526020018061518e6029913960400191505060405180910390fd5b6000835167ffffffffffffffff81118015610c2d57600080fd5b50604051908082528060200260200182016040528015610c57578160200160208202803683370190505b50905060005b8451811015610cb557610c96858281518110610c7557fe5b6020026020010151858381518110610c8957fe5b602002602001015161041f565b828281518110610ca257fe5b6020908102919091010152600101610c5d565b509392505050565b610cc5611a89565b6001600160a01b0316610cd661108a565b6001600160a01b031614610d31576040805162461bcd60e51b815260206004820181905260248201527f4f776e61626c653a2063616c6c6572206973206e6f7420746865206f776e6572604482015290519081900360640190fd5b8051825114610d525760405162461bcd60e51b815260040161071d90614d6e565b60005b8251811015610dd6576000838281518110610d6c57fe5b6020026020010151905060006001600160a01b0316816001600160a01b03161415610da95760405162461bcd60e51b815260040161071d90614c0f565b6000838381518110610db757fe5b60200260200101519050610dcc868383610551565b5050600101610d55565b50505050565b610de4611a89565b6001600160a01b0316836001600160a01b03161480610e0a5750610e0a836103ce611a89565b610e455760405162461bcd60e51b81526004018080602001828103825260298152602001806150266029913960400191505060405180910390fd5b6105d08383836127b0565b61012f8054604080516020601f6002600019610100600188161502019095169490940493840181900481028201810190925282815260609390929091830182828015610edd5780601f10610eb257610100808354040283529160200191610edd565b820191906000526020600020905b815481529060010190602001808311610ec057829003601f168201915b505050505090505b90565b610ef0611a89565b6001600160a01b0316610f0161108a565b6001600160a01b031614610f5c576040805162461bcd60e51b815260206004820181905260248201527f4f776e61626c653a2063616c6c6572206973206e6f7420746865206f776e6572604482015290519081900360640190fd5b6033546040516000916001600160a01b0316907f8be0079c531659141344cd1fd0a4f28419497f9722a3daafe3b4186f6b6457e0908390a3603380546001600160a01b0319169055565b60606101fb6000838152602001908152602001600020805480602002602001604051908101604052809291908181526020016000905b8282101561103057600084815260209081902060408051808201909152908401546001600160a01b0381168252600160a01b90046bffffffffffffffffffffffff1681830152825260019092019101610fdc565b505050509050919050565b6101fa602052816000526040600020818154811061105857600080fd5b6000918252602090912001546001600160a01b0381169250600160a01b90046bffffffffffffffffffffffff16905082565b6033546001600160a01b031690565b610263805460408051602060026001851615610100026000190190941693909304601f810184900484028201840190925281815292918301828280156105385780601f1061050d57610100808354040283529160200191610538565b6101fb602052816000526040600020818154811061105857600080fd5b816001600160a01b0316611124611a89565b6001600160a01b0316141561116a5760405162461bcd60e51b81526004018080602001828103825260298152602001806151656029913960400191505060405180910390fd5b8060986000611177611a89565b6001600160a01b03908116825260208083019390935260409182016000908120918716808252919093529120805460ff1916921515929092179091556111bb611a89565b6001600160a01b03167f17307eab39ab6107e8899845ad3d59bd9653f200f220920489ca2b5937696c318360405180821515815260200191505060405180910390a35050565b60008181526101fa6020908152604080832080548251818502810185019093528083526060949293919290918401821561103057600084815260209081902060408051808201909152908401546001600160a01b0381168252600160a01b90046bffffffffffffffffffffffff1681830152825260019092019101610fdc565b606061054b82612a1e565b816001600160a01b031661129e611a89565b6001600160a01b0316146112c45760405162461bcd60e51b815260040161071d90614bd8565b6105d0838383612ac0565b600054610100900460ff16806112e857506112e8612b6c565b806112f6575060005460ff16155b6113315760405162461bcd60e51b815260040180806020018281038252602e8152602001806150c8602e913960400191505060405180910390fd5b600054610100900460ff1615801561135c576000805460ff1961ff0019909116610100171660011790555b611364612b7d565b61136c612c77565b611374612d41565b61137c612df7565b611384612e97565b61139c60405180602001604052806000815250612f98565b6113a583613095565b6113ad612df7565b6113b5613160565b6113bf8686613216565b6113c8846132e3565b6113d3826001611c81565b7f630c3520bebe920390fcfcb48ef2e0bde326ef10f85761c5f708d1ccebf6ba736113fc611a89565b878760405161140d93929190614a65565b60405180910390a180156108d3576000805461ff0019169055505050505050565b610230805460408051602060026001851615610100026000190190941693909304601f810184900484028201840190925281815292918301828280156105385780601f1061050d57610100808354040283529160200191610538565b600061149683836132f7565b9392505050565b6001600160a01b0384166114e25760405162461bcd60e51b81526004018080602001828103825260258152602001806150716025913960400191505060405180910390fd5b6114ea611a89565b6001600160a01b0316856001600160a01b031614806115105750611510856103ce611a89565b61154b5760405162461bcd60e51b81526004018080602001828103825260298152602001806150266029913960400191505060405180910390fd5b6000611555611a89565b905061157581878761156688613323565b61156f88613323565b876108d3565b6115bc836040518060600160405280602a815260200161513b602a913960008781526097602090815260408083206001600160a01b038d1684529091529020549190612427565b60008581526097602090815260408083206001600160a01b038b811685529252808320939093558716815220546115f390846124be565b60008581526097602090815260408083206001600160a01b03808b168086529184529382902094909455805188815291820187905280518a8416938616927fc3d58168c5ae7397731d063d5bbf3d657854427343f4c083240f7aacaa2d0f6292908290030190a46108d3818787878787613368565b611670611a89565b6001600160a01b031661168161108a565b6001600160a01b0316146116dc576040805162461bcd60e51b815260206004820181905260248201527f4f776e61626c653a2063616c6c6572206973206e6f7420746865206f776e6572604482015290519081900360640190fd5b6001600160a01b0381166117215760405162461bcd60e51b8152600401808060200182810382526026815260200180614fdc6026913960400191505060405180910390fd5b6033546040516001600160a01b038084169216907f8be0079c531659141344cd1fd0a4f28419497f9722a3daafe3b4186f6b6457e090600090a3603380546001600160a01b0319166001600160a01b0392909216919091179055565b611785611a89565b6001600160a01b0316836001600160a01b031614806117ab57506117ab836103ce611a89565b6117e65760405162461bcd60e51b81526004018080602001828103825260298152602001806150266029913960400191505060405180910390fd5b6105d08383836134f2565b600061180184866000015161041f565b905081811561183b5782808310156118165750815b61183686868960000151846040518060200160405280600081525061149d565b830390505b80156108d3576108d3868583610551565b600081815261012e6020908152604080832080548251601f60026000196101006001861615020190931692909204918201859004850281018501909352808352606094938301828280156118e15780601f106118b6576101008083540402835291602001916118e1565b820191906000526020600020905b8154815290600101906020018083116118c457829003601f168201915b5050505050905060006118f2610e50565b9050805160001415611906575090506104ac565b8151156119c75780826040516020018083805190602001908083835b602083106119415780518252601f199092019160209182019101611922565b51815160209384036101000a600019018019909216911617905285519190930192850191508083835b602083106119895780518252601f19909201916020918201910161196a565b6001836020036101000a03801982511681845116808217855250505050505090500192505050604051602081830303815290604052925050506104ac565b806119d185613625565b6040516020018083805190602001908083835b60208310611a035780518252601f1990920191602091820191016119e4565b51815160209384036101000a600019018019909216911617905285519190930192850191508083835b60208310611a4b5780518252601f199092019160209182019101611a2c565b6001836020036101000a0380198251168184511680821785525050505050509050019250505060405160208183030381529060405292505050919050565b3390565b825160601c6000611a9c611a89565b9050806001600160a01b0316826001600160a01b03161480611ac35750611ac3828261148a565b611adf5760405162461bcd60e51b815260040161071d90614ca3565b60008311611aff5760405162461bcd60e51b815260040161071d90614c6c565b845160009081526101fc6020526040902054611c5b578460600151600081518110611b2657fe5b6020026020010151600001516001600160a01b0316826001600160a01b031614611b625760405162461bcd60e51b815260040161071d90614ba1565b6000856040015111611b865760405162461bcd60e51b815260040161071d90614b35565b8460a001515185606001515114611b9c57600080fd5b6000611ba786611cf4565b905060005b866060015151811015611c1057600087606001518281518110611bcb57fe5b6020026020010151600001519050836001600160a01b0316816001600160a01b031614611c0757611c0781848a60a00151858151811061084757fe5b50600101611bac565b50611c2386600001518760400151611f54565b611c3586600001518760800151611fbe565b611c478660000151876060015161214e565b611c598660000151876020015161230b565b505b611c7a848660000151856040518060200160405280600081525061241b565b5050505050565b6001600160a01b038216600081815260c96020908152604091829020805460ff1916851515908117909155825190815291517f270dbb8ba4292910ae92862466486be25c355c837270a3d8824b36a8bc7c653b9281900390910190a25050565b60009081526101fc602052604090205490565b60008082608001515167ffffffffffffffff81118015611d1357600080fd5b50604051908082528060200260200182016040528015611d3d578160200160208202803683370190505b50905060005b836080015151811015611d8f57611d7084608001518281518110611d6357fe5b6020026020010151613734565b828281518110611d7c57fe5b6020908102919091010152600101611d43565b50600083606001515167ffffffffffffffff81118015611dae57600080fd5b50604051908082528060200260200182016040528015611dd8578160200160208202803683370190505b50905060005b846060015151811015611e1d57611dfe85606001518281518110611d6357fe5b828281518110611e0a57fe5b6020908102919091010152600101611dde565b507ffb988707ebb338694f318760b0fd5cfe756d00a2ade251fda110b80c336a3c7f846000015185604001518660200151805190602001208460405160200180828051906020019060200280838360005b83811015611e86578181015183820152602001611e6e565b50505050905001915050604051602081830303815290604052805190602001208660405160200180828051906020019060200280838360005b83811015611ed7578181015183820152602001611ebf565b50505050905001915050604051602081830303815290604052805190602001206040516020018087815260200186815260200185815260200184815260200183815260200182815260200196505050505050506040516020818303038152906040528051906020012092505050919050565b6105d08383836137a6565b60008281526101fc602052604090205415611f6e57600080fd5b60008281526101fc6020526040908190208290555182907f5e2aa66efd74cce82b21852e317e5490d9ecc9e6bb953ae24d90851258cc2f5c90611fb2908490614e28565b60405180910390a25050565b60005b81518110156121435760006001600160a01b0316828281518110611fe157fe5b6020026020010151600001516001600160a01b03161415612049576040805162461bcd60e51b815260206004820152601b60248201527f526563697069656e742073686f756c642062652070726573656e740000000000604482015290519081900360640190fd5b81818151811061205557fe5b6020026020010151602001516bffffffffffffffffffffffff16600014156120c4576040805162461bcd60e51b815260206004820181905260248201527f526f79616c74792076616c75652073686f756c6420626520706f736974697665604482015290519081900360640190fd5b60008381526101fa6020526040902082518390839081106120e157fe5b60209081029190910181015182546001818101855560009485529383902082519101805492909301516bffffffffffffffffffffffff16600160a01b026001600160a01b039182166001600160a01b0319909316929092171617905501611fc1565b5061065382826139f7565b60008281526101fb6020526040812090805b83518110156122ab5760006001600160a01b031684828151811061218057fe5b6020026020010151600001516001600160a01b031614156121b35760405162461bcd60e51b815260040161071d90614d37565b8381815181106121bf57fe5b6020026020010151602001516bffffffffffffffffffffffff16600014156121f95760405162461bcd60e51b815260040161071d90614b6c565b8284828151811061220657fe5b602090810291909101810151825460018101845560009384529282902081519301805491909201516bffffffffffffffffffffffff16600160a01b026001600160a01b039384166001600160a01b03199092169190911790921691909117905583516122a19085908390811061227857fe5b6020026020010151602001516bffffffffffffffffffffffff16836124be90919063ffffffff16565b9150600101612160565b5080612710146122cd5760405162461bcd60e51b815260040161071d90614dcb565b837f841ffb90d4cabdd1f16034f3fa831d79060febbb8167bdd54a49269365bdf78f846040516122fd9190614ac0565b60405180910390a250505050565b600082815261012e60209081526040909120825161232b92840190614046565b50817f6bb7ff708619ba0610cba295a58592e0451dee2622938c8755667688daf3529b6123578461184c565b6040805160208082528351818301528351919283929083019185019080838360005b83811015612391578181015183820152602001612379565b50505050905090810190601f1680156123be5780820380516001836020036101000a031916815260200191505b509250505060405180910390a25050565b60008281526102966020908152604090912082516123ef92840190614046565b50817fa595484f343d9669f13f28cff734012d5ea0924a2ec5440aa2c2833751c9a28861235784612a1e565b610dd684848484613a34565b600081848411156124b65760405162461bcd60e51b81526004018080602001828103825283818151815260200191508051906020019080838360005b8381101561247b578181015183820152602001612463565b50505050905090810190601f1680156124a85780820380516001836020036101000a031916815260200191505b509250505060405180910390fd5b505050900390565b600082820183811015611496576040805162461bcd60e51b815260206004820152601b60248201527f536166654d6174683a206164646974696f6e206f766572666c6f770000000000604482015290519081900360640190fd5b61252a846001600160a01b0316613a9f565b156108d357836001600160a01b031663bc197c8187878686866040518663ffffffff1660e01b815260040180866001600160a01b03168152602001856001600160a01b03168152602001806020018060200180602001848103845287818151815260200191508051906020019060200280838360005b838110156125b85781810151838201526020016125a0565b50505050905001848103835286818151815260200191508051906020019060200280838360005b838110156125f75781810151838201526020016125df565b50505050905001848103825285818151815260200191508051906020019080838360005b8381101561263357818101518382015260200161261b565b50505050905090810190601f1680156126605780820380516001836020036101000a031916815260200191505b5098505050505050505050602060405180830381600087803b15801561268557600080fd5b505af19250505080156126aa57506040513d60208110156126a557600080fd5b505160015b61273f576126b6614e9a565b806126c15750612708565b60405162461bcd60e51b815260206004820181815283516024840152835184939192839260440191908501908083836000831561247b578181015183820152602001612463565b60405162461bcd60e51b8152600401808060200182810382526034815260200180614f556034913960400191505060405180910390fd5b6001600160e01b031981167fbc197c8100000000000000000000000000000000000000000000000000000000146127a75760405162461bcd60e51b8152600401808060200182810382526028815260200180614f896028913960400191505060405180910390fd5b50505050505050565b6001600160a01b0383166127f55760405162461bcd60e51b81526004018080602001828103825260238152602001806151186023913960400191505060405180910390fd5b80518251146128355760405162461bcd60e51b81526004018080602001828103825260288152602001806151b76028913960400191505060405180910390fd5b600061283f611a89565b905061285f818560008686604051806020016040528060008152506108d3565b60005b835181101561293d576128f483828151811061287a57fe5b602002602001015160405180606001604052806024815260200161500260249139609760008886815181106128ab57fe5b602002602001015181526020019081526020016000206000896001600160a01b03166001600160a01b03168152602001908152602001600020546124279092919063ffffffff16565b6097600086848151811061290457fe5b602090810291909101810151825281810192909252604090810160009081206001600160a01b038a168252909252902055600101612862565b5060006001600160a01b0316846001600160a01b0316826001600160a01b03167f4a39dc06d4c0dbc64b70af90fd698a233a518aa5d07e595d983b8c0526c8f7fb8686604051808060200180602001838103835285818151815260200191508051906020019060200280838360005b838110156129c45781810151838201526020016129ac565b50505050905001838103825284818151815260200191508051906020019060200280838360005b83811015612a035781810151838201526020016129eb565b5050505090500194505050505060405180910390a450505050565b60008181526102966020908152604080832080548251601f6002600019610100600186161502019093169290920491820185900485028101850190935280835260609493830182828015612ab35780601f10612a8857610100808354040283529160200191612ab3565b820191906000526020600020905b815481529060010190602001808311612a9657829003601f168201915b5093979650505050505050565b60008381526101fa6020526040812054905b81811015611c7a5760008581526101fa6020526040902080546001600160a01b038616919083908110612b0157fe5b6000918252602090912001546001600160a01b03161415612b645760008581526101fa60205260409020805484919083908110612b3a57fe5b600091825260209091200180546001600160a01b0319166001600160a01b03929092169190911790555b600101612ad2565b6000612b7730613a9f565b15905090565b600054610100900460ff1680612b965750612b96612b6c565b80612ba4575060005460ff16155b612bdf5760405162461bcd60e51b815260040180806020018281038252602e8152602001806150c8602e913960400191505060405180910390fd5b600054610100900460ff16158015612c0a576000805460ff1961ff0019909116610100171660011790555b6000612c14611a89565b603380546001600160a01b0319166001600160a01b038316908117909155604051919250906000907f8be0079c531659141344cd1fd0a4f28419497f9722a3daafe3b4186f6b6457e0908290a3508015612c74576000805461ff00191690555b50565b600054610100900460ff1680612c905750612c90612b6c565b80612c9e575060005460ff16155b612cd95760405162461bcd60e51b815260040180806020018281038252602e8152602001806150c8602e913960400191505060405180910390fd5b600054610100900460ff16158015612d04576000805460ff1961ff0019909116610100171660011790555b612d2d7f6db15a0f00000000000000000000000000000000000000000000000000000000613aa5565b8015612c74576000805461ff001916905550565b600054610100900460ff1680612d5a5750612d5a612b6c565b80612d68575060005460ff16155b612da35760405162461bcd60e51b815260040180806020018281038252602e8152602001806150c8602e913960400191505060405180910390fd5b600054610100900460ff16158015612dce576000805460ff1961ff0019909116610100171660011790555b612d2d7f01ffc9a700000000000000000000000000000000000000000000000000000000613aa5565b600054610100900460ff1680612e105750612e10612b6c565b80612e1e575060005460ff16155b612e595760405162461bcd60e51b815260040180806020018281038252602e8152602001806150c8602e913960400191505060405180910390fd5b600054610100900460ff16158015612d2d576000805460ff1961ff0019909116610100171660011790558015612c74576000805461ff001916905550565b600054610100900460ff1680612eb05750612eb0612b6c565b80612ebe575060005460ff16155b612ef95760405162461bcd60e51b815260040180806020018281038252602e8152602001806150c8602e913960400191505060405180910390fd5b600054610100900460ff16158015612f24576000805460ff1961ff0019909116610100171660011790555b612d2d6040518060400160405280600881526020017f4d696e74313135350000000000000000000000000000000000000000000000008152506040518060400160405280600181526020017f3100000000000000000000000000000000000000000000000000000000000000815250613b29565b600054610100900460ff1680612fb15750612fb1612b6c565b80612fbf575060005460ff16155b612ffa5760405162461bcd60e51b815260040180806020018281038252602e8152602001806150c8602e913960400191505060405180910390fd5b600054610100900460ff16158015613025576000805460ff1961ff0019909116610100171660011790555b61302e82613beb565b6130577fd9b67a2600000000000000000000000000000000000000000000000000000000613aa5565b6130807f0e89341c00000000000000000000000000000000000000000000000000000000613aa5565b8015610653576000805461ff00191690555050565b600054610100900460ff16806130ae57506130ae612b6c565b806130bc575060005460ff16155b6130f75760405162461bcd60e51b815260040180806020018281038252602e8152602001806150c8602e913960400191505060405180910390fd5b600054610100900460ff16158015613122576000805460ff1961ff0019909116610100171660011790555b815161313690610230906020850190614046565b506130807fe8a3d48500000000000000000000000000000000000000000000000000000000613aa5565b600054610100900460ff16806131795750613179612b6c565b80613187575060005460ff16155b6131c25760405162461bcd60e51b815260040180806020018281038252602e8152602001806150c8602e913960400191505060405180910390fd5b600054610100900460ff161580156131ed576000805460ff1961ff0019909116610100171660011790555b612d2d7f44c74bcc00000000000000000000000000000000000000000000000000000000613aa5565b600054610100900460ff168061322f575061322f612b6c565b8061323d575060005460ff16155b6132785760405162461bcd60e51b815260040180806020018281038252602e8152602001806150c8602e913960400191505060405180910390fd5b600054610100900460ff161580156132a3576000805460ff1961ff0019909116610100171660011790555b82516132b790610262906020860190614046565b5081516132cc90610263906020850190614046565b5080156105d0576000805461ff0019169055505050565b80516106539061012f906020840190614046565b6001600160a01b038116600090815260c9602052604081205460ff168061149657506114968383613bfe565b6040805160018082528183019092526060916000919060208083019080368337019050509050828160008151811061335757fe5b602090810291909101015292915050565b61337a846001600160a01b0316613a9f565b156108d357836001600160a01b031663f23a6e6187878686866040518663ffffffff1660e01b815260040180866001600160a01b03168152602001856001600160a01b0316815260200184815260200183815260200180602001828103825283818151815260200191508051906020019080838360005b838110156134095781810151838201526020016133f1565b50505050905090810190601f1680156134365780820380516001836020036101000a031916815260200191505b509650505050505050602060405180830381600087803b15801561345957600080fd5b505af192505050801561347e57506040513d602081101561347957600080fd5b505160015b61348a576126b6614e9a565b6001600160e01b031981167ff23a6e6100000000000000000000000000000000000000000000000000000000146127a75760405162461bcd60e51b8152600401808060200182810382526028815260200180614f896028913960400191505060405180910390fd5b6001600160a01b0383166135375760405162461bcd60e51b81526004018080602001828103825260238152602001806151186023913960400191505060405180910390fd5b6000613541611a89565b90506135718185600061355387613323565b61355c87613323565b604051806020016040528060008152506108d3565b6135b8826040518060600160405280602481526020016150026024913960008681526097602090815260408083206001600160a01b038b1684529091529020549190612427565b60008481526097602090815260408083206001600160a01b03808a16808652918452828520959095558151888152928301879052815193949093908616927fc3d58168c5ae7397731d063d5bbf3d657854427343f4c083240f7aacaa2d0f6292908290030190a450505050565b606081613666575060408051808201909152600181527f300000000000000000000000000000000000000000000000000000000000000060208201526104ac565b8160005b811561367e57600101600a8204915061366a565b60008167ffffffffffffffff8111801561369757600080fd5b506040519080825280601f01601f1916602001820160405280156136c2576020820181803683370190505b50859350905060001982015b831561372b57600a840660300160f81b828280600190039350815181106136f157fe5b60200101907effffffffffffffffffffffffffffffffffffffffffffffffffffffffffffff1916908160001a905350600a840493506136ce565b50949350505050565b8051602091820151604080517f397e04204c1e1a60ee8724b71f8244e10ab5f2e9009854d80f602bda21b59ebb818601526001600160a01b03909316838201526bffffffffffffffffffffffff9091166060808401919091528151808403909101815260809092019052805191012090565b60006137b183613c2c565b90506137c5846001600160a01b0316613a9f565b1561395757604080517f1626ba7e00000000000000000000000000000000000000000000000000000000808252600482018481526024830193845285516044840152855191936001600160a01b03891693631626ba7e938793899390929091606490910190602085019080838360005b8381101561384d578181015183820152602001613835565b50505050905090810190601f16801561387a5780820380516001836020036101000a031916815260200191505b50935050505060206040518083038186803b15801561389857600080fd5b505afa1580156138ac573d6000803e3d6000fd5b505050506040513d60208110156138c257600080fd5b505160408051808201909152601c81527f7369676e617475726520766572696669636174696f6e206572726f72000000006020820152916001600160e01b0319909116146139515760405162461bcd60e51b815260206004820181815283516024840152835190928392604490910191908501908083836000831561247b578181015183820152602001612463565b50610dd6565b6001600160a01b03841661396b8284613c93565b6001600160a01b0316146040518060400160405280601c81526020017f7369676e617475726520766572696669636174696f6e206572726f720000000081525090611c7a5760405162461bcd60e51b815260206004820181815283516024840152835190928392604490910191908501908083836000831561247b578181015183820152602001612463565b7f3fa96d7b6bcbfe71ef171666d84db3cf52fa2d1c8afdb1cc8e486177f208b7df8282604051613a28929190614e31565b60405180910390a15050565b60008381526101fd6020526040812054613a4f9084906124be565b60008581526101fc6020526040902054909150811115613a815760405162461bcd60e51b815260040161071d90614d00565b60008481526101fd60205260409020819055611c7a85858585613d13565b3b151590565b6001600160e01b03198082161415613b04576040805162461bcd60e51b815260206004820152601c60248201527f4552433136353a20696e76616c696420696e7465726661636520696400000000604482015290519081900360640190fd5b6001600160e01b0319166000908152606560205260409020805460ff19166001179055565b600054610100900460ff1680613b425750613b42612b6c565b80613b50575060005460ff16155b613b8b5760405162461bcd60e51b815260040180806020018281038252602e8152602001806150c8602e913960400191505060405180910390fd5b600054610100900460ff16158015613bb6576000805460ff1961ff0019909116610100171660011790555b8251602080850191909120835191840191909120610162919091556101635580156105d0576000805461ff0019169055505050565b8051610653906099906020840190614046565b6001600160a01b03918216600090815260986020908152604080832093909416825291909152205460ff1690565b6000613c36613e14565b8260405160200180807f190100000000000000000000000000000000000000000000000000000000000081525060020183815260200182815260200192505050604051602081830303815290604052805190602001209050919050565b60008151604114613ceb576040805162461bcd60e51b815260206004820152601f60248201527f45434453413a20696e76616c6964207369676e6174757265206c656e67746800604482015290519081900360640190fd5b60208201516040830151606084015160001a613d0986828585613e54565b9695505050505050565b6001600160a01b038416613d585760405162461bcd60e51b81526004018080602001828103825260218152602001806151df6021913960400191505060405180910390fd5b6000613d62611a89565b9050613d748160008761156688613323565b60008481526097602090815260408083206001600160a01b0389168452909152902054613da190846124be565b60008581526097602090815260408083206001600160a01b03808b16808652918452828520959095558151898152928301889052815190948616927fc3d58168c5ae7397731d063d5bbf3d657854427343f4c083240f7aacaa2d0f6292908290030190a4611c7a81600087878787613368565b6000613e4f7f8b73c3c69bb8fe3d512ecc4cf759cc79239f7b179b0ffacaa9a75d522b39400f613e42613fd2565b613e4a613fd9565b613fe0565b905090565b60007f7fffffffffffffffffffffffffffffff5d576e7357a4501ddfe92f46681b20a0821115613eb55760405162461bcd60e51b815260040180806020018281038252602281526020018061504f6022913960400191505060405180910390fd5b8360ff16601b1480613eca57508360ff16601c145b613f055760405162461bcd60e51b81526004018080602001828103825260228152602001806150f66022913960400191505060405180910390fd5b600060018686868660405160008152602001604052604051808581526020018460ff1681526020018381526020018281526020019450505050506020604051602081039080840390855afa158015613f61573d6000803e3d6000fd5b5050604051601f1901519150506001600160a01b038116613fc9576040805162461bcd60e51b815260206004820152601860248201527f45434453413a20696e76616c6964207369676e61747572650000000000000000604482015290519081900360640190fd5b95945050505050565b6101625490565b6101635490565b6000838383613fed614042565b3060405160200180868152602001858152602001848152602001838152602001826001600160a01b03168152602001955050505050506040516020818303038152906040528051906020012090509392505050565b4690565b828054600181600116156101000203166002900490600052602060002090601f01602090048101928261407c57600085556140c2565b82601f1061409557805160ff19168380011785556140c2565b828001600101855582156140c2579182015b828111156140c25782518255916020019190600101906140a7565b506140ce9291506140d2565b5090565b5b808211156140ce57600081556001016140d3565b600082601f8301126140f7578081fd5b8135602061410c61410783614e76565b614e52565b8281528181019085830183850287018401881015614128578586fd5b855b8581101561414f57813561413d81614f3f565b8452928401929084019060010161412a565b5090979650505050505050565b600082601f83011261416c578081fd5b8135602061417c61410783614e76565b82815281810190858301855b8581101561414f5761419f898684358b01016142cc565b84529284019290840190600101614188565b600082601f8301126141c1578081fd5b813560206141d161410783614e76565b828152818101908583016040808602880185018910156141ef578687fd5b865b868110156142645781838b031215614207578788fd5b815182810181811067ffffffffffffffff8211171561422257fe5b8352833561422f81614f3f565b8152838701356bffffffffffffffffffffffff8116811461424e57898afd5b81880152855293850193918101916001016141f1565b509198975050505050505050565b600082601f830112614282578081fd5b8135602061429261410783614e76565b82815281810190858301838502870184018810156142ae578586fd5b855b8581101561414f578135845292840192908401906001016142b0565b600082601f8301126142dc578081fd5b813567ffffffffffffffff8111156142f057fe5b614303601f8201601f1916602001614e52565b818152846020838601011115614317578283fd5b816020850160208301379081016020019190915292915050565b600060c08284031215614342578081fd5b61434c60c0614e52565b905081358152602082013567ffffffffffffffff8082111561436d57600080fd5b614379858386016142cc565b602084015260408401356040840152606084013591508082111561439c57600080fd5b6143a8858386016141b1565b606084015260808401359150808211156143c157600080fd5b6143cd858386016141b1565b608084015260a08401359150808211156143e657600080fd5b506143f38482850161415c565b60a08301525092915050565b600060208284031215614410578081fd5b813561149681614f3f565b6000806040838503121561442d578081fd5b823561443881614f3f565b9150602083013561444881614f3f565b809150509250929050565b600080600080600060a0868803121561446a578081fd5b853561447581614f3f565b9450602086013561448581614f3f565b9350604086013567ffffffffffffffff808211156144a1578283fd5b6144ad89838a01614272565b945060608801359150808211156144c2578283fd5b6144ce89838a01614272565b935060808801359150808211156144e3578283fd5b506144f0888289016142cc565b9150509295509295909350565b600080600080600060a08688031215614514578283fd5b853561451f81614f3f565b9450602086013561452f81614f3f565b93506040860135925060608601359150608086013567ffffffffffffffff811115614558578182fd5b6144f0888289016142cc565b600080600060608486031215614578578081fd5b833561458381614f3f565b9250602084013567ffffffffffffffff8082111561459f578283fd5b6145ab87838801614272565b935060408601359150808211156145c0578283fd5b506145cd86828701614272565b9150509250925092565b600080604083850312156145e9578182fd5b82356145f481614f3f565b915060208301358015158114614448578182fd5b6000806040838503121561461a578182fd5b823561462581614f3f565b946020939093013593505050565b600080600060608486031215614647578081fd5b833561465281614f3f565b95602085013595506040909401359392505050565b60008060408385031215614679578182fd5b823567ffffffffffffffff80821115614690578384fd5b61469c868387016140e7565b935060208501359150808211156146b1578283fd5b506146be85828601614272565b9150509250929050565b6000602082840312156146d9578081fd5b81356001600160e01b031981168114611496578182fd5b600080600080600060a08688031215614707578283fd5b853567ffffffffffffffff8082111561471e578485fd5b61472a89838a016142cc565b9650602088013591508082111561473f578485fd5b61474b89838a016142cc565b95506040880135915080821115614760578485fd5b61476c89838a016142cc565b94506060880135915080821115614781578283fd5b5061478e888289016142cc565b925050608086013561479f81614f3f565b809150509295509295909350565b600080600080608085870312156147c2578182fd5b843567ffffffffffffffff8111156147d8578283fd5b6147e487828801614331565b94505060208501356147f581614f3f565b9250604085013561480581614f3f565b9396929550929360600135925050565b600080600060608486031215614829578081fd5b833567ffffffffffffffff81111561483f578182fd5b61484b86828701614331565b935050602084013561485c81614f3f565b929592945050506040919091013590565b600080600060608486031215614881578081fd5b833567ffffffffffffffff80821115614898578283fd5b6148a487838801614331565b945060208601359150808211156148b9578283fd5b6145ab878388016140e7565b600080600080608085870312156148da578182fd5b843567ffffffffffffffff808211156148f1578384fd5b6148fd88838901614331565b95506020870135915080821115614912578384fd5b5061491f878288016142cc565b935050604085013561480581614f3f565b600060208284031215614941578081fd5b5035919050565b60008060006060848603121561495c578081fd5b83359250602084013561496e81614f3f565b9150604084013561497e81614f3f565b809150509250925092565b6000806040838503121561499b578182fd5b50508035926020909101359150565b6000815180845260208085019450808401835b838110156149fb57815180516001600160a01b031688528301516bffffffffffffffffffffffff1683880152604090960195908201906001016149bd565b509495945050505050565b60008151808452815b81811015614a2b57602081850181015186830182015201614a0f565b81811115614a3c5782602083870101525b50601f01601f19169290920160200192915050565b6001600160a01b0391909116815260200190565b60006001600160a01b038516825260606020830152614a876060830185614a06565b8281036040840152613d098185614a06565b6001600160a01b039290921682526bffffffffffffffffffffffff16602082015260400190565b60006020825261149660208301846149aa565b6020808252825182820181905260009190848201906040850190845b81811015614b0b57835183529284019291840191600101614aef565b50909695505050505050565b901515815260200190565b6000602082526114966020830184614a06565b60208082526010908201527f737570706c7920696e636f727265637400000000000000000000000000000000604082015260600190565b6020808252818101527f43726561746f722073686172652073686f756c6420626520706f736974697665604082015260600190565b60208082526011908201527f746f6b656e496420696e636f7272656374000000000000000000000000000000604082015260600190565b6020808252600b908201527f6e6f7420616c6c6f776564000000000000000000000000000000000000000000604082015260600190565b60208082526025908201527f455243313135353a207472616e7366657220746f20746865207a65726f20616460408201527f6472657373000000000000000000000000000000000000000000000000000000606082015260800190565b60208082526010908201527f616d6f756e7420696e636f727265637400000000000000000000000000000000604082015260600190565b60208082526028908201527f455243313135353a207472616e736665722063616c6c6572206973206e6f742060408201527f617070726f766564000000000000000000000000000000000000000000000000606082015260800190565b60208082526010908201527f6d6f7265207468616e20737570706c7900000000000000000000000000000000604082015260600190565b60208082526019908201527f4163636f756e742073686f756c642062652070726573656e7400000000000000604082015260600190565b6020808252602e908201527f455243313135353a2061646472657373657320616e6420616d6f756e7473206c60408201527f656e677468206d69736d61746368000000000000000000000000000000000000606082015260800190565b6020808252602e908201527f746f74616c20616d6f756e74206f662063726561746f7273207368617265207360408201527f686f756c64206265203130303030000000000000000000000000000000000000606082015260800190565b90815260200190565b600083825260406020830152614e4a60408301846149aa565b949350505050565b60405181810167ffffffffffffffff81118282101715614e6e57fe5b604052919050565b600067ffffffffffffffff821115614e8a57fe5b5060209081020190565b60e01c90565b600060443d1015614eaa57610ee5565b600481823e6308c379a0614ebe8251614e94565b14614ec857610ee5565b6040513d600319016004823e80513d67ffffffffffffffff8160248401118184111715614ef85750505050610ee5565b82840192508251915080821115614f125750505050610ee5565b503d83016020828401011115614f2a57505050610ee5565b601f01601f1916810160200160405291505090565b6001600160a01b0381168114612c7457600080fdfe455243313135353a207472616e7366657220746f206e6f6e2045524331313535526563656976657220696d706c656d656e746572455243313135353a204552433131353552656365697665722072656a656374656420746f6b656e73455243313135353a2062616c616e636520717565727920666f7220746865207a65726f20616464726573734f776e61626c653a206e6577206f776e657220697320746865207a65726f2061646472657373455243313135353a206275726e20616d6f756e7420657863656564732062616c616e6365455243313135353a2063616c6c6572206973206e6f74206f776e6572206e6f7220617070726f76656445434453413a20696e76616c6964207369676e6174757265202773272076616c7565455243313135353a207472616e7366657220746f20746865207a65726f2061646472657373455243313135353a207472616e736665722063616c6c6572206973206e6f74206f776e6572206e6f7220617070726f766564496e697469616c697a61626c653a20636f6e747261637420697320616c726561647920696e697469616c697a656445434453413a20696e76616c6964207369676e6174757265202776272076616c7565455243313135353a206275726e2066726f6d20746865207a65726f2061646472657373455243313135353a20696e73756666696369656e742062616c616e636520666f72207472616e73666572455243313135353a2073657474696e6720617070726f76616c2073746174757320666f722073656c66455243313135353a206163636f756e747320616e6420696473206c656e677468206d69736d61746368455243313135353a2069647320616e6420616d6f756e7473206c656e677468206d69736d61746368455243313135353a206d696e7420746f20746865207a65726f2061646472657373a2646970667358221220564b31da75e3a96f58b2e4b7f1b29a3d1415377fe20f00f2a779c0c6aa415d2564736f6c63430007060033",
  "immutableReferences": {},
  "source": "// SPDX-License-Identifier: MIT\n\npragma solidity >=0.6.2 <0.8.0;\npragma abicoder v2;\n\nimport \"protocol-contracts/tokens/contracts/erc-1155/ERC1155Base.sol\";\n\nimport \"hardhat/console.sol\";\nimport \"./lib/ERC1155Image.sol\";\n\ncontract EcoFiERC1155 is ERC1155Base, ERC1155Image {\n    event CreateEcoFiERC1155(address owner, string name, string symbol);\n\n    function __EcoFiERC1155_init(string memory _name, string memory _symbol, string memory baseURI, string memory contractURI, address _address) external initializer {\n        __Ownable_init_unchained();\n        __ERC1155Lazy_init_unchained();\n        __ERC165_init_unchained();\n        __Context_init_unchained();\n        __Mint1155Validator_init_unchained();\n        __ERC1155_init_unchained(\"\");\n        __HasContractURI_init_unchained(contractURI);\n        __ERC1155Burnable_init_unchained();\n        __RoyaltiesV2Upgradeable_init_unchained();\n        __ERC1155Base_init_unchained(_name, _symbol);\n        _setBaseURI(baseURI);\n        _setDefaultApproval(_address, true); // set the contract deployer as approved\n        emit CreateEcoFiERC1155(_msgSender(), _name, _symbol);\n    }\n\n    function mintWithImage(LibERC1155LazyMint.Mint1155Data memory data, string memory image, address to, uint256 _amount) public virtual onlyOwner {\n        address minter = address(data.tokenId >> 96);\n        address sender = _msgSender();\n\n        require(minter == sender || isApprovedForAll(minter, sender), \"ERC1155: transfer caller is not approved\");\n        require(_amount > 0, \"amount incorrect\");\n\n        if (_getSupply(data.tokenId) == 0) {\n            require(minter == data.creators[0].account, \"tokenId incorrect\");\n            require(data.supply > 0, \"supply incorrect\");\n            require(data.creators.length == data.signatures.length);\n\n            bytes32 hash = LibERC1155LazyMint.hash(data);\n            for (uint i = 0; i < data.creators.length; i++) {\n                address creator = data.creators[i].account;\n                if (creator != sender) {\n                    validate(creator, hash, data.signatures[i]);\n                }\n            }\n\n            _saveSupply(data.tokenId, data.supply);\n            _saveRoyalties(data.tokenId, data.royalties);\n            _saveCreators(data.tokenId, data.creators);\n            _setTokenURI(data.tokenId, data.tokenURI);\n            _setTokenImage(data.tokenId, image);\n        }\n\n        _mint(to, data.tokenId, _amount, \"\");\n    }\n\n    function mintAndTransfer(LibERC1155LazyMint.Mint1155Data memory data, address to, uint256 _amount) public override onlyOwner {\n        super.mintAndTransfer(data, to, _amount);\n    }\n\n    function batchMintAndTransfer(LibERC1155LazyMint.Mint1155Data memory data, address[] memory tos, uint256[] memory _amounts) public onlyOwner {\n        require(tos.length == _amounts.length, \"ERC1155: addresses and amounts length mismatch\");      \n        for (uint256 i = 0; i < tos.length; ++i) {\n            address to = tos[i];\n            require(to != address(0), \"ERC1155: transfer to the zero address\");\n            uint256 _amount = _amounts[i];\n            mintAndTransfer(data, to, _amount);\n        }\n    }\n\n    uint256[50] private __gap;\n}\n",
  "sourcePath": "/Users/sreckosmodis/Documents/Projects/Ecofi/ecofi-contracts/contracts/EcoFiERC1155.sol",
  "compiler": {
    "name": "solc",
    "version": "0.7.6+commit.7338295f.Emscripten.clang"
  },
  "schemaVersion": "3.4.1",
  "updatedAt": "2021-09-29T14:21:57.761Z",
  "networkType": "ethereum",
  "devdoc": {
    "kind": "dev",
    "methods": {
      "balanceOf(address,uint256)": {
        "details": "See {IERC1155-balanceOf}. Requirements: - `account` cannot be the zero address."
      },
      "balanceOfBatch(address[],uint256[])": {
        "details": "See {IERC1155-balanceOfBatch}. Requirements: - `accounts` and `ids` must have the same length."
      },
      "baseURI()": {
        "details": "Returns the base URI set via {_setBaseURI}. This will be automatically added as a prefix in {tokenURI} to each token's URI, or to the token ID if no specific URI is set for that token ID."
      },
      "owner()": {
        "details": "Returns the address of the current owner."
      },
      "renounceOwnership()": {
        "details": "Leaves the contract without owner. It will not be possible to call `onlyOwner` functions anymore. Can only be called by the current owner. NOTE: Renouncing ownership will leave the contract without an owner, thereby removing any functionality that is only available to the owner."
      },
      "safeBatchTransferFrom(address,address,uint256[],uint256[],bytes)": {
        "details": "See {IERC1155-safeBatchTransferFrom}."
      },
      "safeTransferFrom(address,address,uint256,uint256,bytes)": {
        "details": "See {IERC1155-safeTransferFrom}."
      },
      "setApprovalForAll(address,bool)": {
        "details": "See {IERC1155-setApprovalForAll}."
      },
      "supportsInterface(bytes4)": {
        "details": "See {IERC165-supportsInterface}. Time complexity O(1), guaranteed to always use less than 30 000 gas."
      },
      "transferOwnership(address)": {
        "details": "Transfers ownership of the contract to a new account (`newOwner`). Can only be called by the current owner."
      }
    },
    "version": 1
  },
  "userdoc": {
    "kind": "user",
    "methods": {},
    "version": 1
  }
}