{
  "contractName": "ERC1155Image",
  "abi": [
    {
      "anonymous": false,
      "inputs": [
        {
          "indexed": false,
          "internalType": "string",
          "name": "value",
          "type": "string"
        },
        {
          "indexed": true,
          "internalType": "uint256",
          "name": "id",
          "type": "uint256"
        }
      ],
      "name": "Image",
      "type": "event"
    },
    {
      "inputs": [
        {
          "internalType": "uint256",
          "name": "id",
          "type": "uint256"
        }
      ],
      "name": "image",
      "outputs": [
        {
          "internalType": "string",
          "name": "",
          "type": "string"
        }
      ],
      "stateMutability": "view",
      "type": "function"
    }
  ],
  "bytecode": "0x608060405234801561001057600080fd5b506101a8806100206000396000f3fe608060405234801561001057600080fd5b506004361061002b5760003560e01c8063c79178c614610030575b600080fd5b61004d6004803603602081101561004657600080fd5b50356100c2565b6040805160208082528351818301528351919283929083019185019080838360005b8381101561008757818101518382015260200161006f565b50505050905090810190601f1680156100b45780820380516001836020036101000a031916815260200191505b509250505060405180910390f35b60606100cd826100d3565b92915050565b60008181526020818152604080832080548251601f60026000196101006001861615020190931692909204918201859004850281018501909352808352606094938301828280156101655780601f1061013a57610100808354040283529160200191610165565b820191906000526020600020905b81548152906001019060200180831161014857829003601f168201915b509397965050505050505056fea2646970667358221220a05dbe3a486255b4263a25a87eebf06d2e7f50cb1486cc1c99c30874514739b664736f6c63430007060033",
  "immutableReferences": {},
  "source": "// SPDX-License-Identifier: MIT\n\npragma solidity >=0.6.2 <0.8.0;\n\nimport \"@openzeppelin/contracts-upgradeable/utils/StringsUpgradeable.sol\";\nimport \"@openzeppelin/contracts-upgradeable/token/ERC1155/ERC1155Upgradeable.sol\";\n\ncontract ERC1155Image {\n    using StringsUpgradeable for uint;\n\n    // Optional mapping for token URIs\n    mapping (uint256 => string) private _tokenImages;\n\n    event Image(string value, uint256 indexed id);\n\n    function image(uint id) external view virtual returns (string memory) {\n        return _tokenImage(id);\n    }\n\n    function _tokenImage(uint256 tokenId) internal view virtual returns (string memory) {\n        string memory tokenImage = _tokenImages[tokenId];\n        return tokenImage;\n    }\n\n    /**\n     * @dev Sets `_tokenImage` as the tokenImage of `tokenId`.\n     *\n     * Requirements:\n     *\n     * - `tokenId` must exist.\n     */\n    function _setTokenImage(uint256 tokenId, string memory _image) internal virtual {\n        _tokenImages[tokenId] = _image;\n        emit Image(_tokenImage(tokenId), tokenId);\n    }\n\n    function _clearTokenImages(uint256 tokenId) internal {\n        if (bytes(_tokenImages[tokenId]).length != 0) {\n            delete _tokenImages[tokenId];\n        }\n    }\n    uint256[50] private __gap;\n}\n",
  "sourcePath": "/Users/sreckosmodis/Documents/Projects/Ecofi/ecofi-contracts/contracts/lib/ERC1155Image.sol",
  "compiler": {
    "name": "solc",
    "version": "0.7.6+commit.7338295f.Emscripten.clang"
  },
  "schemaVersion": "3.4.1",
  "updatedAt": "2021-09-20T06:03:15.621Z",
  "devdoc": {
    "kind": "dev",
    "methods": {},
    "version": 1
  },
  "userdoc": {
    "kind": "user",
    "methods": {},
    "version": 1
  }
}