{
  "contractName": "BatchTransfer",
  "abi": [
    {
      "inputs": [
        {
          "internalType": "address",
          "name": "contractAddress",
          "type": "address"
        },
        {
          "internalType": "address[]",
          "name": "recipients",
          "type": "address[]"
        },
        {
          "internalType": "uint256[]",
          "name": "tokenIds",
          "type": "uint256[]"
        },
        {
          "internalType": "uint256[]",
          "name": "amounts",
          "type": "uint256[]"
        }
      ],
      "name": "batchTransfer",
      "outputs": [],
      "stateMutability": "nonpayable",
      "type": "function"
    }
  ],
  "bytecode": "0x608060405234801561001057600080fd5b50610401806100206000396000f3fe608060405234801561001057600080fd5b506004361061002b5760003560e01c8063f5c81c9e14610030575b600080fd5b6101f86004803603608081101561004657600080fd5b73ffffffffffffffffffffffffffffffffffffffff823516919081019060408101602082013564010000000081111561007e57600080fd5b82018360208201111561009057600080fd5b803590602001918460208302840111640100000000831117156100b257600080fd5b919080806020026020016040519081016040528093929190818152602001838360200280828437600092019190915250929594936020810193503591505064010000000081111561010257600080fd5b82018360208201111561011457600080fd5b8035906020019184602083028401116401000000008311171561013657600080fd5b919080806020026020016040519081016040528093929190818152602001838360200280828437600092019190915250929594936020810193503591505064010000000081111561018657600080fd5b82018360208201111561019857600080fd5b803590602001918460208302840111640100000000831117156101ba57600080fd5b9190808060200260200160405190810160405280939291908181526020018383602002808284376000920191909152509295506101fa945050505050565b005b6000835111610250576040805162461bcd60e51b815260206004820152601a60248201527f526563697069656e747320617265206e6f7420646566696e6564000000000000604482015290519081900360640190fd5b81518351148015610262575080518251145b6102b3576040805162461bcd60e51b815260206004820152601260248201527f496e76616c696420617272617920646174610000000000000000000000000000604482015290519081900360640190fd5b60005b83518110156103c4578473ffffffffffffffffffffffffffffffffffffffff1663f242432a338684815181106102e857fe5b60200260200101518685815181106102fc57fe5b602002602001015186868151811061031057fe5b60200260200101516040518563ffffffff1660e01b8152600401808573ffffffffffffffffffffffffffffffffffffffff1681526020018473ffffffffffffffffffffffffffffffffffffffff1681526020018381526020018281526020018060200182810382526000815260200195505050505050600060405180830381600087803b1580156103a057600080fd5b505af11580156103b4573d6000803e3d6000fd5b5050600190920191506102b69050565b505050505056fea2646970667358221220babfb8b3671caf12de03918e2bda11744ca4b0398000cfed49e1c8a4cfe0eb7364736f6c63430007060033",
  "immutableReferences": {},
  "source": "// SPDX-License-Identifier: MIT\n\npragma solidity >=0.6.2 <0.8.0;\n\nimport \"protocol-contracts/tokens/contracts/erc-1155/ERC1155Base.sol\";\n\ncontract BatchTransfer {\n    /// @notice Tokens on the given ERC-1155 contract are transferred from you to the recipients.\n    ///         Don't forget to execute setApprovalForAll first to authorize this contract.\n    function batchTransfer(address contractAddress, address[] memory recipients, uint256[] memory tokenIds, uint256[] memory amounts) external {\n        require(recipients.length > 0, \"Recipients are not defined\");\n        require(\n            recipients.length == tokenIds.length && tokenIds.length == amounts.length,\n            \"Invalid array data\"\n        );\n\n\n        for (uint256 index; index < recipients.length; index++) {\n            ERC1155Base(contractAddress).safeTransferFrom(msg.sender, recipients[index], tokenIds[index], amounts[index], \"\");\n        }\n    }\n}",
  "sourcePath": "/Users/jozefartek/Documents/work/ecofi-contracts/contracts/BatchTransfer.sol",
  "compiler": {
    "name": "solc",
    "version": "0.7.6+commit.7338295f.Emscripten.clang"
  },
  "schemaVersion": "3.4.1",
  "updatedAt": "2022-01-11T11:05:33.136Z",
  "devdoc": {
    "kind": "dev",
    "methods": {},
    "version": 1
  },
  "userdoc": {
    "kind": "user",
    "methods": {
      "batchTransfer(address,address[],uint256[],uint256[])": {
        "notice": "Tokens on the given ERC-1155 contract are transferred from you to the recipients.         Don't forget to execute setApprovalForAll first to authorize this contract."
      }
    },
    "version": 1
  }
}