{
  "contractName": "EcoFiCommunityERC1155",
  "abi": [
    {
      "anonymous": false,
      "inputs": [
        {
          "indexed": true,
          "internalType": "address",
          "name": "account",
          "type": "address"
        },
        {
          "indexed": true,
          "internalType": "address",
          "name": "operator",
          "type": "address"
        },
        {
          "indexed": false,
          "internalType": "bool",
          "name": "approved",
          "type": "bool"
        }
      ],
      "name": "ApprovalForAll",
      "type": "event"
    },
    {
      "anonymous": false,
      "inputs": [
        {
          "indexed": false,
          "internalType": "address",
          "name": "owner",
          "type": "address"
        },
        {
          "indexed": false,
          "internalType": "string",
          "name": "name",
          "type": "string"
        },
        {
          "indexed": false,
          "internalType": "string",
          "name": "symbol",
          "type": "string"
        }
      ],
      "name": "CreateEcoFiERC1155",
      "type": "event"
    },
    {
      "anonymous": false,
      "inputs": [
        {
          "indexed": true,
          "internalType": "uint256",
          "name": "tokenId",
          "type": "uint256"
        },
        {
          "components": [
            {
              "internalType": "address payable",
              "name": "account",
              "type": "address"
            },
            {
              "internalType": "uint96",
              "name": "value",
              "type": "uint96"
            }
          ],
          "indexed": false,
          "internalType": "struct LibPart.Part[]",
          "name": "creators",
          "type": "tuple[]"
        }
      ],
      "name": "Creators",
      "type": "event"
    },
    {
      "anonymous": false,
      "inputs": [
        {
          "indexed": true,
          "internalType": "address",
          "name": "operator",
          "type": "address"
        },
        {
          "indexed": false,
          "internalType": "bool",
          "name": "hasApproval",
          "type": "bool"
        }
      ],
      "name": "DefaultApproval",
      "type": "event"
    },
    {
      "anonymous": false,
      "inputs": [
        {
          "indexed": false,
          "internalType": "string",
          "name": "value",
          "type": "string"
        },
        {
          "indexed": true,
          "internalType": "uint256",
          "name": "id",
          "type": "uint256"
        }
      ],
      "name": "Image",
      "type": "event"
    },
    {
      "anonymous": false,
      "inputs": [
        {
          "indexed": true,
          "internalType": "address",
          "name": "previousOwner",
          "type": "address"
        },
        {
          "indexed": true,
          "internalType": "address",
          "name": "newOwner",
          "type": "address"
        }
      ],
      "name": "OwnershipTransferred",
      "type": "event"
    },
    {
      "anonymous": false,
      "inputs": [
        {
          "indexed": false,
          "internalType": "uint256",
          "name": "tokenId",
          "type": "uint256"
        },
        {
          "components": [
            {
              "internalType": "address payable",
              "name": "account",
              "type": "address"
            },
            {
              "internalType": "uint96",
              "name": "value",
              "type": "uint96"
            }
          ],
          "indexed": false,
          "internalType": "struct LibPart.Part[]",
          "name": "royalties",
          "type": "tuple[]"
        }
      ],
      "name": "RoyaltiesSet",
      "type": "event"
    },
    {
      "anonymous": false,
      "inputs": [
        {
          "indexed": true,
          "internalType": "uint256",
          "name": "tokenId",
          "type": "uint256"
        },
        {
          "indexed": false,
          "internalType": "uint256",
          "name": "value",
          "type": "uint256"
        }
      ],
      "name": "Supply",
      "type": "event"
    },
    {
      "anonymous": false,
      "inputs": [
        {
          "indexed": true,
          "internalType": "address",
          "name": "operator",
          "type": "address"
        },
        {
          "indexed": true,
          "internalType": "address",
          "name": "from",
          "type": "address"
        },
        {
          "indexed": true,
          "internalType": "address",
          "name": "to",
          "type": "address"
        },
        {
          "indexed": false,
          "internalType": "uint256[]",
          "name": "ids",
          "type": "uint256[]"
        },
        {
          "indexed": false,
          "internalType": "uint256[]",
          "name": "values",
          "type": "uint256[]"
        }
      ],
      "name": "TransferBatch",
      "type": "event"
    },
    {
      "anonymous": false,
      "inputs": [
        {
          "indexed": true,
          "internalType": "address",
          "name": "operator",
          "type": "address"
        },
        {
          "indexed": true,
          "internalType": "address",
          "name": "from",
          "type": "address"
        },
        {
          "indexed": true,
          "internalType": "address",
          "name": "to",
          "type": "address"
        },
        {
          "indexed": false,
          "internalType": "uint256",
          "name": "id",
          "type": "uint256"
        },
        {
          "indexed": false,
          "internalType": "uint256",
          "name": "value",
          "type": "uint256"
        }
      ],
      "name": "TransferSingle",
      "type": "event"
    },
    {
      "anonymous": false,
      "inputs": [
        {
          "indexed": false,
          "internalType": "string",
          "name": "value",
          "type": "string"
        },
        {
          "indexed": true,
          "internalType": "uint256",
          "name": "id",
          "type": "uint256"
        }
      ],
      "name": "URI",
      "type": "event"
    },
    {
      "inputs": [
        {
          "internalType": "address",
          "name": "account",
          "type": "address"
        },
        {
          "internalType": "uint256",
          "name": "id",
          "type": "uint256"
        }
      ],
      "name": "balanceOf",
      "outputs": [
        {
          "internalType": "uint256",
          "name": "",
          "type": "uint256"
        }
      ],
      "stateMutability": "view",
      "type": "function"
    },
    {
      "inputs": [
        {
          "internalType": "address[]",
          "name": "accounts",
          "type": "address[]"
        },
        {
          "internalType": "uint256[]",
          "name": "ids",
          "type": "uint256[]"
        }
      ],
      "name": "balanceOfBatch",
      "outputs": [
        {
          "internalType": "uint256[]",
          "name": "",
          "type": "uint256[]"
        }
      ],
      "stateMutability": "view",
      "type": "function"
    },
    {
      "inputs": [],
      "name": "baseURI",
      "outputs": [
        {
          "internalType": "string",
          "name": "",
          "type": "string"
        }
      ],
      "stateMutability": "view",
      "type": "function"
    },
    {
      "inputs": [
        {
          "internalType": "address",
          "name": "account",
          "type": "address"
        },
        {
          "internalType": "uint256",
          "name": "id",
          "type": "uint256"
        },
        {
          "internalType": "uint256",
          "name": "value",
          "type": "uint256"
        }
      ],
      "name": "burn",
      "outputs": [],
      "stateMutability": "nonpayable",
      "type": "function"
    },
    {
      "inputs": [
        {
          "internalType": "address",
          "name": "account",
          "type": "address"
        },
        {
          "internalType": "uint256[]",
          "name": "ids",
          "type": "uint256[]"
        },
        {
          "internalType": "uint256[]",
          "name": "values",
          "type": "uint256[]"
        }
      ],
      "name": "burnBatch",
      "outputs": [],
      "stateMutability": "nonpayable",
      "type": "function"
    },
    {
      "inputs": [],
      "name": "contractURI",
      "outputs": [
        {
          "internalType": "string",
          "name": "",
          "type": "string"
        }
      ],
      "stateMutability": "view",
      "type": "function"
    },
    {
      "inputs": [
        {
          "internalType": "uint256",
          "name": "",
          "type": "uint256"
        },
        {
          "internalType": "uint256",
          "name": "",
          "type": "uint256"
        }
      ],
      "name": "creators",
      "outputs": [
        {
          "internalType": "address payable",
          "name": "account",
          "type": "address"
        },
        {
          "internalType": "uint96",
          "name": "value",
          "type": "uint96"
        }
      ],
      "stateMutability": "view",
      "type": "function"
    },
    {
      "inputs": [
        {
          "internalType": "uint256",
          "name": "_id",
          "type": "uint256"
        }
      ],
      "name": "getCreators",
      "outputs": [
        {
          "components": [
            {
              "internalType": "address payable",
              "name": "account",
              "type": "address"
            },
            {
              "internalType": "uint96",
              "name": "value",
              "type": "uint96"
            }
          ],
          "internalType": "struct LibPart.Part[]",
          "name": "",
          "type": "tuple[]"
        }
      ],
      "stateMutability": "view",
      "type": "function"
    },
    {
      "inputs": [
        {
          "internalType": "uint256",
          "name": "id",
          "type": "uint256"
        }
      ],
      "name": "getRoyalties",
      "outputs": [
        {
          "components": [
            {
              "internalType": "address payable",
              "name": "account",
              "type": "address"
            },
            {
              "internalType": "uint96",
              "name": "value",
              "type": "uint96"
            }
          ],
          "internalType": "struct LibPart.Part[]",
          "name": "",
          "type": "tuple[]"
        }
      ],
      "stateMutability": "view",
      "type": "function"
    },
    {
      "inputs": [
        {
          "internalType": "uint256",
          "name": "id",
          "type": "uint256"
        }
      ],
      "name": "image",
      "outputs": [
        {
          "internalType": "string",
          "name": "",
          "type": "string"
        }
      ],
      "stateMutability": "view",
      "type": "function"
    },
    {
      "inputs": [
        {
          "internalType": "address",
          "name": "_owner",
          "type": "address"
        },
        {
          "internalType": "address",
          "name": "_operator",
          "type": "address"
        }
      ],
      "name": "isApprovedForAll",
      "outputs": [
        {
          "internalType": "bool",
          "name": "",
          "type": "bool"
        }
      ],
      "stateMutability": "view",
      "type": "function"
    },
    {
      "inputs": [
        {
          "components": [
            {
              "internalType": "uint256",
              "name": "tokenId",
              "type": "uint256"
            },
            {
              "internalType": "string",
              "name": "tokenURI",
              "type": "string"
            },
            {
              "internalType": "uint256",
              "name": "supply",
              "type": "uint256"
            },
            {
              "components": [
                {
                  "internalType": "address payable",
                  "name": "account",
                  "type": "address"
                },
                {
                  "internalType": "uint96",
                  "name": "value",
                  "type": "uint96"
                }
              ],
              "internalType": "struct LibPart.Part[]",
              "name": "creators",
              "type": "tuple[]"
            },
            {
              "components": [
                {
                  "internalType": "address payable",
                  "name": "account",
                  "type": "address"
                },
                {
                  "internalType": "uint96",
                  "name": "value",
                  "type": "uint96"
                }
              ],
              "internalType": "struct LibPart.Part[]",
              "name": "royalties",
              "type": "tuple[]"
            },
            {
              "internalType": "bytes[]",
              "name": "signatures",
              "type": "bytes[]"
            }
          ],
          "internalType": "struct LibERC1155LazyMint.Mint1155Data",
          "name": "data",
          "type": "tuple"
        },
        {
          "internalType": "address",
          "name": "to",
          "type": "address"
        },
        {
          "internalType": "uint256",
          "name": "_amount",
          "type": "uint256"
        }
      ],
      "name": "mintAndTransfer",
      "outputs": [],
      "stateMutability": "nonpayable",
      "type": "function"
    },
    {
      "inputs": [],
      "name": "name",
      "outputs": [
        {
          "internalType": "string",
          "name": "",
          "type": "string"
        }
      ],
      "stateMutability": "view",
      "type": "function"
    },
    {
      "inputs": [],
      "name": "owner",
      "outputs": [
        {
          "internalType": "address",
          "name": "",
          "type": "address"
        }
      ],
      "stateMutability": "view",
      "type": "function"
    },
    {
      "inputs": [],
      "name": "renounceOwnership",
      "outputs": [],
      "stateMutability": "nonpayable",
      "type": "function"
    },
    {
      "inputs": [
        {
          "internalType": "uint256",
          "name": "",
          "type": "uint256"
        },
        {
          "internalType": "uint256",
          "name": "",
          "type": "uint256"
        }
      ],
      "name": "royalties",
      "outputs": [
        {
          "internalType": "address payable",
          "name": "account",
          "type": "address"
        },
        {
          "internalType": "uint96",
          "name": "value",
          "type": "uint96"
        }
      ],
      "stateMutability": "view",
      "type": "function"
    },
    {
      "inputs": [
        {
          "internalType": "address",
          "name": "from",
          "type": "address"
        },
        {
          "internalType": "address",
          "name": "to",
          "type": "address"
        },
        {
          "internalType": "uint256[]",
          "name": "ids",
          "type": "uint256[]"
        },
        {
          "internalType": "uint256[]",
          "name": "amounts",
          "type": "uint256[]"
        },
        {
          "internalType": "bytes",
          "name": "data",
          "type": "bytes"
        }
      ],
      "name": "safeBatchTransferFrom",
      "outputs": [],
      "stateMutability": "nonpayable",
      "type": "function"
    },
    {
      "inputs": [
        {
          "internalType": "address",
          "name": "from",
          "type": "address"
        },
        {
          "internalType": "address",
          "name": "to",
          "type": "address"
        },
        {
          "internalType": "uint256",
          "name": "id",
          "type": "uint256"
        },
        {
          "internalType": "uint256",
          "name": "amount",
          "type": "uint256"
        },
        {
          "internalType": "bytes",
          "name": "data",
          "type": "bytes"
        }
      ],
      "name": "safeTransferFrom",
      "outputs": [],
      "stateMutability": "nonpayable",
      "type": "function"
    },
    {
      "inputs": [
        {
          "internalType": "address",
          "name": "operator",
          "type": "address"
        },
        {
          "internalType": "bool",
          "name": "approved",
          "type": "bool"
        }
      ],
      "name": "setApprovalForAll",
      "outputs": [],
      "stateMutability": "nonpayable",
      "type": "function"
    },
    {
      "inputs": [
        {
          "internalType": "address",
          "name": "operator",
          "type": "address"
        },
        {
          "internalType": "bool",
          "name": "hasApproval",
          "type": "bool"
        }
      ],
      "name": "setDefaultApproval",
      "outputs": [],
      "stateMutability": "nonpayable",
      "type": "function"
    },
    {
      "inputs": [
        {
          "internalType": "bytes4",
          "name": "interfaceId",
          "type": "bytes4"
        }
      ],
      "name": "supportsInterface",
      "outputs": [
        {
          "internalType": "bool",
          "name": "",
          "type": "bool"
        }
      ],
      "stateMutability": "view",
      "type": "function"
    },
    {
      "inputs": [],
      "name": "symbol",
      "outputs": [
        {
          "internalType": "string",
          "name": "",
          "type": "string"
        }
      ],
      "stateMutability": "view",
      "type": "function"
    },
    {
      "inputs": [
        {
          "components": [
            {
              "internalType": "uint256",
              "name": "tokenId",
              "type": "uint256"
            },
            {
              "internalType": "string",
              "name": "tokenURI",
              "type": "string"
            },
            {
              "internalType": "uint256",
              "name": "supply",
              "type": "uint256"
            },
            {
              "components": [
                {
                  "internalType": "address payable",
                  "name": "account",
                  "type": "address"
                },
                {
                  "internalType": "uint96",
                  "name": "value",
                  "type": "uint96"
                }
              ],
              "internalType": "struct LibPart.Part[]",
              "name": "creators",
              "type": "tuple[]"
            },
            {
              "components": [
                {
                  "internalType": "address payable",
                  "name": "account",
                  "type": "address"
                },
                {
                  "internalType": "uint96",
                  "name": "value",
                  "type": "uint96"
                }
              ],
              "internalType": "struct LibPart.Part[]",
              "name": "royalties",
              "type": "tuple[]"
            },
            {
              "internalType": "bytes[]",
              "name": "signatures",
              "type": "bytes[]"
            }
          ],
          "internalType": "struct LibERC1155LazyMint.Mint1155Data",
          "name": "data",
          "type": "tuple"
        },
        {
          "internalType": "address",
          "name": "from",
          "type": "address"
        },
        {
          "internalType": "address",
          "name": "to",
          "type": "address"
        },
        {
          "internalType": "uint256",
          "name": "amount",
          "type": "uint256"
        }
      ],
      "name": "transferFromOrMint",
      "outputs": [],
      "stateMutability": "nonpayable",
      "type": "function"
    },
    {
      "inputs": [
        {
          "internalType": "address",
          "name": "newOwner",
          "type": "address"
        }
      ],
      "name": "transferOwnership",
      "outputs": [],
      "stateMutability": "nonpayable",
      "type": "function"
    },
    {
      "inputs": [
        {
          "internalType": "uint256",
          "name": "_id",
          "type": "uint256"
        },
        {
          "internalType": "address",
          "name": "_from",
          "type": "address"
        },
        {
          "internalType": "address",
          "name": "_to",
          "type": "address"
        }
      ],
      "name": "updateAccount",
      "outputs": [],
      "stateMutability": "nonpayable",
      "type": "function"
    },
    {
      "inputs": [
        {
          "internalType": "uint256",
          "name": "id",
          "type": "uint256"
        }
      ],
      "name": "uri",
      "outputs": [
        {
          "internalType": "string",
          "name": "",
          "type": "string"
        }
      ],
      "stateMutability": "view",
      "type": "function"
    },
    {
      "inputs": [
        {
          "internalType": "string",
          "name": "_name",
          "type": "string"
        },
        {
          "internalType": "string",
          "name": "_symbol",
          "type": "string"
        },
        {
          "internalType": "string",
          "name": "baseURI",
          "type": "string"
        },
        {
          "internalType": "string",
          "name": "contractURI",
          "type": "string"
        },
        {
          "internalType": "address",
          "name": "_address",
          "type": "address"
        }
      ],
      "name": "__EcoFiCommunityERC1155_init",
      "outputs": [],
      "stateMutability": "nonpayable",
      "type": "function"
    },
    {
      "inputs": [
        {
          "internalType": "string",
          "name": "baseURI",
          "type": "string"
        }
      ],
      "name": "setBaseURI",
      "outputs": [],
      "stateMutability": "nonpayable",
      "type": "function"
    },
    {
      "inputs": [
        {
          "internalType": "string",
          "name": "contractURI",
          "type": "string"
        }
      ],
      "name": "setContractURI",
      "outputs": [],
      "stateMutability": "nonpayable",
      "type": "function"
    },
    {
      "inputs": [
        {
          "components": [
            {
              "internalType": "uint256",
              "name": "tokenId",
              "type": "uint256"
            },
            {
              "internalType": "string",
              "name": "tokenURI",
              "type": "string"
            },
            {
              "internalType": "uint256",
              "name": "supply",
              "type": "uint256"
            },
            {
              "components": [
                {
                  "internalType": "address payable",
                  "name": "account",
                  "type": "address"
                },
                {
                  "internalType": "uint96",
                  "name": "value",
                  "type": "uint96"
                }
              ],
              "internalType": "struct LibPart.Part[]",
              "name": "creators",
              "type": "tuple[]"
            },
            {
              "components": [
                {
                  "internalType": "address payable",
                  "name": "account",
                  "type": "address"
                },
                {
                  "internalType": "uint96",
                  "name": "value",
                  "type": "uint96"
                }
              ],
              "internalType": "struct LibPart.Part[]",
              "name": "royalties",
              "type": "tuple[]"
            },
            {
              "internalType": "bytes[]",
              "name": "signatures",
              "type": "bytes[]"
            }
          ],
          "internalType": "struct LibERC1155LazyMint.Mint1155Data",
          "name": "data",
          "type": "tuple"
        },
        {
          "internalType": "string",
          "name": "image",
          "type": "string"
        },
        {
          "internalType": "address",
          "name": "to",
          "type": "address"
        },
        {
          "internalType": "uint256",
          "name": "_amount",
          "type": "uint256"
        }
      ],
      "name": "mintWithImage",
      "outputs": [],
      "stateMutability": "nonpayable",
      "type": "function"
    },
    {
      "inputs": [
        {
          "components": [
            {
              "internalType": "uint256",
              "name": "tokenId",
              "type": "uint256"
            },
            {
              "internalType": "string",
              "name": "tokenURI",
              "type": "string"
            },
            {
              "internalType": "uint256",
              "name": "supply",
              "type": "uint256"
            },
            {
              "components": [
                {
                  "internalType": "address payable",
                  "name": "account",
                  "type": "address"
                },
                {
                  "internalType": "uint96",
                  "name": "value",
                  "type": "uint96"
                }
              ],
              "internalType": "struct LibPart.Part[]",
              "name": "creators",
              "type": "tuple[]"
            },
            {
              "components": [
                {
                  "internalType": "address payable",
                  "name": "account",
                  "type": "address"
                },
                {
                  "internalType": "uint96",
                  "name": "value",
                  "type": "uint96"
                }
              ],
              "internalType": "struct LibPart.Part[]",
              "name": "royalties",
              "type": "tuple[]"
            },
            {
              "internalType": "bytes[]",
              "name": "signatures",
              "type": "bytes[]"
            }
          ],
          "internalType": "struct LibERC1155LazyMint.Mint1155Data",
          "name": "data",
          "type": "tuple"
        },
        {
          "internalType": "address[]",
          "name": "tos",
          "type": "address[]"
        },
        {
          "internalType": "uint256[]",
          "name": "_amounts",
          "type": "uint256[]"
        }
      ],
      "name": "batchMintAndTransfer",
      "outputs": [],
      "stateMutability": "nonpayable",
      "type": "function"
    }
  ],
  "bytecode": "0x608060405234801561001057600080fd5b506152c1806100206000396000f3fe608060405234801561001057600080fd5b50600436106101e45760003560e01c80638924af741161010f578063c79178c6116100a2578063f242432a11610071578063f242432a1461040f578063f2fde38b14610422578063f5298aca14610435578063ffc4e0a714610448576101e4565b8063c79178c6146103ce578063e07f2319146103e1578063e8a3d485146103f4578063e985e9c5146103fc576101e4565b806395d89b41116100de57806395d89b411461038d57806398d0b4fb14610395578063a22cb465146103a8578063bb3bafd6146103bb576101e4565b80638924af74146103315780638da5cb5b146103525780639066d66b14610367578063938e3d7b1461037a576101e4565b80632eb2c2d6116101875780636b20c454116101565780636b20c454146102ee5780636c0360eb14610301578063715018a614610309578063891be97414610311576101e4565b80632eb2c2d6146102955780634e1273f4146102a85780634eb840e1146102c857806355f804b3146102db576101e4565b80630e89341c116101c35780630e89341c146102475780630eaead671461025a57806318054c371461026f5780631e014a4b14610282576101e4565b8062fdd58e146101e957806301ffc9a71461021257806306fdde0314610232575b600080fd5b6101fc6101f7366004614661565b61045b565b6040516102099190614ebc565b60405180910390f35b610225610220366004614721565b6104ca565b6040516102099190614bab565b61023a6104ed565b6040516102099190614bb6565b61023a6102553660046149c4565b61057c565b61026d6102683660046148a9565b61058d565b005b61026d61027d366004614630565b610797565b61026d610290366004614959565b610819565b61026d6102a33660046144ac565b610a13565b6102bb6102b63660046146c0565b610d09565b6040516102099190614b67565b61026d6102d6366004614901565b610df5565b61026d6102e9366004614749565b610f14565b61026d6102fc3660046145bd565b610f94565b61023a61100d565b61026d6110a5565b61032461031f3660046149c4565b611163565b6040516102099190614b54565b61034461033f366004614a1d565b6111f8565b604051610209929190614b2d565b61035a611247565b6040516102099190614ae5565b61026d610375366004614784565b611256565b61026d610388366004614749565b6113b5565b61023a611432565b6103446103a3366004614a1d565b61148e565b61026d6103b6366004614630565b6114ab565b6103246103c93660046149c4565b61159a565b61023a6103dc3660046149c4565b61161a565b61026d6103ef3660046149dc565b611625565b61023a611668565b61022561040a366004614474565b6116c4565b61026d61041d366004614556565b6116d7565b61026d610430366004614458565b6118a2565b61026d61044336600461468c565b6119b7565b61026d610456366004614841565b611a2b565b60006001600160a01b0383166104a25760405162461bcd60e51b815260040180806020018281038252602b81526020018061503d602b913960400191505060405180910390fd5b5060009081526097602090815260408083206001600160a01b03949094168352929052205490565b6001600160e01b0319811660009081526065602052604090205460ff165b919050565b610262805460408051602060026001851615610100026000190190941693909304601f810184900484028201840190925281815292918301828280156105745780601f1061054957610100808354040283529160200191610574565b820191906000526020600020905b81548152906001019060200180831161055757829003601f168201915b505050505081565b606061058782611a86565b92915050565b825160601c600061059c611cc3565b9050806001600160a01b0316826001600160a01b031614806105c357506105c382826116c4565b6105e85760405162461bcd60e51b81526004016105df90614d37565b60405180910390fd5b600083116106085760405162461bcd60e51b81526004016105df90614d00565b845160009081526101fc602052604090205461077157846060015160008151811061062f57fe5b6020026020010151600001516001600160a01b0316826001600160a01b03161461066b5760405162461bcd60e51b81526004016105df90614c35565b600085604001511161068f5760405162461bcd60e51b81526004016105df90614bc9565b8460a0015151856060015151146106a557600080fd5b60006106b086611cc7565b905060005b866060015151811015610726576000876060015182815181106106d457fe5b6020026020010151600001519050836001600160a01b0316816001600160a01b03161461071d5761071d81848a60a00151858151811061071057fe5b6020026020010151611f1c565b506001016106b5565b5061073986600001518760400151611f27565b61074b86600001518760800151611f91565b61075d86600001518760600151612121565b61076f866000015187602001516122de565b505b61079084866000015185604051806020016040528060008152506123a2565b5050505050565b61079f611cc3565b6001600160a01b03166107b0611247565b6001600160a01b03161461080b576040805162461bcd60e51b815260206004820181905260248201527f4f776e61626c653a2063616c6c6572206973206e6f7420746865206f776e6572604482015290519081900360640190fd5b61081582826123ae565b5050565b835160601c6000610828611cc3565b9050806001600160a01b0316826001600160a01b0316148061084f575061084f82826116c4565b61086b5760405162461bcd60e51b81526004016105df90614d37565b6000831161088b5760405162461bcd60e51b81526004016105df90614d00565b85516108969061240e565b6109ec5785606001516000815181106108ab57fe5b6020026020010151600001516001600160a01b0316826001600160a01b0316146108e75760405162461bcd60e51b81526004016105df90614c35565b600086604001511161090b5760405162461bcd60e51b81526004016105df90614bc9565b8560a00151518660600151511461092157600080fd5b600061092c87611cc7565b905060005b8760600151518110156109955760008860600151828151811061095057fe5b6020026020010151600001519050836001600160a01b0316816001600160a01b03161461098c5761098c81848b60a00151858151811061071057fe5b50600101610931565b506109a887600001518860400151611f27565b6109ba87600001518860800151611f91565b6109cc87600001518860600151612121565b6109de876000015188602001516122de565b86516109ea9087612421565b505b610a0b84876000015185604051806020016040528060008152506123a2565b505050505050565b8151835114610a535760405162461bcd60e51b81526004018080602001828103825260288152602001806152436028913960400191505060405180910390fd5b6001600160a01b038416610a985760405162461bcd60e51b81526004018080602001828103825260258152602001806150fd6025913960400191505060405180910390fd5b610aa0611cc3565b6001600160a01b0316856001600160a01b03161480610ac65750610ac68561040a611cc3565b610b015760405162461bcd60e51b81526004018080602001828103825260328152602001806151226032913960400191505060405180910390fd5b6000610b0b611cc3565b9050610b1b818787878787610a0b565b60005b8451811015610c21576000858281518110610b3557fe5b602002602001015190506000858381518110610b4d57fe5b60200260200101519050610bba816040518060600160405280602a81526020016151c7602a91396097600086815260200190815260200160002060008d6001600160a01b03166001600160a01b031681526020019081526020016000205461246d9092919063ffffffff16565b60008381526097602090815260408083206001600160a01b038e811685529252808320939093558a1681522054610bf19082612504565b60009283526097602090815260408085206001600160a01b038c1686529091529092209190915550600101610b1e565b50846001600160a01b0316866001600160a01b0316826001600160a01b03167f4a39dc06d4c0dbc64b70af90fd698a233a518aa5d07e595d983b8c0526c8f7fb8787604051808060200180602001838103835285818151815260200191508051906020019060200280838360005b83811015610ca7578181015183820152602001610c8f565b50505050905001838103825284818151815260200191508051906020019060200280838360005b83811015610ce6578181015183820152602001610cce565b5050505090500194505050505060405180910390a4610a0b81878787878761255e565b60608151835114610d4b5760405162461bcd60e51b815260040180806020018281038252602981526020018061521a6029913960400191505060405180910390fd5b6000835167ffffffffffffffff81118015610d6557600080fd5b50604051908082528060200260200182016040528015610d8f578160200160208202803683370190505b50905060005b8451811015610ded57610dce858281518110610dad57fe5b6020026020010151858381518110610dc157fe5b602002602001015161045b565b828281518110610dda57fe5b6020908102919091010152600101610d95565b509392505050565b610dfd611cc3565b6001600160a01b0316610e0e611247565b6001600160a01b031614610e69576040805162461bcd60e51b815260206004820181905260248201527f4f776e61626c653a2063616c6c6572206973206e6f7420746865206f776e6572604482015290519081900360640190fd5b8051825114610e8a5760405162461bcd60e51b81526004016105df90614e02565b60005b8251811015610f0e576000838281518110610ea457fe5b6020026020010151905060006001600160a01b0316816001600160a01b03161415610ee15760405162461bcd60e51b81526004016105df90614ca3565b6000838381518110610eef57fe5b60200260200101519050610f0486838361058d565b5050600101610e8d565b50505050565b610f1c611cc3565b6001600160a01b0316610f2d611247565b6001600160a01b031614610f88576040805162461bcd60e51b815260206004820181905260248201527f4f776e61626c653a2063616c6c6572206973206e6f7420746865206f776e6572604482015290519081900360640190fd5b610f91816127f6565b50565b610f9c611cc3565b6001600160a01b0316836001600160a01b03161480610fc25750610fc28361040a611cc3565b610ffd5760405162461bcd60e51b81526004018080602001828103825260298152602001806150b26029913960400191505060405180910390fd5b61100883838361280a565b505050565b61012f8054604080516020601f600260001961010060018816150201909516949094049384018190048102820181019092528281526060939092909183018282801561109a5780601f1061106f5761010080835404028352916020019161109a565b820191906000526020600020905b81548152906001019060200180831161107d57829003601f168201915b505050505090505b90565b6110ad611cc3565b6001600160a01b03166110be611247565b6001600160a01b031614611119576040805162461bcd60e51b815260206004820181905260248201527f4f776e61626c653a2063616c6c6572206973206e6f7420746865206f776e6572604482015290519081900360640190fd5b6033546040516000916001600160a01b0316907f8be0079c531659141344cd1fd0a4f28419497f9722a3daafe3b4186f6b6457e0908390a3603380546001600160a01b0319169055565b60606101fb6000838152602001908152602001600020805480602002602001604051908101604052809291908181526020016000905b828210156111ed57600084815260209081902060408051808201909152908401546001600160a01b0381168252600160a01b90046bffffffffffffffffffffffff1681830152825260019092019101611199565b505050509050919050565b6101fa602052816000526040600020818154811061121557600080fd5b6000918252602090912001546001600160a01b0381169250600160a01b90046bffffffffffffffffffffffff16905082565b6033546001600160a01b031690565b600054610100900460ff168061126f575061126f612a78565b8061127d575060005460ff16155b6112b85760405162461bcd60e51b815260040180806020018281038252602e815260200180615154602e913960400191505060405180910390fd5b600054610100900460ff161580156112e3576000805460ff1961ff0019909116610100171660011790555b6112eb612a89565b6112f3612b82565b6112fb612c4c565b611303612d02565b61130b612da2565b61132360405180602001604052806000815250612ea3565b61132c83612fa0565b611334612d02565b61133c61306b565b6113468686613121565b61134f846127f6565b61135a8260016123ae565b7f630c3520bebe920390fcfcb48ef2e0bde326ef10f85761c5f708d1ccebf6ba73611383611cc3565b878760405161139493929190614af9565b60405180910390a18015610a0b576000805461ff0019169055505050505050565b6113bd611cc3565b6001600160a01b03166113ce611247565b6001600160a01b031614611429576040805162461bcd60e51b815260206004820181905260248201527f4f776e61626c653a2063616c6c6572206973206e6f7420746865206f776e6572604482015290519081900360640190fd5b610f91816131ee565b610263805460408051602060026001851615610100026000190190941693909304601f810184900484028201840190925281815292918301828280156105745780601f1061054957610100808354040283529160200191610574565b6101fb602052816000526040600020818154811061121557600080fd5b816001600160a01b03166114bd611cc3565b6001600160a01b031614156115035760405162461bcd60e51b81526004018080602001828103825260298152602001806151f16029913960400191505060405180910390fd5b8060986000611510611cc3565b6001600160a01b03908116825260208083019390935260409182016000908120918716808252919093529120805460ff191692151592909217909155611554611cc3565b6001600160a01b03167f17307eab39ab6107e8899845ad3d59bd9653f200f220920489ca2b5937696c318360405180821515815260200191505060405180910390a35050565b60008181526101fa602090815260408083208054825181850281018501909352808352606094929391929091840182156111ed57600084815260209081902060408051808201909152908401546001600160a01b0381168252600160a01b90046bffffffffffffffffffffffff1681830152825260019092019101611199565b606061058782613202565b816001600160a01b0316611637611cc3565b6001600160a01b03161461165d5760405162461bcd60e51b81526004016105df90614c6c565b6110088383836132a4565b610230805460408051602060026001851615610100026000190190941693909304601f810184900484028201840190925281815292918301828280156105745780601f1061054957610100808354040283529160200191610574565b60006116d08383613350565b9392505050565b6001600160a01b03841661171c5760405162461bcd60e51b81526004018080602001828103825260258152602001806150fd6025913960400191505060405180910390fd5b611724611cc3565b6001600160a01b0316856001600160a01b0316148061174a575061174a8561040a611cc3565b6117855760405162461bcd60e51b81526004018080602001828103825260298152602001806150b26029913960400191505060405180910390fd5b600061178f611cc3565b90506117af8187876117a08861337c565b6117a98861337c565b87610a0b565b6117f6836040518060600160405280602a81526020016151c7602a913960008781526097602090815260408083206001600160a01b038d168452909152902054919061246d565b60008581526097602090815260408083206001600160a01b038b8116855292528083209390935587168152205461182d9084612504565b60008581526097602090815260408083206001600160a01b03808b168086529184529382902094909455805188815291820187905280518a8416938616927fc3d58168c5ae7397731d063d5bbf3d657854427343f4c083240f7aacaa2d0f6292908290030190a4610a0b8187878787876133c1565b6118aa611cc3565b6001600160a01b03166118bb611247565b6001600160a01b031614611916576040805162461bcd60e51b815260206004820181905260248201527f4f776e61626c653a2063616c6c6572206973206e6f7420746865206f776e6572604482015290519081900360640190fd5b6001600160a01b03811661195b5760405162461bcd60e51b81526004018080602001828103825260268152602001806150686026913960400191505060405180910390fd5b6033546040516001600160a01b038084169216907f8be0079c531659141344cd1fd0a4f28419497f9722a3daafe3b4186f6b6457e090600090a3603380546001600160a01b0319166001600160a01b0392909216919091179055565b6119bf611cc3565b6001600160a01b0316836001600160a01b031614806119e557506119e58361040a611cc3565b611a205760405162461bcd60e51b81526004018080602001828103825260298152602001806150b26029913960400191505060405180910390fd5b61100883838361354b565b6000611a3b84866000015161045b565b9050818115611a75578280831015611a505750815b611a708686896000015184604051806020016040528060008152506116d7565b830390505b8015610a0b57610a0b86858361058d565b600081815261012e6020908152604080832080548251601f6002600019610100600186161502019093169290920491820185900485028101850190935280835260609493830182828015611b1b5780601f10611af057610100808354040283529160200191611b1b565b820191906000526020600020905b815481529060010190602001808311611afe57829003601f168201915b505050505090506000611b2c61100d565b9050805160001415611b40575090506104e8565b815115611c015780826040516020018083805190602001908083835b60208310611b7b5780518252601f199092019160209182019101611b5c565b51815160209384036101000a600019018019909216911617905285519190930192850191508083835b60208310611bc35780518252601f199092019160209182019101611ba4565b6001836020036101000a03801982511681845116808217855250505050505090500192505050604051602081830303815290604052925050506104e8565b80611c0b8561367e565b6040516020018083805190602001908083835b60208310611c3d5780518252601f199092019160209182019101611c1e565b51815160209384036101000a600019018019909216911617905285519190930192850191508083835b60208310611c855780518252601f199092019160209182019101611c66565b6001836020036101000a0380198251168184511680821785525050505050509050019250505060405160208183030381529060405292505050919050565b3390565b60008082608001515167ffffffffffffffff81118015611ce657600080fd5b50604051908082528060200260200182016040528015611d10578160200160208202803683370190505b50905060005b836080015151811015611d6257611d4384608001518281518110611d3657fe5b602002602001015161378d565b828281518110611d4f57fe5b6020908102919091010152600101611d16565b50600083606001515167ffffffffffffffff81118015611d8157600080fd5b50604051908082528060200260200182016040528015611dab578160200160208202803683370190505b50905060005b846060015151811015611df057611dd185606001518281518110611d3657fe5b828281518110611ddd57fe5b6020908102919091010152600101611db1565b507ffb988707ebb338694f318760b0fd5cfe756d00a2ade251fda110b80c336a3c7f846000015185604001518660200151805190602001208460405160200180828051906020019060200280838360005b83811015611e59578181015183820152602001611e41565b50505050905001915050604051602081830303815290604052805190602001208660405160200180828051906020019060200280838360005b83811015611eaa578181015183820152602001611e92565b50505050905001915050604051602081830303815290604052805190602001206040516020018087815260200186815260200185815260200184815260200183815260200182815260200196505050505050506040516020818303038152906040528051906020012092505050919050565b6110088383836137ff565b60008281526101fc602052604090205415611f4157600080fd5b60008281526101fc6020526040908190208290555182907f5e2aa66efd74cce82b21852e317e5490d9ecc9e6bb953ae24d90851258cc2f5c90611f85908490614ebc565b60405180910390a25050565b60005b81518110156121165760006001600160a01b0316828281518110611fb457fe5b6020026020010151600001516001600160a01b0316141561201c576040805162461bcd60e51b815260206004820152601b60248201527f526563697069656e742073686f756c642062652070726573656e740000000000604482015290519081900360640190fd5b81818151811061202857fe5b6020026020010151602001516bffffffffffffffffffffffff1660001415612097576040805162461bcd60e51b815260206004820181905260248201527f526f79616c74792076616c75652073686f756c6420626520706f736974697665604482015290519081900360640190fd5b60008381526101fa6020526040902082518390839081106120b457fe5b60209081029190910181015182546001818101855560009485529383902082519101805492909301516bffffffffffffffffffffffff16600160a01b026001600160a01b039182166001600160a01b0319909316929092171617905501611f94565b506108158282613a50565b60008281526101fb6020526040812090805b835181101561227e5760006001600160a01b031684828151811061215357fe5b6020026020010151600001516001600160a01b031614156121865760405162461bcd60e51b81526004016105df90614dcb565b83818151811061219257fe5b6020026020010151602001516bffffffffffffffffffffffff16600014156121cc5760405162461bcd60e51b81526004016105df90614c00565b828482815181106121d957fe5b602090810291909101810151825460018101845560009384529282902081519301805491909201516bffffffffffffffffffffffff16600160a01b026001600160a01b039384166001600160a01b03199092169190911790921691909117905583516122749085908390811061224b57fe5b6020026020010151602001516bffffffffffffffffffffffff168361250490919063ffffffff16565b9150600101612133565b5080612710146122a05760405162461bcd60e51b81526004016105df90614e5f565b837f841ffb90d4cabdd1f16034f3fa831d79060febbb8167bdd54a49269365bdf78f846040516122d09190614b54565b60405180910390a250505050565b600082815261012e6020908152604090912082516122fe9284019061409f565b50817f6bb7ff708619ba0610cba295a58592e0451dee2622938c8755667688daf3529b61232a84611a86565b6040805160208082528351818301528351919283929083019185019080838360005b8381101561236457818101518382015260200161234c565b50505050905090810190601f1680156123915780820380516001836020036101000a031916815260200191505b509250505060405180910390a25050565b610f0e84848484613a8d565b6001600160a01b038216600081815260c96020908152604091829020805460ff1916851515908117909155825190815291517f270dbb8ba4292910ae92862466486be25c355c837270a3d8824b36a8bc7c653b9281900390910190a25050565b60009081526101fc602052604090205490565b60008281526102966020908152604090912082516124419284019061409f565b50817fa595484f343d9669f13f28cff734012d5ea0924a2ec5440aa2c2833751c9a28861232a84613202565b600081848411156124fc5760405162461bcd60e51b81526004018080602001828103825283818151815260200191508051906020019080838360005b838110156124c15781810151838201526020016124a9565b50505050905090810190601f1680156124ee5780820380516001836020036101000a031916815260200191505b509250505060405180910390fd5b505050900390565b6000828201838110156116d0576040805162461bcd60e51b815260206004820152601b60248201527f536166654d6174683a206164646974696f6e206f766572666c6f770000000000604482015290519081900360640190fd5b612570846001600160a01b0316613af8565b15610a0b57836001600160a01b031663bc197c8187878686866040518663ffffffff1660e01b815260040180866001600160a01b03168152602001856001600160a01b03168152602001806020018060200180602001848103845287818151815260200191508051906020019060200280838360005b838110156125fe5781810151838201526020016125e6565b50505050905001848103835286818151815260200191508051906020019060200280838360005b8381101561263d578181015183820152602001612625565b50505050905001848103825285818151815260200191508051906020019080838360005b83811015612679578181015183820152602001612661565b50505050905090810190601f1680156126a65780820380516001836020036101000a031916815260200191505b5098505050505050505050602060405180830381600087803b1580156126cb57600080fd5b505af19250505080156126f057506040513d60208110156126eb57600080fd5b505160015b612785576126fc614f26565b80612707575061274e565b60405162461bcd60e51b81526020600482018181528351602484015283518493919283926044019190850190808383600083156124c15781810151838201526020016124a9565b60405162461bcd60e51b8152600401808060200182810382526034815260200180614fe16034913960400191505060405180910390fd5b6001600160e01b031981167fbc197c8100000000000000000000000000000000000000000000000000000000146127ed5760405162461bcd60e51b81526004018080602001828103825260288152602001806150156028913960400191505060405180910390fd5b50505050505050565b80516108159061012f90602084019061409f565b6001600160a01b03831661284f5760405162461bcd60e51b81526004018080602001828103825260238152602001806151a46023913960400191505060405180910390fd5b805182511461288f5760405162461bcd60e51b81526004018080602001828103825260288152602001806152436028913960400191505060405180910390fd5b6000612899611cc3565b90506128b981856000868660405180602001604052806000815250610a0b565b60005b83518110156129975761294e8382815181106128d457fe5b602002602001015160405180606001604052806024815260200161508e602491396097600088868151811061290557fe5b602002602001015181526020019081526020016000206000896001600160a01b03166001600160a01b031681526020019081526020016000205461246d9092919063ffffffff16565b6097600086848151811061295e57fe5b602090810291909101810151825281810192909252604090810160009081206001600160a01b038a1682529092529020556001016128bc565b5060006001600160a01b0316846001600160a01b0316826001600160a01b03167f4a39dc06d4c0dbc64b70af90fd698a233a518aa5d07e595d983b8c0526c8f7fb8686604051808060200180602001838103835285818151815260200191508051906020019060200280838360005b83811015612a1e578181015183820152602001612a06565b50505050905001838103825284818151815260200191508051906020019060200280838360005b83811015612a5d578181015183820152602001612a45565b5050505090500194505050505060405180910390a450505050565b6000612a8330613af8565b15905090565b600054610100900460ff1680612aa25750612aa2612a78565b80612ab0575060005460ff16155b612aeb5760405162461bcd60e51b815260040180806020018281038252602e815260200180615154602e913960400191505060405180910390fd5b600054610100900460ff16158015612b16576000805460ff1961ff0019909116610100171660011790555b6000612b20611cc3565b603380546001600160a01b0319166001600160a01b038316908117909155604051919250906000907f8be0079c531659141344cd1fd0a4f28419497f9722a3daafe3b4186f6b6457e0908290a3508015610f91576000805461ff001916905550565b600054610100900460ff1680612b9b5750612b9b612a78565b80612ba9575060005460ff16155b612be45760405162461bcd60e51b815260040180806020018281038252602e815260200180615154602e913960400191505060405180910390fd5b600054610100900460ff16158015612c0f576000805460ff1961ff0019909116610100171660011790555b612c387f6db15a0f00000000000000000000000000000000000000000000000000000000613afe565b8015610f91576000805461ff001916905550565b600054610100900460ff1680612c655750612c65612a78565b80612c73575060005460ff16155b612cae5760405162461bcd60e51b815260040180806020018281038252602e815260200180615154602e913960400191505060405180910390fd5b600054610100900460ff16158015612cd9576000805460ff1961ff0019909116610100171660011790555b612c387f01ffc9a700000000000000000000000000000000000000000000000000000000613afe565b600054610100900460ff1680612d1b5750612d1b612a78565b80612d29575060005460ff16155b612d645760405162461bcd60e51b815260040180806020018281038252602e815260200180615154602e913960400191505060405180910390fd5b600054610100900460ff16158015612c38576000805460ff1961ff0019909116610100171660011790558015610f91576000805461ff001916905550565b600054610100900460ff1680612dbb5750612dbb612a78565b80612dc9575060005460ff16155b612e045760405162461bcd60e51b815260040180806020018281038252602e815260200180615154602e913960400191505060405180910390fd5b600054610100900460ff16158015612e2f576000805460ff1961ff0019909116610100171660011790555b612c386040518060400160405280600881526020017f4d696e74313135350000000000000000000000000000000000000000000000008152506040518060400160405280600181526020017f3100000000000000000000000000000000000000000000000000000000000000815250613b82565b600054610100900460ff1680612ebc5750612ebc612a78565b80612eca575060005460ff16155b612f055760405162461bcd60e51b815260040180806020018281038252602e815260200180615154602e913960400191505060405180910390fd5b600054610100900460ff16158015612f30576000805460ff1961ff0019909116610100171660011790555b612f3982613c44565b612f627fd9b67a2600000000000000000000000000000000000000000000000000000000613afe565b612f8b7f0e89341c00000000000000000000000000000000000000000000000000000000613afe565b8015610815576000805461ff00191690555050565b600054610100900460ff1680612fb95750612fb9612a78565b80612fc7575060005460ff16155b6130025760405162461bcd60e51b815260040180806020018281038252602e815260200180615154602e913960400191505060405180910390fd5b600054610100900460ff1615801561302d576000805460ff1961ff0019909116610100171660011790555b81516130419061023090602085019061409f565b50612f8b7fe8a3d48500000000000000000000000000000000000000000000000000000000613afe565b600054610100900460ff16806130845750613084612a78565b80613092575060005460ff16155b6130cd5760405162461bcd60e51b815260040180806020018281038252602e815260200180615154602e913960400191505060405180910390fd5b600054610100900460ff161580156130f8576000805460ff1961ff0019909116610100171660011790555b612c387f44c74bcc00000000000000000000000000000000000000000000000000000000613afe565b600054610100900460ff168061313a575061313a612a78565b80613148575060005460ff16155b6131835760405162461bcd60e51b815260040180806020018281038252602e815260200180615154602e913960400191505060405180910390fd5b600054610100900460ff161580156131ae576000805460ff1961ff0019909116610100171660011790555b82516131c29061026290602086019061409f565b5081516131d79061026390602085019061409f565b508015611008576000805461ff0019169055505050565b80516108159061023090602084019061409f565b60008181526102966020908152604080832080548251601f60026000196101006001861615020190931692909204918201859004850281018501909352808352606094938301828280156132975780601f1061326c57610100808354040283529160200191613297565b820191906000526020600020905b81548152906001019060200180831161327a57829003601f168201915b5093979650505050505050565b60008381526101fa6020526040812054905b818110156107905760008581526101fa6020526040902080546001600160a01b0386169190839081106132e557fe5b6000918252602090912001546001600160a01b031614156133485760008581526101fa6020526040902080548491908390811061331e57fe5b600091825260209091200180546001600160a01b0319166001600160a01b03929092169190911790555b6001016132b6565b6001600160a01b038116600090815260c9602052604081205460ff16806116d057506116d08383613c57565b604080516001808252818301909252606091600091906020808301908036833701905050905082816000815181106133b057fe5b602090810291909101015292915050565b6133d3846001600160a01b0316613af8565b15610a0b57836001600160a01b031663f23a6e6187878686866040518663ffffffff1660e01b815260040180866001600160a01b03168152602001856001600160a01b0316815260200184815260200183815260200180602001828103825283818151815260200191508051906020019080838360005b8381101561346257818101518382015260200161344a565b50505050905090810190601f16801561348f5780820380516001836020036101000a031916815260200191505b509650505050505050602060405180830381600087803b1580156134b257600080fd5b505af19250505080156134d757506040513d60208110156134d257600080fd5b505160015b6134e3576126fc614f26565b6001600160e01b031981167ff23a6e6100000000000000000000000000000000000000000000000000000000146127ed5760405162461bcd60e51b81526004018080602001828103825260288152602001806150156028913960400191505060405180910390fd5b6001600160a01b0383166135905760405162461bcd60e51b81526004018080602001828103825260238152602001806151a46023913960400191505060405180910390fd5b600061359a611cc3565b90506135ca818560006135ac8761337c565b6135b58761337c565b60405180602001604052806000815250610a0b565b6136118260405180606001604052806024815260200161508e6024913960008681526097602090815260408083206001600160a01b038b168452909152902054919061246d565b60008481526097602090815260408083206001600160a01b03808a16808652918452828520959095558151888152928301879052815193949093908616927fc3d58168c5ae7397731d063d5bbf3d657854427343f4c083240f7aacaa2d0f6292908290030190a450505050565b6060816136bf575060408051808201909152600181527f300000000000000000000000000000000000000000000000000000000000000060208201526104e8565b8160005b81156136d757600101600a820491506136c3565b60008167ffffffffffffffff811180156136f057600080fd5b506040519080825280601f01601f19166020018201604052801561371b576020820181803683370190505b50859350905060001982015b831561378457600a840660300160f81b8282806001900393508151811061374a57fe5b60200101907effffffffffffffffffffffffffffffffffffffffffffffffffffffffffffff1916908160001a905350600a84049350613727565b50949350505050565b8051602091820151604080517f397e04204c1e1a60ee8724b71f8244e10ab5f2e9009854d80f602bda21b59ebb818601526001600160a01b03909316838201526bffffffffffffffffffffffff9091166060808401919091528151808403909101815260809092019052805191012090565b600061380a83613c85565b905061381e846001600160a01b0316613af8565b156139b057604080517f1626ba7e00000000000000000000000000000000000000000000000000000000808252600482018481526024830193845285516044840152855191936001600160a01b03891693631626ba7e938793899390929091606490910190602085019080838360005b838110156138a657818101518382015260200161388e565b50505050905090810190601f1680156138d35780820380516001836020036101000a031916815260200191505b50935050505060206040518083038186803b1580156138f157600080fd5b505afa158015613905573d6000803e3d6000fd5b505050506040513d602081101561391b57600080fd5b505160408051808201909152601c81527f7369676e617475726520766572696669636174696f6e206572726f72000000006020820152916001600160e01b0319909116146139aa5760405162461bcd60e51b81526020600482018181528351602484015283519092839260449091019190850190808383600083156124c15781810151838201526020016124a9565b50610f0e565b6001600160a01b0384166139c48284613cec565b6001600160a01b0316146040518060400160405280601c81526020017f7369676e617475726520766572696669636174696f6e206572726f7200000000815250906107905760405162461bcd60e51b81526020600482018181528351602484015283519092839260449091019190850190808383600083156124c15781810151838201526020016124a9565b7f3fa96d7b6bcbfe71ef171666d84db3cf52fa2d1c8afdb1cc8e486177f208b7df8282604051613a81929190614ec5565b60405180910390a15050565b60008381526101fd6020526040812054613aa8908490612504565b60008581526101fc6020526040902054909150811115613ada5760405162461bcd60e51b81526004016105df90614d94565b60008481526101fd6020526040902081905561079085858585613d6c565b3b151590565b6001600160e01b03198082161415613b5d576040805162461bcd60e51b815260206004820152601c60248201527f4552433136353a20696e76616c696420696e7465726661636520696400000000604482015290519081900360640190fd5b6001600160e01b0319166000908152606560205260409020805460ff19166001179055565b600054610100900460ff1680613b9b5750613b9b612a78565b80613ba9575060005460ff16155b613be45760405162461bcd60e51b815260040180806020018281038252602e815260200180615154602e913960400191505060405180910390fd5b600054610100900460ff16158015613c0f576000805460ff1961ff0019909116610100171660011790555b825160208085019190912083519184019190912061016291909155610163558015611008576000805461ff0019169055505050565b805161081590609990602084019061409f565b6001600160a01b03918216600090815260986020908152604080832093909416825291909152205460ff1690565b6000613c8f613e6d565b8260405160200180807f190100000000000000000000000000000000000000000000000000000000000081525060020183815260200182815260200192505050604051602081830303815290604052805190602001209050919050565b60008151604114613d44576040805162461bcd60e51b815260206004820152601f60248201527f45434453413a20696e76616c6964207369676e6174757265206c656e67746800604482015290519081900360640190fd5b60208201516040830151606084015160001a613d6286828585613ead565b9695505050505050565b6001600160a01b038416613db15760405162461bcd60e51b815260040180806020018281038252602181526020018061526b6021913960400191505060405180910390fd5b6000613dbb611cc3565b9050613dcd816000876117a08861337c565b60008481526097602090815260408083206001600160a01b0389168452909152902054613dfa9084612504565b60008581526097602090815260408083206001600160a01b03808b16808652918452828520959095558151898152928301889052815190948616927fc3d58168c5ae7397731d063d5bbf3d657854427343f4c083240f7aacaa2d0f6292908290030190a4610790816000878787876133c1565b6000613ea87f8b73c3c69bb8fe3d512ecc4cf759cc79239f7b179b0ffacaa9a75d522b39400f613e9b61402b565b613ea3614032565b614039565b905090565b60007f7fffffffffffffffffffffffffffffff5d576e7357a4501ddfe92f46681b20a0821115613f0e5760405162461bcd60e51b81526004018080602001828103825260228152602001806150db6022913960400191505060405180910390fd5b8360ff16601b1480613f2357508360ff16601c145b613f5e5760405162461bcd60e51b81526004018080602001828103825260228152602001806151826022913960400191505060405180910390fd5b600060018686868660405160008152602001604052604051808581526020018460ff1681526020018381526020018281526020019450505050506020604051602081039080840390855afa158015613fba573d6000803e3d6000fd5b5050604051601f1901519150506001600160a01b038116614022576040805162461bcd60e51b815260206004820152601860248201527f45434453413a20696e76616c6964207369676e61747572650000000000000000604482015290519081900360640190fd5b95945050505050565b6101625490565b6101635490565b600083838361404661409b565b3060405160200180868152602001858152602001848152602001838152602001826001600160a01b03168152602001955050505050506040516020818303038152906040528051906020012090509392505050565b4690565b828054600181600116156101000203166002900490600052602060002090601f0160209004810192826140d5576000855561411b565b82601f106140ee57805160ff191683800117855561411b565b8280016001018555821561411b579182015b8281111561411b578251825591602001919060010190614100565b5061412792915061412b565b5090565b5b80821115614127576000815560010161412c565b600082601f830112614150578081fd5b8135602061416561416083614f02565b614ede565b8281528181019085830183850287018401881015614181578586fd5b855b858110156141a857813561419681614fcb565b84529284019290840190600101614183565b5090979650505050505050565b600082601f8301126141c5578081fd5b813560206141d561416083614f02565b82815281810190858301855b858110156141a8576141f8898684358b0101614325565b845292840192908401906001016141e1565b600082601f83011261421a578081fd5b8135602061422a61416083614f02565b82815281810190858301604080860288018501891015614248578687fd5b865b868110156142bd5781838b031215614260578788fd5b815182810181811067ffffffffffffffff8211171561427b57fe5b8352833561428881614fcb565b8152838701356bffffffffffffffffffffffff811681146142a757898afd5b818801528552938501939181019160010161424a565b509198975050505050505050565b600082601f8301126142db578081fd5b813560206142eb61416083614f02565b8281528181019085830183850287018401881015614307578586fd5b855b858110156141a857813584529284019290840190600101614309565b600082601f830112614335578081fd5b813567ffffffffffffffff81111561434957fe5b61435c601f8201601f1916602001614ede565b818152846020838601011115614370578283fd5b816020850160208301379081016020019190915292915050565b600060c0828403121561439b578081fd5b6143a560c0614ede565b905081358152602082013567ffffffffffffffff808211156143c657600080fd5b6143d285838601614325565b60208401526040840135604084015260608401359150808211156143f557600080fd5b6144018583860161420a565b6060840152608084013591508082111561441a57600080fd5b6144268583860161420a565b608084015260a084013591508082111561443f57600080fd5b5061444c848285016141b5565b60a08301525092915050565b600060208284031215614469578081fd5b81356116d081614fcb565b60008060408385031215614486578081fd5b823561449181614fcb565b915060208301356144a181614fcb565b809150509250929050565b600080600080600060a086880312156144c3578081fd5b85356144ce81614fcb565b945060208601356144de81614fcb565b9350604086013567ffffffffffffffff808211156144fa578283fd5b61450689838a016142cb565b9450606088013591508082111561451b578283fd5b61452789838a016142cb565b9350608088013591508082111561453c578283fd5b5061454988828901614325565b9150509295509295909350565b600080600080600060a0868803121561456d578283fd5b853561457881614fcb565b9450602086013561458881614fcb565b93506040860135925060608601359150608086013567ffffffffffffffff8111156145b1578182fd5b61454988828901614325565b6000806000606084860312156145d1578081fd5b83356145dc81614fcb565b9250602084013567ffffffffffffffff808211156145f8578283fd5b614604878388016142cb565b93506040860135915080821115614619578283fd5b50614626868287016142cb565b9150509250925092565b60008060408385031215614642578182fd5b823561464d81614fcb565b9150602083013580151581146144a1578182fd5b60008060408385031215614673578182fd5b823561467e81614fcb565b946020939093013593505050565b6000806000606084860312156146a0578081fd5b83356146ab81614fcb565b95602085013595506040909401359392505050565b600080604083850312156146d2578182fd5b823567ffffffffffffffff808211156146e9578384fd5b6146f586838701614140565b9350602085013591508082111561470a578283fd5b50614717858286016142cb565b9150509250929050565b600060208284031215614732578081fd5b81356001600160e01b0319811681146116d0578182fd5b60006020828403121561475a578081fd5b813567ffffffffffffffff811115614770578182fd5b61477c84828501614325565b949350505050565b600080600080600060a0868803121561479b578283fd5b853567ffffffffffffffff808211156147b2578485fd5b6147be89838a01614325565b965060208801359150808211156147d3578485fd5b6147df89838a01614325565b955060408801359150808211156147f4578485fd5b61480089838a01614325565b94506060880135915080821115614815578283fd5b5061482288828901614325565b925050608086013561483381614fcb565b809150509295509295909350565b60008060008060808587031215614856578182fd5b843567ffffffffffffffff81111561486c578283fd5b6148788782880161438a565b945050602085013561488981614fcb565b9250604085013561489981614fcb565b9396929550929360600135925050565b6000806000606084860312156148bd578081fd5b833567ffffffffffffffff8111156148d3578182fd5b6148df8682870161438a565b93505060208401356148f081614fcb565b929592945050506040919091013590565b600080600060608486031215614915578081fd5b833567ffffffffffffffff8082111561492c578283fd5b6149388783880161438a565b9450602086013591508082111561494d578283fd5b61460487838801614140565b6000806000806080858703121561496e578182fd5b843567ffffffffffffffff80821115614985578384fd5b6149918883890161438a565b955060208701359150808211156149a6578384fd5b506149b387828801614325565b935050604085013561489981614fcb565b6000602082840312156149d5578081fd5b5035919050565b6000806000606084860312156149f0578081fd5b833592506020840135614a0281614fcb565b91506040840135614a1281614fcb565b809150509250925092565b60008060408385031215614a2f578182fd5b50508035926020909101359150565b6000815180845260208085019450808401835b83811015614a8f57815180516001600160a01b031688528301516bffffffffffffffffffffffff168388015260409096019590820190600101614a51565b509495945050505050565b60008151808452815b81811015614abf57602081850181015186830182015201614aa3565b81811115614ad05782602083870101525b50601f01601f19169290920160200192915050565b6001600160a01b0391909116815260200190565b60006001600160a01b038516825260606020830152614b1b6060830185614a9a565b8281036040840152613d628185614a9a565b6001600160a01b039290921682526bffffffffffffffffffffffff16602082015260400190565b6000602082526116d06020830184614a3e565b6020808252825182820181905260009190848201906040850190845b81811015614b9f57835183529284019291840191600101614b83565b50909695505050505050565b901515815260200190565b6000602082526116d06020830184614a9a565b60208082526010908201527f737570706c7920696e636f727265637400000000000000000000000000000000604082015260600190565b6020808252818101527f43726561746f722073686172652073686f756c6420626520706f736974697665604082015260600190565b60208082526011908201527f746f6b656e496420696e636f7272656374000000000000000000000000000000604082015260600190565b6020808252600b908201527f6e6f7420616c6c6f776564000000000000000000000000000000000000000000604082015260600190565b60208082526025908201527f455243313135353a207472616e7366657220746f20746865207a65726f20616460408201527f6472657373000000000000000000000000000000000000000000000000000000606082015260800190565b60208082526010908201527f616d6f756e7420696e636f727265637400000000000000000000000000000000604082015260600190565b60208082526028908201527f455243313135353a207472616e736665722063616c6c6572206973206e6f742060408201527f617070726f766564000000000000000000000000000000000000000000000000606082015260800190565b60208082526010908201527f6d6f7265207468616e20737570706c7900000000000000000000000000000000604082015260600190565b60208082526019908201527f4163636f756e742073686f756c642062652070726573656e7400000000000000604082015260600190565b6020808252602e908201527f455243313135353a2061646472657373657320616e6420616d6f756e7473206c60408201527f656e677468206d69736d61746368000000000000000000000000000000000000606082015260800190565b6020808252602e908201527f746f74616c20616d6f756e74206f662063726561746f7273207368617265207360408201527f686f756c64206265203130303030000000000000000000000000000000000000606082015260800190565b90815260200190565b60008382526040602083015261477c6040830184614a3e565b60405181810167ffffffffffffffff81118282101715614efa57fe5b604052919050565b600067ffffffffffffffff821115614f1657fe5b5060209081020190565b60e01c90565b600060443d1015614f36576110a2565b600481823e6308c379a0614f4a8251614f20565b14614f54576110a2565b6040513d600319016004823e80513d67ffffffffffffffff8160248401118184111715614f8457505050506110a2565b82840192508251915080821115614f9e57505050506110a2565b503d83016020828401011115614fb6575050506110a2565b601f01601f1916810160200160405291505090565b6001600160a01b0381168114610f9157600080fdfe455243313135353a207472616e7366657220746f206e6f6e2045524331313535526563656976657220696d706c656d656e746572455243313135353a204552433131353552656365697665722072656a656374656420746f6b656e73455243313135353a2062616c616e636520717565727920666f7220746865207a65726f20616464726573734f776e61626c653a206e6577206f776e657220697320746865207a65726f2061646472657373455243313135353a206275726e20616d6f756e7420657863656564732062616c616e6365455243313135353a2063616c6c6572206973206e6f74206f776e6572206e6f7220617070726f76656445434453413a20696e76616c6964207369676e6174757265202773272076616c7565455243313135353a207472616e7366657220746f20746865207a65726f2061646472657373455243313135353a207472616e736665722063616c6c6572206973206e6f74206f776e6572206e6f7220617070726f766564496e697469616c697a61626c653a20636f6e747261637420697320616c726561647920696e697469616c697a656445434453413a20696e76616c6964207369676e6174757265202776272076616c7565455243313135353a206275726e2066726f6d20746865207a65726f2061646472657373455243313135353a20696e73756666696369656e742062616c616e636520666f72207472616e73666572455243313135353a2073657474696e6720617070726f76616c2073746174757320666f722073656c66455243313135353a206163636f756e747320616e6420696473206c656e677468206d69736d61746368455243313135353a2069647320616e6420616d6f756e7473206c656e677468206d69736d61746368455243313135353a206d696e7420746f20746865207a65726f2061646472657373a2646970667358221220394beb817513b60af16844ead737217b419823b43912c2e85a49f61883ce09fa64736f6c63430007060033",
  "immutableReferences": {},
  "source": "// SPDX-License-Identifier: MIT\n\npragma solidity >=0.6.2 <0.8.0;\npragma abicoder v2;\n\nimport \"protocol-contracts/tokens/contracts/erc-1155/ERC1155Base.sol\";\n\nimport \"hardhat/console.sol\";\nimport \"./lib/ERC1155Image.sol\";\n\ncontract EcoFiCommunityERC1155 is ERC1155Base, ERC1155Image {\n    event CreateEcoFiERC1155(address owner, string name, string symbol);\n\n    function __EcoFiCommunityERC1155_init(string memory _name, string memory _symbol, string memory baseURI, string memory contractURI, address _address) external initializer {\n        __Ownable_init_unchained();\n        __ERC1155Lazy_init_unchained();\n        __ERC165_init_unchained();\n        __Context_init_unchained();\n        __Mint1155Validator_init_unchained();\n        __ERC1155_init_unchained(\"\");\n        __HasContractURI_init_unchained(contractURI);\n        __ERC1155Burnable_init_unchained();\n        __RoyaltiesV2Upgradeable_init_unchained();\n        __ERC1155Base_init_unchained(_name, _symbol);\n        _setBaseURI(baseURI);\n        _setDefaultApproval(_address, true); // set the contract deployer as approved\n        emit CreateEcoFiERC1155(_msgSender(), _name, _symbol);\n    }\n\n    function setBaseURI(string memory baseURI) public virtual onlyOwner {\n        _setBaseURI(baseURI);\n    }\n\n    function setContractURI(string memory contractURI) public virtual onlyOwner {\n        _setContractURI(contractURI);\n    }\n\n    function mintWithImage(LibERC1155LazyMint.Mint1155Data memory data, string memory image, address to, uint256 _amount) public virtual {\n        address minter = address(data.tokenId >> 96);\n        address sender = _msgSender();\n\n        require(minter == sender || isApprovedForAll(minter, sender), \"ERC1155: transfer caller is not approved\");\n        require(_amount > 0, \"amount incorrect\");\n\n        if (_getSupply(data.tokenId) == 0) {\n            require(minter == data.creators[0].account, \"tokenId incorrect\");\n            require(data.supply > 0, \"supply incorrect\");\n            require(data.creators.length == data.signatures.length);\n\n            bytes32 hash = LibERC1155LazyMint.hash(data);\n            for (uint i = 0; i < data.creators.length; i++) {\n                address creator = data.creators[i].account;\n                if (creator != sender) {\n                    validate(creator, hash, data.signatures[i]);\n                }\n            }\n\n            _saveSupply(data.tokenId, data.supply);\n            _saveRoyalties(data.tokenId, data.royalties);\n            _saveCreators(data.tokenId, data.creators);\n            _setTokenURI(data.tokenId, data.tokenURI);\n            _setTokenImage(data.tokenId, image);\n        }\n\n        _mint(to, data.tokenId, _amount, \"\");\n    }\n\n    function batchMintAndTransfer(LibERC1155LazyMint.Mint1155Data memory data, address[] memory tos, uint256[] memory _amounts) public onlyOwner {\n        require(tos.length == _amounts.length, \"ERC1155: addresses and amounts length mismatch\");      \n        for (uint256 i = 0; i < tos.length; ++i) {\n            address to = tos[i];\n            require(to != address(0), \"ERC1155: transfer to the zero address\");\n            uint256 _amount = _amounts[i];\n            mintAndTransfer(data, to, _amount);\n        }\n    }\n\n    uint256[50] private __gap;\n}\n",
  "sourcePath": "/Users/sreckosmodis/Documents/Projects/Ecofi/ecofi-contracts/contracts/EcoFiCommunityERC1155.sol",
  "compiler": {
    "name": "solc",
    "version": "0.7.6+commit.7338295f.Emscripten.clang"
  },
  "schemaVersion": "3.4.1",
  "updatedAt": "2022-03-22T08:36:40.420Z",
  "devdoc": {
    "kind": "dev",
    "methods": {
      "balanceOf(address,uint256)": {
        "details": "See {IERC1155-balanceOf}. Requirements: - `account` cannot be the zero address."
      },
      "balanceOfBatch(address[],uint256[])": {
        "details": "See {IERC1155-balanceOfBatch}. Requirements: - `accounts` and `ids` must have the same length."
      },
      "baseURI()": {
        "details": "Returns the base URI set via {_setBaseURI}. This will be automatically added as a prefix in {tokenURI} to each token's URI, or to the token ID if no specific URI is set for that token ID."
      },
      "owner()": {
        "details": "Returns the address of the current owner."
      },
      "renounceOwnership()": {
        "details": "Leaves the contract without owner. It will not be possible to call `onlyOwner` functions anymore. Can only be called by the current owner. NOTE: Renouncing ownership will leave the contract without an owner, thereby removing any functionality that is only available to the owner."
      },
      "safeBatchTransferFrom(address,address,uint256[],uint256[],bytes)": {
        "details": "See {IERC1155-safeBatchTransferFrom}."
      },
      "safeTransferFrom(address,address,uint256,uint256,bytes)": {
        "details": "See {IERC1155-safeTransferFrom}."
      },
      "setApprovalForAll(address,bool)": {
        "details": "See {IERC1155-setApprovalForAll}."
      },
      "supportsInterface(bytes4)": {
        "details": "See {IERC165-supportsInterface}. Time complexity O(1), guaranteed to always use less than 30 000 gas."
      },
      "transferOwnership(address)": {
        "details": "Transfers ownership of the contract to a new account (`newOwner`). Can only be called by the current owner."
      }
    },
    "version": 1
  },
  "userdoc": {
    "kind": "user",
    "methods": {},
    "version": 1
  }
}