{
  "contractName": "EcoFiHOERC1155",
  "abi": [
    {
      "anonymous": false,
      "inputs": [
        {
          "indexed": true,
          "internalType": "address",
          "name": "account",
          "type": "address"
        },
        {
          "indexed": true,
          "internalType": "address",
          "name": "operator",
          "type": "address"
        },
        {
          "indexed": false,
          "internalType": "bool",
          "name": "approved",
          "type": "bool"
        }
      ],
      "name": "ApprovalForAll",
      "type": "event"
    },
    {
      "anonymous": false,
      "inputs": [
        {
          "indexed": false,
          "internalType": "address",
          "name": "owner",
          "type": "address"
        },
        {
          "indexed": false,
          "internalType": "string",
          "name": "name",
          "type": "string"
        },
        {
          "indexed": false,
          "internalType": "string",
          "name": "symbol",
          "type": "string"
        }
      ],
      "name": "CreateEcoFiERC1155",
      "type": "event"
    },
    {
      "anonymous": false,
      "inputs": [
        {
          "indexed": true,
          "internalType": "uint256",
          "name": "tokenId",
          "type": "uint256"
        },
        {
          "components": [
            {
              "internalType": "address payable",
              "name": "account",
              "type": "address"
            },
            {
              "internalType": "uint96",
              "name": "value",
              "type": "uint96"
            }
          ],
          "indexed": false,
          "internalType": "struct LibPart.Part[]",
          "name": "creators",
          "type": "tuple[]"
        }
      ],
      "name": "Creators",
      "type": "event"
    },
    {
      "anonymous": false,
      "inputs": [
        {
          "indexed": true,
          "internalType": "address",
          "name": "operator",
          "type": "address"
        },
        {
          "indexed": false,
          "internalType": "bool",
          "name": "hasApproval",
          "type": "bool"
        }
      ],
      "name": "DefaultApproval",
      "type": "event"
    },
    {
      "anonymous": false,
      "inputs": [
        {
          "indexed": false,
          "internalType": "string",
          "name": "value",
          "type": "string"
        },
        {
          "indexed": true,
          "internalType": "uint256",
          "name": "id",
          "type": "uint256"
        }
      ],
      "name": "Image",
      "type": "event"
    },
    {
      "anonymous": false,
      "inputs": [
        {
          "indexed": true,
          "internalType": "address",
          "name": "previousOwner",
          "type": "address"
        },
        {
          "indexed": true,
          "internalType": "address",
          "name": "newOwner",
          "type": "address"
        }
      ],
      "name": "OwnershipTransferred",
      "type": "event"
    },
    {
      "anonymous": false,
      "inputs": [
        {
          "indexed": false,
          "internalType": "uint256",
          "name": "tokenId",
          "type": "uint256"
        },
        {
          "components": [
            {
              "internalType": "address payable",
              "name": "account",
              "type": "address"
            },
            {
              "internalType": "uint96",
              "name": "value",
              "type": "uint96"
            }
          ],
          "indexed": false,
          "internalType": "struct LibPart.Part[]",
          "name": "royalties",
          "type": "tuple[]"
        }
      ],
      "name": "RoyaltiesSet",
      "type": "event"
    },
    {
      "anonymous": false,
      "inputs": [
        {
          "indexed": true,
          "internalType": "uint256",
          "name": "tokenId",
          "type": "uint256"
        },
        {
          "indexed": false,
          "internalType": "uint256",
          "name": "value",
          "type": "uint256"
        }
      ],
      "name": "Supply",
      "type": "event"
    },
    {
      "anonymous": false,
      "inputs": [
        {
          "indexed": true,
          "internalType": "address",
          "name": "operator",
          "type": "address"
        },
        {
          "indexed": true,
          "internalType": "address",
          "name": "from",
          "type": "address"
        },
        {
          "indexed": true,
          "internalType": "address",
          "name": "to",
          "type": "address"
        },
        {
          "indexed": false,
          "internalType": "uint256[]",
          "name": "ids",
          "type": "uint256[]"
        },
        {
          "indexed": false,
          "internalType": "uint256[]",
          "name": "values",
          "type": "uint256[]"
        }
      ],
      "name": "TransferBatch",
      "type": "event"
    },
    {
      "anonymous": false,
      "inputs": [
        {
          "indexed": true,
          "internalType": "address",
          "name": "operator",
          "type": "address"
        },
        {
          "indexed": true,
          "internalType": "address",
          "name": "from",
          "type": "address"
        },
        {
          "indexed": true,
          "internalType": "address",
          "name": "to",
          "type": "address"
        },
        {
          "indexed": false,
          "internalType": "uint256",
          "name": "id",
          "type": "uint256"
        },
        {
          "indexed": false,
          "internalType": "uint256",
          "name": "value",
          "type": "uint256"
        }
      ],
      "name": "TransferSingle",
      "type": "event"
    },
    {
      "anonymous": false,
      "inputs": [
        {
          "indexed": false,
          "internalType": "string",
          "name": "value",
          "type": "string"
        },
        {
          "indexed": true,
          "internalType": "uint256",
          "name": "id",
          "type": "uint256"
        }
      ],
      "name": "URI",
      "type": "event"
    },
    {
      "inputs": [
        {
          "internalType": "address",
          "name": "account",
          "type": "address"
        },
        {
          "internalType": "uint256",
          "name": "id",
          "type": "uint256"
        }
      ],
      "name": "balanceOf",
      "outputs": [
        {
          "internalType": "uint256",
          "name": "",
          "type": "uint256"
        }
      ],
      "stateMutability": "view",
      "type": "function"
    },
    {
      "inputs": [
        {
          "internalType": "address[]",
          "name": "accounts",
          "type": "address[]"
        },
        {
          "internalType": "uint256[]",
          "name": "ids",
          "type": "uint256[]"
        }
      ],
      "name": "balanceOfBatch",
      "outputs": [
        {
          "internalType": "uint256[]",
          "name": "",
          "type": "uint256[]"
        }
      ],
      "stateMutability": "view",
      "type": "function"
    },
    {
      "inputs": [],
      "name": "baseURI",
      "outputs": [
        {
          "internalType": "string",
          "name": "",
          "type": "string"
        }
      ],
      "stateMutability": "view",
      "type": "function"
    },
    {
      "inputs": [
        {
          "internalType": "address",
          "name": "account",
          "type": "address"
        },
        {
          "internalType": "uint256",
          "name": "id",
          "type": "uint256"
        },
        {
          "internalType": "uint256",
          "name": "value",
          "type": "uint256"
        }
      ],
      "name": "burn",
      "outputs": [],
      "stateMutability": "nonpayable",
      "type": "function"
    },
    {
      "inputs": [
        {
          "internalType": "address",
          "name": "account",
          "type": "address"
        },
        {
          "internalType": "uint256[]",
          "name": "ids",
          "type": "uint256[]"
        },
        {
          "internalType": "uint256[]",
          "name": "values",
          "type": "uint256[]"
        }
      ],
      "name": "burnBatch",
      "outputs": [],
      "stateMutability": "nonpayable",
      "type": "function"
    },
    {
      "inputs": [],
      "name": "contractURI",
      "outputs": [
        {
          "internalType": "string",
          "name": "",
          "type": "string"
        }
      ],
      "stateMutability": "view",
      "type": "function"
    },
    {
      "inputs": [
        {
          "internalType": "uint256",
          "name": "",
          "type": "uint256"
        },
        {
          "internalType": "uint256",
          "name": "",
          "type": "uint256"
        }
      ],
      "name": "creators",
      "outputs": [
        {
          "internalType": "address payable",
          "name": "account",
          "type": "address"
        },
        {
          "internalType": "uint96",
          "name": "value",
          "type": "uint96"
        }
      ],
      "stateMutability": "view",
      "type": "function"
    },
    {
      "inputs": [
        {
          "internalType": "uint256",
          "name": "_id",
          "type": "uint256"
        }
      ],
      "name": "getCreators",
      "outputs": [
        {
          "components": [
            {
              "internalType": "address payable",
              "name": "account",
              "type": "address"
            },
            {
              "internalType": "uint96",
              "name": "value",
              "type": "uint96"
            }
          ],
          "internalType": "struct LibPart.Part[]",
          "name": "",
          "type": "tuple[]"
        }
      ],
      "stateMutability": "view",
      "type": "function"
    },
    {
      "inputs": [
        {
          "internalType": "uint256",
          "name": "id",
          "type": "uint256"
        }
      ],
      "name": "getRoyalties",
      "outputs": [
        {
          "components": [
            {
              "internalType": "address payable",
              "name": "account",
              "type": "address"
            },
            {
              "internalType": "uint96",
              "name": "value",
              "type": "uint96"
            }
          ],
          "internalType": "struct LibPart.Part[]",
          "name": "",
          "type": "tuple[]"
        }
      ],
      "stateMutability": "view",
      "type": "function"
    },
    {
      "inputs": [
        {
          "internalType": "uint256",
          "name": "id",
          "type": "uint256"
        }
      ],
      "name": "image",
      "outputs": [
        {
          "internalType": "string",
          "name": "",
          "type": "string"
        }
      ],
      "stateMutability": "view",
      "type": "function"
    },
    {
      "inputs": [
        {
          "internalType": "address",
          "name": "_owner",
          "type": "address"
        },
        {
          "internalType": "address",
          "name": "_operator",
          "type": "address"
        }
      ],
      "name": "isApprovedForAll",
      "outputs": [
        {
          "internalType": "bool",
          "name": "",
          "type": "bool"
        }
      ],
      "stateMutability": "view",
      "type": "function"
    },
    {
      "inputs": [],
      "name": "name",
      "outputs": [
        {
          "internalType": "string",
          "name": "",
          "type": "string"
        }
      ],
      "stateMutability": "view",
      "type": "function"
    },
    {
      "inputs": [],
      "name": "owner",
      "outputs": [
        {
          "internalType": "address",
          "name": "",
          "type": "address"
        }
      ],
      "stateMutability": "view",
      "type": "function"
    },
    {
      "inputs": [],
      "name": "renounceOwnership",
      "outputs": [],
      "stateMutability": "nonpayable",
      "type": "function"
    },
    {
      "inputs": [
        {
          "internalType": "uint256",
          "name": "",
          "type": "uint256"
        },
        {
          "internalType": "uint256",
          "name": "",
          "type": "uint256"
        }
      ],
      "name": "royalties",
      "outputs": [
        {
          "internalType": "address payable",
          "name": "account",
          "type": "address"
        },
        {
          "internalType": "uint96",
          "name": "value",
          "type": "uint96"
        }
      ],
      "stateMutability": "view",
      "type": "function"
    },
    {
      "inputs": [
        {
          "internalType": "address",
          "name": "from",
          "type": "address"
        },
        {
          "internalType": "address",
          "name": "to",
          "type": "address"
        },
        {
          "internalType": "uint256[]",
          "name": "ids",
          "type": "uint256[]"
        },
        {
          "internalType": "uint256[]",
          "name": "amounts",
          "type": "uint256[]"
        },
        {
          "internalType": "bytes",
          "name": "data",
          "type": "bytes"
        }
      ],
      "name": "safeBatchTransferFrom",
      "outputs": [],
      "stateMutability": "nonpayable",
      "type": "function"
    },
    {
      "inputs": [
        {
          "internalType": "address",
          "name": "from",
          "type": "address"
        },
        {
          "internalType": "address",
          "name": "to",
          "type": "address"
        },
        {
          "internalType": "uint256",
          "name": "id",
          "type": "uint256"
        },
        {
          "internalType": "uint256",
          "name": "amount",
          "type": "uint256"
        },
        {
          "internalType": "bytes",
          "name": "data",
          "type": "bytes"
        }
      ],
      "name": "safeTransferFrom",
      "outputs": [],
      "stateMutability": "nonpayable",
      "type": "function"
    },
    {
      "inputs": [
        {
          "internalType": "address",
          "name": "operator",
          "type": "address"
        },
        {
          "internalType": "bool",
          "name": "approved",
          "type": "bool"
        }
      ],
      "name": "setApprovalForAll",
      "outputs": [],
      "stateMutability": "nonpayable",
      "type": "function"
    },
    {
      "inputs": [
        {
          "internalType": "address",
          "name": "operator",
          "type": "address"
        },
        {
          "internalType": "bool",
          "name": "hasApproval",
          "type": "bool"
        }
      ],
      "name": "setDefaultApproval",
      "outputs": [],
      "stateMutability": "nonpayable",
      "type": "function"
    },
    {
      "inputs": [
        {
          "internalType": "bytes4",
          "name": "interfaceId",
          "type": "bytes4"
        }
      ],
      "name": "supportsInterface",
      "outputs": [
        {
          "internalType": "bool",
          "name": "",
          "type": "bool"
        }
      ],
      "stateMutability": "view",
      "type": "function"
    },
    {
      "inputs": [],
      "name": "symbol",
      "outputs": [
        {
          "internalType": "string",
          "name": "",
          "type": "string"
        }
      ],
      "stateMutability": "view",
      "type": "function"
    },
    {
      "inputs": [
        {
          "components": [
            {
              "internalType": "uint256",
              "name": "tokenId",
              "type": "uint256"
            },
            {
              "internalType": "string",
              "name": "tokenURI",
              "type": "string"
            },
            {
              "internalType": "uint256",
              "name": "supply",
              "type": "uint256"
            },
            {
              "components": [
                {
                  "internalType": "address payable",
                  "name": "account",
                  "type": "address"
                },
                {
                  "internalType": "uint96",
                  "name": "value",
                  "type": "uint96"
                }
              ],
              "internalType": "struct LibPart.Part[]",
              "name": "creators",
              "type": "tuple[]"
            },
            {
              "components": [
                {
                  "internalType": "address payable",
                  "name": "account",
                  "type": "address"
                },
                {
                  "internalType": "uint96",
                  "name": "value",
                  "type": "uint96"
                }
              ],
              "internalType": "struct LibPart.Part[]",
              "name": "royalties",
              "type": "tuple[]"
            },
            {
              "internalType": "bytes[]",
              "name": "signatures",
              "type": "bytes[]"
            }
          ],
          "internalType": "struct LibERC1155LazyMint.Mint1155Data",
          "name": "data",
          "type": "tuple"
        },
        {
          "internalType": "address",
          "name": "from",
          "type": "address"
        },
        {
          "internalType": "address",
          "name": "to",
          "type": "address"
        },
        {
          "internalType": "uint256",
          "name": "amount",
          "type": "uint256"
        }
      ],
      "name": "transferFromOrMint",
      "outputs": [],
      "stateMutability": "nonpayable",
      "type": "function"
    },
    {
      "inputs": [
        {
          "internalType": "address",
          "name": "newOwner",
          "type": "address"
        }
      ],
      "name": "transferOwnership",
      "outputs": [],
      "stateMutability": "nonpayable",
      "type": "function"
    },
    {
      "inputs": [
        {
          "internalType": "uint256",
          "name": "_id",
          "type": "uint256"
        },
        {
          "internalType": "address",
          "name": "_from",
          "type": "address"
        },
        {
          "internalType": "address",
          "name": "_to",
          "type": "address"
        }
      ],
      "name": "updateAccount",
      "outputs": [],
      "stateMutability": "nonpayable",
      "type": "function"
    },
    {
      "inputs": [
        {
          "internalType": "uint256",
          "name": "id",
          "type": "uint256"
        }
      ],
      "name": "uri",
      "outputs": [
        {
          "internalType": "string",
          "name": "",
          "type": "string"
        }
      ],
      "stateMutability": "view",
      "type": "function"
    },
    {
      "inputs": [
        {
          "internalType": "string",
          "name": "_name",
          "type": "string"
        },
        {
          "internalType": "string",
          "name": "_symbol",
          "type": "string"
        },
        {
          "internalType": "string",
          "name": "baseURI",
          "type": "string"
        },
        {
          "internalType": "string",
          "name": "contractURI",
          "type": "string"
        },
        {
          "internalType": "address",
          "name": "_address",
          "type": "address"
        }
      ],
      "name": "__EcoFiHOERC1155_init",
      "outputs": [],
      "stateMutability": "nonpayable",
      "type": "function"
    },
    {
      "inputs": [
        {
          "internalType": "string",
          "name": "baseURI",
          "type": "string"
        }
      ],
      "name": "setBaseURI",
      "outputs": [],
      "stateMutability": "nonpayable",
      "type": "function"
    },
    {
      "inputs": [
        {
          "internalType": "string",
          "name": "contractURI",
          "type": "string"
        }
      ],
      "name": "setContractURI",
      "outputs": [],
      "stateMutability": "nonpayable",
      "type": "function"
    },
    {
      "inputs": [
        {
          "components": [
            {
              "internalType": "uint256",
              "name": "tokenId",
              "type": "uint256"
            },
            {
              "internalType": "string",
              "name": "tokenURI",
              "type": "string"
            },
            {
              "internalType": "uint256",
              "name": "supply",
              "type": "uint256"
            },
            {
              "components": [
                {
                  "internalType": "address payable",
                  "name": "account",
                  "type": "address"
                },
                {
                  "internalType": "uint96",
                  "name": "value",
                  "type": "uint96"
                }
              ],
              "internalType": "struct LibPart.Part[]",
              "name": "creators",
              "type": "tuple[]"
            },
            {
              "components": [
                {
                  "internalType": "address payable",
                  "name": "account",
                  "type": "address"
                },
                {
                  "internalType": "uint96",
                  "name": "value",
                  "type": "uint96"
                }
              ],
              "internalType": "struct LibPart.Part[]",
              "name": "royalties",
              "type": "tuple[]"
            },
            {
              "internalType": "bytes[]",
              "name": "signatures",
              "type": "bytes[]"
            }
          ],
          "internalType": "struct LibERC1155LazyMint.Mint1155Data",
          "name": "data",
          "type": "tuple"
        },
        {
          "internalType": "string",
          "name": "image",
          "type": "string"
        },
        {
          "internalType": "address",
          "name": "to",
          "type": "address"
        },
        {
          "internalType": "uint256",
          "name": "_amount",
          "type": "uint256"
        }
      ],
      "name": "mintWithImage",
      "outputs": [],
      "stateMutability": "nonpayable",
      "type": "function"
    },
    {
      "inputs": [
        {
          "components": [
            {
              "internalType": "uint256",
              "name": "tokenId",
              "type": "uint256"
            },
            {
              "internalType": "string",
              "name": "tokenURI",
              "type": "string"
            },
            {
              "internalType": "uint256",
              "name": "supply",
              "type": "uint256"
            },
            {
              "components": [
                {
                  "internalType": "address payable",
                  "name": "account",
                  "type": "address"
                },
                {
                  "internalType": "uint96",
                  "name": "value",
                  "type": "uint96"
                }
              ],
              "internalType": "struct LibPart.Part[]",
              "name": "creators",
              "type": "tuple[]"
            },
            {
              "components": [
                {
                  "internalType": "address payable",
                  "name": "account",
                  "type": "address"
                },
                {
                  "internalType": "uint96",
                  "name": "value",
                  "type": "uint96"
                }
              ],
              "internalType": "struct LibPart.Part[]",
              "name": "royalties",
              "type": "tuple[]"
            },
            {
              "internalType": "bytes[]",
              "name": "signatures",
              "type": "bytes[]"
            }
          ],
          "internalType": "struct LibERC1155LazyMint.Mint1155Data",
          "name": "data",
          "type": "tuple"
        },
        {
          "internalType": "address",
          "name": "to",
          "type": "address"
        },
        {
          "internalType": "uint256",
          "name": "_amount",
          "type": "uint256"
        }
      ],
      "name": "mintAndTransfer",
      "outputs": [],
      "stateMutability": "nonpayable",
      "type": "function"
    },
    {
      "inputs": [
        {
          "components": [
            {
              "internalType": "uint256",
              "name": "tokenId",
              "type": "uint256"
            },
            {
              "internalType": "string",
              "name": "tokenURI",
              "type": "string"
            },
            {
              "internalType": "uint256",
              "name": "supply",
              "type": "uint256"
            },
            {
              "components": [
                {
                  "internalType": "address payable",
                  "name": "account",
                  "type": "address"
                },
                {
                  "internalType": "uint96",
                  "name": "value",
                  "type": "uint96"
                }
              ],
              "internalType": "struct LibPart.Part[]",
              "name": "creators",
              "type": "tuple[]"
            },
            {
              "components": [
                {
                  "internalType": "address payable",
                  "name": "account",
                  "type": "address"
                },
                {
                  "internalType": "uint96",
                  "name": "value",
                  "type": "uint96"
                }
              ],
              "internalType": "struct LibPart.Part[]",
              "name": "royalties",
              "type": "tuple[]"
            },
            {
              "internalType": "bytes[]",
              "name": "signatures",
              "type": "bytes[]"
            }
          ],
          "internalType": "struct LibERC1155LazyMint.Mint1155Data",
          "name": "data",
          "type": "tuple"
        },
        {
          "internalType": "address[]",
          "name": "tos",
          "type": "address[]"
        },
        {
          "internalType": "uint256[]",
          "name": "_amounts",
          "type": "uint256[]"
        }
      ],
      "name": "batchMintAndTransfer",
      "outputs": [],
      "stateMutability": "nonpayable",
      "type": "function"
    }
  ],
  "bytecode": "0x608060405234801561001057600080fd5b506153b4806100206000396000f3fe608060405234801561001057600080fd5b50600436106101e45760003560e01c80638924af741161010f578063c79178c6116100a2578063f242432a11610071578063f242432a1461040f578063f2fde38b14610422578063f5298aca14610435578063ffc4e0a714610448576101e4565b8063c79178c6146103ce578063e07f2319146103e1578063e8a3d485146103f4578063e985e9c5146103fc576101e4565b806398d0b4fb116100de57806398d0b4fb14610382578063997f967d14610395578063a22cb465146103a8578063bb3bafd6146103bb576101e4565b80638924af74146103315780638da5cb5b14610352578063938e3d7b1461036757806395d89b411461037a576101e4565b80632eb2c2d6116101875780636b20c454116101565780636b20c454146102ee5780636c0360eb14610301578063715018a614610309578063891be97414610311576101e4565b80632eb2c2d6146102955780634e1273f4146102a85780634eb840e1146102c857806355f804b3146102db576101e4565b80630e89341c116101c35780630e89341c146102475780630eaead671461025a57806318054c371461026f5780631e014a4b14610282576101e4565b8062fdd58e146101e957806301ffc9a71461021257806306fdde0314610232575b600080fd5b6101fc6101f7366004614754565b61045b565b6040516102099190614faf565b60405180910390f35b610225610220366004614814565b6104ca565b6040516102099190614c9e565b61023a6104ed565b6040516102099190614ca9565b61023a610255366004614ab7565b61057c565b61026d61026836600461499c565b61058d565b005b61026d61027d366004614723565b610611565b61026d610290366004614a4c565b610693565b61026d6102a336600461459f565b610917565b6102bb6102b63660046147b3565b610c0d565b6040516102099190614c5a565b61026d6102d63660046149f4565b610cf9565b61026d6102e936600461483c565b610e18565b61026d6102fc3660046146b0565b610e98565b61023a610f0c565b61026d610fa4565b61032461031f366004614ab7565b611062565b6040516102099190614c47565b61034461033f366004614b10565b6110f7565b604051610209929190614c20565b61035a611146565b6040516102099190614bd8565b61026d61037536600461483c565b611155565b61023a6111d2565b610344610390366004614b10565b61122e565b61026d6103a3366004614877565b61124b565b61026d6103b6366004614723565b6113aa565b6103246103c9366004614ab7565b611499565b61023a6103dc366004614ab7565b611519565b61026d6103ef366004614acf565b611524565b61023a611567565b61022561040a366004614567565b6115c3565b61026d61041d366004614649565b6115d6565b61026d61043036600461454b565b6117a1565b61026d61044336600461477f565b6118b6565b61026d610456366004614934565b61192a565b60006001600160a01b0383166104a25760405162461bcd60e51b815260040180806020018281038252602b815260200180615130602b913960400191505060405180910390fd5b5060009081526097602090815260408083206001600160a01b03949094168352929052205490565b6001600160e01b0319811660009081526065602052604090205460ff165b919050565b610262805460408051602060026001851615610100026000190190941693909304601f810184900484028201840190925281815292918301828280156105745780601f1061054957610100808354040283529160200191610574565b820191906000526020600020905b81548152906001019060200180831161055757829003601f168201915b505050505081565b606061058782611985565b92915050565b610595611bc2565b6001600160a01b03166105a6611146565b6001600160a01b031614610601576040805162461bcd60e51b815260206004820181905260248201527f4f776e61626c653a2063616c6c6572206973206e6f7420746865206f776e6572604482015290519081900360640190fd5b61060c838383611bc6565b505050565b610619611bc2565b6001600160a01b031661062a611146565b6001600160a01b031614610685576040805162461bcd60e51b815260206004820181905260248201527f4f776e61626c653a2063616c6c6572206973206e6f7420746865206f776e6572604482015290519081900360640190fd5b61068f8282611dba565b5050565b61069b611bc2565b6001600160a01b03166106ac611146565b6001600160a01b031614610707576040805162461bcd60e51b815260206004820181905260248201527f4f776e61626c653a2063616c6c6572206973206e6f7420746865206f776e6572604482015290519081900360640190fd5b835160601c6000610716611bc2565b9050806001600160a01b0316826001600160a01b0316148061073d575061073d82826115c3565b6107625760405162461bcd60e51b815260040161075990614e2a565b60405180910390fd5b600083116107825760405162461bcd60e51b815260040161075990614df3565b855161078d90611e1a565b6108f05785606001516000815181106107a257fe5b6020026020010151600001516001600160a01b0316826001600160a01b0316146107de5760405162461bcd60e51b815260040161075990614d28565b60008660400151116108025760405162461bcd60e51b815260040161075990614cbc565b8560a00151518660600151511461081857600080fd5b600061082387611e2d565b905060005b8760600151518110156108995760008860600151828151811061084757fe5b6020026020010151600001519050836001600160a01b0316816001600160a01b0316146108905761089081848b60a00151858151811061088357fe5b6020026020010151612082565b50600101610828565b506108ac8760000151886040015161208d565b6108be876000015188608001516120f7565b6108d087600001518860600151612287565b6108e287600001518860200151612444565b86516108ee9087612508565b505b61090f8487600001518560405180602001604052806000815250612554565b505050505050565b81518351146109575760405162461bcd60e51b81526004018080602001828103825260288152602001806153366028913960400191505060405180910390fd5b6001600160a01b03841661099c5760405162461bcd60e51b81526004018080602001828103825260258152602001806151f06025913960400191505060405180910390fd5b6109a4611bc2565b6001600160a01b0316856001600160a01b031614806109ca57506109ca8561040a611bc2565b610a055760405162461bcd60e51b81526004018080602001828103825260328152602001806152156032913960400191505060405180910390fd5b6000610a0f611bc2565b9050610a1f81878787878761090f565b60005b8451811015610b25576000858281518110610a3957fe5b602002602001015190506000858381518110610a5157fe5b60200260200101519050610abe816040518060600160405280602a81526020016152ba602a91396097600086815260200190815260200160002060008d6001600160a01b03166001600160a01b03168152602001908152602001600020546125609092919063ffffffff16565b60008381526097602090815260408083206001600160a01b038e811685529252808320939093558a1681522054610af590826125f7565b60009283526097602090815260408085206001600160a01b038c1686529091529092209190915550600101610a22565b50846001600160a01b0316866001600160a01b0316826001600160a01b03167f4a39dc06d4c0dbc64b70af90fd698a233a518aa5d07e595d983b8c0526c8f7fb8787604051808060200180602001838103835285818151815260200191508051906020019060200280838360005b83811015610bab578181015183820152602001610b93565b50505050905001838103825284818151815260200191508051906020019060200280838360005b83811015610bea578181015183820152602001610bd2565b5050505090500194505050505060405180910390a461090f818787878787612651565b60608151835114610c4f5760405162461bcd60e51b815260040180806020018281038252602981526020018061530d6029913960400191505060405180910390fd5b6000835167ffffffffffffffff81118015610c6957600080fd5b50604051908082528060200260200182016040528015610c93578160200160208202803683370190505b50905060005b8451811015610cf157610cd2858281518110610cb157fe5b6020026020010151858381518110610cc557fe5b602002602001015161045b565b828281518110610cde57fe5b6020908102919091010152600101610c99565b509392505050565b610d01611bc2565b6001600160a01b0316610d12611146565b6001600160a01b031614610d6d576040805162461bcd60e51b815260206004820181905260248201527f4f776e61626c653a2063616c6c6572206973206e6f7420746865206f776e6572604482015290519081900360640190fd5b8051825114610d8e5760405162461bcd60e51b815260040161075990614ef5565b60005b8251811015610e12576000838281518110610da857fe5b6020026020010151905060006001600160a01b0316816001600160a01b03161415610de55760405162461bcd60e51b815260040161075990614d96565b6000838381518110610df357fe5b60200260200101519050610e0886838361058d565b5050600101610d91565b50505050565b610e20611bc2565b6001600160a01b0316610e31611146565b6001600160a01b031614610e8c576040805162461bcd60e51b815260206004820181905260248201527f4f776e61626c653a2063616c6c6572206973206e6f7420746865206f776e6572604482015290519081900360640190fd5b610e95816128e9565b50565b610ea0611bc2565b6001600160a01b0316836001600160a01b03161480610ec65750610ec68361040a611bc2565b610f015760405162461bcd60e51b81526004018080602001828103825260298152602001806151a56029913960400191505060405180910390fd5b61060c8383836128fd565b61012f8054604080516020601f6002600019610100600188161502019095169490940493840181900481028201810190925282815260609390929091830182828015610f995780601f10610f6e57610100808354040283529160200191610f99565b820191906000526020600020905b815481529060010190602001808311610f7c57829003601f168201915b505050505090505b90565b610fac611bc2565b6001600160a01b0316610fbd611146565b6001600160a01b031614611018576040805162461bcd60e51b815260206004820181905260248201527f4f776e61626c653a2063616c6c6572206973206e6f7420746865206f776e6572604482015290519081900360640190fd5b6033546040516000916001600160a01b0316907f8be0079c531659141344cd1fd0a4f28419497f9722a3daafe3b4186f6b6457e0908390a3603380546001600160a01b0319169055565b60606101fb6000838152602001908152602001600020805480602002602001604051908101604052809291908181526020016000905b828210156110ec57600084815260209081902060408051808201909152908401546001600160a01b0381168252600160a01b90046bffffffffffffffffffffffff1681830152825260019092019101611098565b505050509050919050565b6101fa602052816000526040600020818154811061111457600080fd5b6000918252602090912001546001600160a01b0381169250600160a01b90046bffffffffffffffffffffffff16905082565b6033546001600160a01b031690565b61115d611bc2565b6001600160a01b031661116e611146565b6001600160a01b0316146111c9576040805162461bcd60e51b815260206004820181905260248201527f4f776e61626c653a2063616c6c6572206973206e6f7420746865206f776e6572604482015290519081900360640190fd5b610e9581612b6b565b610263805460408051602060026001851615610100026000190190941693909304601f810184900484028201840190925281815292918301828280156105745780601f1061054957610100808354040283529160200191610574565b6101fb602052816000526040600020818154811061111457600080fd5b600054610100900460ff16806112645750611264612b7f565b80611272575060005460ff16155b6112ad5760405162461bcd60e51b815260040180806020018281038252602e815260200180615247602e913960400191505060405180910390fd5b600054610100900460ff161580156112d8576000805460ff1961ff0019909116610100171660011790555b6112e0612b90565b6112e8612c89565b6112f0612d53565b6112f8612e09565b611300612ea9565b61131860405180602001604052806000815250612faa565b611321836130a7565b611329612e09565b611331613172565b61133b8686613228565b611344846128e9565b61134f826001611dba565b7f630c3520bebe920390fcfcb48ef2e0bde326ef10f85761c5f708d1ccebf6ba73611378611bc2565b878760405161138993929190614bec565b60405180910390a1801561090f576000805461ff0019169055505050505050565b816001600160a01b03166113bc611bc2565b6001600160a01b031614156114025760405162461bcd60e51b81526004018080602001828103825260298152602001806152e46029913960400191505060405180910390fd5b806098600061140f611bc2565b6001600160a01b03908116825260208083019390935260409182016000908120918716808252919093529120805460ff191692151592909217909155611453611bc2565b6001600160a01b03167f17307eab39ab6107e8899845ad3d59bd9653f200f220920489ca2b5937696c318360405180821515815260200191505060405180910390a35050565b60008181526101fa602090815260408083208054825181850281018501909352808352606094929391929091840182156110ec57600084815260209081902060408051808201909152908401546001600160a01b0381168252600160a01b90046bffffffffffffffffffffffff1681830152825260019092019101611098565b6060610587826132f5565b816001600160a01b0316611536611bc2565b6001600160a01b03161461155c5760405162461bcd60e51b815260040161075990614d5f565b61060c838383613397565b610230805460408051602060026001851615610100026000190190941693909304601f810184900484028201840190925281815292918301828280156105745780601f1061054957610100808354040283529160200191610574565b60006115cf8383613443565b9392505050565b6001600160a01b03841661161b5760405162461bcd60e51b81526004018080602001828103825260258152602001806151f06025913960400191505060405180910390fd5b611623611bc2565b6001600160a01b0316856001600160a01b0316148061164957506116498561040a611bc2565b6116845760405162461bcd60e51b81526004018080602001828103825260298152602001806151a56029913960400191505060405180910390fd5b600061168e611bc2565b90506116ae81878761169f8861346f565b6116a88861346f565b8761090f565b6116f5836040518060600160405280602a81526020016152ba602a913960008781526097602090815260408083206001600160a01b038d1684529091529020549190612560565b60008581526097602090815260408083206001600160a01b038b8116855292528083209390935587168152205461172c90846125f7565b60008581526097602090815260408083206001600160a01b03808b168086529184529382902094909455805188815291820187905280518a8416938616927fc3d58168c5ae7397731d063d5bbf3d657854427343f4c083240f7aacaa2d0f6292908290030190a461090f8187878787876134b4565b6117a9611bc2565b6001600160a01b03166117ba611146565b6001600160a01b031614611815576040805162461bcd60e51b815260206004820181905260248201527f4f776e61626c653a2063616c6c6572206973206e6f7420746865206f776e6572604482015290519081900360640190fd5b6001600160a01b03811661185a5760405162461bcd60e51b815260040180806020018281038252602681526020018061515b6026913960400191505060405180910390fd5b6033546040516001600160a01b038084169216907f8be0079c531659141344cd1fd0a4f28419497f9722a3daafe3b4186f6b6457e090600090a3603380546001600160a01b0319166001600160a01b0392909216919091179055565b6118be611bc2565b6001600160a01b0316836001600160a01b031614806118e457506118e48361040a611bc2565b61191f5760405162461bcd60e51b81526004018080602001828103825260298152602001806151a56029913960400191505060405180910390fd5b61060c83838361363e565b600061193a84866000015161045b565b905081811561197457828083101561194f5750815b61196f8686896000015184604051806020016040528060008152506115d6565b830390505b801561090f5761090f86858361058d565b600081815261012e6020908152604080832080548251601f6002600019610100600186161502019093169290920491820185900485028101850190935280835260609493830182828015611a1a5780601f106119ef57610100808354040283529160200191611a1a565b820191906000526020600020905b8154815290600101906020018083116119fd57829003601f168201915b505050505090506000611a2b610f0c565b9050805160001415611a3f575090506104e8565b815115611b005780826040516020018083805190602001908083835b60208310611a7a5780518252601f199092019160209182019101611a5b565b51815160209384036101000a600019018019909216911617905285519190930192850191508083835b60208310611ac25780518252601f199092019160209182019101611aa3565b6001836020036101000a03801982511681845116808217855250505050505090500192505050604051602081830303815290604052925050506104e8565b80611b0a85613771565b6040516020018083805190602001908083835b60208310611b3c5780518252601f199092019160209182019101611b1d565b51815160209384036101000a600019018019909216911617905285519190930192850191508083835b60208310611b845780518252601f199092019160209182019101611b65565b6001836020036101000a0380198251168184511680821785525050505050509050019250505060405160208183030381529060405292505050919050565b3390565b825160601c6000611bd5611bc2565b9050806001600160a01b0316826001600160a01b03161480611bfc5750611bfc82826115c3565b611c185760405162461bcd60e51b815260040161075990614e2a565b60008311611c385760405162461bcd60e51b815260040161075990614df3565b845160009081526101fc6020526040902054611d94578460600151600081518110611c5f57fe5b6020026020010151600001516001600160a01b0316826001600160a01b031614611c9b5760405162461bcd60e51b815260040161075990614d28565b6000856040015111611cbf5760405162461bcd60e51b815260040161075990614cbc565b8460a001515185606001515114611cd557600080fd5b6000611ce086611e2d565b905060005b866060015151811015611d4957600087606001518281518110611d0457fe5b6020026020010151600001519050836001600160a01b0316816001600160a01b031614611d4057611d4081848a60a00151858151811061088357fe5b50600101611ce5565b50611d5c8660000151876040015161208d565b611d6e866000015187608001516120f7565b611d8086600001518760600151612287565b611d9286600001518760200151612444565b505b611db38486600001518560405180602001604052806000815250612554565b5050505050565b6001600160a01b038216600081815260c96020908152604091829020805460ff1916851515908117909155825190815291517f270dbb8ba4292910ae92862466486be25c355c837270a3d8824b36a8bc7c653b9281900390910190a25050565b60009081526101fc602052604090205490565b60008082608001515167ffffffffffffffff81118015611e4c57600080fd5b50604051908082528060200260200182016040528015611e76578160200160208202803683370190505b50905060005b836080015151811015611ec857611ea984608001518281518110611e9c57fe5b6020026020010151613880565b828281518110611eb557fe5b6020908102919091010152600101611e7c565b50600083606001515167ffffffffffffffff81118015611ee757600080fd5b50604051908082528060200260200182016040528015611f11578160200160208202803683370190505b50905060005b846060015151811015611f5657611f3785606001518281518110611e9c57fe5b828281518110611f4357fe5b6020908102919091010152600101611f17565b507ffb988707ebb338694f318760b0fd5cfe756d00a2ade251fda110b80c336a3c7f846000015185604001518660200151805190602001208460405160200180828051906020019060200280838360005b83811015611fbf578181015183820152602001611fa7565b50505050905001915050604051602081830303815290604052805190602001208660405160200180828051906020019060200280838360005b83811015612010578181015183820152602001611ff8565b50505050905001915050604051602081830303815290604052805190602001206040516020018087815260200186815260200185815260200184815260200183815260200182815260200196505050505050506040516020818303038152906040528051906020012092505050919050565b61060c8383836138f2565b60008281526101fc6020526040902054156120a757600080fd5b60008281526101fc6020526040908190208290555182907f5e2aa66efd74cce82b21852e317e5490d9ecc9e6bb953ae24d90851258cc2f5c906120eb908490614faf565b60405180910390a25050565b60005b815181101561227c5760006001600160a01b031682828151811061211a57fe5b6020026020010151600001516001600160a01b03161415612182576040805162461bcd60e51b815260206004820152601b60248201527f526563697069656e742073686f756c642062652070726573656e740000000000604482015290519081900360640190fd5b81818151811061218e57fe5b6020026020010151602001516bffffffffffffffffffffffff16600014156121fd576040805162461bcd60e51b815260206004820181905260248201527f526f79616c74792076616c75652073686f756c6420626520706f736974697665604482015290519081900360640190fd5b60008381526101fa60205260409020825183908390811061221a57fe5b60209081029190910181015182546001818101855560009485529383902082519101805492909301516bffffffffffffffffffffffff16600160a01b026001600160a01b039182166001600160a01b03199093169290921716179055016120fa565b5061068f8282613b43565b60008281526101fb6020526040812090805b83518110156123e45760006001600160a01b03168482815181106122b957fe5b6020026020010151600001516001600160a01b031614156122ec5760405162461bcd60e51b815260040161075990614ebe565b8381815181106122f857fe5b6020026020010151602001516bffffffffffffffffffffffff16600014156123325760405162461bcd60e51b815260040161075990614cf3565b8284828151811061233f57fe5b602090810291909101810151825460018101845560009384529282902081519301805491909201516bffffffffffffffffffffffff16600160a01b026001600160a01b039384166001600160a01b03199092169190911790921691909117905583516123da908590839081106123b157fe5b6020026020010151602001516bffffffffffffffffffffffff16836125f790919063ffffffff16565b9150600101612299565b5080612710146124065760405162461bcd60e51b815260040161075990614f52565b837f841ffb90d4cabdd1f16034f3fa831d79060febbb8167bdd54a49269365bdf78f846040516124369190614c47565b60405180910390a250505050565b600082815261012e60209081526040909120825161246492840190614192565b50817f6bb7ff708619ba0610cba295a58592e0451dee2622938c8755667688daf3529b61249084611985565b6040805160208082528351818301528351919283929083019185019080838360005b838110156124ca5781810151838201526020016124b2565b50505050905090810190601f1680156124f75780820380516001836020036101000a031916815260200191505b509250505060405180910390a25050565b600082815261029660209081526040909120825161252892840190614192565b50817fa595484f343d9669f13f28cff734012d5ea0924a2ec5440aa2c2833751c9a288612490846132f5565b610e1284848484613b80565b600081848411156125ef5760405162461bcd60e51b81526004018080602001828103825283818151815260200191508051906020019080838360005b838110156125b457818101518382015260200161259c565b50505050905090810190601f1680156125e15780820380516001836020036101000a031916815260200191505b509250505060405180910390fd5b505050900390565b6000828201838110156115cf576040805162461bcd60e51b815260206004820152601b60248201527f536166654d6174683a206164646974696f6e206f766572666c6f770000000000604482015290519081900360640190fd5b612663846001600160a01b0316613beb565b1561090f57836001600160a01b031663bc197c8187878686866040518663ffffffff1660e01b815260040180866001600160a01b03168152602001856001600160a01b03168152602001806020018060200180602001848103845287818151815260200191508051906020019060200280838360005b838110156126f15781810151838201526020016126d9565b50505050905001848103835286818151815260200191508051906020019060200280838360005b83811015612730578181015183820152602001612718565b50505050905001848103825285818151815260200191508051906020019080838360005b8381101561276c578181015183820152602001612754565b50505050905090810190601f1680156127995780820380516001836020036101000a031916815260200191505b5098505050505050505050602060405180830381600087803b1580156127be57600080fd5b505af19250505080156127e357506040513d60208110156127de57600080fd5b505160015b612878576127ef615019565b806127fa5750612841565b60405162461bcd60e51b81526020600482018181528351602484015283518493919283926044019190850190808383600083156125b457818101518382015260200161259c565b60405162461bcd60e51b81526004018080602001828103825260348152602001806150d46034913960400191505060405180910390fd5b6001600160e01b031981167fbc197c8100000000000000000000000000000000000000000000000000000000146128e05760405162461bcd60e51b81526004018080602001828103825260288152602001806151086028913960400191505060405180910390fd5b50505050505050565b805161068f9061012f906020840190614192565b6001600160a01b0383166129425760405162461bcd60e51b81526004018080602001828103825260238152602001806152976023913960400191505060405180910390fd5b80518251146129825760405162461bcd60e51b81526004018080602001828103825260288152602001806153366028913960400191505060405180910390fd5b600061298c611bc2565b90506129ac8185600086866040518060200160405280600081525061090f565b60005b8351811015612a8a57612a418382815181106129c757fe5b602002602001015160405180606001604052806024815260200161518160249139609760008886815181106129f857fe5b602002602001015181526020019081526020016000206000896001600160a01b03166001600160a01b03168152602001908152602001600020546125609092919063ffffffff16565b60976000868481518110612a5157fe5b602090810291909101810151825281810192909252604090810160009081206001600160a01b038a1682529092529020556001016129af565b5060006001600160a01b0316846001600160a01b0316826001600160a01b03167f4a39dc06d4c0dbc64b70af90fd698a233a518aa5d07e595d983b8c0526c8f7fb8686604051808060200180602001838103835285818151815260200191508051906020019060200280838360005b83811015612b11578181015183820152602001612af9565b50505050905001838103825284818151815260200191508051906020019060200280838360005b83811015612b50578181015183820152602001612b38565b5050505090500194505050505060405180910390a450505050565b805161068f90610230906020840190614192565b6000612b8a30613beb565b15905090565b600054610100900460ff1680612ba95750612ba9612b7f565b80612bb7575060005460ff16155b612bf25760405162461bcd60e51b815260040180806020018281038252602e815260200180615247602e913960400191505060405180910390fd5b600054610100900460ff16158015612c1d576000805460ff1961ff0019909116610100171660011790555b6000612c27611bc2565b603380546001600160a01b0319166001600160a01b038316908117909155604051919250906000907f8be0079c531659141344cd1fd0a4f28419497f9722a3daafe3b4186f6b6457e0908290a3508015610e95576000805461ff001916905550565b600054610100900460ff1680612ca25750612ca2612b7f565b80612cb0575060005460ff16155b612ceb5760405162461bcd60e51b815260040180806020018281038252602e815260200180615247602e913960400191505060405180910390fd5b600054610100900460ff16158015612d16576000805460ff1961ff0019909116610100171660011790555b612d3f7f6db15a0f00000000000000000000000000000000000000000000000000000000613bf1565b8015610e95576000805461ff001916905550565b600054610100900460ff1680612d6c5750612d6c612b7f565b80612d7a575060005460ff16155b612db55760405162461bcd60e51b815260040180806020018281038252602e815260200180615247602e913960400191505060405180910390fd5b600054610100900460ff16158015612de0576000805460ff1961ff0019909116610100171660011790555b612d3f7f01ffc9a700000000000000000000000000000000000000000000000000000000613bf1565b600054610100900460ff1680612e225750612e22612b7f565b80612e30575060005460ff16155b612e6b5760405162461bcd60e51b815260040180806020018281038252602e815260200180615247602e913960400191505060405180910390fd5b600054610100900460ff16158015612d3f576000805460ff1961ff0019909116610100171660011790558015610e95576000805461ff001916905550565b600054610100900460ff1680612ec25750612ec2612b7f565b80612ed0575060005460ff16155b612f0b5760405162461bcd60e51b815260040180806020018281038252602e815260200180615247602e913960400191505060405180910390fd5b600054610100900460ff16158015612f36576000805460ff1961ff0019909116610100171660011790555b612d3f6040518060400160405280600881526020017f4d696e74313135350000000000000000000000000000000000000000000000008152506040518060400160405280600181526020017f3100000000000000000000000000000000000000000000000000000000000000815250613c75565b600054610100900460ff1680612fc35750612fc3612b7f565b80612fd1575060005460ff16155b61300c5760405162461bcd60e51b815260040180806020018281038252602e815260200180615247602e913960400191505060405180910390fd5b600054610100900460ff16158015613037576000805460ff1961ff0019909116610100171660011790555b61304082613d37565b6130697fd9b67a2600000000000000000000000000000000000000000000000000000000613bf1565b6130927f0e89341c00000000000000000000000000000000000000000000000000000000613bf1565b801561068f576000805461ff00191690555050565b600054610100900460ff16806130c057506130c0612b7f565b806130ce575060005460ff16155b6131095760405162461bcd60e51b815260040180806020018281038252602e815260200180615247602e913960400191505060405180910390fd5b600054610100900460ff16158015613134576000805460ff1961ff0019909116610100171660011790555b815161314890610230906020850190614192565b506130927fe8a3d48500000000000000000000000000000000000000000000000000000000613bf1565b600054610100900460ff168061318b575061318b612b7f565b80613199575060005460ff16155b6131d45760405162461bcd60e51b815260040180806020018281038252602e815260200180615247602e913960400191505060405180910390fd5b600054610100900460ff161580156131ff576000805460ff1961ff0019909116610100171660011790555b612d3f7f44c74bcc00000000000000000000000000000000000000000000000000000000613bf1565b600054610100900460ff16806132415750613241612b7f565b8061324f575060005460ff16155b61328a5760405162461bcd60e51b815260040180806020018281038252602e815260200180615247602e913960400191505060405180910390fd5b600054610100900460ff161580156132b5576000805460ff1961ff0019909116610100171660011790555b82516132c990610262906020860190614192565b5081516132de90610263906020850190614192565b50801561060c576000805461ff0019169055505050565b60008181526102966020908152604080832080548251601f600260001961010060018616150201909316929092049182018590048502810185019093528083526060949383018282801561338a5780601f1061335f5761010080835404028352916020019161338a565b820191906000526020600020905b81548152906001019060200180831161336d57829003601f168201915b5093979650505050505050565b60008381526101fa6020526040812054905b81811015611db35760008581526101fa6020526040902080546001600160a01b0386169190839081106133d857fe5b6000918252602090912001546001600160a01b0316141561343b5760008581526101fa6020526040902080548491908390811061341157fe5b600091825260209091200180546001600160a01b0319166001600160a01b03929092169190911790555b6001016133a9565b6001600160a01b038116600090815260c9602052604081205460ff16806115cf57506115cf8383613d4a565b604080516001808252818301909252606091600091906020808301908036833701905050905082816000815181106134a357fe5b602090810291909101015292915050565b6134c6846001600160a01b0316613beb565b1561090f57836001600160a01b031663f23a6e6187878686866040518663ffffffff1660e01b815260040180866001600160a01b03168152602001856001600160a01b0316815260200184815260200183815260200180602001828103825283818151815260200191508051906020019080838360005b8381101561355557818101518382015260200161353d565b50505050905090810190601f1680156135825780820380516001836020036101000a031916815260200191505b509650505050505050602060405180830381600087803b1580156135a557600080fd5b505af19250505080156135ca57506040513d60208110156135c557600080fd5b505160015b6135d6576127ef615019565b6001600160e01b031981167ff23a6e6100000000000000000000000000000000000000000000000000000000146128e05760405162461bcd60e51b81526004018080602001828103825260288152602001806151086028913960400191505060405180910390fd5b6001600160a01b0383166136835760405162461bcd60e51b81526004018080602001828103825260238152602001806152976023913960400191505060405180910390fd5b600061368d611bc2565b90506136bd8185600061369f8761346f565b6136a88761346f565b6040518060200160405280600081525061090f565b613704826040518060600160405280602481526020016151816024913960008681526097602090815260408083206001600160a01b038b1684529091529020549190612560565b60008481526097602090815260408083206001600160a01b03808a16808652918452828520959095558151888152928301879052815193949093908616927fc3d58168c5ae7397731d063d5bbf3d657854427343f4c083240f7aacaa2d0f6292908290030190a450505050565b6060816137b2575060408051808201909152600181527f300000000000000000000000000000000000000000000000000000000000000060208201526104e8565b8160005b81156137ca57600101600a820491506137b6565b60008167ffffffffffffffff811180156137e357600080fd5b506040519080825280601f01601f19166020018201604052801561380e576020820181803683370190505b50859350905060001982015b831561387757600a840660300160f81b8282806001900393508151811061383d57fe5b60200101907effffffffffffffffffffffffffffffffffffffffffffffffffffffffffffff1916908160001a905350600a8404935061381a565b50949350505050565b8051602091820151604080517f397e04204c1e1a60ee8724b71f8244e10ab5f2e9009854d80f602bda21b59ebb818601526001600160a01b03909316838201526bffffffffffffffffffffffff9091166060808401919091528151808403909101815260809092019052805191012090565b60006138fd83613d78565b9050613911846001600160a01b0316613beb565b15613aa357604080517f1626ba7e00000000000000000000000000000000000000000000000000000000808252600482018481526024830193845285516044840152855191936001600160a01b03891693631626ba7e938793899390929091606490910190602085019080838360005b83811015613999578181015183820152602001613981565b50505050905090810190601f1680156139c65780820380516001836020036101000a031916815260200191505b50935050505060206040518083038186803b1580156139e457600080fd5b505afa1580156139f8573d6000803e3d6000fd5b505050506040513d6020811015613a0e57600080fd5b505160408051808201909152601c81527f7369676e617475726520766572696669636174696f6e206572726f72000000006020820152916001600160e01b031990911614613a9d5760405162461bcd60e51b81526020600482018181528351602484015283519092839260449091019190850190808383600083156125b457818101518382015260200161259c565b50610e12565b6001600160a01b038416613ab78284613ddf565b6001600160a01b0316146040518060400160405280601c81526020017f7369676e617475726520766572696669636174696f6e206572726f720000000081525090611db35760405162461bcd60e51b81526020600482018181528351602484015283519092839260449091019190850190808383600083156125b457818101518382015260200161259c565b7f3fa96d7b6bcbfe71ef171666d84db3cf52fa2d1c8afdb1cc8e486177f208b7df8282604051613b74929190614fb8565b60405180910390a15050565b60008381526101fd6020526040812054613b9b9084906125f7565b60008581526101fc6020526040902054909150811115613bcd5760405162461bcd60e51b815260040161075990614e87565b60008481526101fd60205260409020819055611db385858585613e5f565b3b151590565b6001600160e01b03198082161415613c50576040805162461bcd60e51b815260206004820152601c60248201527f4552433136353a20696e76616c696420696e7465726661636520696400000000604482015290519081900360640190fd5b6001600160e01b0319166000908152606560205260409020805460ff19166001179055565b600054610100900460ff1680613c8e5750613c8e612b7f565b80613c9c575060005460ff16155b613cd75760405162461bcd60e51b815260040180806020018281038252602e815260200180615247602e913960400191505060405180910390fd5b600054610100900460ff16158015613d02576000805460ff1961ff0019909116610100171660011790555b82516020808501919091208351918401919091206101629190915561016355801561060c576000805461ff0019169055505050565b805161068f906099906020840190614192565b6001600160a01b03918216600090815260986020908152604080832093909416825291909152205460ff1690565b6000613d82613f60565b8260405160200180807f190100000000000000000000000000000000000000000000000000000000000081525060020183815260200182815260200192505050604051602081830303815290604052805190602001209050919050565b60008151604114613e37576040805162461bcd60e51b815260206004820152601f60248201527f45434453413a20696e76616c6964207369676e6174757265206c656e67746800604482015290519081900360640190fd5b60208201516040830151606084015160001a613e5586828585613fa0565b9695505050505050565b6001600160a01b038416613ea45760405162461bcd60e51b815260040180806020018281038252602181526020018061535e6021913960400191505060405180910390fd5b6000613eae611bc2565b9050613ec08160008761169f8861346f565b60008481526097602090815260408083206001600160a01b0389168452909152902054613eed90846125f7565b60008581526097602090815260408083206001600160a01b03808b16808652918452828520959095558151898152928301889052815190948616927fc3d58168c5ae7397731d063d5bbf3d657854427343f4c083240f7aacaa2d0f6292908290030190a4611db3816000878787876134b4565b6000613f9b7f8b73c3c69bb8fe3d512ecc4cf759cc79239f7b179b0ffacaa9a75d522b39400f613f8e61411e565b613f96614125565b61412c565b905090565b60007f7fffffffffffffffffffffffffffffff5d576e7357a4501ddfe92f46681b20a08211156140015760405162461bcd60e51b81526004018080602001828103825260228152602001806151ce6022913960400191505060405180910390fd5b8360ff16601b148061401657508360ff16601c145b6140515760405162461bcd60e51b81526004018080602001828103825260228152602001806152756022913960400191505060405180910390fd5b600060018686868660405160008152602001604052604051808581526020018460ff1681526020018381526020018281526020019450505050506020604051602081039080840390855afa1580156140ad573d6000803e3d6000fd5b5050604051601f1901519150506001600160a01b038116614115576040805162461bcd60e51b815260206004820152601860248201527f45434453413a20696e76616c6964207369676e61747572650000000000000000604482015290519081900360640190fd5b95945050505050565b6101625490565b6101635490565b600083838361413961418e565b3060405160200180868152602001858152602001848152602001838152602001826001600160a01b03168152602001955050505050506040516020818303038152906040528051906020012090509392505050565b4690565b828054600181600116156101000203166002900490600052602060002090601f0160209004810192826141c8576000855561420e565b82601f106141e157805160ff191683800117855561420e565b8280016001018555821561420e579182015b8281111561420e5782518255916020019190600101906141f3565b5061421a92915061421e565b5090565b5b8082111561421a576000815560010161421f565b600082601f830112614243578081fd5b8135602061425861425383614ff5565b614fd1565b8281528181019085830183850287018401881015614274578586fd5b855b8581101561429b578135614289816150be565b84529284019290840190600101614276565b5090979650505050505050565b600082601f8301126142b8578081fd5b813560206142c861425383614ff5565b82815281810190858301855b8581101561429b576142eb898684358b0101614418565b845292840192908401906001016142d4565b600082601f83011261430d578081fd5b8135602061431d61425383614ff5565b8281528181019085830160408086028801850189101561433b578687fd5b865b868110156143b05781838b031215614353578788fd5b815182810181811067ffffffffffffffff8211171561436e57fe5b8352833561437b816150be565b8152838701356bffffffffffffffffffffffff8116811461439a57898afd5b818801528552938501939181019160010161433d565b509198975050505050505050565b600082601f8301126143ce578081fd5b813560206143de61425383614ff5565b82815281810190858301838502870184018810156143fa578586fd5b855b8581101561429b578135845292840192908401906001016143fc565b600082601f830112614428578081fd5b813567ffffffffffffffff81111561443c57fe5b61444f601f8201601f1916602001614fd1565b818152846020838601011115614463578283fd5b816020850160208301379081016020019190915292915050565b600060c0828403121561448e578081fd5b61449860c0614fd1565b905081358152602082013567ffffffffffffffff808211156144b957600080fd5b6144c585838601614418565b60208401526040840135604084015260608401359150808211156144e857600080fd5b6144f4858386016142fd565b6060840152608084013591508082111561450d57600080fd5b614519858386016142fd565b608084015260a084013591508082111561453257600080fd5b5061453f848285016142a8565b60a08301525092915050565b60006020828403121561455c578081fd5b81356115cf816150be565b60008060408385031215614579578081fd5b8235614584816150be565b91506020830135614594816150be565b809150509250929050565b600080600080600060a086880312156145b6578081fd5b85356145c1816150be565b945060208601356145d1816150be565b9350604086013567ffffffffffffffff808211156145ed578283fd5b6145f989838a016143be565b9450606088013591508082111561460e578283fd5b61461a89838a016143be565b9350608088013591508082111561462f578283fd5b5061463c88828901614418565b9150509295509295909350565b600080600080600060a08688031215614660578283fd5b853561466b816150be565b9450602086013561467b816150be565b93506040860135925060608601359150608086013567ffffffffffffffff8111156146a4578182fd5b61463c88828901614418565b6000806000606084860312156146c4578081fd5b83356146cf816150be565b9250602084013567ffffffffffffffff808211156146eb578283fd5b6146f7878388016143be565b9350604086013591508082111561470c578283fd5b50614719868287016143be565b9150509250925092565b60008060408385031215614735578182fd5b8235614740816150be565b915060208301358015158114614594578182fd5b60008060408385031215614766578182fd5b8235614771816150be565b946020939093013593505050565b600080600060608486031215614793578081fd5b833561479e816150be565b95602085013595506040909401359392505050565b600080604083850312156147c5578182fd5b823567ffffffffffffffff808211156147dc578384fd5b6147e886838701614233565b935060208501359150808211156147fd578283fd5b5061480a858286016143be565b9150509250929050565b600060208284031215614825578081fd5b81356001600160e01b0319811681146115cf578182fd5b60006020828403121561484d578081fd5b813567ffffffffffffffff811115614863578182fd5b61486f84828501614418565b949350505050565b600080600080600060a0868803121561488e578283fd5b853567ffffffffffffffff808211156148a5578485fd5b6148b189838a01614418565b965060208801359150808211156148c6578485fd5b6148d289838a01614418565b955060408801359150808211156148e7578485fd5b6148f389838a01614418565b94506060880135915080821115614908578283fd5b5061491588828901614418565b9250506080860135614926816150be565b809150509295509295909350565b60008060008060808587031215614949578182fd5b843567ffffffffffffffff81111561495f578283fd5b61496b8782880161447d565b945050602085013561497c816150be565b9250604085013561498c816150be565b9396929550929360600135925050565b6000806000606084860312156149b0578081fd5b833567ffffffffffffffff8111156149c6578182fd5b6149d28682870161447d565b93505060208401356149e3816150be565b929592945050506040919091013590565b600080600060608486031215614a08578081fd5b833567ffffffffffffffff80821115614a1f578283fd5b614a2b8783880161447d565b94506020860135915080821115614a40578283fd5b6146f787838801614233565b60008060008060808587031215614a61578182fd5b843567ffffffffffffffff80821115614a78578384fd5b614a848883890161447d565b95506020870135915080821115614a99578384fd5b50614aa687828801614418565b935050604085013561498c816150be565b600060208284031215614ac8578081fd5b5035919050565b600080600060608486031215614ae3578081fd5b833592506020840135614af5816150be565b91506040840135614b05816150be565b809150509250925092565b60008060408385031215614b22578182fd5b50508035926020909101359150565b6000815180845260208085019450808401835b83811015614b8257815180516001600160a01b031688528301516bffffffffffffffffffffffff168388015260409096019590820190600101614b44565b509495945050505050565b60008151808452815b81811015614bb257602081850181015186830182015201614b96565b81811115614bc35782602083870101525b50601f01601f19169290920160200192915050565b6001600160a01b0391909116815260200190565b60006001600160a01b038516825260606020830152614c0e6060830185614b8d565b8281036040840152613e558185614b8d565b6001600160a01b039290921682526bffffffffffffffffffffffff16602082015260400190565b6000602082526115cf6020830184614b31565b6020808252825182820181905260009190848201906040850190845b81811015614c9257835183529284019291840191600101614c76565b50909695505050505050565b901515815260200190565b6000602082526115cf6020830184614b8d565b60208082526010908201527f737570706c7920696e636f727265637400000000000000000000000000000000604082015260600190565b6020808252818101527f43726561746f722073686172652073686f756c6420626520706f736974697665604082015260600190565b60208082526011908201527f746f6b656e496420696e636f7272656374000000000000000000000000000000604082015260600190565b6020808252600b908201527f6e6f7420616c6c6f776564000000000000000000000000000000000000000000604082015260600190565b60208082526025908201527f455243313135353a207472616e7366657220746f20746865207a65726f20616460408201527f6472657373000000000000000000000000000000000000000000000000000000606082015260800190565b60208082526010908201527f616d6f756e7420696e636f727265637400000000000000000000000000000000604082015260600190565b60208082526028908201527f455243313135353a207472616e736665722063616c6c6572206973206e6f742060408201527f617070726f766564000000000000000000000000000000000000000000000000606082015260800190565b60208082526010908201527f6d6f7265207468616e20737570706c7900000000000000000000000000000000604082015260600190565b60208082526019908201527f4163636f756e742073686f756c642062652070726573656e7400000000000000604082015260600190565b6020808252602e908201527f455243313135353a2061646472657373657320616e6420616d6f756e7473206c60408201527f656e677468206d69736d61746368000000000000000000000000000000000000606082015260800190565b6020808252602e908201527f746f74616c20616d6f756e74206f662063726561746f7273207368617265207360408201527f686f756c64206265203130303030000000000000000000000000000000000000606082015260800190565b90815260200190565b60008382526040602083015261486f6040830184614b31565b60405181810167ffffffffffffffff81118282101715614fed57fe5b604052919050565b600067ffffffffffffffff82111561500957fe5b5060209081020190565b60e01c90565b600060443d101561502957610fa1565b600481823e6308c379a061503d8251615013565b1461504757610fa1565b6040513d600319016004823e80513d67ffffffffffffffff81602484011181841117156150775750505050610fa1565b828401925082519150808211156150915750505050610fa1565b503d830160208284010111156150a957505050610fa1565b601f01601f1916810160200160405291505090565b6001600160a01b0381168114610e9557600080fdfe455243313135353a207472616e7366657220746f206e6f6e2045524331313535526563656976657220696d706c656d656e746572455243313135353a204552433131353552656365697665722072656a656374656420746f6b656e73455243313135353a2062616c616e636520717565727920666f7220746865207a65726f20616464726573734f776e61626c653a206e6577206f776e657220697320746865207a65726f2061646472657373455243313135353a206275726e20616d6f756e7420657863656564732062616c616e6365455243313135353a2063616c6c6572206973206e6f74206f776e6572206e6f7220617070726f76656445434453413a20696e76616c6964207369676e6174757265202773272076616c7565455243313135353a207472616e7366657220746f20746865207a65726f2061646472657373455243313135353a207472616e736665722063616c6c6572206973206e6f74206f776e6572206e6f7220617070726f766564496e697469616c697a61626c653a20636f6e747261637420697320616c726561647920696e697469616c697a656445434453413a20696e76616c6964207369676e6174757265202776272076616c7565455243313135353a206275726e2066726f6d20746865207a65726f2061646472657373455243313135353a20696e73756666696369656e742062616c616e636520666f72207472616e73666572455243313135353a2073657474696e6720617070726f76616c2073746174757320666f722073656c66455243313135353a206163636f756e747320616e6420696473206c656e677468206d69736d61746368455243313135353a2069647320616e6420616d6f756e7473206c656e677468206d69736d61746368455243313135353a206d696e7420746f20746865207a65726f2061646472657373a2646970667358221220eb3d540498f244a549df346bafaeec966d9141efab5f5981c721a352da2d606a64736f6c63430007060033",
  "immutableReferences": {},
  "source": "// SPDX-License-Identifier: MIT\n\npragma solidity >=0.6.2 <0.8.0;\npragma abicoder v2;\n\nimport \"protocol-contracts/tokens/contracts/erc-1155/ERC1155Base.sol\";\n\nimport \"hardhat/console.sol\";\nimport \"./lib/ERC1155Image.sol\";\n\ncontract EcoFiHOERC1155 is ERC1155Base, ERC1155Image {\n    event CreateEcoFiERC1155(address owner, string name, string symbol);\n\n    function __EcoFiHOERC1155_init(string memory _name, string memory _symbol, string memory baseURI, string memory contractURI, address _address) external initializer {\n        __Ownable_init_unchained();\n        __ERC1155Lazy_init_unchained();\n        __ERC165_init_unchained();\n        __Context_init_unchained();\n        __Mint1155Validator_init_unchained();\n        __ERC1155_init_unchained(\"\");\n        __HasContractURI_init_unchained(contractURI);\n        __ERC1155Burnable_init_unchained();\n        __RoyaltiesV2Upgradeable_init_unchained();\n        __ERC1155Base_init_unchained(_name, _symbol);\n        _setBaseURI(baseURI);\n        _setDefaultApproval(_address, true); // set the contract deployer as approved\n        emit CreateEcoFiERC1155(_msgSender(), _name, _symbol);\n    }\n\n    function setBaseURI(string memory baseURI) public virtual onlyOwner {\n        _setBaseURI(baseURI);\n    }\n\n    function setContractURI(string memory contractURI) public virtual onlyOwner {\n        _setContractURI(contractURI);\n    }\n\n    function mintWithImage(LibERC1155LazyMint.Mint1155Data memory data, string memory image, address to, uint256 _amount) public virtual onlyOwner {\n        address minter = address(data.tokenId >> 96);\n        address sender = _msgSender();\n\n        require(minter == sender || isApprovedForAll(minter, sender), \"ERC1155: transfer caller is not approved\");\n        require(_amount > 0, \"amount incorrect\");\n\n        if (_getSupply(data.tokenId) == 0) {\n            require(minter == data.creators[0].account, \"tokenId incorrect\");\n            require(data.supply > 0, \"supply incorrect\");\n            require(data.creators.length == data.signatures.length);\n\n            bytes32 hash = LibERC1155LazyMint.hash(data);\n            for (uint i = 0; i < data.creators.length; i++) {\n                address creator = data.creators[i].account;\n                if (creator != sender) {\n                    validate(creator, hash, data.signatures[i]);\n                }\n            }\n\n            _saveSupply(data.tokenId, data.supply);\n            _saveRoyalties(data.tokenId, data.royalties);\n            _saveCreators(data.tokenId, data.creators);\n            _setTokenURI(data.tokenId, data.tokenURI);\n            _setTokenImage(data.tokenId, image);\n        }\n\n        _mint(to, data.tokenId, _amount, \"\");\n    }\n\n    function mintAndTransfer(LibERC1155LazyMint.Mint1155Data memory data, address to, uint256 _amount) public override onlyOwner {\n        super.mintAndTransfer(data, to, _amount);\n    }\n\n    function batchMintAndTransfer(LibERC1155LazyMint.Mint1155Data memory data, address[] memory tos, uint256[] memory _amounts) public onlyOwner {\n        require(tos.length == _amounts.length, \"ERC1155: addresses and amounts length mismatch\");      \n        for (uint256 i = 0; i < tos.length; ++i) {\n            address to = tos[i];\n            require(to != address(0), \"ERC1155: transfer to the zero address\");\n            uint256 _amount = _amounts[i];\n            mintAndTransfer(data, to, _amount);\n        }\n    }\n\n    uint256[50] private __gap;\n}\n",
  "sourcePath": "/Users/sreckosmodis/Documents/Projects/Ecofi/ecofi-contracts/contracts/EcoFiHOERC1155.sol",
  "compiler": {
    "name": "solc",
    "version": "0.7.6+commit.7338295f.Emscripten.clang"
  },
  "schemaVersion": "3.4.1",
  "updatedAt": "2022-03-22T08:36:40.444Z",
  "devdoc": {
    "kind": "dev",
    "methods": {
      "balanceOf(address,uint256)": {
        "details": "See {IERC1155-balanceOf}. Requirements: - `account` cannot be the zero address."
      },
      "balanceOfBatch(address[],uint256[])": {
        "details": "See {IERC1155-balanceOfBatch}. Requirements: - `accounts` and `ids` must have the same length."
      },
      "baseURI()": {
        "details": "Returns the base URI set via {_setBaseURI}. This will be automatically added as a prefix in {tokenURI} to each token's URI, or to the token ID if no specific URI is set for that token ID."
      },
      "owner()": {
        "details": "Returns the address of the current owner."
      },
      "renounceOwnership()": {
        "details": "Leaves the contract without owner. It will not be possible to call `onlyOwner` functions anymore. Can only be called by the current owner. NOTE: Renouncing ownership will leave the contract without an owner, thereby removing any functionality that is only available to the owner."
      },
      "safeBatchTransferFrom(address,address,uint256[],uint256[],bytes)": {
        "details": "See {IERC1155-safeBatchTransferFrom}."
      },
      "safeTransferFrom(address,address,uint256,uint256,bytes)": {
        "details": "See {IERC1155-safeTransferFrom}."
      },
      "setApprovalForAll(address,bool)": {
        "details": "See {IERC1155-setApprovalForAll}."
      },
      "supportsInterface(bytes4)": {
        "details": "See {IERC165-supportsInterface}. Time complexity O(1), guaranteed to always use less than 30 000 gas."
      },
      "transferOwnership(address)": {
        "details": "Transfers ownership of the contract to a new account (`newOwner`). Can only be called by the current owner."
      }
    },
    "version": 1
  },
  "userdoc": {
    "kind": "user",
    "methods": {},
    "version": 1
  }
}