{
  "contractName": "EcoFiCommunityERC1155",
  "abi": [
    {
      "anonymous": false,
      "inputs": [
        {
          "indexed": true,
          "internalType": "address",
          "name": "account",
          "type": "address"
        },
        {
          "indexed": true,
          "internalType": "address",
          "name": "operator",
          "type": "address"
        },
        {
          "indexed": false,
          "internalType": "bool",
          "name": "approved",
          "type": "bool"
        }
      ],
      "name": "ApprovalForAll",
      "type": "event"
    },
    {
      "anonymous": false,
      "inputs": [
        {
          "indexed": false,
          "internalType": "address",
          "name": "owner",
          "type": "address"
        },
        {
          "indexed": false,
          "internalType": "string",
          "name": "name",
          "type": "string"
        },
        {
          "indexed": false,
          "internalType": "string",
          "name": "symbol",
          "type": "string"
        }
      ],
      "name": "CreateEcoFiERC1155",
      "type": "event"
    },
    {
      "anonymous": false,
      "inputs": [
        {
          "indexed": true,
          "internalType": "uint256",
          "name": "tokenId",
          "type": "uint256"
        },
        {
          "components": [
            {
              "internalType": "address payable",
              "name": "account",
              "type": "address"
            },
            {
              "internalType": "uint96",
              "name": "value",
              "type": "uint96"
            }
          ],
          "indexed": false,
          "internalType": "struct LibPart.Part[]",
          "name": "creators",
          "type": "tuple[]"
        }
      ],
      "name": "Creators",
      "type": "event"
    },
    {
      "anonymous": false,
      "inputs": [
        {
          "indexed": true,
          "internalType": "address",
          "name": "operator",
          "type": "address"
        },
        {
          "indexed": false,
          "internalType": "bool",
          "name": "hasApproval",
          "type": "bool"
        }
      ],
      "name": "DefaultApproval",
      "type": "event"
    },
    {
      "anonymous": false,
      "inputs": [
        {
          "indexed": false,
          "internalType": "string",
          "name": "value",
          "type": "string"
        },
        {
          "indexed": true,
          "internalType": "uint256",
          "name": "id",
          "type": "uint256"
        }
      ],
      "name": "Image",
      "type": "event"
    },
    {
      "anonymous": false,
      "inputs": [
        {
          "indexed": true,
          "internalType": "address",
          "name": "previousOwner",
          "type": "address"
        },
        {
          "indexed": true,
          "internalType": "address",
          "name": "newOwner",
          "type": "address"
        }
      ],
      "name": "OwnershipTransferred",
      "type": "event"
    },
    {
      "anonymous": false,
      "inputs": [
        {
          "indexed": false,
          "internalType": "uint256",
          "name": "tokenId",
          "type": "uint256"
        },
        {
          "components": [
            {
              "internalType": "address payable",
              "name": "account",
              "type": "address"
            },
            {
              "internalType": "uint96",
              "name": "value",
              "type": "uint96"
            }
          ],
          "indexed": false,
          "internalType": "struct LibPart.Part[]",
          "name": "royalties",
          "type": "tuple[]"
        }
      ],
      "name": "RoyaltiesSet",
      "type": "event"
    },
    {
      "anonymous": false,
      "inputs": [
        {
          "indexed": true,
          "internalType": "uint256",
          "name": "tokenId",
          "type": "uint256"
        },
        {
          "indexed": false,
          "internalType": "uint256",
          "name": "value",
          "type": "uint256"
        }
      ],
      "name": "Supply",
      "type": "event"
    },
    {
      "anonymous": false,
      "inputs": [
        {
          "indexed": true,
          "internalType": "address",
          "name": "operator",
          "type": "address"
        },
        {
          "indexed": true,
          "internalType": "address",
          "name": "from",
          "type": "address"
        },
        {
          "indexed": true,
          "internalType": "address",
          "name": "to",
          "type": "address"
        },
        {
          "indexed": false,
          "internalType": "uint256[]",
          "name": "ids",
          "type": "uint256[]"
        },
        {
          "indexed": false,
          "internalType": "uint256[]",
          "name": "values",
          "type": "uint256[]"
        }
      ],
      "name": "TransferBatch",
      "type": "event"
    },
    {
      "anonymous": false,
      "inputs": [
        {
          "indexed": true,
          "internalType": "address",
          "name": "operator",
          "type": "address"
        },
        {
          "indexed": true,
          "internalType": "address",
          "name": "from",
          "type": "address"
        },
        {
          "indexed": true,
          "internalType": "address",
          "name": "to",
          "type": "address"
        },
        {
          "indexed": false,
          "internalType": "uint256",
          "name": "id",
          "type": "uint256"
        },
        {
          "indexed": false,
          "internalType": "uint256",
          "name": "value",
          "type": "uint256"
        }
      ],
      "name": "TransferSingle",
      "type": "event"
    },
    {
      "anonymous": false,
      "inputs": [
        {
          "indexed": false,
          "internalType": "string",
          "name": "value",
          "type": "string"
        },
        {
          "indexed": true,
          "internalType": "uint256",
          "name": "id",
          "type": "uint256"
        }
      ],
      "name": "URI",
      "type": "event"
    },
    {
      "inputs": [
        {
          "internalType": "address",
          "name": "account",
          "type": "address"
        },
        {
          "internalType": "uint256",
          "name": "id",
          "type": "uint256"
        }
      ],
      "name": "balanceOf",
      "outputs": [
        {
          "internalType": "uint256",
          "name": "",
          "type": "uint256"
        }
      ],
      "stateMutability": "view",
      "type": "function"
    },
    {
      "inputs": [
        {
          "internalType": "address[]",
          "name": "accounts",
          "type": "address[]"
        },
        {
          "internalType": "uint256[]",
          "name": "ids",
          "type": "uint256[]"
        }
      ],
      "name": "balanceOfBatch",
      "outputs": [
        {
          "internalType": "uint256[]",
          "name": "",
          "type": "uint256[]"
        }
      ],
      "stateMutability": "view",
      "type": "function"
    },
    {
      "inputs": [],
      "name": "baseURI",
      "outputs": [
        {
          "internalType": "string",
          "name": "",
          "type": "string"
        }
      ],
      "stateMutability": "view",
      "type": "function"
    },
    {
      "inputs": [
        {
          "internalType": "address",
          "name": "account",
          "type": "address"
        },
        {
          "internalType": "uint256",
          "name": "id",
          "type": "uint256"
        },
        {
          "internalType": "uint256",
          "name": "value",
          "type": "uint256"
        }
      ],
      "name": "burn",
      "outputs": [],
      "stateMutability": "nonpayable",
      "type": "function"
    },
    {
      "inputs": [
        {
          "internalType": "address",
          "name": "account",
          "type": "address"
        },
        {
          "internalType": "uint256[]",
          "name": "ids",
          "type": "uint256[]"
        },
        {
          "internalType": "uint256[]",
          "name": "values",
          "type": "uint256[]"
        }
      ],
      "name": "burnBatch",
      "outputs": [],
      "stateMutability": "nonpayable",
      "type": "function"
    },
    {
      "inputs": [],
      "name": "contractURI",
      "outputs": [
        {
          "internalType": "string",
          "name": "",
          "type": "string"
        }
      ],
      "stateMutability": "view",
      "type": "function"
    },
    {
      "inputs": [
        {
          "internalType": "uint256",
          "name": "",
          "type": "uint256"
        },
        {
          "internalType": "uint256",
          "name": "",
          "type": "uint256"
        }
      ],
      "name": "creators",
      "outputs": [
        {
          "internalType": "address payable",
          "name": "account",
          "type": "address"
        },
        {
          "internalType": "uint96",
          "name": "value",
          "type": "uint96"
        }
      ],
      "stateMutability": "view",
      "type": "function"
    },
    {
      "inputs": [
        {
          "internalType": "uint256",
          "name": "_id",
          "type": "uint256"
        }
      ],
      "name": "getCreators",
      "outputs": [
        {
          "components": [
            {
              "internalType": "address payable",
              "name": "account",
              "type": "address"
            },
            {
              "internalType": "uint96",
              "name": "value",
              "type": "uint96"
            }
          ],
          "internalType": "struct LibPart.Part[]",
          "name": "",
          "type": "tuple[]"
        }
      ],
      "stateMutability": "view",
      "type": "function"
    },
    {
      "inputs": [
        {
          "internalType": "uint256",
          "name": "id",
          "type": "uint256"
        }
      ],
      "name": "getRoyalties",
      "outputs": [
        {
          "components": [
            {
              "internalType": "address payable",
              "name": "account",
              "type": "address"
            },
            {
              "internalType": "uint96",
              "name": "value",
              "type": "uint96"
            }
          ],
          "internalType": "struct LibPart.Part[]",
          "name": "",
          "type": "tuple[]"
        }
      ],
      "stateMutability": "view",
      "type": "function"
    },
    {
      "inputs": [
        {
          "internalType": "uint256",
          "name": "id",
          "type": "uint256"
        }
      ],
      "name": "image",
      "outputs": [
        {
          "internalType": "string",
          "name": "",
          "type": "string"
        }
      ],
      "stateMutability": "view",
      "type": "function"
    },
    {
      "inputs": [
        {
          "internalType": "address",
          "name": "_owner",
          "type": "address"
        },
        {
          "internalType": "address",
          "name": "_operator",
          "type": "address"
        }
      ],
      "name": "isApprovedForAll",
      "outputs": [
        {
          "internalType": "bool",
          "name": "",
          "type": "bool"
        }
      ],
      "stateMutability": "view",
      "type": "function"
    },
    {
      "inputs": [
        {
          "components": [
            {
              "internalType": "uint256",
              "name": "tokenId",
              "type": "uint256"
            },
            {
              "internalType": "string",
              "name": "tokenURI",
              "type": "string"
            },
            {
              "internalType": "uint256",
              "name": "supply",
              "type": "uint256"
            },
            {
              "components": [
                {
                  "internalType": "address payable",
                  "name": "account",
                  "type": "address"
                },
                {
                  "internalType": "uint96",
                  "name": "value",
                  "type": "uint96"
                }
              ],
              "internalType": "struct LibPart.Part[]",
              "name": "creators",
              "type": "tuple[]"
            },
            {
              "components": [
                {
                  "internalType": "address payable",
                  "name": "account",
                  "type": "address"
                },
                {
                  "internalType": "uint96",
                  "name": "value",
                  "type": "uint96"
                }
              ],
              "internalType": "struct LibPart.Part[]",
              "name": "royalties",
              "type": "tuple[]"
            },
            {
              "internalType": "bytes[]",
              "name": "signatures",
              "type": "bytes[]"
            }
          ],
          "internalType": "struct LibERC1155LazyMint.Mint1155Data",
          "name": "data",
          "type": "tuple"
        },
        {
          "internalType": "address",
          "name": "to",
          "type": "address"
        },
        {
          "internalType": "uint256",
          "name": "_amount",
          "type": "uint256"
        }
      ],
      "name": "mintAndTransfer",
      "outputs": [],
      "stateMutability": "nonpayable",
      "type": "function"
    },
    {
      "inputs": [],
      "name": "name",
      "outputs": [
        {
          "internalType": "string",
          "name": "",
          "type": "string"
        }
      ],
      "stateMutability": "view",
      "type": "function"
    },
    {
      "inputs": [],
      "name": "owner",
      "outputs": [
        {
          "internalType": "address",
          "name": "",
          "type": "address"
        }
      ],
      "stateMutability": "view",
      "type": "function"
    },
    {
      "inputs": [],
      "name": "renounceOwnership",
      "outputs": [],
      "stateMutability": "nonpayable",
      "type": "function"
    },
    {
      "inputs": [
        {
          "internalType": "uint256",
          "name": "",
          "type": "uint256"
        },
        {
          "internalType": "uint256",
          "name": "",
          "type": "uint256"
        }
      ],
      "name": "royalties",
      "outputs": [
        {
          "internalType": "address payable",
          "name": "account",
          "type": "address"
        },
        {
          "internalType": "uint96",
          "name": "value",
          "type": "uint96"
        }
      ],
      "stateMutability": "view",
      "type": "function"
    },
    {
      "inputs": [
        {
          "internalType": "address",
          "name": "from",
          "type": "address"
        },
        {
          "internalType": "address",
          "name": "to",
          "type": "address"
        },
        {
          "internalType": "uint256[]",
          "name": "ids",
          "type": "uint256[]"
        },
        {
          "internalType": "uint256[]",
          "name": "amounts",
          "type": "uint256[]"
        },
        {
          "internalType": "bytes",
          "name": "data",
          "type": "bytes"
        }
      ],
      "name": "safeBatchTransferFrom",
      "outputs": [],
      "stateMutability": "nonpayable",
      "type": "function"
    },
    {
      "inputs": [
        {
          "internalType": "address",
          "name": "from",
          "type": "address"
        },
        {
          "internalType": "address",
          "name": "to",
          "type": "address"
        },
        {
          "internalType": "uint256",
          "name": "id",
          "type": "uint256"
        },
        {
          "internalType": "uint256",
          "name": "amount",
          "type": "uint256"
        },
        {
          "internalType": "bytes",
          "name": "data",
          "type": "bytes"
        }
      ],
      "name": "safeTransferFrom",
      "outputs": [],
      "stateMutability": "nonpayable",
      "type": "function"
    },
    {
      "inputs": [
        {
          "internalType": "address",
          "name": "operator",
          "type": "address"
        },
        {
          "internalType": "bool",
          "name": "approved",
          "type": "bool"
        }
      ],
      "name": "setApprovalForAll",
      "outputs": [],
      "stateMutability": "nonpayable",
      "type": "function"
    },
    {
      "inputs": [
        {
          "internalType": "address",
          "name": "operator",
          "type": "address"
        },
        {
          "internalType": "bool",
          "name": "hasApproval",
          "type": "bool"
        }
      ],
      "name": "setDefaultApproval",
      "outputs": [],
      "stateMutability": "nonpayable",
      "type": "function"
    },
    {
      "inputs": [
        {
          "internalType": "bytes4",
          "name": "interfaceId",
          "type": "bytes4"
        }
      ],
      "name": "supportsInterface",
      "outputs": [
        {
          "internalType": "bool",
          "name": "",
          "type": "bool"
        }
      ],
      "stateMutability": "view",
      "type": "function"
    },
    {
      "inputs": [],
      "name": "symbol",
      "outputs": [
        {
          "internalType": "string",
          "name": "",
          "type": "string"
        }
      ],
      "stateMutability": "view",
      "type": "function"
    },
    {
      "inputs": [
        {
          "components": [
            {
              "internalType": "uint256",
              "name": "tokenId",
              "type": "uint256"
            },
            {
              "internalType": "string",
              "name": "tokenURI",
              "type": "string"
            },
            {
              "internalType": "uint256",
              "name": "supply",
              "type": "uint256"
            },
            {
              "components": [
                {
                  "internalType": "address payable",
                  "name": "account",
                  "type": "address"
                },
                {
                  "internalType": "uint96",
                  "name": "value",
                  "type": "uint96"
                }
              ],
              "internalType": "struct LibPart.Part[]",
              "name": "creators",
              "type": "tuple[]"
            },
            {
              "components": [
                {
                  "internalType": "address payable",
                  "name": "account",
                  "type": "address"
                },
                {
                  "internalType": "uint96",
                  "name": "value",
                  "type": "uint96"
                }
              ],
              "internalType": "struct LibPart.Part[]",
              "name": "royalties",
              "type": "tuple[]"
            },
            {
              "internalType": "bytes[]",
              "name": "signatures",
              "type": "bytes[]"
            }
          ],
          "internalType": "struct LibERC1155LazyMint.Mint1155Data",
          "name": "data",
          "type": "tuple"
        },
        {
          "internalType": "address",
          "name": "from",
          "type": "address"
        },
        {
          "internalType": "address",
          "name": "to",
          "type": "address"
        },
        {
          "internalType": "uint256",
          "name": "amount",
          "type": "uint256"
        }
      ],
      "name": "transferFromOrMint",
      "outputs": [],
      "stateMutability": "nonpayable",
      "type": "function"
    },
    {
      "inputs": [
        {
          "internalType": "address",
          "name": "newOwner",
          "type": "address"
        }
      ],
      "name": "transferOwnership",
      "outputs": [],
      "stateMutability": "nonpayable",
      "type": "function"
    },
    {
      "inputs": [
        {
          "internalType": "uint256",
          "name": "_id",
          "type": "uint256"
        },
        {
          "internalType": "address",
          "name": "_from",
          "type": "address"
        },
        {
          "internalType": "address",
          "name": "_to",
          "type": "address"
        }
      ],
      "name": "updateAccount",
      "outputs": [],
      "stateMutability": "nonpayable",
      "type": "function"
    },
    {
      "inputs": [
        {
          "internalType": "uint256",
          "name": "id",
          "type": "uint256"
        }
      ],
      "name": "uri",
      "outputs": [
        {
          "internalType": "string",
          "name": "",
          "type": "string"
        }
      ],
      "stateMutability": "view",
      "type": "function"
    },
    {
      "inputs": [
        {
          "internalType": "string",
          "name": "_name",
          "type": "string"
        },
        {
          "internalType": "string",
          "name": "_symbol",
          "type": "string"
        },
        {
          "internalType": "string",
          "name": "baseURI",
          "type": "string"
        },
        {
          "internalType": "string",
          "name": "contractURI",
          "type": "string"
        },
        {
          "internalType": "address",
          "name": "_address",
          "type": "address"
        }
      ],
      "name": "__EcoFiERC1155_init",
      "outputs": [],
      "stateMutability": "nonpayable",
      "type": "function"
    },
    {
      "inputs": [
        {
          "components": [
            {
              "internalType": "uint256",
              "name": "tokenId",
              "type": "uint256"
            },
            {
              "internalType": "string",
              "name": "tokenURI",
              "type": "string"
            },
            {
              "internalType": "uint256",
              "name": "supply",
              "type": "uint256"
            },
            {
              "components": [
                {
                  "internalType": "address payable",
                  "name": "account",
                  "type": "address"
                },
                {
                  "internalType": "uint96",
                  "name": "value",
                  "type": "uint96"
                }
              ],
              "internalType": "struct LibPart.Part[]",
              "name": "creators",
              "type": "tuple[]"
            },
            {
              "components": [
                {
                  "internalType": "address payable",
                  "name": "account",
                  "type": "address"
                },
                {
                  "internalType": "uint96",
                  "name": "value",
                  "type": "uint96"
                }
              ],
              "internalType": "struct LibPart.Part[]",
              "name": "royalties",
              "type": "tuple[]"
            },
            {
              "internalType": "bytes[]",
              "name": "signatures",
              "type": "bytes[]"
            }
          ],
          "internalType": "struct LibERC1155LazyMint.Mint1155Data",
          "name": "data",
          "type": "tuple"
        },
        {
          "internalType": "string",
          "name": "image",
          "type": "string"
        },
        {
          "internalType": "address",
          "name": "to",
          "type": "address"
        },
        {
          "internalType": "uint256",
          "name": "_amount",
          "type": "uint256"
        }
      ],
      "name": "mintWithImage",
      "outputs": [],
      "stateMutability": "nonpayable",
      "type": "function"
    }
  ],
  "bytecode": "0x608060405234801561001057600080fd5b50614ef5806100206000396000f3fe608060405234801561001057600080fd5b50600436106101c35760003560e01c80638da5cb5b116100f9578063e582675111610097578063f242432a11610071578063f242432a146103b5578063f2fde38b146103c8578063f5298aca146103db578063ffc4e0a7146103ee576101c3565b8063e582675114610387578063e8a3d4851461039a578063e985e9c5146103a2576101c3565b8063a22cb465116100d3578063a22cb4651461033b578063bb3bafd61461034e578063c79178c614610361578063e07f231914610374576101c3565b80638da5cb5b1461030b57806395d89b411461032057806398d0b4fb14610328576101c3565b80632eb2c2d6116101665780636c0360eb116101405780636c0360eb146102ba578063715018a6146102c2578063891be974146102ca5780638924af74146102ea576101c3565b80632eb2c2d6146102745780634e1273f4146102875780636b20c454146102a7576101c3565b80630e89341c116101a25780630e89341c146102265780630eaead671461023957806318054c371461024e5780631e014a4b14610261576101c3565b8062fdd58e146101c857806301ffc9a7146101f157806306fdde0314610211575b600080fd5b6101db6101d636600461437b565b610401565b6040516101e89190614ae8565b60405180910390f35b6102046101ff36600461449a565b610470565b6040516101e89190614891565b610219610493565b6040516101e8919061489c565b6102196102343660046146aa565b610522565b61024c6102473660046145e7565b610533565b005b61024c61025c36600461434a565b61073d565b61024c61026f36600461463f565b6107bf565b61024c6102823660046141c6565b6109b9565b61029a6102953660046143da565b610caf565b6040516101e8919061484d565b61024c6102b53660046142d7565b610d9b565b610219610e14565b61024c610eac565b6102dd6102d83660046146aa565b610f6a565b6040516101e8919061483a565b6102fd6102f8366004614703565b610fff565b6040516101e8929190614813565b61031361104e565b6040516101e891906147cb565b61021961105d565b6102fd610336366004614703565b6110b9565b61024c61034936600461434a565b6110d6565b6102dd61035c3660046146aa565b6111c5565b61021961036f3660046146aa565b611245565b61024c6103823660046146c2565b611250565b61024c6103953660046144c2565b611293565b6102196113f2565b6102046103b036600461418e565b61144e565b61024c6103c3366004614270565b611461565b61024c6103d6366004614172565b61162c565b61024c6103e93660046143a6565b611741565b61024c6103fc36600461457f565b6117b5565b60006001600160a01b0383166104485760405162461bcd60e51b815260040180806020018281038252602b815260200180614c71602b913960400191505060405180910390fd5b5060009081526097602090815260408083206001600160a01b03949094168352929052205490565b6001600160e01b0319811660009081526065602052604090205460ff165b919050565b610262805460408051602060026001851615610100026000190190941693909304601f8101849004840282018401909252818152929183018282801561051a5780601f106104ef5761010080835404028352916020019161051a565b820191906000526020600020905b8154815290600101906020018083116104fd57829003601f168201915b505050505081565b606061052d82611810565b92915050565b825160601c6000610542611a4d565b9050806001600160a01b0316826001600160a01b031614806105695750610569828261144e565b61058e5760405162461bcd60e51b8152600401610585906149c0565b60405180910390fd5b600083116105ae5760405162461bcd60e51b815260040161058590614989565b845160009081526101fc60205260409020546107175784606001516000815181106105d557fe5b6020026020010151600001516001600160a01b0316826001600160a01b0316146106115760405162461bcd60e51b81526004016105859061491b565b60008560400151116106355760405162461bcd60e51b8152600401610585906148af565b8460a00151518560600151511461064b57600080fd5b600061065686611a51565b905060005b8660600151518110156106cc5760008760600151828151811061067a57fe5b6020026020010151600001519050836001600160a01b0316816001600160a01b0316146106c3576106c381848a60a0015185815181106106b657fe5b6020026020010151611ca6565b5060010161065b565b506106df86600001518760400151611cb1565b6106f186600001518760800151611d1b565b61070386600001518760600151611eab565b61071586600001518760200151612068565b505b610736848660000151856040518060200160405280600081525061212c565b5050505050565b610745611a4d565b6001600160a01b031661075661104e565b6001600160a01b0316146107b1576040805162461bcd60e51b815260206004820181905260248201527f4f776e61626c653a2063616c6c6572206973206e6f7420746865206f776e6572604482015290519081900360640190fd5b6107bb828261213e565b5050565b835160601c60006107ce611a4d565b9050806001600160a01b0316826001600160a01b031614806107f557506107f5828261144e565b6108115760405162461bcd60e51b8152600401610585906149c0565b600083116108315760405162461bcd60e51b815260040161058590614989565b855161083c9061219e565b61099257856060015160008151811061085157fe5b6020026020010151600001516001600160a01b0316826001600160a01b03161461088d5760405162461bcd60e51b81526004016105859061491b565b60008660400151116108b15760405162461bcd60e51b8152600401610585906148af565b8560a0015151866060015151146108c757600080fd5b60006108d287611a51565b905060005b87606001515181101561093b576000886060015182815181106108f657fe5b6020026020010151600001519050836001600160a01b0316816001600160a01b0316146109325761093281848b60a0015185815181106106b657fe5b506001016108d7565b5061094e87600001518860400151611cb1565b61096087600001518860800151611d1b565b61097287600001518860600151611eab565b61098487600001518860200151612068565b865161099090876121b1565b505b6109b1848760000151856040518060200160405280600081525061212c565b505050505050565b81518351146109f95760405162461bcd60e51b8152600401808060200182810382526028815260200180614e776028913960400191505060405180910390fd5b6001600160a01b038416610a3e5760405162461bcd60e51b8152600401808060200182810382526025815260200180614d316025913960400191505060405180910390fd5b610a46611a4d565b6001600160a01b0316856001600160a01b03161480610a6c5750610a6c856103b0611a4d565b610aa75760405162461bcd60e51b8152600401808060200182810382526032815260200180614d566032913960400191505060405180910390fd5b6000610ab1611a4d565b9050610ac18187878787876109b1565b60005b8451811015610bc7576000858281518110610adb57fe5b602002602001015190506000858381518110610af357fe5b60200260200101519050610b60816040518060600160405280602a8152602001614dfb602a91396097600086815260200190815260200160002060008d6001600160a01b03166001600160a01b03168152602001908152602001600020546121fd9092919063ffffffff16565b60008381526097602090815260408083206001600160a01b038e811685529252808320939093558a1681522054610b979082612294565b60009283526097602090815260408085206001600160a01b038c1686529091529092209190915550600101610ac4565b50846001600160a01b0316866001600160a01b0316826001600160a01b03167f4a39dc06d4c0dbc64b70af90fd698a233a518aa5d07e595d983b8c0526c8f7fb8787604051808060200180602001838103835285818151815260200191508051906020019060200280838360005b83811015610c4d578181015183820152602001610c35565b50505050905001838103825284818151815260200191508051906020019060200280838360005b83811015610c8c578181015183820152602001610c74565b5050505090500194505050505060405180910390a46109b18187878787876122ee565b60608151835114610cf15760405162461bcd60e51b8152600401808060200182810382526029815260200180614e4e6029913960400191505060405180910390fd5b6000835167ffffffffffffffff81118015610d0b57600080fd5b50604051908082528060200260200182016040528015610d35578160200160208202803683370190505b50905060005b8451811015610d9357610d74858281518110610d5357fe5b6020026020010151858381518110610d6757fe5b6020026020010151610401565b828281518110610d8057fe5b6020908102919091010152600101610d3b565b509392505050565b610da3611a4d565b6001600160a01b0316836001600160a01b03161480610dc95750610dc9836103b0611a4d565b610e045760405162461bcd60e51b8152600401808060200182810382526029815260200180614ce66029913960400191505060405180910390fd5b610e0f838383612586565b505050565b61012f8054604080516020601f6002600019610100600188161502019095169490940493840181900481028201810190925282815260609390929091830182828015610ea15780601f10610e7657610100808354040283529160200191610ea1565b820191906000526020600020905b815481529060010190602001808311610e8457829003601f168201915b505050505090505b90565b610eb4611a4d565b6001600160a01b0316610ec561104e565b6001600160a01b031614610f20576040805162461bcd60e51b815260206004820181905260248201527f4f776e61626c653a2063616c6c6572206973206e6f7420746865206f776e6572604482015290519081900360640190fd5b6033546040516000916001600160a01b0316907f8be0079c531659141344cd1fd0a4f28419497f9722a3daafe3b4186f6b6457e0908390a3603380546001600160a01b0319169055565b60606101fb6000838152602001908152602001600020805480602002602001604051908101604052809291908181526020016000905b82821015610ff457600084815260209081902060408051808201909152908401546001600160a01b0381168252600160a01b90046bffffffffffffffffffffffff1681830152825260019092019101610fa0565b505050509050919050565b6101fa602052816000526040600020818154811061101c57600080fd5b6000918252602090912001546001600160a01b0381169250600160a01b90046bffffffffffffffffffffffff16905082565b6033546001600160a01b031690565b610263805460408051602060026001851615610100026000190190941693909304601f8101849004840282018401909252818152929183018282801561051a5780601f106104ef5761010080835404028352916020019161051a565b6101fb602052816000526040600020818154811061101c57600080fd5b816001600160a01b03166110e8611a4d565b6001600160a01b0316141561112e5760405162461bcd60e51b8152600401808060200182810382526029815260200180614e256029913960400191505060405180910390fd5b806098600061113b611a4d565b6001600160a01b03908116825260208083019390935260409182016000908120918716808252919093529120805460ff19169215159290921790915561117f611a4d565b6001600160a01b03167f17307eab39ab6107e8899845ad3d59bd9653f200f220920489ca2b5937696c318360405180821515815260200191505060405180910390a35050565b60008181526101fa60209081526040808320805482518185028101850190935280835260609492939192909184018215610ff457600084815260209081902060408051808201909152908401546001600160a01b0381168252600160a01b90046bffffffffffffffffffffffff1681830152825260019092019101610fa0565b606061052d826127f4565b816001600160a01b0316611262611a4d565b6001600160a01b0316146112885760405162461bcd60e51b815260040161058590614952565b610e0f838383612896565b600054610100900460ff16806112ac57506112ac612942565b806112ba575060005460ff16155b6112f55760405162461bcd60e51b815260040180806020018281038252602e815260200180614d88602e913960400191505060405180910390fd5b600054610100900460ff16158015611320576000805460ff1961ff0019909116610100171660011790555b611328612953565b611330612a4d565b611338612b17565b611340612bcd565b611348612c6d565b61136060405180602001604052806000815250612d6e565b61136983612e6b565b611371612bcd565b611379612f36565b6113838686612fec565b61138c846130b9565b61139782600161213e565b7f630c3520bebe920390fcfcb48ef2e0bde326ef10f85761c5f708d1ccebf6ba736113c0611a4d565b87876040516113d1939291906147df565b60405180910390a180156109b1576000805461ff0019169055505050505050565b610230805460408051602060026001851615610100026000190190941693909304601f8101849004840282018401909252818152929183018282801561051a5780601f106104ef5761010080835404028352916020019161051a565b600061145a83836130cd565b9392505050565b6001600160a01b0384166114a65760405162461bcd60e51b8152600401808060200182810382526025815260200180614d316025913960400191505060405180910390fd5b6114ae611a4d565b6001600160a01b0316856001600160a01b031614806114d457506114d4856103b0611a4d565b61150f5760405162461bcd60e51b8152600401808060200182810382526029815260200180614ce66029913960400191505060405180910390fd5b6000611519611a4d565b905061153981878761152a886130f9565b611533886130f9565b876109b1565b611580836040518060600160405280602a8152602001614dfb602a913960008781526097602090815260408083206001600160a01b038d16845290915290205491906121fd565b60008581526097602090815260408083206001600160a01b038b811685529252808320939093558716815220546115b79084612294565b60008581526097602090815260408083206001600160a01b03808b168086529184529382902094909455805188815291820187905280518a8416938616927fc3d58168c5ae7397731d063d5bbf3d657854427343f4c083240f7aacaa2d0f6292908290030190a46109b181878787878761313e565b611634611a4d565b6001600160a01b031661164561104e565b6001600160a01b0316146116a0576040805162461bcd60e51b815260206004820181905260248201527f4f776e61626c653a2063616c6c6572206973206e6f7420746865206f776e6572604482015290519081900360640190fd5b6001600160a01b0381166116e55760405162461bcd60e51b8152600401808060200182810382526026815260200180614c9c6026913960400191505060405180910390fd5b6033546040516001600160a01b038084169216907f8be0079c531659141344cd1fd0a4f28419497f9722a3daafe3b4186f6b6457e090600090a3603380546001600160a01b0319166001600160a01b0392909216919091179055565b611749611a4d565b6001600160a01b0316836001600160a01b0316148061176f575061176f836103b0611a4d565b6117aa5760405162461bcd60e51b8152600401808060200182810382526029815260200180614ce66029913960400191505060405180910390fd5b610e0f8383836132c8565b60006117c5848660000151610401565b90508181156117ff5782808310156117da5750815b6117fa868689600001518460405180602001604052806000815250611461565b830390505b80156109b1576109b1868583610533565b600081815261012e6020908152604080832080548251601f60026000196101006001861615020190931692909204918201859004850281018501909352808352606094938301828280156118a55780601f1061187a576101008083540402835291602001916118a5565b820191906000526020600020905b81548152906001019060200180831161188857829003601f168201915b5050505050905060006118b6610e14565b90508051600014156118ca5750905061048e565b81511561198b5780826040516020018083805190602001908083835b602083106119055780518252601f1990920191602091820191016118e6565b51815160209384036101000a600019018019909216911617905285519190930192850191508083835b6020831061194d5780518252601f19909201916020918201910161192e565b6001836020036101000a038019825116818451168082178552505050505050905001925050506040516020818303038152906040529250505061048e565b80611995856133fb565b6040516020018083805190602001908083835b602083106119c75780518252601f1990920191602091820191016119a8565b51815160209384036101000a600019018019909216911617905285519190930192850191508083835b60208310611a0f5780518252601f1990920191602091820191016119f0565b6001836020036101000a0380198251168184511680821785525050505050509050019250505060405160208183030381529060405292505050919050565b3390565b60008082608001515167ffffffffffffffff81118015611a7057600080fd5b50604051908082528060200260200182016040528015611a9a578160200160208202803683370190505b50905060005b836080015151811015611aec57611acd84608001518281518110611ac057fe5b602002602001015161350a565b828281518110611ad957fe5b6020908102919091010152600101611aa0565b50600083606001515167ffffffffffffffff81118015611b0b57600080fd5b50604051908082528060200260200182016040528015611b35578160200160208202803683370190505b50905060005b846060015151811015611b7a57611b5b85606001518281518110611ac057fe5b828281518110611b6757fe5b6020908102919091010152600101611b3b565b507ffb988707ebb338694f318760b0fd5cfe756d00a2ade251fda110b80c336a3c7f846000015185604001518660200151805190602001208460405160200180828051906020019060200280838360005b83811015611be3578181015183820152602001611bcb565b50505050905001915050604051602081830303815290604052805190602001208660405160200180828051906020019060200280838360005b83811015611c34578181015183820152602001611c1c565b50505050905001915050604051602081830303815290604052805190602001206040516020018087815260200186815260200185815260200184815260200183815260200182815260200196505050505050506040516020818303038152906040528051906020012092505050919050565b610e0f83838361357c565b60008281526101fc602052604090205415611ccb57600080fd5b60008281526101fc6020526040908190208290555182907f5e2aa66efd74cce82b21852e317e5490d9ecc9e6bb953ae24d90851258cc2f5c90611d0f908490614ae8565b60405180910390a25050565b60005b8151811015611ea05760006001600160a01b0316828281518110611d3e57fe5b6020026020010151600001516001600160a01b03161415611da6576040805162461bcd60e51b815260206004820152601b60248201527f526563697069656e742073686f756c642062652070726573656e740000000000604482015290519081900360640190fd5b818181518110611db257fe5b6020026020010151602001516bffffffffffffffffffffffff1660001415611e21576040805162461bcd60e51b815260206004820181905260248201527f526f79616c74792076616c75652073686f756c6420626520706f736974697665604482015290519081900360640190fd5b60008381526101fa602052604090208251839083908110611e3e57fe5b60209081029190910181015182546001818101855560009485529383902082519101805492909301516bffffffffffffffffffffffff16600160a01b026001600160a01b039182166001600160a01b0319909316929092171617905501611d1e565b506107bb82826137cd565b60008281526101fb6020526040812090805b83518110156120085760006001600160a01b0316848281518110611edd57fe5b6020026020010151600001516001600160a01b03161415611f105760405162461bcd60e51b815260040161058590614a54565b838181518110611f1c57fe5b6020026020010151602001516bffffffffffffffffffffffff1660001415611f565760405162461bcd60e51b8152600401610585906148e6565b82848281518110611f6357fe5b602090810291909101810151825460018101845560009384529282902081519301805491909201516bffffffffffffffffffffffff16600160a01b026001600160a01b039384166001600160a01b0319909216919091179092169190911790558351611ffe90859083908110611fd557fe5b6020026020010151602001516bffffffffffffffffffffffff168361229490919063ffffffff16565b9150600101611ebd565b50806127101461202a5760405162461bcd60e51b815260040161058590614a8b565b837f841ffb90d4cabdd1f16034f3fa831d79060febbb8167bdd54a49269365bdf78f8460405161205a919061483a565b60405180910390a250505050565b600082815261012e60209081526040909120825161208892840190613e1c565b50817f6bb7ff708619ba0610cba295a58592e0451dee2622938c8755667688daf3529b6120b484611810565b6040805160208082528351818301528351919283929083019185019080838360005b838110156120ee5781810151838201526020016120d6565b50505050905090810190601f16801561211b5780820380516001836020036101000a031916815260200191505b509250505060405180910390a25050565b6121388484848461380a565b50505050565b6001600160a01b038216600081815260c96020908152604091829020805460ff1916851515908117909155825190815291517f270dbb8ba4292910ae92862466486be25c355c837270a3d8824b36a8bc7c653b9281900390910190a25050565b60009081526101fc602052604090205490565b60008281526102966020908152604090912082516121d192840190613e1c565b50817fa595484f343d9669f13f28cff734012d5ea0924a2ec5440aa2c2833751c9a2886120b4846127f4565b6000818484111561228c5760405162461bcd60e51b81526004018080602001828103825283818151815260200191508051906020019080838360005b83811015612251578181015183820152602001612239565b50505050905090810190601f16801561227e5780820380516001836020036101000a031916815260200191505b509250505060405180910390fd5b505050900390565b60008282018381101561145a576040805162461bcd60e51b815260206004820152601b60248201527f536166654d6174683a206164646974696f6e206f766572666c6f770000000000604482015290519081900360640190fd5b612300846001600160a01b0316613875565b156109b157836001600160a01b031663bc197c8187878686866040518663ffffffff1660e01b815260040180866001600160a01b03168152602001856001600160a01b03168152602001806020018060200180602001848103845287818151815260200191508051906020019060200280838360005b8381101561238e578181015183820152602001612376565b50505050905001848103835286818151815260200191508051906020019060200280838360005b838110156123cd5781810151838201526020016123b5565b50505050905001848103825285818151815260200191508051906020019080838360005b838110156124095781810151838201526020016123f1565b50505050905090810190601f1680156124365780820380516001836020036101000a031916815260200191505b5098505050505050505050602060405180830381600087803b15801561245b57600080fd5b505af192505050801561248057506040513d602081101561247b57600080fd5b505160015b6125155761248c614b5a565b8061249757506124de565b60405162461bcd60e51b8152602060048201818152835160248401528351849391928392604401919085019080838360008315612251578181015183820152602001612239565b60405162461bcd60e51b8152600401808060200182810382526034815260200180614c156034913960400191505060405180910390fd5b6001600160e01b031981167fbc197c81000000000000000000000000000000000000000000000000000000001461257d5760405162461bcd60e51b8152600401808060200182810382526028815260200180614c496028913960400191505060405180910390fd5b50505050505050565b6001600160a01b0383166125cb5760405162461bcd60e51b8152600401808060200182810382526023815260200180614dd86023913960400191505060405180910390fd5b805182511461260b5760405162461bcd60e51b8152600401808060200182810382526028815260200180614e776028913960400191505060405180910390fd5b6000612615611a4d565b9050612635818560008686604051806020016040528060008152506109b1565b60005b8351811015612713576126ca83828151811061265057fe5b6020026020010151604051806060016040528060248152602001614cc2602491396097600088868151811061268157fe5b602002602001015181526020019081526020016000206000896001600160a01b03166001600160a01b03168152602001908152602001600020546121fd9092919063ffffffff16565b609760008684815181106126da57fe5b602090810291909101810151825281810192909252604090810160009081206001600160a01b038a168252909252902055600101612638565b5060006001600160a01b0316846001600160a01b0316826001600160a01b03167f4a39dc06d4c0dbc64b70af90fd698a233a518aa5d07e595d983b8c0526c8f7fb8686604051808060200180602001838103835285818151815260200191508051906020019060200280838360005b8381101561279a578181015183820152602001612782565b50505050905001838103825284818151815260200191508051906020019060200280838360005b838110156127d95781810151838201526020016127c1565b5050505090500194505050505060405180910390a450505050565b60008181526102966020908152604080832080548251601f60026000196101006001861615020190931692909204918201859004850281018501909352808352606094938301828280156128895780601f1061285e57610100808354040283529160200191612889565b820191906000526020600020905b81548152906001019060200180831161286c57829003601f168201915b5093979650505050505050565b60008381526101fa6020526040812054905b818110156107365760008581526101fa6020526040902080546001600160a01b0386169190839081106128d757fe5b6000918252602090912001546001600160a01b0316141561293a5760008581526101fa6020526040902080548491908390811061291057fe5b600091825260209091200180546001600160a01b0319166001600160a01b03929092169190911790555b6001016128a8565b600061294d30613875565b15905090565b600054610100900460ff168061296c575061296c612942565b8061297a575060005460ff16155b6129b55760405162461bcd60e51b815260040180806020018281038252602e815260200180614d88602e913960400191505060405180910390fd5b600054610100900460ff161580156129e0576000805460ff1961ff0019909116610100171660011790555b60006129ea611a4d565b603380546001600160a01b0319166001600160a01b038316908117909155604051919250906000907f8be0079c531659141344cd1fd0a4f28419497f9722a3daafe3b4186f6b6457e0908290a3508015612a4a576000805461ff00191690555b50565b600054610100900460ff1680612a665750612a66612942565b80612a74575060005460ff16155b612aaf5760405162461bcd60e51b815260040180806020018281038252602e815260200180614d88602e913960400191505060405180910390fd5b600054610100900460ff16158015612ada576000805460ff1961ff0019909116610100171660011790555b612b037f6db15a0f0000000000000000000000000000000000000000000000000000000061387b565b8015612a4a576000805461ff001916905550565b600054610100900460ff1680612b305750612b30612942565b80612b3e575060005460ff16155b612b795760405162461bcd60e51b815260040180806020018281038252602e815260200180614d88602e913960400191505060405180910390fd5b600054610100900460ff16158015612ba4576000805460ff1961ff0019909116610100171660011790555b612b037f01ffc9a70000000000000000000000000000000000000000000000000000000061387b565b600054610100900460ff1680612be65750612be6612942565b80612bf4575060005460ff16155b612c2f5760405162461bcd60e51b815260040180806020018281038252602e815260200180614d88602e913960400191505060405180910390fd5b600054610100900460ff16158015612b03576000805460ff1961ff0019909116610100171660011790558015612a4a576000805461ff001916905550565b600054610100900460ff1680612c865750612c86612942565b80612c94575060005460ff16155b612ccf5760405162461bcd60e51b815260040180806020018281038252602e815260200180614d88602e913960400191505060405180910390fd5b600054610100900460ff16158015612cfa576000805460ff1961ff0019909116610100171660011790555b612b036040518060400160405280600881526020017f4d696e74313135350000000000000000000000000000000000000000000000008152506040518060400160405280600181526020017f31000000000000000000000000000000000000000000000000000000000000008152506138ff565b600054610100900460ff1680612d875750612d87612942565b80612d95575060005460ff16155b612dd05760405162461bcd60e51b815260040180806020018281038252602e815260200180614d88602e913960400191505060405180910390fd5b600054610100900460ff16158015612dfb576000805460ff1961ff0019909116610100171660011790555b612e04826139c1565b612e2d7fd9b67a260000000000000000000000000000000000000000000000000000000061387b565b612e567f0e89341c0000000000000000000000000000000000000000000000000000000061387b565b80156107bb576000805461ff00191690555050565b600054610100900460ff1680612e845750612e84612942565b80612e92575060005460ff16155b612ecd5760405162461bcd60e51b815260040180806020018281038252602e815260200180614d88602e913960400191505060405180910390fd5b600054610100900460ff16158015612ef8576000805460ff1961ff0019909116610100171660011790555b8151612f0c90610230906020850190613e1c565b50612e567fe8a3d4850000000000000000000000000000000000000000000000000000000061387b565b600054610100900460ff1680612f4f5750612f4f612942565b80612f5d575060005460ff16155b612f985760405162461bcd60e51b815260040180806020018281038252602e815260200180614d88602e913960400191505060405180910390fd5b600054610100900460ff16158015612fc3576000805460ff1961ff0019909116610100171660011790555b612b037f44c74bcc0000000000000000000000000000000000000000000000000000000061387b565b600054610100900460ff16806130055750613005612942565b80613013575060005460ff16155b61304e5760405162461bcd60e51b815260040180806020018281038252602e815260200180614d88602e913960400191505060405180910390fd5b600054610100900460ff16158015613079576000805460ff1961ff0019909116610100171660011790555b825161308d90610262906020860190613e1c565b5081516130a290610263906020850190613e1c565b508015610e0f576000805461ff0019169055505050565b80516107bb9061012f906020840190613e1c565b6001600160a01b038116600090815260c9602052604081205460ff168061145a575061145a83836139d4565b6040805160018082528183019092526060916000919060208083019080368337019050509050828160008151811061312d57fe5b602090810291909101015292915050565b613150846001600160a01b0316613875565b156109b157836001600160a01b031663f23a6e6187878686866040518663ffffffff1660e01b815260040180866001600160a01b03168152602001856001600160a01b0316815260200184815260200183815260200180602001828103825283818151815260200191508051906020019080838360005b838110156131df5781810151838201526020016131c7565b50505050905090810190601f16801561320c5780820380516001836020036101000a031916815260200191505b509650505050505050602060405180830381600087803b15801561322f57600080fd5b505af192505050801561325457506040513d602081101561324f57600080fd5b505160015b6132605761248c614b5a565b6001600160e01b031981167ff23a6e61000000000000000000000000000000000000000000000000000000001461257d5760405162461bcd60e51b8152600401808060200182810382526028815260200180614c496028913960400191505060405180910390fd5b6001600160a01b03831661330d5760405162461bcd60e51b8152600401808060200182810382526023815260200180614dd86023913960400191505060405180910390fd5b6000613317611a4d565b905061334781856000613329876130f9565b613332876130f9565b604051806020016040528060008152506109b1565b61338e82604051806060016040528060248152602001614cc26024913960008681526097602090815260408083206001600160a01b038b16845290915290205491906121fd565b60008481526097602090815260408083206001600160a01b03808a16808652918452828520959095558151888152928301879052815193949093908616927fc3d58168c5ae7397731d063d5bbf3d657854427343f4c083240f7aacaa2d0f6292908290030190a450505050565b60608161343c575060408051808201909152600181527f3000000000000000000000000000000000000000000000000000000000000000602082015261048e565b8160005b811561345457600101600a82049150613440565b60008167ffffffffffffffff8111801561346d57600080fd5b506040519080825280601f01601f191660200182016040528015613498576020820181803683370190505b50859350905060001982015b831561350157600a840660300160f81b828280600190039350815181106134c757fe5b60200101907effffffffffffffffffffffffffffffffffffffffffffffffffffffffffffff1916908160001a905350600a840493506134a4565b50949350505050565b8051602091820151604080517f397e04204c1e1a60ee8724b71f8244e10ab5f2e9009854d80f602bda21b59ebb818601526001600160a01b03909316838201526bffffffffffffffffffffffff9091166060808401919091528151808403909101815260809092019052805191012090565b600061358783613a02565b905061359b846001600160a01b0316613875565b1561372d57604080517f1626ba7e00000000000000000000000000000000000000000000000000000000808252600482018481526024830193845285516044840152855191936001600160a01b03891693631626ba7e938793899390929091606490910190602085019080838360005b8381101561362357818101518382015260200161360b565b50505050905090810190601f1680156136505780820380516001836020036101000a031916815260200191505b50935050505060206040518083038186803b15801561366e57600080fd5b505afa158015613682573d6000803e3d6000fd5b505050506040513d602081101561369857600080fd5b505160408051808201909152601c81527f7369676e617475726520766572696669636174696f6e206572726f72000000006020820152916001600160e01b0319909116146137275760405162461bcd60e51b8152602060048201818152835160248401528351909283926044909101919085019080838360008315612251578181015183820152602001612239565b50612138565b6001600160a01b0384166137418284613a69565b6001600160a01b0316146040518060400160405280601c81526020017f7369676e617475726520766572696669636174696f6e206572726f7200000000815250906107365760405162461bcd60e51b8152602060048201818152835160248401528351909283926044909101919085019080838360008315612251578181015183820152602001612239565b7f3fa96d7b6bcbfe71ef171666d84db3cf52fa2d1c8afdb1cc8e486177f208b7df82826040516137fe929190614af1565b60405180910390a15050565b60008381526101fd6020526040812054613825908490612294565b60008581526101fc60205260409020549091508111156138575760405162461bcd60e51b815260040161058590614a1d565b60008481526101fd6020526040902081905561073685858585613ae9565b3b151590565b6001600160e01b031980821614156138da576040805162461bcd60e51b815260206004820152601c60248201527f4552433136353a20696e76616c696420696e7465726661636520696400000000604482015290519081900360640190fd5b6001600160e01b0319166000908152606560205260409020805460ff19166001179055565b600054610100900460ff16806139185750613918612942565b80613926575060005460ff16155b6139615760405162461bcd60e51b815260040180806020018281038252602e815260200180614d88602e913960400191505060405180910390fd5b600054610100900460ff1615801561398c576000805460ff1961ff0019909116610100171660011790555b825160208085019190912083519184019190912061016291909155610163558015610e0f576000805461ff0019169055505050565b80516107bb906099906020840190613e1c565b6001600160a01b03918216600090815260986020908152604080832093909416825291909152205460ff1690565b6000613a0c613bea565b8260405160200180807f190100000000000000000000000000000000000000000000000000000000000081525060020183815260200182815260200192505050604051602081830303815290604052805190602001209050919050565b60008151604114613ac1576040805162461bcd60e51b815260206004820152601f60248201527f45434453413a20696e76616c6964207369676e6174757265206c656e67746800604482015290519081900360640190fd5b60208201516040830151606084015160001a613adf86828585613c2a565b9695505050505050565b6001600160a01b038416613b2e5760405162461bcd60e51b8152600401808060200182810382526021815260200180614e9f6021913960400191505060405180910390fd5b6000613b38611a4d565b9050613b4a8160008761152a886130f9565b60008481526097602090815260408083206001600160a01b0389168452909152902054613b779084612294565b60008581526097602090815260408083206001600160a01b03808b16808652918452828520959095558151898152928301889052815190948616927fc3d58168c5ae7397731d063d5bbf3d657854427343f4c083240f7aacaa2d0f6292908290030190a46107368160008787878761313e565b6000613c257f8b73c3c69bb8fe3d512ecc4cf759cc79239f7b179b0ffacaa9a75d522b39400f613c18613da8565b613c20613daf565b613db6565b905090565b60007f7fffffffffffffffffffffffffffffff5d576e7357a4501ddfe92f46681b20a0821115613c8b5760405162461bcd60e51b8152600401808060200182810382526022815260200180614d0f6022913960400191505060405180910390fd5b8360ff16601b1480613ca057508360ff16601c145b613cdb5760405162461bcd60e51b8152600401808060200182810382526022815260200180614db66022913960400191505060405180910390fd5b600060018686868660405160008152602001604052604051808581526020018460ff1681526020018381526020018281526020019450505050506020604051602081039080840390855afa158015613d37573d6000803e3d6000fd5b5050604051601f1901519150506001600160a01b038116613d9f576040805162461bcd60e51b815260206004820152601860248201527f45434453413a20696e76616c6964207369676e61747572650000000000000000604482015290519081900360640190fd5b95945050505050565b6101625490565b6101635490565b6000838383613dc3613e18565b3060405160200180868152602001858152602001848152602001838152602001826001600160a01b03168152602001955050505050506040516020818303038152906040528051906020012090509392505050565b4690565b828054600181600116156101000203166002900490600052602060002090601f016020900481019282613e525760008555613e98565b82601f10613e6b57805160ff1916838001178555613e98565b82800160010185558215613e98579182015b82811115613e98578251825591602001919060010190613e7d565b50613ea4929150613ea8565b5090565b5b80821115613ea45760008155600101613ea9565b600082601f830112613ecd578081fd5b81356020613ee2613edd83614b36565b614b12565b82815281810190858301855b85811015613f1757613f05898684358b010161403f565b84529284019290840190600101613eee565b5090979650505050505050565b600082601f830112613f34578081fd5b81356020613f44613edd83614b36565b82815281810190858301604080860288018501891015613f62578687fd5b865b86811015613fd75781838b031215613f7a578788fd5b815182810181811067ffffffffffffffff82111715613f9557fe5b83528335613fa281614bff565b8152838701356bffffffffffffffffffffffff81168114613fc157898afd5b8188015285529385019391810191600101613f64565b509198975050505050505050565b600082601f830112613ff5578081fd5b81356020614005613edd83614b36565b8281528181019085830183850287018401881015614021578586fd5b855b85811015613f1757813584529284019290840190600101614023565b600082601f83011261404f578081fd5b813567ffffffffffffffff81111561406357fe5b614076601f8201601f1916602001614b12565b81815284602083860101111561408a578283fd5b816020850160208301379081016020019190915292915050565b600060c082840312156140b5578081fd5b6140bf60c0614b12565b905081358152602082013567ffffffffffffffff808211156140e057600080fd5b6140ec8583860161403f565b602084015260408401356040840152606084013591508082111561410f57600080fd5b61411b85838601613f24565b6060840152608084013591508082111561413457600080fd5b61414085838601613f24565b608084015260a084013591508082111561415957600080fd5b5061416684828501613ebd565b60a08301525092915050565b600060208284031215614183578081fd5b813561145a81614bff565b600080604083850312156141a0578081fd5b82356141ab81614bff565b915060208301356141bb81614bff565b809150509250929050565b600080600080600060a086880312156141dd578081fd5b85356141e881614bff565b945060208601356141f881614bff565b9350604086013567ffffffffffffffff80821115614214578283fd5b61422089838a01613fe5565b94506060880135915080821115614235578283fd5b61424189838a01613fe5565b93506080880135915080821115614256578283fd5b506142638882890161403f565b9150509295509295909350565b600080600080600060a08688031215614287578283fd5b853561429281614bff565b945060208601356142a281614bff565b93506040860135925060608601359150608086013567ffffffffffffffff8111156142cb578182fd5b6142638882890161403f565b6000806000606084860312156142eb578081fd5b83356142f681614bff565b9250602084013567ffffffffffffffff80821115614312578283fd5b61431e87838801613fe5565b93506040860135915080821115614333578283fd5b5061434086828701613fe5565b9150509250925092565b6000806040838503121561435c578182fd5b823561436781614bff565b9150602083013580151581146141bb578182fd5b6000806040838503121561438d578182fd5b823561439881614bff565b946020939093013593505050565b6000806000606084860312156143ba578081fd5b83356143c581614bff565b95602085013595506040909401359392505050565b600080604083850312156143ec578182fd5b823567ffffffffffffffff80821115614403578384fd5b818501915085601f830112614416578384fd5b81356020614426613edd83614b36565b82815281810190858301838502870184018b1015614442578889fd5b8896505b8487101561446d57803561445981614bff565b835260019690960195918301918301614446565b5096505086013592505080821115614483578283fd5b5061449085828601613fe5565b9150509250929050565b6000602082840312156144ab578081fd5b81356001600160e01b03198116811461145a578182fd5b600080600080600060a086880312156144d9578283fd5b853567ffffffffffffffff808211156144f0578485fd5b6144fc89838a0161403f565b96506020880135915080821115614511578485fd5b61451d89838a0161403f565b95506040880135915080821115614532578485fd5b61453e89838a0161403f565b94506060880135915080821115614553578283fd5b506145608882890161403f565b925050608086013561457181614bff565b809150509295509295909350565b60008060008060808587031215614594578182fd5b843567ffffffffffffffff8111156145aa578283fd5b6145b6878288016140a4565b94505060208501356145c781614bff565b925060408501356145d781614bff565b9396929550929360600135925050565b6000806000606084860312156145fb578081fd5b833567ffffffffffffffff811115614611578182fd5b61461d868287016140a4565b935050602084013561462e81614bff565b929592945050506040919091013590565b60008060008060808587031215614654578182fd5b843567ffffffffffffffff8082111561466b578384fd5b614677888389016140a4565b9550602087013591508082111561468c578384fd5b506146998782880161403f565b93505060408501356145d781614bff565b6000602082840312156146bb578081fd5b5035919050565b6000806000606084860312156146d6578081fd5b8335925060208401356146e881614bff565b915060408401356146f881614bff565b809150509250925092565b60008060408385031215614715578182fd5b50508035926020909101359150565b6000815180845260208085019450808401835b8381101561477557815180516001600160a01b031688528301516bffffffffffffffffffffffff168388015260409096019590820190600101614737565b509495945050505050565b60008151808452815b818110156147a557602081850181015186830182015201614789565b818111156147b65782602083870101525b50601f01601f19169290920160200192915050565b6001600160a01b0391909116815260200190565b60006001600160a01b0385168252606060208301526148016060830185614780565b8281036040840152613adf8185614780565b6001600160a01b039290921682526bffffffffffffffffffffffff16602082015260400190565b60006020825261145a6020830184614724565b6020808252825182820181905260009190848201906040850190845b8181101561488557835183529284019291840191600101614869565b50909695505050505050565b901515815260200190565b60006020825261145a6020830184614780565b60208082526010908201527f737570706c7920696e636f727265637400000000000000000000000000000000604082015260600190565b6020808252818101527f43726561746f722073686172652073686f756c6420626520706f736974697665604082015260600190565b60208082526011908201527f746f6b656e496420696e636f7272656374000000000000000000000000000000604082015260600190565b6020808252600b908201527f6e6f7420616c6c6f776564000000000000000000000000000000000000000000604082015260600190565b60208082526010908201527f616d6f756e7420696e636f727265637400000000000000000000000000000000604082015260600190565b60208082526028908201527f455243313135353a207472616e736665722063616c6c6572206973206e6f742060408201527f617070726f766564000000000000000000000000000000000000000000000000606082015260800190565b60208082526010908201527f6d6f7265207468616e20737570706c7900000000000000000000000000000000604082015260600190565b60208082526019908201527f4163636f756e742073686f756c642062652070726573656e7400000000000000604082015260600190565b6020808252602e908201527f746f74616c20616d6f756e74206f662063726561746f7273207368617265207360408201527f686f756c64206265203130303030000000000000000000000000000000000000606082015260800190565b90815260200190565b600083825260406020830152614b0a6040830184614724565b949350505050565b60405181810167ffffffffffffffff81118282101715614b2e57fe5b604052919050565b600067ffffffffffffffff821115614b4a57fe5b5060209081020190565b60e01c90565b600060443d1015614b6a57610ea9565b600481823e6308c379a0614b7e8251614b54565b14614b8857610ea9565b6040513d600319016004823e80513d67ffffffffffffffff8160248401118184111715614bb85750505050610ea9565b82840192508251915080821115614bd25750505050610ea9565b503d83016020828401011115614bea57505050610ea9565b601f01601f1916810160200160405291505090565b6001600160a01b0381168114612a4a57600080fdfe455243313135353a207472616e7366657220746f206e6f6e2045524331313535526563656976657220696d706c656d656e746572455243313135353a204552433131353552656365697665722072656a656374656420746f6b656e73455243313135353a2062616c616e636520717565727920666f7220746865207a65726f20616464726573734f776e61626c653a206e6577206f776e657220697320746865207a65726f2061646472657373455243313135353a206275726e20616d6f756e7420657863656564732062616c616e6365455243313135353a2063616c6c6572206973206e6f74206f776e6572206e6f7220617070726f76656445434453413a20696e76616c6964207369676e6174757265202773272076616c7565455243313135353a207472616e7366657220746f20746865207a65726f2061646472657373455243313135353a207472616e736665722063616c6c6572206973206e6f74206f776e6572206e6f7220617070726f766564496e697469616c697a61626c653a20636f6e747261637420697320616c726561647920696e697469616c697a656445434453413a20696e76616c6964207369676e6174757265202776272076616c7565455243313135353a206275726e2066726f6d20746865207a65726f2061646472657373455243313135353a20696e73756666696369656e742062616c616e636520666f72207472616e73666572455243313135353a2073657474696e6720617070726f76616c2073746174757320666f722073656c66455243313135353a206163636f756e747320616e6420696473206c656e677468206d69736d61746368455243313135353a2069647320616e6420616d6f756e7473206c656e677468206d69736d61746368455243313135353a206d696e7420746f20746865207a65726f2061646472657373a26469706673582212204d144a5518c368dda1f011611182ad2382be291f99bb2802dad56265c296ce9964736f6c63430007060033",
  "immutableReferences": {},
  "source": "// SPDX-License-Identifier: MIT\n\npragma solidity >=0.6.2 <0.8.0;\npragma abicoder v2;\n\nimport \"protocol-contracts/tokens/contracts/erc-1155/ERC1155Base.sol\";\n\nimport \"hardhat/console.sol\";\nimport \"./lib/ERC1155Image.sol\";\n\ncontract EcoFiCommunityERC1155 is ERC1155Base, ERC1155Image {\n    event CreateEcoFiERC1155(address owner, string name, string symbol);\n\n    function __EcoFiERC1155_init(string memory _name, string memory _symbol, string memory baseURI, string memory contractURI, address _address) external initializer {\n        __Ownable_init_unchained();\n        __ERC1155Lazy_init_unchained();\n        __ERC165_init_unchained();\n        __Context_init_unchained();\n        __Mint1155Validator_init_unchained();\n        __ERC1155_init_unchained(\"\");\n        __HasContractURI_init_unchained(contractURI);\n        __ERC1155Burnable_init_unchained();\n        __RoyaltiesV2Upgradeable_init_unchained();\n        __ERC1155Base_init_unchained(_name, _symbol);\n        _setBaseURI(baseURI);\n        _setDefaultApproval(_address, true); // set the contract deployer as approved\n        emit CreateEcoFiERC1155(_msgSender(), _name, _symbol);\n    }\n\n    function mintWithImage(LibERC1155LazyMint.Mint1155Data memory data, string memory image, address to, uint256 _amount) public virtual {\n        address minter = address(data.tokenId >> 96);\n        address sender = _msgSender();\n\n        require(minter == sender || isApprovedForAll(minter, sender), \"ERC1155: transfer caller is not approved\");\n        require(_amount > 0, \"amount incorrect\");\n\n        if (_getSupply(data.tokenId) == 0) {\n            require(minter == data.creators[0].account, \"tokenId incorrect\");\n            require(data.supply > 0, \"supply incorrect\");\n            require(data.creators.length == data.signatures.length);\n\n            bytes32 hash = LibERC1155LazyMint.hash(data);\n            for (uint i = 0; i < data.creators.length; i++) {\n                address creator = data.creators[i].account;\n                if (creator != sender) {\n                    validate(creator, hash, data.signatures[i]);\n                }\n            }\n\n            _saveSupply(data.tokenId, data.supply);\n            _saveRoyalties(data.tokenId, data.royalties);\n            _saveCreators(data.tokenId, data.creators);\n            _setTokenURI(data.tokenId, data.tokenURI);\n            _setTokenImage(data.tokenId, image);\n        }\n\n        _mint(to, data.tokenId, _amount, \"\");\n    }\n\n    uint256[50] private __gap;\n}\n",
  "sourcePath": "/Users/sreckosmodis/Documents/Projects/Ecofi/ecofi-contracts/contracts/EcoFiCommunityERC1155.sol",
  "compiler": {
    "name": "solc",
    "version": "0.7.6+commit.7338295f.Emscripten.clang"
  },
  "schemaVersion": "3.4.1",
  "updatedAt": "2021-09-14T09:47:28.012Z",
  "devdoc": {
    "kind": "dev",
    "methods": {
      "balanceOf(address,uint256)": {
        "details": "See {IERC1155-balanceOf}. Requirements: - `account` cannot be the zero address."
      },
      "balanceOfBatch(address[],uint256[])": {
        "details": "See {IERC1155-balanceOfBatch}. Requirements: - `accounts` and `ids` must have the same length."
      },
      "baseURI()": {
        "details": "Returns the base URI set via {_setBaseURI}. This will be automatically added as a prefix in {tokenURI} to each token's URI, or to the token ID if no specific URI is set for that token ID."
      },
      "owner()": {
        "details": "Returns the address of the current owner."
      },
      "renounceOwnership()": {
        "details": "Leaves the contract without owner. It will not be possible to call `onlyOwner` functions anymore. Can only be called by the current owner. NOTE: Renouncing ownership will leave the contract without an owner, thereby removing any functionality that is only available to the owner."
      },
      "safeBatchTransferFrom(address,address,uint256[],uint256[],bytes)": {
        "details": "See {IERC1155-safeBatchTransferFrom}."
      },
      "safeTransferFrom(address,address,uint256,uint256,bytes)": {
        "details": "See {IERC1155-safeTransferFrom}."
      },
      "setApprovalForAll(address,bool)": {
        "details": "See {IERC1155-setApprovalForAll}."
      },
      "supportsInterface(bytes4)": {
        "details": "See {IERC165-supportsInterface}. Time complexity O(1), guaranteed to always use less than 30 000 gas."
      },
      "transferOwnership(address)": {
        "details": "Transfers ownership of the contract to a new account (`newOwner`). Can only be called by the current owner."
      }
    },
    "version": 1
  },
  "userdoc": {
    "kind": "user",
    "methods": {},
    "version": 1
  }
}